:100000000C9470010C9414130C943B130C94621315
:100010000C9489130C9498010C9498010C94B013CF
:100020000C9498010C9498010C94B81C0C943F1BF0
:100030000C9498010C9498010C9498010C949801DC
:100040000C9498010C9498010C9498010C949801CC
:100050000C9498010C9498010C9498010C94D7136B
:100060000C9498010C9498010C9498010C949801AC
:100070000C9498010C9498010C9498010C9498019C
:100080000C9498010C9498010C9498010C9498018C
:100090000C942F0F0C9498010C9498010C949801D7
:1000A0000C9498010C9498010C9498013215351514
:1000B000241528152E1556155615561539153D15A6
:1000C000411547154B155615511507060504010036
:1000D000080A0B0C0D090000000200090F000003C4
:1000E0000401000C000000000000000000000000FF
:1000F0000000000000040802011040804010204071
:10010000804080080204018040201002011080100D
:1001100020404020040404040403040502020202F7
:100120000403020202020606060606060404020290
:10013000020404000000002300260029002C002FE8
:100140000000000000250028002B002E00310000D8
:10015000000000240027002A002D003000080B00BA
:10016000020202010009040000010202000005244D
:1001700000100105240101010424020605240600E3
:10018000010705810310004009040100020A000074
:10019000000705020240000007058302400000122C
:1001A000010002EF0201409A230C800001010203CA
:1001B0000112010002000000409A230C800001019E
:1001C0000203014164616672756974004665617479
:1001D0006865722033327534000403090400407AE4
:1001E00010F35A00A0724E18090010A5D4E80000C0
:1001F000E87648170000E40B54020000CA9A3B005E
:100200000000E1F505000080969800000040420FD4
:10021000000000A08601000000102700000000E898
:1002200003000000006400000000000A000000005D
:10023000000100000000002C76D888DC674F0823FE
:10024000DFC1DFAE59E1B1B796E5E3E453C63AE664
:1002500051997696E8E6C28426EB898C9B62ED4044
:100260007C6FFCEFBC9C9F40F2BAA56FA5F4900593
:100270005A2AF75C936B6CF9676DC11BFCE0E40DC7
:1002800047FEF520E6B500D0ED902E0300943577BB
:10029000050080841E080000204E0A000000C80CE3
:1002A000333333330F986E12831141EF8D2114894C
:1002B0003BE65516CFFEE6DB18D1844B381BF77CA6
:1002C0001D901DA4BBE424203284725E228100C9EB
:1002D000F124ECA1E53D2700C0035B0D4D0EF516A2
:1002E00011241FBECFEFDAE0DEBFCDBF13E0A0E0E8
:1002F000B1E0E4E9FCE402C005900D92AE33B10731
:10030000D9F725E0AEE3B3E001C01D92A433B207F4
:10031000E1F712E0C0EED2E004C02297FE010E9495
:100320007F21C83DD107C9F70E9413170C944826B6
:100330000C94000080E00E94C61521E0892B09F48E
:1003400020E020938D0381E00E94C61521E0892BD7
:1003500009F420E020938C0380918B03882321F003
:1003600080918A03811109C080918B03811112C091
:1003700080918A03811163C00DC080918D0381112A
:1003800004C080918C03811150C080918D0388231B
:1003900019F11DC080918B03811105C080918A03E2
:1003A000882309F459C080918B038823A9F0809198
:1003B0008A03811111C080918D03882321F08091DF
:1003C0008C0381116EC080918D03811105C08091D5
:1003D0008C03882309F46FC0809186039091870372
:1003E000049734F0809188039091890301960CC0A2
:1003F00080918603909187038D3F9F4F6CF480918D
:1004000088039091890301979093890380938803CF
:10041000109287031092860380918D0380938B0343
:1004200080918C0380938A03089580918603909134
:10043000870301969093870380938603A6CF8091CC
:100440008D03811104C080918C038823B1F08091C9
:100450008D03882309F20CC080918D03882321F03D
:1004600080918C03882399F080918D038111B4CF02
:1004700080918C0381111FC0AFCF80918603909132
:10048000870301969093870380938603E0CF809142
:100490008603909187030196909387038093860348
:1004A000E3CF809186039091870301969093870311
:1004B0008093860388CF809186039091870301976C
:1004C000909387038093860387CF80E00E94C615B0
:1004D00021E0892B09F420E020938D0381E00E9424
:1004E000C61521E0892B09F420E020938C0380912C
:1004F0008B03882321F080918A03811109C08091A8
:100500008B03811112C080918A03811163C00DC0D9
:1005100080918D03811104C080918C03811150C0A2
:1005200080918D03882319F11DC080918B03811167
:1005300005C080918A03882309F459C080918B03F8
:100540008823A9F080918A03811111C080918D03C5
:10055000882321F080918C0381116EC080918D03DE
:10056000811105C080918C03882309F46FC08091AC
:10057000860390918703049734F0809188039091CB
:10058000890301960CC080918603909187038D3F6B
:100590009F4F6CF480918803909189030197909309
:1005A00089038093880310928703109286038091B9
:1005B0008D0380938B0380918C0380938A0308952D
:1005C000809186039091870301969093870380938F
:1005D0008603A6CF80918D03811104C080918C0386
:1005E0008823B1F080918D03882309F20CC080919B
:1005F0008D03882321F080918C03882399F08091CA
:100600008D038111B4CF80918C0381111FC0AFCFB6
:10061000809186039091870301969093870380933E
:100620008603E0CF80918603909187030196909393
:10063000870380938603E3CF80918603909187039D
:100640000196909387038093860388CF80918603D9
:10065000909187030197909387038093860387CFB8
:100660000F931F930E94C61590939E0380939D0342
:10067000209136013091370182179307A1F0892B21
:1006800091F40E94211460939103709392038093DC
:1006900093039093940380919D0390919E03909374
:1006A0003701809336010E9421140091910310912B
:1006B00092032091930330919403601B710B820B82
:1006C000930B00912E0110912F0120913001309158
:1006D0003101061717072807390758F480919D0341
:1006E00090919E0320913601309137018217930734
:1006F00011F480E00FC090933701809336010E947F
:1007000021146093910370939203809393039093C9
:10071000940381E01F910F9108958BE10E94E914E9
:10072000BC01882777FD8095982F0E9440209B016F
:10073000AC010E943D1F23E333E343E550E40E94F4
:10074000F42020E030E040E85AE30E94F4200895CD
:1007500040E067E08FE993E00E94420A66E571E0BD
:100760008FE993E00E94721741E067E08FE993E020
:100770000E94420A66E571E08FE993E00C947217DB
:10078000CF92EF920F9385E0C82E96E0E92E0AE013
:100790002BE04CE06DE08FE993E00E94FA0A0E94A2
:1007A00021146093990370939A0380939B03909311
:1007B0009C030E9421146093950370939603809389
:1007C00097039093980340E050E060E070E082E689
:1007D00093E00E94C01041E050E061E070E08EE3E1
:1007E00093E00F91EF90CF900C94C010FF920F9375
:1007F0001F93CF93DF93CDB7DEB72C970FB6F89446
:10080000DEBF0FBECDBFF42E122F21E0AB01BC0125
:10081000CE0107960E942B1E402F612F8FE993E097
:100820000E94420AFF2029F062E08FE993E00E94D3
:10083000540B8B859C850597B0F023E030E040E0B9
:1008400050E0BE01695F7F4FCE0101960E945B1EA2
:10085000BE016F5F7F4FCE0107960E94071ECE013B
:1008600001960E944D1D8B859C85049731F06EE5A5
:1008700071E08FE993E00E947217BE01695F7F4FBC
:100880008FE993E00E946417FF2061F065E0610F3B
:10089000402F8FE993E00E94420A63E08FE993E0E2
:1008A0000E94540BCE0107960E944D1D2C960FB648
:1008B000F894DEBF0FBECDBFDF91CF911F910F9196
:1008C000FF9008950F931F930E94211400919903A4
:1008D00010919A0320919B0330919C03601B710B34
:1008E000820B930B0091320110913301209134015E
:1008F00030913501061717072807390708F06FC030
:1009000082E693E00E94F6112DEC3CEC4CEC5DE3AA
:100910000E94F020181674F482E693E00E94F6110B
:1009200000E010E020E030E040E00E94F60360E6E6
:1009300071E008C040E060E08FE993E00E94420A65
:100940006AE571E08FE993E00E9472178EE393E00D
:100950000E94F6112DEC3CEC4CEC5DE30E94F02083
:10096000181674F48EE393E00E94F61101E010E093
:1009700020E030E040E00E94F60360E671E008C04D
:1009800041E060E08FE993E00E94420A6AE571E08D
:100990008FE993E00E94721740E066E08FE993E0F0
:1009A0000E94420A60E08FE993E00E94540B41E00C
:1009B00066E08FE993E00E94420A60E08FE993E0ED
:1009C0000E94540B0E9421146093990370939A0320
:1009D00080939B0390939C0381E080938E031F91EF
:1009E0000F9108950F931F9380918E03882309F42C
:1009F0005BC080918F0390919003892B09F052C0C6
:100A000082E693E00E94E41140E067E0811107C0B4
:100A10008FE993E00E94420A66E571E016C08FE913
:100A200093E00E94420A62E08FE993E00E94540B37
:100A300082E693E00E949E1100E010E028E030E0A2
:100A400040E00E94F60362E671E08FE993E00E94C5
:100A500072178EE393E00E94E41141E067E0811198
:100A600007C08FE993E00E94420A66E571E016C074
:100A70008FE993E00E94420A62E08FE993E00E94CE
:100A8000540B8EE393E00E949E1101E010E028E0F9
:100A900030E040E00E94F60362E671E08FE993E007
:100AA0000E94721710928E031F910F910895CF9399
:100AB000DF938FE993E00E943B0A40E064E08FE916
:100AC00093E00E94420A66E671E08FE993E00E949B
:100AD000721741E060E08FE993E00E94420A6FE6FE
:100AE00071E08FE993E00E94721766ED76E080E096
:100AF00090E00E9450148FE993E00E943B0A85E148
:100B00000E94C615892BD9F36AEF70E080E090E06F
:100B10000E94501460E871E08FE993E00E94721720
:100B2000C2E0D0E085E190E00E943003811139C03D
:100B3000809188039091890303972CF01092890388
:100B4000109288030AC0809188039091890397FFCF
:100B500004C0D0938903C093880341E060E08FE92B
:100B600093E00E94420A62E08FE993E00E94540BF6
:100B700080918803909189038130910541F0823002
:100B8000910541F0892B71F66BE871E005C069E9C8
:100B900071E002C067EA71E08FE993E00E9472178A
:100BA000C1CF80918803909189038130910559F0DC
:100BB0008230910531F0892B51F4DF91CF910C9463
:100BC000EA050E94EA05DF91CF910C941D07DF91A1
:100BD000CF910895CF92DF92EF92FF920F931F93E0
:100BE000CF93DF938FE993E00E943B0A65EB71E0BE
:100BF0008FE993E00E94721768EE73E080E090E066
:100C00000E9450148FE993E00E943B0A65EC71E06A
:100C10008FE993E00E94721781ED90E09093890331
:100C200080938803C8EED3E085E190E00E94300312
:100C3000811136C08091880390918903893E934049
:100C40002CF0D0938903C09388030AC08091880355
:100C50009091890397FF04C0109289031092880332
:100C60006091880370918903882777FD8095982F7C
:100C70000E94402020E030E040E251E40E94A51FA5
:100C80006B017C0101E010E020E030E041E00E94D7
:100C9000F60366ED71E08FE993E00E947217C4CF0E
:100CA0008FE993E00E943B0A40E067E08FE993E020
:100CB0000E94420A60E08FE993E00E94540B6FEDBE
:100CC00071E08FE993E00E94721741E067E08FE9DD
:100CD00093E00E94420A60E08FE993E00E94540B87
:100CE00068EE71E08FE993E00E94721782E693E06C
:100CF0000E949E1120E030E0A9010E94A11F181659
:100D00006CF040E060E08FE993E00E94420A6BE5FE
:100D100071E08FE993E00E9472170BC082E693E0C6
:100D20000E949E1100E010E020E030E040E00E94D0
:100D3000F60363E671E08FE993E00E94721785E1A4
:100D400090E00E943003882389F282E693E00E94BB
:100D5000D411882309F449C0B701A60182E693E0C3
:100D60000E948F12882309F440C082E693E00E941B
:100D70009E119B01AC01C701B6010E94A51FAB01EA
:100D8000BC0182E693E00E942F128FE993E00E945B
:100D90003B0A69EB71E08FE993E00E94721741E032
:100DA00060E08FE993E00E94420A60EF71E08FE912
:100DB00093E00E9472176CED75E080E090E00E9475
:100DC00050148FE993E00E943B0A8EE393E00E9467
:100DD0006E11811129C0DF91CF911F910F91FF906A
:100DE000EF90DF90CF900C941D078FE993E00E9465
:100DF0003B0A66EF71E08FE993E00E94721741E0D1
:100E000060E08FE993E00E94420A66E072E08FE9B9
:100E100093E00E94721768EB7BE080E090E00E9414
:100E200050140E945705B1CFDF91CF911F910F91C0
:100E3000FF90EF90DF90CF900895CF92DF92EF92E6
:100E4000FF920F931F938FE993E00E943B0A6BE0A0
:100E500072E08FE993E00E94721768EE73E080E021
:100E600090E00E9450148FE993E00E943B0A6BE1EE
:100E700072E08FE993E00E94721741E060E08FE931
:100E800093E00E94420A66E272E08FE993E00E94DA
:100E900072178EE393E00E949E1100E010E02AE0BA
:100EA00030E040E00E94F60363E671E08FE993E0F2
:100EB0000E94721785E190E00E943003882349F375
:100EC0008EE393E00E949E116B017C018FE993E019
:100ED0000E943B0A67E372E08FE993E00E94721779
:100EE00041E060E08FE993E00E94420A66E272E02E
:100EF0008FE993E00E9472178EE393E00E949E11A7
:100F000000E010E02AE030E040E00E94F60363E6F3
:100F100071E08FE993E00E94721785E190E00E94F2
:100F20003003882349F340E050E068EC72E48EE33C
:100F300093E00E948F128823A9F08EE393E00E9431
:100F40009E119B01AC0160E070E088EC92E40E948D
:100F5000A51FAB01BC01970186018EE393E00E94BF
:100F600054121EC08FE993E00E943B0A66EF71E0C5
:100F70008FE993E00E94721741E060E08FE993E00F
:100F80000E94420A66E072E08FE993E00E947217C5
:100F900068EB7BE080E090E00E9450140E945705CF
:100FA0008FE993E00E943B0A69EB71E08FE993E0DF
:100FB0000E94721741E060E08FE993E00E94420ACC
:100FC00060EF71E08FE993E00E9472176CED75E0BD
:100FD00080E090E00E9450148FE993E00E943B0A69
:100FE0008EE393E00E946E11811108C01F910F9152
:100FF000FF90EF90DF90CF900C94EA051F910F9136
:10100000FF90EF90DF90CF90089548EB5BE060E0B9
:1010100070E087EB93E00E94B00C20E032EC41E0FE
:1010200050E068EC74E087EB93E00E94670C61E0AD
:1010300087EB93E00E94310C8823A1F061E472E019
:101040008091F9039091FA030E9472174AE050E0F0
:1010500060E070E087EB93E00E942E0C87EB93E05A
:101060000E94660C41E060E087EB93E00E943F0D38
:1010700062E085E10E94571562E080E00E9457150A
:1010800062E081E00E94571541E050E06AE971E0BA
:1010900082E00E94C41241E050E065E672E083E025
:1010A0000E94C41220E042E060E18FE993E00E94D8
:1010B0005C0A46E251E060E08FE993E00E941A0B7F
:1010C0004EE151E061E08FE993E00E941A0B46E1A6
:1010D00051E062E08FE993E00E941A0B4EE051E08C
:1010E00063E08FE993E00E941A0B46E051E064E070
:1010F0008FE993E00E941A0B40E060E08FE993E0F3
:101100000E94420A63E572E08FE993E00E94721741
:1011100041E060E08FE993E00E94420A0E948D0363
:10112000AB01BC0122E030E08FE993E00E9413198B
:1011300063E672E08FE993E00E94721741E06BE092
:101140008FE993E00E94420A65E672E08FE993E03E
:101150000E94721768E672E08FE993E00E947217AE
:1011600060ED77E080E090E00E9450148FE993E01A
:101170000E943B0A85E10E94C615892B61F182E637
:1011800093E00E946E11882351F08EE393E00E9459
:101190006E11882321F08FE993E00C943B0A8FE9CC
:1011A00093E00E943B0A6CE672E08FE993E00E94B4
:1011B000721741E060E08FE993E00E94420A63E722
:1011C00072E08FE993E00E94721760ED77E080E0B3
:1011D00090E00E9450140E945705DDCF0F931F939B
:1011E000CF93DF930E94211460939503709396032D
:1011F0008093970390939803109289031092880329
:10120000C0918803D09189030E94A80340E068E060
:101210008FE993E00E94420A6FE772E08FE993E062
:101220000E94721741E06AE08FE993E00E94420A4F
:1012300067E872E08FE993E00E9472170E94211420
:101240000091950310919603209197033091980394
:10125000601B710B820B930B683E734081059105F7
:1012600038F48091880390918903892B09F45FC039
:101270000E94A80310928903109288030E946204BE
:101280008091880390918903029734F480918803B8
:101290009091890397FF04C01092890310928803EC
:1012A00080918803909189038C179D0731F00E94EB
:1012B000A803C0918803D0918903809188039091FD
:1012C0008903009719F00197C9F0D8CF40E067E093
:1012D0008FE993E00E94420A6CE872E08FE993E0A4
:1012E0000E94721785E190E00E943003882331F25A
:1012F000DF91CF911F910F910C94570540E067E06B
:101300008FE993E00E94420A66E972E08FE993E078
:101310000E94721785E190E00E943003882309F44F
:10132000ADCFDF91CF911F910F910C94A8030E9434
:10133000620484CF0E9462040E94F20485E190E07E
:101340000E94300381110C94EE080895CF93DF932F
:10135000EC0160E08E810E94901581E090E00E9497
:101360008A1461E08E810E94901581E090E00E94D5
:101370008A1460E08E810E94901584E690E0DF91EF
:10138000CF910C948A14EF92FF920F931F93CF93F7
:10139000DF938C01C0E0D0E0E62EF12CB7010C2EDB
:1013A00002C0759567950A94E2F76170F801EC0F39
:1013B000FD1F87810E9490152196C430D10571F7D9
:1013C000C801DF91CF911F910F91FF90EF900C9486
:1013D000A609EF92FF920F931F93CF93DF938C0197
:1013E000C0E0D0E0E62EF12CB7010C2E02C07595BE
:1013F00067950A94E2F76170F801EC0FFD1F878191
:101400000E9490152196C830D10571F7C801DF916F
:10141000CF911F910F91FF90EF900C94A6091F930D
:10142000CF93DF93EC01162F642F8C810E949015CF
:101430008D818F3F19F060E00E9490158F85612F9C
:1014400084FF06C0CE01DF91CF911F910C94E90972
:1014500070E084E0759567958A95E1F7CE010E946A
:10146000C309612FCE01DF91CF911F910C94C30965
:1014700040E00C940F0A61E00E94380A80ED97E08A
:101480000C948A14443008F043E0FC01238942178D
:1014900010F04FEF420FFC01E40FF11D2489260FDD
:1014A0002068622F0C94380AFC016089262F246082
:1014B000208B6C600C94380A0F931F93CF93DF93AB
:1014C000EC01423018F08F8588608F874B8B1C8A27
:1014D00080E48D8B6E8B70E0605C7F4F6F8B22237E
:1014E00029F0413019F48F8584608F8761E08C8109
:1014F0000E9457158D818F3F19F061E00E945715AA
:1015000061E08E810E94571500E010E08F8584FF16
:1015100003C088E090E002C084E090E0081719075B
:1015200054F4FE01E00FF11F61E087810E9457151E
:101530000F5F1F4FEBCF80E593EC0E948A1460E0B1
:101540008C810E94901560E08E810E9490158D81A3
:101550008F3F19F060E00E9490156F8564FD1DC0FB
:1015600063E0CE010E94C30984E991E10E948A14DC
:1015700063E0CE010E94C30984E991E10E948A14CC
:1015800063E0CE010E94C30986E990E00E948A14BC
:1015900062E0CE010E94C30916C06062CE010E94C3
:1015A000380A84E991E10E948A146F856062CE0155
:1015B0000E94380A86E990E00E948A146F85606272
:1015C000CE010E94380A6F856062CE010E94380AFF
:1015D00084E0888BCE010E94540ACE010E943B0A0F
:1015E00082E0898B66E0CE01DF91CF911F910F9150
:1015F0000C94380ACF92EF920F93FC01138212825F
:1016000081EA92E09183808364838FEF85834683B0
:1016100027830087E186C286138614861586168680
:10162000178620E041E060E1CF010F91EF90CF906D
:101630000C945C0ACF92DF92EF92FF920F931F936C
:10164000CF93DF9300D0CDB7DEB78C01677088E011
:10165000689FB00111246064C80149835A830E94C5
:10166000380A4981C42E5A81D52EE12CF12CD6019D
:101670006D916D01D801ED91FC910190F081E02D0B
:10168000C8010995BFEFEB1AFB0AE8E0EE16F1047A
:1016900071F70F900F90DF91CF911F910F91FF90F5
:1016A000EF90DF90CF90089541E00E940F0A81E013
:1016B00090E00895FC0114821382608388E08183A6
:1016C000128208958FEF93E00C94130EFC01748343
:1016D000638308951F93CF93DF9300D0CDB7DEB718
:1016E000162F682F8FEF93E04A8359830E942D0EA7
:1016F000612F8FEF93E00E94D40D5981652F8FEFFA
:1017000093E00E94D40D4A81642F8FEF93E00E94F2
:10171000D40D8FEF93E00F900F90DF91CF911F9139
:101720000C944A0E1F93CF93DF93182F682F8FEFDF
:1017300093E00E942D0E60E08FEF93E00E94D40DA5
:101740008FEF93E00E944A0E42E0612F8FEF93E00B
:101750000E942A0E8FEF93E00E94840D182F8FEFC6
:1017600093E00E94840DD12F20E0C22F9E01282BF0
:10177000C901DF91CF911F910895CF93DF93EC01C1
:101780004B815C814368516861E088810E946A0BEB
:10179000698170E080E090E00E94501488810E948E
:1017A000920B2A81022E02C0969587950A94E2F741
:1017B000222329F0811528E0920708F0906FDF912D
:1017C000CF910895CF93DF93EC014B815C81436807
:1017D000516B61E088810E946A0B698170E080E052
:1017E00090E00E94501488810E94920B2A81022E60
:1017F00002C0969587950A94E2F7222329F0811575
:1018000028E0920708F0906FDF91CF9108958F92B2
:101810009F92AF92BF92CF92DF92EF92FF926A01B6
:101820007B010E9421144B015C01C60ED71EE81EED
:10183000F91E0E942114681579058A059B0528F078
:10184000C616D706E806F906A0F7FF90EF90DF90DE
:10185000CF90BF90AF909F908F90089521E00C940F
:10186000070CCF92DF92EF92FF92CF93DF93EC01C0
:1018700061111EC00E942114CA80DB80EC80FD80B3
:101880006C197D098E099F096132710581059105E9
:1018900078F421E2C22ED12CE12CF12CC61AD70A01
:1018A000E80AF90A21E0B701A601CE010E94070C5F
:1018B0000E9421146A837B838C839D8381E0DF9166
:1018C000CF91FF90EF90DF90CF9008950895CF9241
:1018D000DF92EF92FF920F931F93CF93DF9300D08D
:1018E00000D0CDB7DEB77B018C010E5B1F4FF80136
:1018F000718360836BE1C62ED12CC70129833A83A3
:101900004B835C830E94E61629813A814B815C817E
:10191000811113C0F1E0CF1AD10879F064E670E0CC
:1019200080E090E029833A834B835C830E945014CB
:101930005C814B813A812981E0CFBA01A901F8018C
:10194000808191810F900F900F900F90DF91CF9138
:101950001F910F91FF90EF90DF90CF900C94E016C5
:10196000FC01EC5BFF4F1082118212821382FC019A
:101970001282138214821582411551056105710589
:1019800011F00C942E0C08958E5B9F4FDC018D910D
:101990009C91DC01ED91FC910680F781E02D099589
:1019A00008958E5B9F4FDC018D919C91DC01ED9140
:1019B000FC910480F581E02D09950895FF920F9325
:1019C0001F93CF93DF93EC01F62E0E9421146A83BC
:1019D0007B838C839D838E010E5B1F4F67EB72E0D0
:1019E000F801808191810E9472174AE050E06F2DCA
:1019F000F801808191810E9421186EEB72E0F8015C
:101A0000808191810E94721742E350E060E070E0B3
:101A1000CE01DF91CF911F910F91FF900C942E0C6E
:101A20001F93CF93DF93EC01162F8E89882311F13A
:101A3000CE010E94D10C811102C085E61CC0CE01EE
:101A40000E94D10C8823C9F3CE010E94C40C8836B1
:101A500089F048F4883569F0833689F7612FCE0123
:101A60000E94DE0C07C0813729F0863741F786E7F0
:101A700002C01E8A83E6DF91CF911F9108951F93C4
:101A8000CF93DF93EC01142F611105C01E8BDF9102
:101A9000CF911F91089581E08E8B60E0CE010E946E
:101AA000100D833699F341E050E060E070E0CE0124
:101AB0000E942E0CF2CF1092BD031092BE03109222
:101AC000BF031092C0031092C1031092C203109280
:101AD000C3031092C4031092C5031092C603109260
:101AE000C7031092C8031092C9031092CA03109240
:101AF000CB031092CC03089580912F0490E02091A5
:101B00003004821B910908952091300480912F04A4
:101B1000281750F4E22FF0E0EF5CFB4F808190E05B
:101B20002F5F2093300408958FEF9FEF0895E09189
:101B3000300480912F04E81730F4F0E0EF5CFB4FA5
:101B4000808190E008958FEF9FEF08950895CF92E0
:101B5000DF92EF92FF920F931F93CF93DF937C015D
:101B6000CB018A0120910B04222389F0EB016B0148
:101B7000C40ED51ECC15DD0569F06991D701ED9134
:101B8000FC910190F081E02DC7010995F3CF642FFE
:101B90000E94060FC801DF91CF911F910F91FF9016
:101BA000EF90DF90CF900895CF93DF931F92CDB742
:101BB000DEB7698320910B042223D1F020910C041D
:101BC000203240F021E030E0FC013383228380E0CA
:101BD00090E015C080910D04E82FF0E0E25FFB4F2C
:101BE000998190838F5F80930D0480930C0405C0CE
:101BF00061E0CE0101960E94060F81E090E00F9017
:101C0000DF91CF910895FC011382128248EE53E0D8
:101C100060E070E0448355836683778383E193E0DB
:101C20009183808308951092300410922F041092B3
:101C30000D0410920C040C94510E862F413208F0C2
:101C400040E261E374E00E946F0E109230048093D2
:101C50002F04089521E00C941D0E81E080930B0465
:101C600060932E0410920D0410920C0408950F93AB
:101C7000062F21E040910C046EE074E080912E0468
:101C80000E94B30E10920D0410920C0410920B04DB
:101C90000F91089561E00C94370E8FEF93E00C9450
:101CA000030E1092BE0481E08093BC041092BB042A
:101CB00061E082E00E94901561E083E00E9490154F
:101CC000E9EBF0E080818E7F808380818D7F80834F
:101CD00080E28093B80085E48093BC00089541328F
:101CE00008F03FC09091BE049111FCCF91E0909319
:101CF000BE042093BC042FEF20935104109296044D
:101D0000240F209395049093BD049091BD04880FF7
:101D1000892B8093BD048091BB04813041F41092E3
:101D2000BB048091BD048093BB0085EC01C085EEAF
:101D30008093BC008091BE048130E1F380919604D1
:101D4000841710F44091960427E934E0FB01D9018F
:101D50008A2F821B841718F48D918193F9CF842FD9
:101D6000089580E008950F93413208F046C09091A5
:101D7000BE049111FCCF92E09093BE040093BC048A
:101D80009FEF909351041092960440939504FB01A9
:101D900067E974E0DB019A2F961B941718F4919170
:101DA0009D93F9CF1092BD049091BD04880F892BAB
:101DB0008093BD048091BB04813041F41092BB0438
:101DC0008091BD048093BB0085EC01C085EE8093BB
:101DD000BC00222321F08091BE048230E1F3809187
:101DE00051048F3F61F080915104803251F0809115
:101DF0005104803341F483E007C081E005C080E0F6
:101E000003C082E001C084E00F910895613298F42C
:101E10002091BE04243089F460937304FC0185E7AB
:101E200094E0DC012A2F281B261718F421912D930A
:101E3000F9CF80E0089581E0089582E0089585ED6E
:101E40008093BC008091BC0084FDFCCF1092BE0446
:101E5000089585EC8093BC001092BE0408951F92F3
:101E60000F920FB60F9211242F933F934F935F93CE
:101E70006F937F938F939F93AF93BF93EF93FF9352
:101E80008091B900887F803609F49CC068F588325B
:101E900009F45BC090F4803109F454C038F488230D
:101EA00009F4F5C0883009F44DC0F5C0883109F453
:101EB0004CC0803209F45DC0EEC0803409F468C0C3
:101EC00048F4803309F455C0883309F0E4C08093A6
:101ED0005104A8C0803509F44FC0883509F45DC0AD
:101EE000883409F0D8C0D5C0883909F4C6C0A8F430
:101EF000883709F467C038F4883609F463C080373E
:101F000009F460C0C8C0883809F4B7C0803909F442
:101F10005FC0803809F0BFC05BC0803B09F485C05A
:101F200038F4803A09F466C0883A09F47EC0B3C038
:101F3000803C09F4A6C0883C09F4A3C0883B09F49E
:101F400089C0A9C08091BD0410C090919604809171
:101F50009504981770F5E091960481E08E0F8093B8
:101F60009604F0E0E956FB4F80818093BB0085EC3E
:101F700085C0809351048DC0E091960481E08E0F5E
:101F8000809396048091BB00F0E0E956FB4F80837C
:101F900090919604809195046DC0E091960481E043
:101FA0008E0F809396048091BB00F0E0E956FB4FC2
:101FB00080838091BC0481116CC081E08093BB045C
:101FC00084EA60C083E08093BE0410925204CFCFB5
:101FD00080915204803208F050C0E091520481E0B8
:101FE0008E0F809352048091BB00F0E0ED5AFB4FBE
:101FF0008083BDCF80915204803230F4E09152044E
:10200000F0E0ED5AFB4F10820E941F0F60915204C6
:1020100070E0E091B704F091B80483E594E009958D
:10202000109252040E94290F36C084E08093BE04AF
:102030001092740410927304E091B904F091BA0400
:10204000099580917304811105C081E08093730428
:1020500010927504E091740481E08E0F80937404F3
:10206000F0E0EB58FB4F80818093BB0090917404AB
:1020700080917304981708F47ACF85E88093BC00A8
:102080000AC085EC8093BC001092BE0404C010927C
:1020900051040E941F0FFF91EF91BF91AF919F914B
:1020A0008F917F916F915F914F913F912F910F9001
:1020B0000FBE0F901F901895AF92BF92CF92DF92F4
:1020C000EF92FF920F931F93CF93DF931F92CDB7A1
:1020D000DEB75C01D62EC72E062F172F7C0184E0B9
:1020E000E80EF11CF80161918F01C50169830E941E
:1020F000A5236981681719F0C5010E94AD23FFEF80
:10210000AF1ABF0AAE14BF0469F78D2D9C2D0F9036
:10211000DF91CF911F910F91FF90EF90DF90CF90C3
:10212000BF90AF900895CF92DF92EF92FF920F93FE
:102130001F93CF93DF9300D0CDB7DEB76C018B0137
:102140007C0184E0E80EF11CC60169837A830E9459
:10215000A523F80181938F01FFEFCF1ADF0A698170
:102160007A81CE14DF0481F7CB010F900F90DF91BD
:10217000CF911F910F91FF90EF90DF90CF90089536
:10218000CF92DF92EF92FF920F931F93CF93DF9343
:10219000EC016B018A0181ED90E09F878E878FE0D3
:1021A00090E0998B888B1A8A1B8A1C8A1D8A1E8A4A
:1021B0001F8A188E198E1A8E7E018FE1E80EF11C8F
:1021C00068E4C7010E945A0BD982C8821D830C8320
:1021D000C7010E94620B01151105E1F001301105E4
:1021E000A9F54AE057ED63E27CE34E835F8368879D
:1021F000798740E050E060E87FE34A875B876C873F
:102200007D8780E096E09B838A8340E050E060E831
:1022100074E418C042E558EB6EEC7FE34E835F83B5
:102220006887798740E050E068E270E44A875B871E
:102230006C877D8780E09AE09B838A8340E050E052
:1022400060E873E44B8F5C8F6D8F7E8FDF91CF9151
:102250001F910F91FF90EF90DF90CF900895CF9254
:10226000DF92EF92FF92CF93DF93EC018881998107
:102270002A89211128C0BE016D5E7F4F23E0880F9F
:10228000991F2A95E1F70E94931081E08A8BCB88F1
:10229000DC88ED88FE882E813F8148855985C701FD
:1022A000B6010E94A11F87FD0AC02A853B854C8587
:1022B0005D85C701B6010E94F020181624F41B8A20
:1022C0001C8A1D8A1E8A6B897C898D899E89DF9173
:1022D000CF91FF90EF90DF90CF900895CF930E9421
:1022E0002F11C1E020E030E0A9010E94F020181673
:1022F0000CF0C0E08C2FCF910895CF93DF93EC01C9
:10230000888199812C813D812130310561F433E050
:10231000880F991F3A95E1F7BE01695E7F4F0496D9
:102320000E94931004C01F8A188E198E1A8E6F890E
:10233000788D898D9A8DDF91CF9108950F931F939A
:10234000CF93DF93EC018C01015E1F4F6A817B818B
:10235000C8010E94660B88819981009721F4C80109
:102360000E94BD0B05C00197B9F4C8010E94E20BA1
:10237000BC01882777FD8095982F0E9440202B8DE7
:102380003C8D4D8D5E8D0E94F42020E03EEF4FEF9E
:1023900056E40E94A51F03C060E070E0CB01DF910E
:1023A000CF911F910F910895CF930E949E11C1E08C
:1023B0002AE037ED43E25CE30E94F02018160CF0AF
:1023C000C0E08C2FCF910895CF93DF93EC010E9452
:1023D0006E11882339F0CE010E94D411882311F0A8
:1023E00081E001C080E0DF91CF910895CF92DF922C
:1023F000EF92FF92CF93DF93EC010E94E4118823C8
:1024000051F0CE010E949E1120E030E0A9010E940F
:10241000F020181624F060E070E0CB0119C0CE0166
:102420000E949E116B017C01CE010E947D119B01D7
:10243000AC01C701B6010E943C1F6B017C01CE01BB
:102440000E942F119B01AC01C701B6010E94F4202C
:10245000DF91CF91FF90EF90DF90CF9008950F9391
:102460001F93CF93DF9300D000D0CDB7DEB78C01A0
:1024700049835A836B837C83FC0180819181BE01F7
:102480006F5F7F4F43E0880F991F4A95E1F70E94E5
:102490005C10F801128A0F900F900F900F90DF914F
:1024A000CF911F910F910895EF92FF920F931F9379
:1024B000CF93DF93CDB7DEB728970FB6F894DEBF82
:1024C0000FBECDBF7C0149835A836B837C830D8310
:1024D0001E832F833887FC010081118153E0000F98
:1024E000111F5A95E1F7BE016F5F7F4FC8010E942F
:1024F0005C10BE016B5F7F4FC80104960E945C10A8
:10250000F701128A28960FB6F894DEBF0FBECDBF32
:10251000DF91CF911F910F91FF90EF900895CF928F
:10252000DF92EF92FF92CF93DF93EC016A017B0180
:102530000E949E119B01AC01C701B6010E94A51F1C
:102540002E813F81488559850E94F02018169CF401
:10255000CE010E949E119B01AC01C701B6010E94F1
:10256000A51F2A853B854C855D850E94A11F87FF9D
:1025700002C081E001C080E0DF91CF91FF90EF9039
:10258000DF90CF9008950895853008F04CC0E82F73
:10259000F0E0EE0FFF1FE85CFE4F71836083823036
:1025A000E1F018F4813069F004C0833019F184300F
:1025B00071F1809169008C7F842B80936900E89A87
:1025C000089580916900440F551F440F551F837F64
:1025D000842B80936900E99A08958091690034E022
:1025E000440F551F3A95E1F78F7C842B8093690047
:1025F000EA9A08958091690026E0440F551F2A95B4
:10260000E1F78F73842B80936900EB9A0895809192
:102610006A0094E0440F551F9A95E1F78F7C842B54
:1026200080936A00EE9A08951F920F920FB60F9250
:1026300011242F933F934F935F936F937F938F93C7
:102640009F93AF93BF93EF93FF93E0913801F09185
:1026500039010995FF91EF91BF91AF919F918F91B2
:102660007F916F915F914F913F912F910F900FBE8E
:102670000F901F9018951F920F920FB60F92112472
:102680002F933F934F935F936F937F938F939F937A
:10269000AF93BF93EF93FF93E0913A01F0913B0129
:1026A0000995FF91EF91BF91AF919F918F917F918C
:1026B0006F915F914F913F912F910F900FBE0F90AF
:1026C0001F9018951F920F920FB60F9211242F93FF
:1026D0003F934F935F936F937F938F939F93AF93AA
:1026E000BF93EF93FF93E0913C01F0913D01099579
:1026F000FF91EF91BF91AF919F918F917F916F91DA
:102700005F914F913F912F910F900FBE0F901F90AF
:1027100018951F920F920FB60F9211242F933F938B
:102720004F935F936F937F938F939F93AF93BF93D9
:10273000EF93FF93E0913E01F0913F010995FF91E6
:10274000EF91BF91AF919F918F917F916F915F9129
:102750004F913F912F910F900FBE0F901F901895A2
:102760001F920F920FB60F9211242F933F934F9306
:102770005F936F937F938F939F93AF93BF93EF93E9
:10278000FF93E0914001F09141010995FF91EF9194
:10279000BF91AF919F918F917F916F915F914F9179
:1027A0003F912F910F900FBE0F901F9018951F9281
:1027B0000F920FB60F9211242F933F938F939F93F5
:1027C000AF93BF938091C0049091C104A091C204C3
:1027D000B091C3043091BF0426E0230F2D3720F4BD
:1027E0000296A11DB11D05C029E8230F0396A11D66
:1027F000B11D2093BF048093C0049093C104A093A3
:10280000C204B093C3048091C4049091C504A09104
:10281000C604B091C7040196A11DB11D8093C404E4
:102820009093C504A093C604B093C704BF91AF9121
:102830009F918F913F912F910F900FBE0F901F90FE
:1028400018952FB7F8946091C0047091C1048091DD
:10285000C2049091C3042FBF08953FB7F8948091AC
:10286000C4049091C504A091C604B091C70426B5D4
:10287000A89B05C02F3F19F00196A11DB11D3FBFB8
:102880006627782F892F9A2F620F711D811D911D48
:1028900043E0660F771F881F991F4A95D1F7089567
:1028A0008F929F92AF92BF92CF92DF92EF92FF9260
:1028B0006B017C010E942D144B015C01C114D104F9
:1028C000E104F104F1F00E94A01E0E942D14681989
:1028D00079098A099B09683E73408105910570F367
:1028E00021E0C21AD108E108F10888EE880E83E0E1
:1028F000981EA11CB11CC114D104E104F10429F7F4
:10290000DDCFFF90EF90DF90CF90BF90AF909F9082
:102910008F9008958330910528F0880F991F0497B0
:102920000197F1F70895789484B5826084BD84B5E9
:10293000816084BD85B5826085BD85B5816085BDBA
:10294000EEE6F0E0808181608083E1E8F0E01082D3
:10295000808182608083808181608083E0E8F0E014
:10296000808181608083E1E9F0E080818260808302
:10297000808181608083E0E9F0E0808181608083F4
:10298000E1ECF0E0808184608083808182608083DC
:10299000808181608083E3ECF0E0808181608083CE
:1029A000E0ECF0E0808182608083E2ECF0E0808106
:1029B00081608083EAE7F0E08081846080838081A9
:1029C0008260808380818E7F808380818068808325
:1029D0000895823108F08251E82FF0E0E653FF4F6E
:1029E000E49180917B00E3FB222720F930E095E021
:1029F000220F331F9A95E1F78F7D822B80937B0006
:102A0000E7708091420120E4829FC0011124E82BED
:102A1000E0937C0080917A00806480937A008091BA
:102A20007A0086FDFCCF809178002091790090E0BB
:102A3000922B089590E0FC013197EF30F105B0F54D
:102A4000EA5AFF4F0C947D21809180008F7703C05C
:102A5000809180008F7D8093800008958091800018
:102A6000877FF9CF84B58F7702C084B58F7D84BD11
:102A70000895809190008F7707C0809190008F7D9E
:102A800003C080919000877F80939000089580918B
:102A9000C0008F7703C08091C0008F7D8093C000FD
:102AA00008958091C200877F8093C2000895CF93DC
:102AB000DF9390E0FC01EB50FF4F2491FC01EC5EB2
:102AC000FE4F8491882349F190E0880F991FFC0103
:102AD000E15BFE4FA591B4918F5B9E4FFC01C591C8
:102AE000D4919FB7611108C0F8948C9120958223EE
:102AF0008C93888182230AC0623051F4F8948C91BF
:102B0000322F309583238C938881822B888304C055
:102B1000F8948C91822B8C939FBFDF91CF91089575
:102B20000F931F93CF93DF931F92CDB7DEB7282F5C
:102B300030E0F901EA52FF4F8491F901EB50FF4F69
:102B40001491F901EC5EFE4F04910023C9F0882333
:102B500021F069830E941A156981E02FF0E0EE0FE1
:102B6000FF1FEF5BFE4FA591B4919FB7F8948C9136
:102B7000611103C01095812301C0812B8C939FBFED
:102B80000F90DF91CF911F910F910895CF93DF9315
:102B9000282F30E0F901EA52FF4F8491F901EB5000
:102BA000FF4FD491F901EC5EFE4FC491CC2391F01C
:102BB00081110E941A15EC2FF0E0EE0FFF1FED5C63
:102BC000FE4FA591B4912C912D2381E090E021F44A
:102BD00080E002C080E090E0DF91CF910895CF9334
:102BE000DF931F92CDB7DEB76983DC01ED91FC91D5
:102BF0000280F381E02D41E050E0BE016F5F7F4F26
:102C000009950F90DF91CF910895CF93DF93EC0159
:102C10008C859D8597FF05C082E00E94181A9D87CC
:102C20008C878C859D85DF91CF91089583E00C94EE
:102C3000AE1CFC018485958597FD06C082E00E944C
:102C4000C11990E00196089582E00E94C11990E0B8
:102C50000895FC018485958597FD05C02FEF3FEF12
:102C600035872487089582E00C94181ACF93DF9358
:102C7000EC0180914E01882331F083E00E94491AD3
:102C80001816190634F081E090E09B838A8380E077
:102C900090E0DF91CF910895FC0120812E5F208389
:102CA00042E450E06DE571E080E80C94E31AFC0129
:102CB00021818081813A59F4213209F04BC047E0EB
:102CC00050E067E471E080E00E94E31A5EC0813268
:102CD00009F040C0233289F4838190E0982F88273F
:102CE0003281832BA0E0B0E08093430190934401B4
:102CF000A0934501B09346010FC0203239F467E03C
:102D000070E087E491E00E94141B09C0223221F494
:102D1000828180934E0103C02D7F2032B1F58091D6
:102D20001805811103C0E0E0F8E002C0EEEFFAE020
:102D30008091470190914801A0914901B0914A01C9
:102D4000803B9440A105B10511F580914E0180FFB3
:102D500003C01DC080E00895EE3F2AE0F20731F085
:102D6000808191819093FF0A8093FE0A87E797E71D
:102D7000918380832BE088E190E00FB6F894A895CA
:102D8000809360000FBE2093600081E0089588E189
:102D90000FB6F89480936000109260000FBEA89563
:102DA000EE3F8AE0F80739F08091FE0A9091FF0A21
:102DB00091838083EACF1092FF0A1092FE0AE5CF3A
:102DC0002FEF3FEFFC01358724870895CF93C09103
:102DD0004E016AE070E080E090E00E94501481E0D3
:102DE000C11101C080E0CF9108951092CB041092E0
:102DF000CA0488EE93E0A0E0B0E08093CC04909306
:102E0000CD04A093CE04B093CF0483E293E09093DB
:102E1000C9048093C8048FEF9FEF9093D5048093EB
:102E2000D404089508950E9493140E94121789E112
:102E300095E00E94321D0E940508C0E0D0E00E948B
:102E40009A092097E1F30E940000F9CFCF92DF9218
:102E5000EF92FF920F931F93CF93DF937C016A0150
:102E6000EB0100E010E00C151D0571F06991D70130
:102E7000ED91FC910190F081E02DC7010995892B1E
:102E800019F00F5F1F4FEFCFC801DF91CF911F9156
:102E90000F91FF90EF90DF90CF900895611571052D
:102EA00081F0DB010D900020E9F7AD01415051099F
:102EB000461B570BDC01ED91FC910280F381E02D64
:102EC000099480E090E00895DC01ED91FC91DB0134
:102ED00014964D915C9115976D917C910280F381D0
:102EE000E02D09940C944E17DC01ED91FC910190BA
:102EF000F081E02D09948F929F92AF92BF92DF9262
:102F0000EF92FF920F931F93CF93DF93CDB7DEB76E
:102F1000A1970FB6F894DEBF0FBECDBF7C01F42F92
:102F2000D52ECB0119A2223008F42AE08E010F5DC4
:102F30001F4F822E912CA12CB12C6F2F7D2DA5011E
:102F400094010E945B21F22FD32ECA010150110976
:102F50006A3014F4E0E301C0E7E3E60FD801EC9334
:102F6000232B242B252B49F7B801C7010E944E17AC
:102F7000A1960FB6F894DEBF0FBECDBFDF91CF9103
:102F80001F910F91FF90EF90DF90BF90AF909F90B7
:102F90008F900895CF92DF92EF92FF920F931F933D
:102FA000CF93DF93EC016A017B012115310579F4A0
:102FB000E881F9810190F081E02D642FDF91CF91BC
:102FC0001F910F91FF90EF90DF90CF9009942A30DE
:102FD0003105E9F477FF1AC06DE20E9474178C0185
:102FE00044275527BA014C195D096E097F092AE06B
:102FF000CE010E947B17800F911FDF91CF911F910F
:103000000F91FF90EF90DF90CF9008952AE0B701E5
:10301000A601CE01DF91CF911F910F91FF90EF900C
:10302000DF90CF900C947B172115310541F4DC0122
:10303000ED91FC910190F081E02D642F09940C94A6
:103040007B179A01462F50E060E070E00C94141852
:103050004F925F926F927F928F929F92AF92BF92A8
:10306000CF92DF92EF92FF920F931F93CF93DF9354
:10307000EC016A017B01B22E9A01AB01C701B601D6
:103080000E945721882319F06FE273E027C02601C0
:103090003701E89477F82FEF3FEF4FE75FE7C30181
:1030A000B2010E94572181110DC02FEF3FEF4FE772
:1030B0005FE7C301B2010E94A11F18161CF463E36D
:1030C00073E00CC02FEF3FEF4FE75FE4C701B6019D
:1030D0000E94F0201816ACF467E373E0CE01DF9194
:1030E000CF911F910F91FF90EF90DF90CF90BF9005
:1030F000AF909F908F907F906F905F904F900C94C7
:103100004E172FEF3FEF4FE75FECC701B6010E946C
:10311000A11F87FDE1CF20E030E0A901C701B60182
:103120000E94A11F87FF0AC06DE2CE010E947417A2
:103130008C01F7FAF094F7F8F09402C000E010E088
:10314000A12C60E070E080E09FE3AB1441F020E050
:1031500030E040E251E40E94A51FA394F6CF9B010A
:10316000AC01C701B6010E943D1F6B017C010E94AA
:1031700012202B013C010E943E209B01AC01C701A3
:10318000B6010E943C1F6B017C012AE0B301A20141
:10319000CE010E947B17080F191FBB2039F06BE38B
:1031A00073E0CE010E944E17080F191F7B2C772069
:1031B00041F120E030E040E251E4C701B6010E9455
:1031C000F4206B017C010E940D204B01AA2497FC86
:1031D000A094BA2C2AE030E0B501A401CE010E94EF
:1031E000CA17080F191FC501B4010E9440209B0196
:1031F000AC01C701B6010E943C1F6B017C017A94AF
:10320000D6CFC801DF91CF911F910F91FF90EF9022
:10321000DF90CF90BF90AF909F908F907F906F90F6
:103220005F904F9008950C94281840911D0550917F
:103230001E0520911B0530911C0542175307B4F45D
:103240009091E8009570E1F39091E80092FD19C02B
:103250008093F10080911D0590911E0501968F735A
:103260009927892B19F48EEF8093E80080911D0532
:1032700090911E05019690931E0580931D0581E097
:10328000089580E00895CF92DF92EF92FF920F931E
:103290001F93CF93DF931F92CDB7DEB7082F162F62
:1032A000F42E862F880F8E5F99830E94151983E074
:1032B0000E941519E02EC02E9981D92E8C2D8E19C1
:1032C000811798F4F601F7FE02C0849101C0808155
:1032D0000E941519082F80E00E9415198023FFEF26
:1032E000CF1ADF0A8111EACF01C081E00F90DF9190
:1032F000CF911F910F91FF90EF90DF90CF900895A5
:103300008091D70081608093D70080EA8093D800B5
:1033100089B58F7E89BD89B5826089BD09B400FEFB
:10332000FDCF61E070E080E090E00E945014809159
:10333000D8008F7C80618093D8008091E000807FEE
:103340008093E0000895CF93DF931F92CDB7DEB74F
:103350001982CE0101960E944C160E94281FBE01C0
:103360006F5F7F4F0E94A11E89810F90DF91CF91E7
:1033700008952FB7FC012083F89467706093E900EB
:103380000895CF93DF931F92CDB7DEB7682FCE019C
:1033900001960E94B9198091F20099819FBF0F9008
:1033A000DF91CF910895FF920F931F93CF93DF93F7
:1033B00000D0CDB7DEB7F62E8A0190912105992372
:1033C00011F057FF03C08FEF9FEF2AC0682FCE0187
:1033D00001967A830E94B9198091F20090E0A801C9
:1033E0007A81801791070CF4AC01EF2DF72FF40EC2
:1033F00084E6FE1631F0809322059091F1009193BE
:10340000F8CF4115510521F08091F200882321F079
:1034100089818FBFCA0104C08BE68093E800F8CF92
:103420000F900F90DF91CF911F910F91FF90089512
:10343000CF93DF931F92CDB7DEB741E050E0BE01DE
:103440006F5F7F4F0E94D319019719F4898190E033
:1034500002C08FEF9FEF0F90DF91CF910895CF9330
:10346000DF931F92CDB7DEB7682FCE0101960E9481
:10347000B9199091E800892F807295FF04C090914E
:10348000F20080E4891B99819FBF0F90DF91CF915B
:1034900008956F927F928F929F92AF92BF92CF9238
:1034A000DF92EF92FF920F931F93CF93DF931F92C0
:1034B000CDB7DEB7782E7B01C42EB52E80912105C5
:1034C000882369F0042F152F8AEFD82E872D80725C
:1034D000982E9AE3A92E872D8074882E11C08FEF25
:1034E0009FEF56C0872D0E942F1A682E81110CC0A5
:1034F000DA94A9F361E070E080E090E00E9450145B
:103500000115110579F73BC0282F30E0021713078A
:103510000CF4602E672DCE0101960E94B91980919E
:10352000E80085FF29C0262D30E0021B130B9920EF
:1035300039F06A948FEF6816B1F01092F100F9CF6C
:10354000F701862D77FE07C0815058F09491909333
:10355000F1003196F9CF815020F091919093F100D4
:10356000FACFE20EF31E8091E80085FF0EC0011530
:10357000110511F4811009C089818FBFC1CF84E684
:10358000809323058C2D9B2D03C0A092E800F4CFDF
:103590000F90DF91CF911F910F91FF90EF90DF90EF
:1035A000CF90BF90AF909F908F907F906F90089535
:1035B0001092E90010921E0510921D0590931C05B3
:1035C00080931B050895CF92DF92FF920F931F9374
:1035D000CF93DF9300D0CDB7DEB7F82E8A016B0111
:1035E00001151105B1F0F601F7FE02C0849101C08A
:1035F000808149835A830E94151901501109FFEFF8
:10360000CF1ADF0A49815A818111EACF8FEF9FEFEC
:1036100001C0CA010F900F90DF91CF911F910F91C0
:10362000FF90DF90CF900895CF93DF939B01A4E6A6
:10363000BBEF21153105F9F0A9012134310514F052
:1036400040E450E0E091E800E2FFFCCFFB01E21B28
:10365000F30BE80FF91FCE2FC40FCE1729F0D0912E
:10366000F100D0833196F9CFA0932205B093E80002
:10367000241B350BDECFCB01DF91CF9108951F9234
:103680000F920FB60F921124DF92EF92FF920F93D9
:103690001F932F933F934F935F936F937F938F93DA
:1036A0009F93AF93BF93EF93FF93CF93DF93CDB7E8
:1036B000DEB76C97DEBFCDBF1092E9008091E800C5
:1036C00083FF2EC1FE0175968F01AE01435E5F4FF1
:1036D0009F012F5F3F4F8091F100808324173507B2
:1036E00011F0F901F5CF84E68093220582EF8093F3
:1036F000E8005D8957FF05C08091E80080FFFCCF9E
:1037000003C08EEF8093E800852F807609F0EFC02C
:103710004E898F89D88C41110CC0503829F4809182
:1037200020058093F10002C01092F1001092F10088
:10373000F0C0282F30E03D29413051F45111E9C04B
:103740002130310509F0E5C0809120058D7F0BC047
:10375000433061F45111DDC02130310509F0D9C089
:1037600080912005826080932005D3C0453041F4CC
:103770009091E80090FFFCCF80688093E300C9C07F
:10378000463009F08BC0EB8CFC8C22E0D2122CC0AE
:1037900080E090E00E94D81A0E94A31999E08E015F
:1037A0000F5F1F4FF801292F11922A95E9F799838E
:1037B000DA8291E09E8390EA98879AEF9987209128
:1037C0001D0530911E05275F3F4F3C832B838D8362
:1037D000C7010E94D81A49E050E0B80180E00E9479
:1037E000E31A0E94A31995C0C7010E94D81A0E942B
:1037F000281FB8010E94CA1E009719F00CF089C05A
:103800008CC081E0D8120EC08B8D9C8D089719F466
:1038100081E080931A0580911A0581112FC061EB18
:1038200071E031C0E3E0DE1278C08F89882349F16E
:10383000823029F440E86CE08CEC91E01CC08130CF
:1038400029F440E868E083EC91E015C0833009F08A
:1038500064C00E94281F8E010F5F1F4FB8010E9495
:10386000E91EF80101900020E9F73197E01BF10B08
:1038700040E06E2FC8010E94431949C06FE971E012
:1038800002C069ED71E06115710509F446C0FB01E4
:10389000449150E080E80E94E31A3BC04730E9F1D0
:1038A000483021F481E08093F10033C0493089F53C
:1038B000537099F5E0E5F1E081E021E036E3908195
:1038C000992361F08093E9002093EB00919190930C
:1038D000EC003093ED008F5F873089F78EE780939F
:1038E000EA001092EA008F898093210512C08B8D27
:1038F0009C8D0E94D81A898D811104C0C8010E9434
:10390000571605C00E94281FB8010E94081F88236F
:1039100021F08EEF8093E80003C081E28093EB00FA
:103920006C960FB6F894DEBF0FBECDBFDF91CF917E
:10393000FF91EF91BF91AF919F918F917F916F9187
:103940005F914F913F912F911F910F91FF90EF90B9
:10395000DF900F900FBE0F901F9018958093E90095
:103960008091F200882319F08AE38093E80008959B
:103970001F920F920FB60F9211242F933F934F93E4
:103980005F936F937F938F939F93AF93BF93CF93E7
:10399000EF93FF93C091E1008091E100837F8093DA
:1039A000E1008093E100C3FF0FC01092E90081E0C5
:1039B0008093EB001092EC0082E38093ED00109274
:1039C000210588E08093F000C2FF15C083E00E94CB
:1039D000AE1C80912305882329F080912305815016
:1039E0008093230580912205882329F08091220568
:1039F000815080932205C4FF10C08091E2008E7E2A
:103A000081608093E2008091E1008F7E8093E100ED
:103A100080911F058E7E806111C0C0FF11C0809112
:103A2000E2008E7E80618093E2008091E1008E7ED4
:103A30008093E10080911F058E7E816080931F0539
:103A4000FF91EF91CF91BF91AF919F918F917F9116
:103A50006F915F914F913F912F910F900FBE0F90FB
:103A60001F901895109221051092200510921F05A5
:103A70000E9480198091E1008E7E8093E1008DE0AC
:103A80008093E200EEEFFFE7859194918B3F9C4D90
:103A900019F481E0809318050895FC0180819181DB
:103AA0000C943C22CF93DF93EC018881998100979D
:103AB00011F00E943C22198218821D821C821B82F6
:103AC0001A82DF91CF9108950F931F93CF93DF93C5
:103AD000EC018B016F5F7F4F888199810E94CB221F
:103AE000009731F0998388831B830A8381E001C0AA
:103AF00080E0DF91CF911F910F910895CF93DF93D5
:103B0000EC0188819981892B29F08A819B81861714
:103B1000970760F4CE010E94641D882341F08C81D8
:103B20009D81892B19F4E881F981108281E0DF9170
:103B3000CF910895EF92FF920F931F93CF93DF934E
:103B4000EC017B018A01BA010E947E1D811104C033
:103B5000CE010E94521D07C01D830C83B7018881CE
:103B600099810E949E23CE01DF91CF911F910F91E9
:103B7000FF90EF900895FC0111821082138212824F
:103B8000158214826115710559F0FB010190002026
:103B9000E9F7AF0141505109461B570B0C949A1D90
:103BA00008950F931F93CF93DF938C01EB01FC01DA
:103BB00080819181009799F0428153812C813D81D0
:103BC0004217530750F0688179810E949E238C81AF
:103BD0009D81F8019583848313C00E943C228881D3
:103BE0009981F801918380838A819B819383828369
:103BF0008C819D8195838483198218821B821A820D
:103C00001D821C82DF91CF911F910F910895CF9358
:103C1000DF93EC018617970711F00E94D11DCE01AA
:103C2000DF91CF910895CF93DF93EC01611571057A
:103C300061F0FB0101900020E9F7AF01415051090B
:103C4000461B570B0E949A1D02C00E94521DCE01B6
:103C5000DF91CF910895EF92FF920F931F93CF932F
:103C6000DF93CDB7DEB7A1970FB6F894DEBF0FBED6
:103C7000CDBF7C01CB01BA01F70111821082138202
:103C800012821582148242E0420F8E010F5F1F4F95
:103C90000E948321BC01C7010E94131EA1960FB68A
:103CA000F894DEBF0FBECDBFDF91CF911F910F9172
:103CB000FF90EF900895BF92CF92DF92EF92FF9224
:103CC0000F931F93CF93DF936C017B01EA0189016E
:103CD0002417350720F48D2FE901042F182F66ECE7
:103CE00072E0C6010E94BB1DD70114968D919C9174
:103CF0001597C817D907C8F48017910708F48C01E5
:103D0000D701ED91FC911197E00FF11FB080108267
:103D10006D917C916C0F7D1FC6010E94131ED7010F
:103D2000ED91FC91E00FF11FB082C601DF91CF91C0
:103D30001F910F91FF90EF90DF90CF90BF9008956B
:103D40000895EF92FF920F931F93CF93DF937B0120
:103D5000FC01C281D38100E010E0209781F0E8816E
:103D6000F9810280F381E02DB701CE01099597FD1D
:103D700008C0080F191F0884D985C02DEECFC801CF
:103D800002C08FEF9FEFDF91CF911F910F91FF90B6
:103D9000EF9008950F931F93CF93DF938B01FC0156
:103DA000C281D381209771F0E881F9810480F58187
:103DB000E02DB801CE010995009731F40884D9852A
:103DC000C02DF0CF80E090E0DF91CF911F910F9157
:103DD00008950F931F93CF93DF938B01FC01C28152
:103DE000D381209771F0E881F9810680F781E02D79
:103DF000B801CE010995080F111D0884D985C02D81
:103E0000F0CFF8011082DF91CF911F910F910895AB
:103E10000F931F93CF93DF938B01FC01C281D3815A
:103E2000209771F0E881F9810190F081E02DB801CF
:103E3000CE010995811106C00884D985C02DF0CF27
:103E400080E001C081E0DF91CF911F910F91089533
:103E50008091280581110DC082E08093240584E0C3
:103E600080932505109227051092260581E0809306
:103E7000280584E295E008955058BB27AA270ED064
:103E800075C166D130F06BD120F031F49F3F11F451
:103E90001EF45BC10EF4E095E7FB51C1E92F77D129
:103EA00080F3BA17620773078407950718F071F457
:103EB0009EF58FC10EF4E0950B2EBA2FA02D0B01AD
:103EC000B90190010C01CA01A0011124FF27591B5F
:103ED00099F0593F50F4503E68F11A16F040A22F65
:103EE000232F342F4427585FF3CF469537952795D6
:103EF000A795F0405395C9F77EF41F16BA0B620BD5
:103F0000730B840BBAF09150A1F0FF0FBB1F661F1B
:103F1000771F881FC2F70EC0BA0F621F731F841F5E
:103F200048F4879577956795B795F7959E3F08F084
:103F3000B3CF9395880F08F09927EE0F9795879543
:103F40000895D9D008F481E008950CD00FC107D1AD
:103F500040F0FED030F021F45F3F19F0F0C0511175
:103F600039C1F3C014D198F39923C9F35523B1F3A0
:103F7000951B550BBB27AA2762177307840738F0D8
:103F80009F5F5F4F220F331F441FAA1FA9F333D037
:103F90000E2E3AF0E0E830D091505040E695001CEB
:103FA000CAF729D0FE2F27D0660F771F881FBB1FA7
:103FB000261737074807AB07B0E809F0BB0B802D81
:103FC000BF01FF2793585F4F2AF09E3F510568F0CD
:103FD000B6C000C15F3FECF3983EDCF38695779561
:103FE0006795B795F7959F5FC9F7880F911D9695CF
:103FF000879597F90895E1E0660F771F881FBB1F2B
:10400000621773078407BA0720F0621B730B840BD7
:10401000BA0BEE1F88F7E095089504D06894B111AB
:10402000D9C00895BCD088F09F5790F0B92F992738
:10403000B751A0F0D1F0660F771F881F991F1AF0B3
:10404000BA95C9F712C0B13081F0C3D0B1E008957C
:10405000C0C0672F782F8827B85F39F0B93FCCF3FD
:10406000869577956795B395D9F73EF490958095A9
:10407000709561957F4F8F4F9F4F0895E89409C0C9
:1040800097FB3EF490958095709561957F4F8F4F8B
:104090009F4F9923A9F0F92F96E9BB279395F695A1
:1040A000879577956795B795F111F8CFFAF4BB0F1F
:1040B00011F460FF1BC06F5F7F4F8F4F9F4F16C083
:1040C000882311F096E911C0772321F09EE8872F0D
:1040D000762F05C0662371F096E8862F70E060E0C9
:1040E0002AF09A95660F771F881FDAF7880F969542
:1040F000879597F90895990F0008550FAA0BE0E8E6
:10410000FEEF16161706E807F907C0F01216130699
:10411000E407F50798F0621B730B840B950B39F4D9
:104120000A2661F0232B242B252B21F408950A263F
:1041300009F4A140A6958FEF811D811D089597F97F
:104140009F6780E870E060E008959FEF80EC08953D
:1041500000240A9416161706180609060895002466
:104160000A9412161306140605060895092E0394E0
:10417000000C11F4882352F0BB0F40F4BF2B11F454
:1041800060FF04C06F5F7F4F8F4F9F4F089557FDB3
:104190009058440F551F59F05F3F71F04795880FB5
:1041A00097FB991F61F09F3F79F08795089512164C
:1041B00013061406551FF2CF4695F1DF08C01616F8
:1041C00017061806991FF1CF8695710561050894A9
:1041D0000895E894BB2766277727CB0197F90895C0
:1041E0008ADF08F48FEF08950BD0C0CFB1DF28F03D
:1041F000B6DF18F0952309F0A2CFA7CF1124EACF9C
:10420000C6DFA0F3959FD1F3950F50E0551F629F35
:10421000F001729FBB27F00DB11D639FAA27F00D1F
:10422000B11DAA1F649F6627B00DA11D661F829F46
:104230002227B00DA11D621F739FB00DA11D621F2B
:10424000839FA00D611D221F749F3327A00D611D48
:10425000231F849F600D211D822F762F6A2F11242A
:104260009F5750408AF0E1F088234AF0EE0FFF1F7D
:10427000BB1F661F771F881F91505040A9F79E3FB4
:10428000510570F05CCFA6CF5F3FECF3983EDCF3B6
:10429000869577956795B795F795E7959F5FC1F7F1
:1042A000FE2B880F911D9695879597F9089523DF2A
:1042B000880B990B0895A1E21A2EAA1BBB1BFD01C6
:1042C0000DC0AA1FBB1FEE1FFF1FA217B307E407F5
:1042D000F50720F0A21BB30BE40BF50B661F771F4D
:1042E000881F991F1A9469F760957095809590952D
:1042F0009B01AC01BD01CF010895EE0FFF1F05909A
:10430000F491E02D0994EF920F931F93CF93DF93D5
:10431000E80147FF02C034E101C034E0E42FFF2789
:10432000E7FDF095F7FF03C0F195E195F109E32E64
:10433000022F2E2FAE010E94BB23CE01DF91CF9121
:104340001F910F91EF900895CF93DF9382309105E5
:1043500010F482E090E0E0913205F091330520E026
:1043600030E0A0E0B0E0309739F14081518148174A
:104370005907B8F04817590771F482819381109753
:1043800029F013969C938E9312972CC0909333052B
:104390008093320527C02115310531F042175307AC
:1043A00018F0A901DB0101C0EF019A01BD01DF0195
:1043B0000280F381E02DD7CF21153105F9F0281BBC
:1043C000390B2430310580F48A819B816115710598
:1043D00021F0FB019383828304C090933305809383
:1043E0003205FE01329644C0FE01E20FF31F8193B5
:1043F000919322503109398328833AC020913005A6
:1044000030913105232B41F42091020130910301B9
:104410003093310520933005209100013091010146
:104420002115310541F42DB73EB74091040150915B
:104430000501241B350BE0913005F0913105E217A1
:10444000F307A0F42E1B3F0B2817390778F0AC01B7
:104450004E5F5F4F2417350748F04E0F5F1F509394
:104460003105409330058193919302C0E0E0F0E084
:10447000CF01DF91CF910895CF93DF93009709F497
:1044800087C0FC01329713821282C0913205D0910D
:104490003305209781F420813181280F391F8091C5
:1044A0003005909131058217930779F5F093310526
:1044B000E09330056DC0DE0120E030E0AE17BF07AD
:1044C00050F412964D915C9113979D014115510541
:1044D00009F1DA01F3CFB383A28340815181840FC4
:1044E000951F8A179B0771F48D919C911197840FEA
:1044F000951F02969183808312968D919C911397BC
:10450000938382832115310529F4F0933305E093D9
:1045100032053EC0D9011396FC93EE9312974D914C
:104520005D91A40FB51FEA17FB0779F48081918193
:10453000840F951F0296D90111969C938E938281C8
:10454000938113969C938E931297E0E0F0E08A811A
:104550009B81009719F0FE01EC01F9CFCE01029684
:1045600028813981820F931F2091300530913105C8
:104570002817390769F4309729F4109233051092FF
:10458000320502C013821282D0933105C0933005E8
:10459000DF91CF910895A0E0B0E0E1EDF2E20C945C
:1045A0001526EC01CB01209719F40E94A421B8C074
:1045B000FE01E60FF71F9E0122503109E217F307B3
:1045C00008F4ACC0D9010D911C911197061717077B
:1045D000B8F00530110508F49FC0A80144505109F6
:1045E0004617570708F498C002501109061B170B0D
:1045F000019311936D937C93CF010E943C228CC058
:104600005B01A01AB10A4E01800E911EA0913205E5
:10461000B0913305612C712C60E070E0109709F4C3
:1046200049C0A815B905C9F5ED90FC90119767012F
:1046300042E0C40ED11CCA14DB0478F147018A1889
:104640009B08640142E0C40ED11C1296BC901297E4
:104650001396AC91B5E0CB16D10440F0B282A3839F
:1046600091828082D9018D939C9309C00E5F1F4F68
:104670000E0D1F1DF90111830083EB2DFA2F61151B
:10468000710531F0DB011396FC93EE93129744C051
:10469000F0933305E09332053FC06D917C91119703
:1046A0006616770608F43B01BD0112960D90BC9189
:1046B000A02DB4CF60913005709131056815790552
:1046C000E9F468167906D0F4409100015091010197
:1046D0004115510541F44DB75EB7609104017091E9
:1046E0000501461B570BE417F507C0F4F09331059D
:1046F000E0933005F901918380830EC00E94A421CC
:104700007C01009759F0A801BE010E949523CE01BB
:104710000E943C22C70104C0CE0102C080E090E0AC
:10472000CDB7DEB7EEE00C943126FB01DC0102C010
:1047300001900D9241505040D8F70895FB01DC01E3
:1047400001900D920020E1F70895F999FECF92BDF6
:1047500081BDF89A992780B50895262FF999FECF43
:104760001FBA92BD81BD20BD0FB6F894FA9AF99A8E
:104770000FBE019608956F927F929F92AF92BF9263
:10478000CF92DF92EF92FF920F931F93CF93DF931D
:10479000CDB7DEB729970FB6F894DEBF0FBECDBFF9
:1047A0006A01B22E102F0C3320F4FF24F394F00E84
:1047B00002C04CE3F42E0F2D27E0AE014F5F5F4F98
:1047C0000E9439257981272F2970213031F0E1FCB1
:1047D00006C0E0FC06C060E005C06DE203C06BE20D
:1047E00001C060E2AE2DA07173FF36C0662311F0E8
:1047F00084E001C083E08B1510F4B81A01C0B12C1D
:10480000A1110BC0F6018B2D90E2882319F0919332
:104810008150FBCFCB0CD11CB12C662331F0F601BB
:10482000608396012F5F3F4F6901C6010396E2FE48
:1048300005C02EE4F601208331E404C02EE6F60123
:10484000208331E631832283FC012B2D30E22223A9
:10485000F1F131932150FBCF72FF40C0662311F07C
:1048600084E001C083E08B1510F4B81A01C0B12CAC
:10487000A1110BC0F6018B2D90E2882319F09193C2
:104880008150FBCFCB0CD11CB12C662331F0F6014B
:10489000608396012F5F3F4F6901C6010396E2FED8
:1048A00007C029E4F60120832EE4218326E406C014
:1048B00029E6F60120832EE6218326E62283FC01E9
:1048C0002B2D30E2222319F031932150FBCFFC0134
:1048D000EB0DF11D10828EEF9FEFB7C0B1E06111BB
:1048E00001C0B0E04B2F50E01816190624F49C01CB
:1048F0002F5F3F4F02C021E030E0240F351F11230E
:1049000029F0412F50E04F5F5F4F02C040E050E080
:10491000420F531F2B2D30E04217530714F4B41AE3
:1049200001C0B12C2E2D287159F4F6012B2D30E247
:10493000222319F031932150FBCFCB0CD11CB12C89
:10494000BB2331F0F601608396012F5F3F4F690171
:10495000A1110BC0F6012B2D30E3222319F0319366
:104960002150FBCFCB0CD11CB12CF80E0A81372F74
:104970003071A32E74FF03C0013309F4FA941F149D
:104980002CF42F2D293018F028E001C021E0682FE9
:10499000392F97FF02C060E030E0462F532F612C83
:1049A000712C3EE2932EBC01621B71099B01DC015C
:1049B000A41BB50BE1E0F0E0EC0FFD1FAE0FBF1F35
:1049C000E12EF12CF194E194F1084F3FFFEF5F07E6
:1049D00031F4F6019082B6016F5F7F4F6B0184174F
:1049E00095074CF02417350734F4BD01660D771D8B
:1049F000FB01118101C010E341505109FFEF6F1A13
:104A00007F0AB6016F5F7F4F4E155F0524F0F601F8
:104A100010836B01DACF4817590739F4063320F4B5
:104A2000053319F4A11001C011E3F6011083FB0155
:104A30008B2D90E2882319F091938150FBCFFB01DD
:104A4000EB0DF11D108280E090E029960FB6F894EE
:104A5000DEBF0FBECDBFDF91CF911F910F91FF90B1
:104A6000EF90DF90CF90BF90AF909F907F906F902E
:104A70000895283008F027E03327DA01990F311D17
:104A800087FD916000966105710539F432602E5FF3
:104A90003D9330E32A95E1F708959F3F30F0803849
:104AA0007105610509F03C5F3C5F3D93913008F072
:104AB0008068911DDF93CF931F930F93FF92EF9226
:104AC000192F987F9695E92F96959695E90FFF27D0
:104AD000E95CFD4F99273327EE24FF24A701E70166
:104AE00005900894079428F4360FE71EF81E491F16
:104AF000511D660F771F881F991F0694A1F7059017
:104B0000079428F4E70EF81E491F561FC11D770FA2
:104B1000881F991F661F0694A1F70590079428F433
:104B2000F80E491F561FC71FD11D880F991F661FFA
:104B3000771F0694A1F70590079420F4490F561F9C
:104B4000C71FD81F990F661F771F881F0694A9F7E4
:104B500084911095177041F0D695C7955795479554
:104B6000F794E7941A95C1F7EDEDF1E0689415908C
:104B7000159135916591959105907FE27395E118B6
:104B8000F10A430B560BC90BD009C0F7E10CF11E1B
:104B9000431F561FC91FD01D7EF4703311F48A9530
:104BA000E6CFE894015030F0080F0AF4002702170E
:104BB00008F4202F2395022F7A3328F079E37D9390
:104BC0002A95E9F710C07D932A9589F60694979562
:104BD0006795379517951794E118F10A430B560B13
:104BE000C90BD00998F023957E9173957A3308F01C
:104BF00070E37C932013B8F77E9170617D9330F061
:104C0000839571E37D9370E32A95E1F71124EF908A
:104C1000FF900F911F91CF91DF91992787FD90957C
:104C200008952F923F924F925F926F927F928F9250
:104C30009F92AF92BF92CF92DF92EF92FF920F932B
:104C40001F93CF93DF93CDB7DEB7CA1BDB0B0FB635
:104C5000F894DEBF0FBECDBF09942A8839884888F2
:104C60005F846E847D848C849B84AA84B984C88488
:104C7000DF80EE80FD800C811B81AA81B981CE0F7F
:104C8000D11D0FB6F894DEBF0FBECDBFED01089564
:044C9000F894FFCFC6
:104C940000003405800003011E1714141C000002D8
:104CA400060E0602000000080C0E0C0800000400AA
:104CB4000400040004000A040A040A040A0032007E
:104CC4000000900100000100C312C312C312C312FA
:104CD400C31201FFFFFFFF00E1000000000000001D
:104CE400C1808100000020202020202020202000DE
:104CF4002500206D5600456E746572696E67004329
:104D0400616C6962726174696F6E204D6F646500D5
:104D140043616C6962726174653F004F78796765BD
:104D24006E2053656E736F720048656C69756D20F3
:104D340053656E736F7200426F74682053656E73AF
:104D44006F72732000204F322043616C696272617C
:104D540074696F6E0043616C6962726174696F6E2D
:104D640020464F323A0025204F787967656E00431C
:104D74006C69636B20746F00636F6E6669726D009B
:104D84005361766564004261642043616C696272B8
:104D94006174696F6E00446174610020484520436A
:104DA400616C6962726174696F6E006D5620696E20
:104DB400204169723A00436C69636B20746F20432D
:104DC4006F6E6669726D006D7620696E2048453A93
:104DD40000564D4450565F317C315F564D44505619
:104DE4000D0A005472696D697820416E616C797A9C
:104DF4006572007600762000302E3100506C6561BB
:104E0400736500526563616C696272617465004F19
:104E14007074696F6E73004D656E750043616C69E3
:104E240062726174650045786974003000000000A6
:104E340000540B2617564D4450455F003A323A0051
:104E44005F564D44504500564D4450435F005F56F5
:104E54004D4450430D0A004572726F723A204174FA
:104E640074656D707420746F207365742061207292
:104E74006561642D6F6E6C79207661726961626C14
:104E840065206F7220646174612074797065206E8E
:104E94006F7420737570706F727465640D0A00000E
:104EA400000000D40DA70D7C0D840D970DA60D00F8
:104EB400000000EF15361619162916051616166E7B
:0E4EC400616E00696E66006F7666002E00005B
:1070000055C000006EC000006CC000006AC00000E7
:1070100068C0000066C0000064C0000062C00000DC
:1070200060C000005EC00000DAC400005AC000006A
:1070300058C0000056C0000054C0000052C00000FC
:1070400050C0000076C000004CC000004AC00000E4
:1070500048C0000046C0000044C0000042C000001C
:1070600040C000003EC000003CC000003AC000002C
:1070700038C0000036C0000034C0000032C000003C
:1070800030C000002EC000002CC000002AC000004C
:1070900028C0000026C0000024C0000022C000005C
:1070A00020C000001EC000001CC0000011241FBE34
:1070B000CFEFDAE0DEBFCDBF11E0A0E0B1E0EEEF50
:1070C000FEE702C005900D92AA3CB107D9F711E086
:1070D000AAECB1E001C01D92A03EB107E1F781D357
:1070E0000CC78ECFF89410926F001092810010920E
:1070F00085001092840081E085BF15BE47980C94EE
:10710000000008952091D4013091D5012F5F3F4FA9
:107110003093D5012093D401932F37FF03C08EEF16
:10712000831B982F990F921710F447980895479A48
:1071300008951F920F920FB60F9211242F938F93E1
:107140009F93EF93FF93109285001092840080919B
:10715000CA019091CB01009729F001979093CB0140
:107160008093CA018091CC019091CD01009729F0C4
:1071700001979093CD018093CC01E0E0F0E0859100
:1071800094918F5F9F4F49F08091CE019091CF01F4
:1071900001969093CF018093CE01FF91EF919F9143
:1071A0008F912F910F900FBE0F901F90189584E034
:1071B0008093E9000DC08091E8008B778093E80010
:1071C00003C08EB3882351F08091E80082FFF9CF8D
:1071D0008091E80085FFEFCF8091F1000895982F0E
:1071E00083E08093E9008091E80085FD0DC08091E7
:1071F000E8008E778093E80003C08EB3882361F0A7
:107200008091E80080FFF9CF9093F10084E690E050
:107210009093CB018093CA0108954F925F926F9231
:107220007F928F929F92AF92BF92CF92DF92EF9216
:10723000FF920F931F93CF93DF9384E08093E90035
:107240008091E80082FF56C284E690E09093CD01E1
:107250008093CC01ACDF182F853481F48CE195E26A
:107260009093CF018093CE0107B600FCFDCFF99932
:10727000FECF81E180935700E89503C0843519F46F
:1072800096DF8DE00DC28C34E1F38035D1F3843785
:1072900021F484E4A4DF80E003C2813611F489E59F
:1072A000FFC18134B1F483DF182F81DF90E0880FB4
:1072B000991FAA2797FDA095BA2F312F330F20E0F1
:1072C000442737FD4095542F822B932BA42BB52BAD
:1072D000B8C1803711F483E5E3C1833549F4C0E0D8
:1072E000D1E089917CDF21E0C730D207D1F7D9C145
:1072F000863521F481E373DF80E3D2C1833731F433
:1073000087E86DDF85E96BDF8EE1CAC18536B9F4A8
:10731000E0E0F0E093E085E090935700E89507B651
:1073200000FCFDCF80935700E89507B600FCFDCF29
:10733000E058FF4FA0E7E030FA0771F7A2CF82379D
:1073400039F4E1E0F0E089E0809357008491A8C12E
:10735000863439F4E0E0F0E089E0809357008491CE
:107360009FC18E3439F4E3E0F0E089E08093570068
:10737000849196C1813539F4E2E0F0E089E08093B0
:10738000570084918DC1823631F489E528DF80E091
:1073900026DF80E885C1823419F0873609F0E5C020
:1073A0001092CF011092CE0102DF082F00DFF82EDD
:1073B000FEDE682E8554823008F071C1902F80E087
:1073C000CF2DD0E0C82BD92B10926F00173609F0C3
:1073D0004BC081E180935700E895DD24CC24C39411
:1073E0003FC0E090D001F090D1010091D201109106
:1073F000D301B6E46B16D9F4ED2DF0E0EE29FF29A8
:10740000E4918E2FECDEDD2081F082E090E0A0E0C0
:10741000B0E0E80EF91E0A1F1B1FE092D001F092A7
:10742000D1010093D2011093D301DC2418C0D801FC
:10743000C701B695A7959795879549D5D0DE82E087
:1074400090E0A0E0B0E0E80EF91E0A1F1B1FE092DA
:10745000D001F092D1010093D2011093D301219772
:10746000209709F0BECF7DC08090D0019090D101CF
:10747000A090D201B090D30196E4691609F05DC0E6
:1074800083E0F40180935700E89507B600FCFDCF38
:1074900054C0F6E46F1661F5772031F1E090D00129
:1074A000F090D1010091D2011091D30180DED82E4D
:1074B000CC24852D90E08C299D29F7010C01409268
:1074C0005700E895112482E090E0A0E0B0E0E80EDB
:1074D000F91E0A1F1B1FE092D001F092D101009308
:1074E000D2011093D30102C062DE582E742423C04F
:1074F000E090D001F090D1010091D2011091D30120
:1075000016950795F794E79452DE682FC701E7D4E4
:107510008091D0019091D101A091D201B091D3017D
:107520000296A11DB11D8093D0019093D101A0932B
:10753000D201B093D301219704C055247724442469
:107540004394209709F0A5CF96E4691641F485E0AD
:10755000F40180935700E89507B600FCFDCF8DE05D
:107560003EDE82E080936F009CC0833471F4009112
:10757000D0011091D1011BDE90E021E0F8010C0157
:1075800020935700E89511247CCE833619F5E090BE
:10759000D001F090D1010091D2011091D30107DE0A
:1075A000F701E16090E021E00C0120935700E8959D
:1075B000112482E090E0A0E0B0E0E80EF91E0A1F7E
:1075C0001B1FE092D001F092D1010093D2011093E1
:1075D000D30157CE8D3661F4E091D001F091D10105
:1075E00085E080935700E89507B600FCFDCF49CEB3
:1075F000823551F4E091D001F091D10105911491BF
:10760000812FEDDD802F4CC0843421F5E090D00136
:10761000F090D1010091D2011091D30116950795F8
:10762000F794E794C4DD682FC70159D48091D00145
:107630009091D101A091D201B091D3010296A11DE8
:10764000B11D8093D0019093D101A093D201B0934A
:10765000D30117CE843609F5E090D001F090D10126
:107660000091D2011091D301D801C701B695A79519
:10767000979587952CD4B3DD82E090E0A0E0B0E050
:10768000E80EF91E0A1F1B1FE092D001F092D101F3
:107690000093D2011093D30104C08B3111F08FE31A
:1076A0009EDD83E08093E9009091E8008091E800FE
:1076B0008E778093E80095FF04C010C08EB38823B6
:1076C000C9F08091E80080FFF9CF8091E8008E77C3
:1076D0008093E80003C08EB3882361F08091E800B6
:1076E00080FFF9CF84E08093E9008091E8008B77F8
:1076F0008093E800DF91CF911F910F91FF90EF9061
:10770000DF90CF90BF90AF909F908F907F906F90C1
:107710005F904F9008959091D801892F8F77813293
:1077200049F58091D9018032A1F0813219F5913A61
:1077300009F58091E800877F8093E8008DE091E073
:1077400067E070E0FBD18091E8008B778093E800E0
:107750000895913279F48091E800877F8093E80062
:107760008DE091E067E070E04DD28091E8008E7787
:107770008093E800089582E061EC42E0A7D083E0C6
:1077800061E842E1A3D084E060E842E19FC084B7B1
:10779000877F84BF88E10FB6F894809360001092D1
:1077A00060000FBE20E880E090E00FB6F8942093D0
:1077B0006100809361000FBE81E085BF92E095BFBC
:1077C0003F9AE1E6F0E0208310824798109289000A
:1077D0008DE78093880090936F0083E08093810011
:1077E000E6C04091000850910108109201081092E3
:1077F000000824B714BE88E10FB6F89480936000A7
:10780000109260000FBEE0E0F0E0859194918F5FF0
:107810009F4F71F020FD0BC021FD0AC0283041F4BC
:107820008091090190910A014817590709F05ADC23
:10783000AEDF78941092CF011092CE010CC0EDDC37
:1078400034D38091CE019091CF018151974210F0B5
:107850001092140157DC80911401882381F78091E4
:10786000E00081608093E0003DDC80E090E00895DE
:10787000FA01923049F0933061F09130F9F485E1EA
:1078800091E022E130E01EC087E291E02EE330E09B
:1078900019C0882329F485E691E024E030E012C085
:1078A000813029F489E691E022E230E00BC0823099
:1078B00029F487E991E028E130E004C080E090E01D
:1078C00020E030E091838083C90108958093E9002E
:1078D0008091EB0081608093EB001092ED0060934B
:1078E000EC004093ED008091EE00881F8827881FF0
:1078F00008958091D80188238CF403C08EB3882327
:10790000B1F08091E80082FFF9CF8091E8008B7799
:107910008093E80008958EB3882349F08091E800B1
:1079200080FFF9CF8091E8008E778093E80008957A
:10793000EF92FF920F931F9345D04CD008ED10E0CB
:10794000F80180818F778083808180688083808147
:107950008F7D808319BC1EBA1092D60180EEE82E6E
:10796000F12CF70180818B7F8083F8018081816019
:10797000808380E060E042E0A9DFE1EEF0E080811A
:107980008E7F8083E2EEF0E0808181608083808161
:1079900088608083F70180818E7F8083F8018081F9
:1079A000806180831F910F91FF90EF900895E7ED24
:1079B000F0E08081816080838AE482BF81E08093EF
:1079C000D701B6CFE8EDF0E080818E7F8083109202
:1079D000E20008951092DA001092E10008951F92DB
:1079E0000F920FB60F9211242F933F934F935F93F3
:1079F0006F937F938F939F93AF93BF93EF93FF9377
:107A00008091DA0080FF1AC08091D80080FF16C0F4
:107A10008091DA008E7F8093DA008091D90080FF18
:107A20000AC019BC82E089BD09B400FEFDCF81E027
:107A30008EBB3AD203C019BC1EBA36D28091E10087
:107A400080FF17C08091E20080FF13C08091E200A8
:107A50008E7F8093E2008091E20080618093E2005B
:107A60008091D80080628093D80019BC85E08EBBDD
:107A70001BD28091E10084FF2BC08091E20084FF43
:107A800027C019BC82E089BD09B400FEFDCF8091FA
:107A9000D8008F7D8093D8008091E1008F7E809305
:107AA000E1008091E2008F7E8093E2008091E2000D
:107AB00081608093E2008091D601882331F4809127
:107AC000E30087FD02C081E001C084E08EBBECD101
:107AD0008091E10083FF21C08091E20083FF1DC0FF
:107AE0008091E100877F8093E10082E08EBB10925D
:107AF000D6018091E1008E7F8093E1008091E200C9
:107B00008E7F8093E2008091E20080618093E200AA
:107B100080E060E042E0DADEC7D1FF91EF91BF91F3
:107B2000AF919F918F917F916F915F914F913F9115
:107B30002F910F900FBE0F901F9018959C014091B0
:107B4000DE015091DF014617570718F4F90190E064
:107B500044C06115710511F0AB01F8CF8091E800C8
:107B60008E778093E80040E050E0F0CF8EB388231A
:107B700009F444C0853009F443C08091E80083FFD4
:107B800002C081E008958091E80082FD31C08091BB
:107B9000E80080FF22C08091F3009091F200782FDE
:107BA00060E0292F30E0262B372B07C0819180938E
:107BB000F100415050402F5F3F4F4115510519F0E2
:107BC0002830310598F390E02830310509F491E030
:107BD0008091E8008E778093E8004115510531F6D9
:107BE000992321F605C08EB3882341F0853041F0FA
:107BF0008091E80082FFF7CF80E0089582E0089549
:107C000083E008959C016115710529F48091E800D5
