:100000000C9470010C94DB0F0C9402100C942910CA
:100010000C9450100C9498010C9498010C94771047
:100020000C9498010C9498010C947F190C94061868
:100030000C9498010C9498010C9498010C949801DC
:100040000C9498010C9498010C9498010C949801CC
:100050000C9498010C9498010C9498010C949E10A7
:100060000C9498010C9498010C9498010C949801AC
:100070000C9498010C9498010C9498010C9498019C
:100080000C9498010C9498010C9498010C9498018C
:100090000C94C10C0C9498010C9498010C94980148
:1000A0000C9498010C9498010C949801F911FC118E
:1000B000EB11EF11F5111D121D121D120012041289
:1000C00008120E1212121D12181207060504010062
:1000D000080A0B0C0D090000000200090F000003C4
:1000E0000401000C000000000000000000000000FF
:1000F0000000000000040802011040804010204071
:10010000804080080204018040201002011080100D
:1001100020404020040404040403040502020202F7
:100120000403020202020606060606060404020290
:10013000020404000000002300260029002C002FE8
:100140000000000000250028002B002E00310000D8
:10015000000000240027002A002D003000080B00BA
:10016000020202010009040000010202000005244D
:1001700000100105240101010424020605240600E3
:10018000010705810310004009040100020A000074
:10019000000705020240000007058302400000122C
:1001A000010002EF0201409A230C800001010203CA
:1001B0000112010002000000409A230C800001019E
:1001C0000203014164616672756974004665617479
:1001D0006865722033327534000403090400407AE4
:1001E00010F35A00A0724E18090010A5D4E80000C0
:1001F000E87648170000E40B54020000CA9A3B005E
:100200000000E1F505000080969800000040420FD4
:10021000000000A08601000000102700000000E898
:1002200003000000006400000000000A000000005D
:10023000000100000000002C76D888DC674F0823FE
:10024000DFC1DFAE59E1B1B796E5E3E453C63AE664
:1002500051997696E8E6C28426EB898C9B62ED4044
:100260007C6FFCEFBC9C9F40F2BAA56FA5F4900593
:100270005A2AF75C936B6CF9676DC11BFCE0E40DC7
:1002800047FEF520E6B500D0ED902E0300943577BB
:10029000050080841E080000204E0A000000C80CE3
:1002A000333333330F986E12831141EF8D2114894C
:1002B0003BE65516CFFEE6DB18D1844B381BF77CA6
:1002C0001D901DA4BBE424203284725E228100C9EB
:1002D000F124ECA1E53D2700C003ED0ADF0BBC13C0
:1002E00011241FBECFEFDAE0DEBFCDBF12E0A0E0E9
:1002F000B1E0E6E0F6E402C005900D92AC3DB10736
:10030000D9F724E0ACEDB2E001C01D92A23DB207E6
:10031000E1F712E0C0EED2E004C02297FE010E9495
:10032000461EC83DD107C9F70E94DA130C94012379
:100330000C94000080E00E948D1221E0892B09F4CA
:1003400020E020932B0381E00E948D1221E0892B75
:1003500009F420E020932A0380912903882321F0C7
:1003600080912803811109C080912903811112C055
:1003700080912803811163C00DC080912B038111EE
:1003800004C080912A03811150C080912B038823DF
:1003900019F11DC080912903811105C080912803A6
:1003A000882309F459C0809129038823A9F08091FA
:1003B0002803811111C080912B03882321F08091A3
:1003C0002A0381116EC080912B03811105C0809199
:1003D0002A03882309F46FC0809124039091250398
:1003E000049734F0809126039091270301960CC066
:1003F00080912403909125038D3F9F4F6CF4809151
:100400002603909127030197909327038093260357
:10041000109225031092240380912B0380932903CB
:1004200080912A038093280308958091240390915A
:10043000250301969093250380932403A6CF8091F2
:100440002B03811104C080912A038823B1F080918D
:100450002B03882309F20CC080912B03882321F001
:1004600080912A03882399F080912B038111B4CFC6
:1004700080912A0381111FC0AFCF809124039091F6
:10048000250301969093250380932403E0CF809168
:1004900024039091250301969093250380932403D0
:1004A000E3CF809124039091250301969093250337
:1004B0008093240388CF8091240390912503019792
:1004C000909325038093240387CF80E00E948D12B0
:1004D00021E0892B09F420E020932B0381E00E9486
:1004E0008D1221E0892B09F420E020932A038091CA
:1004F0002903882321F080912803811109C080916C
:100500002903811112C080912803811163C00DC09D
:1005100080912B03811104C080912A03811150C066
:1005200080912B03882319F11DC08091290381112B
:1005300005C080912803882309F459C080912903BC
:100540008823A9F080912803811111C080912B0389
:10055000882321F080912A0381116EC080912B03A2
:10056000811105C080912A03882309F46FC080910E
:10057000240390912503049734F0809126039091F1
:10058000270301960CC080912403909125038D3F91
:100590009F4F6CF4809126039091270301979093CD
:1005A0002703809326031092250310922403809141
:1005B0002B038093290380912A03809328030895B5
:1005C00080912403909125030196909325038093B5
:1005D0002403A6CF80912B03811104C080912A03AC
:1005E0008823B1F080912B03882309F20CC08091FD
:1005F0002B03882321F080912A03882399F080918E
:100600002B038111B4CF80912A0381111FC0AFCF7A
:100610008091240390912503019690932503809364
:100620002403E0CF809124039091250301969093B9
:10063000250380932403E3CF809124039091250325
:100640000196909325038093240388CF80912403FF
:10065000909125030197909325038093240387CFDE
:100660000F931F930E948D1290933C0380933B0342
:10067000209136013091370182179307A1F0892B21
:1006800091F40E94E81060932F03709330038093DD
:1006900031039093320380913B0390913C039093FC
:1006A0003701809336010E94E81000912F031091CA
:1006B00030032091310330913203601B710B820BA8
:1006C000930B00912E0110912F0120913001309158
:1006D0003101061717072807390758F480913B03A3
:1006E00090913C0320913601309137018217930796
:1006F00011F480E00FC090933701809336010E947F
:10070000E81060932F03709330038093310390932C
:10071000320381E01F910F9108958BE10E94B01187
:10072000BC01882777FD8095982F0E94071D9B01AB
:10073000AC010E94041C23E333E343E550E40E9430
:10074000BB1D20E030E040E85AE30E94BB1D089545
:1007500040E067E08DE393E00E940F0866E571E0FA
:100760008DE393E00E94391441E067E08DE393E06C
:100770000E940F0866E571E08DE393E00C94391454
:10078000CF92EF920F9385E0C82E96E0E92E0AE013
:100790002BE04CE06DE08DE393E00E94C7080E94DF
:1007A000E810609337037093380380933903909374
:1007B0003A030E94E81060933303709334038093EC
:1007C00035039093360340E050E060E070E080E055
:1007D00093E00E941B0E41E050E061E070E08CED80
:1007E00092E00F91EF90CF900C941B0ECF93DF937C
:1007F0008DE393E00E94080840E064E08DE393E01D
:100800000E940F0860E671E08DE393E00E943914C6
:1008100041E060E08DE393E00E940F0869E671E03B
:100820008DE393E00E94391466ED76E080E090E07D
:100830000E9417118DE393E00E94080885E10E9451
:100840008D12892BD9F36AEF70E080E090E00E946E
:100850001711C2E0D0E085E190E00E9430038111E1
:100860003FC0809126039091270303972CF01092AC
:100870002703109226030AC0809126039091270334
:1008800097FF04C0D0932703C09326036AE771E063
:100890008DE393E00E94391441E060E08DE393E042
:1008A0000E940F0862E08DE393E00E94210980918D
:1008B0002603909127038130910541F08230910504
:1008C00041F0892B41F666E072E005C065E871E011
:1008D00002C06CE871E08DE393E00E943914BBCF55
:1008E000DF91CF91089548EB5BE060E070E085E533
:1008F00093E00E94470A20E032EC41E050E066E6D7
:1009000074E085E593E00E94FE0961E085E593E0EF
:100910000E94D409882391F063E971E080919703E4
:10092000909198030E9439146AE070E080E090E0B2
:100930000E94171185E593E00E94FD0941E060E007
:1009400085E593E00E94CF0A62E085E10E941E12D5
:1009500062E080E00E941E1262E081E00E941E12AE
:1009600041E050E06AE971E082E00E948B0F41E0D3
:1009700050E065E672E083E00E948B0F20E042E0E9
:1009800060E18DE393E00E94290846E251E060E0D7
:100990008DE393E00E94E7084EE151E061E08DE3D2
:1009A00093E00E94E70846E151E062E08DE393E0C6
:1009B0000E94E7084EE051E063E08DE393E00E947F
:1009C000E70846E051E064E08DE393E00E94E70829
:1009D00040E060E08DE393E00E940F0865EA71E07B
:1009E0008DE393E00E94391441E060E08DE393E0F1
:1009F0000E940F080E948D03AB01BC0122E030E091
:100A00008DE393E00E94DA1565EB71E08DE393E0EE
:100A10000E94391441E06BE08DE393E00E940F08DF
:100A200067EB71E08DE393E00E9439146AEB71E0AB
:100A30008DE393E00E94391460ED77E080E090E070
:100A40000E9417118DE393E00E94080885E10E943F
:100A50008D12892B61F180E093E00E94C90E8823FA
:100A600051F08CED92E00E94C90E882321F08DE3B5
:100A700093E00C9408088DE393E00E9408086EEB65
:100A800071E08DE393E00E94391441E060E08DE372
:100A900093E00E940F0865EC71E08DE393E00E9403
:100AA000391460ED77E080E090E00E9417110E9419
:100AB000F603DDCFFF920F931F93CF93DF93CDB754
:100AC000DEB72C970FB6F894DEBF0FBECDBFF42E65
:100AD000122F21E0AB01BC01CE0107960E94F21A51
:100AE000402F612F8DE393E00E940F08FF2029F033
:100AF00062E08DE393E00E9421098B859C85059738
:100B0000B0F023E030E040E050E0BE01695F7F4F8D
:100B1000CE0101960E94221BBE016F5F7F4FCE0166
:100B200007960E94CE1ACE0101960E94141A8B8558
:100B30009C85049731F06EE571E08DE393E00E94AF
:100B40003914BE01695F7F4F8DE393E00E942B143F
:100B5000FF2061F065E0610F402F8DE393E00E947C
:100B60000F0863E08DE393E00E942109CE01079610
:100B70000E94141A2C960FB6F894DEBF0FBECDBF9C
:100B8000DF91CF911F910F91FF9008950F931F93C5
:100B90000E94E81000913703109138032091390327
:100BA00030913A03601B710B820B930B0091320161
:100BB0001091330120913401309135010617170748
:100BC0002807390708F06FC080E093E00E94510FBA
:100BD0002DEC3CEC4CEC5DE30E94B71D181674F450
:100BE00080E093E00E94510F00E010E020E030E050
:100BF00040E00E945A0561ED71E008C040E060E00D
:100C00008DE393E00E940F086AE571E08DE393E0C5
:100C10000E9439148CED92E00E94510F2DEC3CECB7
:100C20004CEC5DE30E94B71D181674F48CED92E055
:100C30000E94510F01E010E020E030E040E00E940F
:100C40005A0561ED71E008C041E060E08DE393E09A
:100C50000E940F086AE571E08DE393E00E94391469
:100C600040E066E08DE393E00E940F0860E08DE3D2
:100C700093E00E94210941E066E08DE393E00E9449
:100C80000F0860E08DE393E00E9421090E94E810C4
:100C900060933703709338038093390390933A033A
:100CA00081E080932C031F910F9108950F931F9360
:100CB000CF93DF930E94E810609333037093340363
:100CC00080933503909336031092270310922603E6
:100CD000C0912603D09127030E94A80340E068E05A
:100CE0008DE393E00E940F0863ED71E08DE393E0E4
:100CF0000E94391441E06AE08DE393E00E940F08FE
:100D00006BED71E08DE393E00E9439140E94E810CE
:100D10000091330310913403209135033091360351
:100D2000601B710B820B930B683E7340810591052C
:100D300038F48091260390912703892B09F45FC032
:100D40000E94A80310922703109226030E94C60552
:100D50008091260390912703029734F48091260313
:100D60009091270397FF04C0109227031092260347
:100D700080912603909127038C179D0731F00E94E4
:100D8000A803C0912603D091270380912603909158
:100D90002703009719F00197C9F0D8CF40E067E02A
:100DA0008DE393E00E940F0860EE71E08DE393E025
:100DB0000E94391485E190E00E943003882331F2CB
:100DC000DF91CF911F910F910C94F60340E067E003
:100DD0008DE393E00E940F086AEE71E08DE393E0EB
:100DE0000E94391485E190E00E943003882309F4C1
:100DF000ADCFDF91CF911F910F910C94A8030E946A
:100E0000C60584CF0F931F9380912C03882309F488
:100E10005BC080912D0390912E03892B09F052C065
:100E200080E093E00E943F0F40E067E0811107C03F
:100E30008DE393E00E940F0866E571E016C08DE334
:100E400093E00E940F0862E08DE393E00E94210985
:100E500080E093E00E94F90E00E010E028E030E02E
:100E600040E00E945A056FEE71E08DE393E00E942E
:100E700039148CED92E00E943F0F41E067E0811150
:100E800007C08DE393E00E940F0866E571E016C08D
:100E90008DE393E00E940F0862E08DE393E00E94EF
:100EA00021098CED92E00E94F90E01E010E028E0AB
:100EB00030E040E00E945A056FEE71E08DE393E070
:100EC0000E94391410922C031F910F9108950E94D3
:100ED000C6050E94020785E190E00E94300381115F
:100EE0000C9456060895CF93DF93EC0160E08E8159
:100EF0000E94571281E090E00E94511161E08E81C2
:100F00000E94571281E090E00E94511160E08E81B2
:100F10000E94571284E690E0DF91CF910C9451111A
:100F2000EF92FF920F931F93CF93DF938C01C0E05A
:100F3000D0E0E62EF12CB7010C2E02C07595679516
:100F40000A94E2F76170F801EC0FFD1F87810E949F
:100F500057122196C430D10571F7C801DF91CF91A6
:100F60001F910F91FF90EF900C947307EF92FF92F7
:100F70000F931F93CF93DF938C01C0E0D0E0E62E58
:100F8000F12CB7010C2E02C0759567950A94E2F713
:100F90006170F801EC0FFD1F87810E9457122196A6
:100FA000C830D10571F7C801DF91CF911F910F9122
:100FB000FF90EF900C9473071F93CF93DF93EC0196
:100FC000162F642F8C810E9457128D818F3F19F04C
:100FD00060E00E9457128F85612F84FF06C0CE010A
:100FE000DF91CF911F910C94B60770E084E0759566
:100FF00067958A95E1F7CE010E949007612FCE0197
:10100000DF91CF911F910C94900740E00C94DC0786
:1010100061E00E94050880ED97E00C945111443086
:1010200008F043E0FC012389421710F04FEF420F14
:10103000FC01E40FF11D2489260F2068622F0C9417
:101040000508FC016089262F2460208B6C600C94BD
:1010500005080F931F93CF93DF93EC01423018F0F4
:101060008F8588608F874B8B1C8A80E48D8B6E8B7D
:1010700070E0605C7F4F6F8B222329F0413019F4C0
:101080008F8584608F8761E08C810E941E128D8124
:101090008F3F19F061E00E941E1261E08E810E9474
:1010A0001E1200E010E08F8584FF03C088E090E00E
:1010B00002C084E090E00817190754F4FE01E00F25
:1010C000F11F61E087810E941E120F5F1F4FEBCF5F
:1010D00080E593EC0E94511160E08C810E945712D0
:1010E00060E08E810E9457128D818F3F19F060E081
:1010F0000E9457126F8564FD1DC063E0CE010E94FF
:10110000900784E991E10E94511163E0CE010E94B1
:10111000900784E991E10E94511163E0CE010E94A1
:10112000900786E990E00E94511162E0CE010E9492
:10113000900716C06062CE010E94050884E991E123
:101140000E9451116F856062CE010E94050886E9F8
:1011500090E00E9451116F856062CE010E940508E7
:101160006F856062CE010E94050884E0888BCE0105
:101170000E942108CE010E94080882E0898B66E067
:10118000CE01DF91CF911F910F910C940508CF9262
:10119000EF920F93FC01138212828FE392E091830E
:1011A000808364838FEF8583468327830087E1866E
:1011B000C2861386148615861686178620E041E0BF
:1011C00060E1CF010F91EF90CF900C942908CF925E
:1011D000DF92EF92FF920F931F93CF93DF9300D094
:1011E000CDB7DEB78C01677088E0689FB00111242D
:1011F0006064C80149835A830E9405084981C42E4E
:101200005A81D52EE12CF12CD6016D916D01D801BA
:10121000ED91FC910190F081E02DC8010995BFEF9F
:10122000EB1AFB0AE8E0EE16F10471F70F900F904D
:10123000DF91CF911F910F91FF90EF90DF90CF90B2
:10124000089541E00E94DC0781E090E00895FC01F0
:1012500014821382608388E08183128208958DE96D
:1012600093E00C94A50BFC017483638308951F9392
:10127000CF93DF9300D0CDB7DEB7162F682F8DE95F
:1012800093E04A8359830E94BF0B612F8DE993E05D
:101290000E94660B5981652F8DE993E00E94660BD1
:1012A0004A81642F8DE993E00E94660B8DE993E0FB
:1012B0000F900F90DF91CF911F910C94DC0B1F9337
:1012C000CF93DF93182F682F8DE993E00E94BF0B17
:1012D00060E08DE993E00E94660B8DE993E00E9447
:1012E000DC0B42E0612F8DE993E00E94BC0B8DE99D
:1012F00093E00E94160B182F8DE993E00E94160BC5
:10130000D12F20E0C22F9E01282BC901DF91CF9160
:101310001F910895CF93DF93EC014B815C8143686B
:10132000516861E088810E943709698170E080E03E
:1013300090E00E94171188810E945F092A81022E85
:1013400002C0969587950A94E2F7222329F0811529
:1013500028E0920708F0906FDF91CF910895CF9326
:10136000DF93EC014B815C814368516B61E08881C4
:101370000E943709698170E080E090E00E941711B7
:1013800088810E945F092A81022E02C09695879566
:101390000A94E2F7222329F0811528E0920708F049
:1013A000906FDF91CF9108950F931F93CF93DF93A9
:1013B000EC01611116C00E94E8100A811B812C818A
:1013C0003D81601B710B820B930B613271058105AE
:1013D000910538F463E070E080E090E00E9417111E
:1013E000EACF0E94E8106A837B838C839D8381E02F
:1013F000DF91CF911F910F9108950895CF92DF92C1
:10140000EF92FF920F931F93CF93DF9300D000D002
:10141000CDB7DEB77B018C010E5B1F4FF8017183E6
:1014200060838BE1C82ED12CC70129833A834B837B
:101430005C830E94AD1329813A814B815C818111CB
:1014400013C0F1E0CF1AD10879F064E670E080E0D3
:1014500090E029833A834B835C830E9417115C815F
:101460004B813A812981E0CFBA01A901F80180813D
:1014700091810F900F900F900F90DF91CF911F915E
:101480000F91FF90EF90DF90CF900C94A713FC0189
:10149000EC5BFF4F1082118212821382FC011282D8
:1014A000138214821582411551056105710521F0E1
:1014B000CB01BA010C94171108958E5B9F4FDC018C
:1014C0008D919C91DC01ED91FC910680F781E02DDE
:1014D000099508958E5B9F4FDC018D919C91DC01F5
:1014E000ED91FC910480F581E02D099508951F93FD
:1014F000CF93DF93EC01162F0E94E8106A837B8361
:101500008C839D83CE5BDF4F65E572E08881998196
:101510000E9439144AE050E0612F888199810E942D
:10152000E8146CE572E0888199810E94391462E3C5
:1015300070E080E090E0DF91CF911F910C94171143
:101540001F93CF93DF93EC01162F8E89882311F11F
:10155000CE010E946A0A811102C085E61CC0CE013C
:101560000E946A0A8823C9F3CE010E945D0A883668
:1015700089F048F4883569F0833689F7612FCE0108
:101580000E94770A07C0813729F0863741F786E73E
:1015900002C01E8A83E6DF91CF911F9108950F93B9
:1015A0001F93CF93DF931F92CDB7DEB78C016111EC
:1015B00008C0F801468B0F90DF91CF911F910F91DA
:1015C000089581E0F801868B60E0C80149830E949C
:1015D000A00A49818336C1F7ECCF10925B031092C9
:1015E0005C0310925D0310925E0310925F031092F1
:1015F00060031092610310926203109263031092D1
:1016000064031092650310926603109267031092B0
:1016100068031092690310926A0308958091CD03C4
:1016200090E02091CE03821B910908952091CE0372
:101630008091CD03281750F4E22FF0E0E153FC4FE6
:10164000808190E02F5F2093CE0308958FEF9FEF6E
:101650000895E091CE038091CD03E81730F4F0E0D7
:10166000E153FC4F808190E008958FEF9FEF089544
:101670000895CF92DF92EF92FF920F931F93CF9333
:10168000DF937C01CB018A012091A903222389F0F9
:10169000EB016B01C40ED51ECC15DD0569F0699117
:1016A000D701ED91FC910190F081E02DC7010995E2
:1016B000F3CF642F0E94980CC801DF91CF911F9146
:1016C0000F91FF90EF90DF90CF900895CF93DF932D
:1016D0001F92CDB7DEB769832091A9032223D1F0F1
:1016E0002091AA03203240F021E030E0FC01338356
:1016F000228380E090E015C08091AB03E82FF0E0FA
:10170000E455FC4F998190838F5F8093AB03809366
:10171000AA0305C061E0CE0101960E94980C81E009
:1017200090E00F90DF91CF910895FC011382128217
:1017300048EE53E060E070E044835583668377832E
:1017400081EB92E09183808308951092CE031092F2
:10175000CD031092AB031092AA030C94E30B862FD7
:10176000413208F040E26FEC73E00E94010C1092ED
:10177000CE038093CD03089521E00C94AF0B81E05C
:101780008093A9036093CC031092AB031092AA0339
:1017900008950F93062F21E04091AA036CEA73E0AD
:1017A0008091CC030E94450C1092AB031092AA03C7
:1017B0001092A9030F91089561E00C94C90B8DE973
:1017C00093E00C94950B10925C0481E080935A0492
:1017D0001092590461E082E00E94571261E083E0B8
:1017E0000E945712E9EBF0E080818E7F8083808138
:1017F0008D7F808380E28093B80085E48093BC0075
:101800000895413208F03FC090915C049111FCCFE3
:1018100091E090935C0420935A042FEF2093EF0300
:1018200010923404240F2093330490935B0490911E
:101830005B04880F892B80935B048091590481306D
:1018400041F41092590480915B048093BB0085ECB5
:1018500001C085EE8093BC0080915C048130E1F38F
:1018600080913404841710F44091340425E334E06B
:10187000FB01D9018A2F821B841718F48D91819363
:10188000F9CF842F089580E008950F93413208F036
:1018900046C090915C049111FCCF92E090935C045F
:1018A00000935A049FEF9093EF03109234044093F7
:1018B0003304FB0165E374E0DB019A2F961B941758
:1018C00018F491919D93F9CF10925B0490915B0471
:1018D000880F892B80935B0480915904813041F4F7
:1018E0001092590480915B048093BB0085EC01C089
:1018F00085EE8093BC00222321F080915C0482302D
:10190000E1F38091EF038F3F61F08091EF0380322C
:1019100051F08091EF03803341F483E007C081E010
:1019200005C080E003C082E001C084E00F9108950B
:10193000613298F420915C04243089F4609311049E
:10194000FC0183E194E0DC012A2F281B261718F400
:1019500021912D93F9CF80E0089581E0089582E0F0
:10196000089585ED8093BC008091BC0084FDFCCF80
:1019700010925C04089585EC8093BC0010925C0486
:1019800008951F920F920FB60F9211242F933F9339
:101990004F935F936F937F938F939F93AF93BF9377
:1019A000EF93FF938091B900887F803609F49CC043
:1019B00068F5883209F45BC090F4803109F454C0B2
:1019C00038F4882309F4F5C0883009F44DC0F5C017
:1019D000883109F44CC0803209F45DC0EEC0803417
:1019E00009F468C048F4803309F455C0883309F01D
:1019F000E4C08093EF03A8C0803509F44FC0883558
:101A000009F45DC0883409F0D8C0D5C0883909F41C
:101A1000C6C0A8F4883709F467C038F4883609F4DA
:101A200063C0803709F460C0C8C0883809F4B7C003
:101A3000803909F45FC0803809F0BFC05BC0803BCB
:101A400009F485C038F4803A09F466C0883A09F48C
:101A50007EC0B3C0803C09F4A6C0883C09F4A3C092
:101A6000883B09F489C0A9C080915B0410C09091A3
:101A7000340480913304981770F5E091340481E0C8
:101A80008E0F80933404F0E0EB5CFB4F80818093F9
:101A9000BB0085EC85C08093EF038DC0E0913404DA
:101AA00081E08E0F809334048091BB00F0E0EB5C0A
:101AB000FB4F808390913404809133046DC0E0919A
:101AC000340481E08E0F809334048091BB00F0E0F9
:101AD000EB5CFB4F808380915A0481116CC081E0E4
:101AE0008093590484EA60C083E080935C04109280
:101AF000F003CFCF8091F003803208F050C0E09126
:101B0000F00381E08E0F8093F0038091BB00F0E042
:101B1000EF50FC4F8083BDCF8091F003803230F4D2
:101B2000E091F003F0E0EF50FC4F10820E94B10C06
:101B30006091F00370E0E0915504F091560481EF5C
:101B400093E009951092F0030E94BB0C36C084E02C
:101B500080935C041092120410921104E0915704D7
:101B6000F0915804099580911104811105C081E01C
:101B70008093110410921304E091120481E08E0FFF
:101B800080931204F0E0ED5EFB4F80818093BB00F8
:101B90009091120480911104981708F47ACF85E887
:101BA0008093BC000AC085EC8093BC0010925C045A
:101BB00004C01092EF030E94B10CFF91EF91BF910E
:101BC000AF919F918F917F916F915F914F913F91D5
:101BD0002F910F900FBE0F901F901895CF92DF920C
:101BE000EF92FF920F931F93CF93DF9300D0CDB767
:101BF000DEB76C018B017C0184E0E80EF11CC601AC
:101C000069837A830E946C20F80181938F01FFEF32
:101C1000CF1ADF0A69817A81CE14DF0481F7CB0104
:101C20000F900F90DF91CF911F910F91FF90EF9048
:101C3000DF90CF900895CF92DF92EF92FF920F93B3
:101C40001F93CF93DF93EC016B018A0181ED90E04C
:101C50009F878E878FE090E0998B888B1A8A1B8AEA
:101C60001C8A1D8A1E8A1F8A188E198E1A8E7E0162
:101C70008FE1E80EF11C68E4C7010E942709D982B0
:101C8000C8821D830C83C7010E942F09011511050D
:101C9000E1F001301105A9F54AE057ED63E27CE37C
:101CA0004E835F836887798740E050E060E87FE398
:101CB0004A875B876C877D8780E096E09B838A8379
:101CC00040E050E060E874E418C042E558EB6EEC88
:101CD0007FE34E835F836887798740E050E068E266
:101CE00070E44A875B876C877D8780E09AE09B83FE
:101CF0008A8340E050E060E873E44B8F5C8F6D8F27
:101D00007E8FDF91CF911F910F91FF90EF90DF9029
:101D1000CF900895CF92DF92EF92FF92CF93DF930F
:101D2000EC01888199812A89211128C0BE016D5E4C
:101D30007F4F23E0880F991F2A95E1F70E94EE0D4F
:101D400081E08A8BCB88DC88ED88FE882E813F81FC
:101D500048855985C701B6010E94681C87FD0AC0E5
:101D60002A853B854C855D85C701B6010E94B71D5C
:101D7000181624F41B8A1C8A1D8A1E8A6B897C898A
:101D80008D899E89DF91CF91FF90EF90DF90CF906A
:101D90000895CF930E948A0EC1E020E030E0A901AF
:101DA0000E94B71D18160CF0C0E08C2FCF9108953B
:101DB000CF93DF93EC01888199812C813D81213083
:101DC000310561F433E0880F991F3A95E1F7BE01C0
:101DD000695E7F4F04960E94EE0D04C01F8A188E24
:101DE000198E1A8E6F89788D898D9A8DDF91CF919A
:101DF00008950F931F93CF93DF93EC018C01015E45
:101E00001F4F6A817B81C8010E94330988819981B3
:101E1000009721F4C8010E948A0905C00197B9F40E
:101E2000C8010E94AF09BC01882777FD8095982FD3
:101E30000E94071D2B8D3C8D4D8D5E8D0E94BB1D1C
:101E400020E03EEF4FEF56E40E946C1C03C060E0C0
:101E500070E0CB01DF91CF911F910F910895CF9347
:101E60000E94F90EC1E02AE037ED43E25CE30E94F4
:101E7000B71D18160CF0C0E08C2FCF910895CF93AA
:101E8000DF93EC010E94C90E882339F0CE010E9435
:101E90002F0F882311F081E001C080E0DF91CF9106
:101EA0000895CF92DF92EF92FF92CF93DF93EC01F0
:101EB0000E943F0F882351F0CE010E94F90E20E0CE
:101EC00030E0A9010E94B71D181624F060E070E010
:101ED000CB0119C0CE010E94F90E6B017C01CE012D
:101EE0000E94D80E9B01AC01C701B6010E94031CE1
:101EF0006B017C01CE010E948A0E9B01AC01C701DF
:101F0000B6010E94BB1DDF91CF91FF90EF90DF9053
:101F1000CF9008950895853008F04CC0E82FF0E088
:101F2000EE0FFF1FE85CFE4F718360838230E1F0AB
:101F300018F4813069F004C0833019F1843071F1F4
:101F4000809169008C7F842B80936900E89A0895C2
:101F500080916900440F551F440F551F837F842BC8
:101F600080936900E99A08958091690034E0440FF4
:101F7000551F3A95E1F78F7C842B80936900EA9A8C
:101F800008958091690026E0440F551F2A95E1F7D6
:101F90008F73842B80936900EB9A089580916A0077
:101FA00094E0440F551F9A95E1F78F7C842B809322
:101FB0006A00EE9A08951F920F920FB60F921124A5
:101FC0002F933F934F935F936F937F938F939F9341
:101FD000AF93BF93EF93FF93E0913801F0913901F4
:101FE0000995FF91EF91BF91AF919F918F917F9153
:101FF0006F915F914F913F912F910F900FBE0F9076
:102000001F9018951F920F920FB60F9211242F93C5
:102010003F934F935F936F937F938F939F93AF9370
:10202000BF93EF93FF93E0913A01F0913B01099543
:10203000FF91EF91BF91AF919F918F917F916F91A0
:102040005F914F913F912F910F900FBE0F901F9076
:1020500018951F920F920FB60F9211242F933F9352
:102060004F935F936F937F938F939F93AF93BF93A0
:10207000EF93FF93E0913C01F0913D010995FF91B1
:10208000EF91BF91AF919F918F917F916F915F91F0
:102090004F913F912F910F900FBE0F901F90189569
:1020A0001F920F920FB60F9211242F933F934F93CD
:1020B0005F936F937F938F939F93AF93BF93EF93B0
:1020C000FF93E0913E01F0913F010995FF91EF915F
:1020D000BF91AF919F918F917F916F915F914F9140
:1020E0003F912F910F900FBE0F901F9018951F9248
:1020F0000F920FB60F9211242F933F934F935F933C
:102100006F937F938F939F93AF93BF93EF93FF93BF
:10211000E0914001F09141010995FF91EF91BF914C
:10212000AF919F918F917F916F915F914F913F916F
:102130002F910F900FBE0F901F9018951F920F9226
:102140000FB60F9211242F933F938F939F93AF93CA
:10215000BF9380915E0490915F04A0916004B09160
:10216000610430915D0426E0230F2D3720F40296A0
:10217000A11DB11D05C029E8230F0396A11DB11DA6
:1021800020935D0480935E0490935F04A0936004A9
:10219000B09361048091620490916304A0916404FF
:1021A000B09165040196A11DB11D809362049093C6
:1021B0006304A0936404B0936504BF91AF919F91B1
:1021C0008F913F912F910F900FBE0F901F901895F8
:1021D0002FB7F89460915E0470915F048091600461
:1021E000909161042FBF08953FB7F89480916204E5
:1021F00090916304A0916404B091650426B5A89BF6
:1022000005C02F3F19F00196A11DB11D3FBF6627E4
:10221000782F892F9A2F620F711D811D911D43E028
:10222000660F771F881F991F4A95D1F708958F92DF
:102230009F92AF92BF92CF92DF92EF92FF926B018B
:102240007C010E94F4104B015C01C114D104E10433
:10225000F104F1F00E94671B0E94F41068197909DB
:102260008A099B09683E73408105910570F321E05E
:10227000C21AD108E108F10888EE880E83E0981EA2
:10228000A11CB11CC114D104E104F10429F7DDCF74
:10229000FF90EF90DF90CF90BF90AF909F908F9086
:1022A00008958330910528F0880F991F04970197AE
:1022B000F1F70895789484B5826084BD84B5816017
:1022C00084BD85B5826085BD85B5816085BDEEE63E
:1022D000F0E0808181608083E1E8F0E0108280811D
:1022E00082608083808181608083E0E8F0E080818B
:1022F00081608083E1E9F0E0808182608083808179
:1023000081608083E0E9F0E0808181608083E1EC9E
:10231000F0E080818460808380818260808380811E
:1023200081608083E3ECF0E0808181608083E0EC79
:10233000F0E0808182608083E2ECF0E08081816067
:102340008083EAE7F0E0808184608083808182601E
:10235000808380818E7F80838081806880830895E0
:10236000823108F08251E82FF0E0E653FF4FE4910C
:1023700080917B00E3FB222720F930E095E0220FDB
:10238000331F9A95E1F78F7D822B80937B00E77056
:102390008091420120E4829FC0011124E82BE09348
:1023A0007C0080917A00806480937A0080917A002A
:1023B00086FDFCCF809178002091790090E0922BEF
:1023C000089590E0FC013197EF30F105B0F5EA5A3D
:1023D000FF4F0C94441E809180008F7703C0809142
:1023E00080008F7D80938000089580918000877F9A
:1023F000F9CF84B58F7702C084B58F7D84BD0895F1
:10240000809190008F7707C0809190008F7D03C0EE
:1024100080919000877F8093900008958091C00004
:102420008F7703C08091C0008F7D8093C000089596
:102430008091C200877F8093C2000895CF93DF937D
:1024400090E0FC01EB50FF4F2491FC01EC5EFE4F4D
:102450008491882349F190E0880F991FFC01E15B8A
:10246000FE4FA591B4918F5B9E4FFC01C591D49115
:102470009FB7611108C0F8948C91209582238C93AA
:10248000888182230AC0623051F4F8948C91322FF3
:10249000309583238C938881822B888304C0F894A1
:1024A0008C91822B8C939FBFDF91CF9108950F93D6
:1024B0001F93CF93DF931F92CDB7DEB7282F30E065
:1024C000F901EA52FF4F8491F901EB50FF4F14914B
:1024D000F901EC5EFE4F04910023C9F0882321F03E
:1024E00069830E94E1116981E02FF0E0EE0FFF1F88
:1024F000EF5BFE4FA591B4919FB7F8948C91611159
:1025000003C01095812301C0812B8C939FBF0F9036
:10251000DF91CF911F910F910895CF93DF93282FD3
:1025200030E0F901EA52FF4F8491F901EB50FF4F7F
:10253000D491F901EC5EFE4FC491CC2391F081114E
:102540000E94E111EC2FF0E0EE0FFF1FED5CFE4F5B
:10255000A591B4912C912D2381E090E021F480E0AD
:1025600002C080E090E0DF91CF910895CF93DF9398
:102570001F92CDB7DEB76983DC01ED91FC9102803B
:10258000F381E02D41E050E0BE016F5F7F4F099580
:102590000F90DF91CF910895CF93DF93EC018C855D
:1025A0009D8597FF05C082E00E94DF169D878C877E
:1025B0008C859D85DF91CF91089583E00C947519EA
:1025C000FC018485958597FD06C082E00E948816EF
:1025D00090E00196089582E00E94881690E00895A8
:1025E000FC018485958597FD05C02FEF3FEF35876A
:1025F0002487089582E00C94DF16CF93DF93EC01DB
:1026000080914E01882331F083E00E941017181644
:10261000190634F081E090E09B838A8380E090E0AB
:10262000DF91CF910895FC0120812E5F208342E449
:1026300050E06DE571E080E80C94AA17FC0121815F
:102640008081813A59F4213209F04BC047E050E0D3
:1026500067E471E080E00E94AA175EC0813209F051
:1026600040C0233289F4838190E0982F88273281FB
:10267000832BA0E0B0E08093430190934401A093AA
:102680004501B09346010FC0203239F467E070E095
:1026900087E491E00E94DB1709C0223221F4828195
:1026A00080934E0103C02D7F2032B1F58091B60496
:1026B000811103C0E0E0F8E002C0EEEFFAE08091A3
:1026C000470190914801A0914901B0914A01803B96
:1026D0009440A105B10511F580914E0180FF03C022
:1026E0001DC080E00895EE3F2AE0F20731F08081BE
:1026F00091819093FF0A8093FE0A87E797E7918381
:1027000080832BE088E190E00FB6F894A895809341
:1027100060000FBE2093600081E0089588E10FB64D
:10272000F89480936000109260000FBEA895EE3F71
:102730008AE0F80739F08091FE0A9091FF0A9183B0
:102740008083EACF1092FF0A1092FE0AE5CF2FEFA6
:102750003FEFFC01358724870895CF93C0914E0148
:102760006AE070E080E090E00E94171181E0C11102
:1027700001C080E0CF91089510926904109268041E
:1027800088EE93E0A0E0B0E080936A0490936B043D
:10279000A0936C04B0936D0481EC92E09093670475
:1027A000809366048FEF9FEF90937304809372047D
:1027B000089508950E945A110E94D91387EB94E05E
:1027C0000E94F9190E947304C0E0D0E00E946707DC
:1027D0002097E1F30E940000F9CFCF92DF92EF92B1
:1027E000FF920F931F93CF93DF937C016A01EB015C
:1027F00000E010E00C151D0571F06991D701ED9115
:10280000FC910190F081E02DC7010995892B19F009
:102810000F5F1F4FEFCFC801DF91CF911F910F9135
:10282000FF90EF90DF90CF9008956115710581F0D2
:10283000DB010D900020E9F7AD0141505109461B25
:10284000570BDC01ED91FC910280F381E02D09949E
:1028500080E090E00895DC01ED91FC91DB0114969D
:102860004D915C9115976D917C910280F381E02DE3
:1028700009940C941514DC01ED91FC910190F08108
:10288000E02D09948F929F92AF92BF92DF92EF92C8
:10289000FF920F931F93CF93DF93CDB7DEB7A1972E
:1028A0000FB6F894DEBF0FBECDBF7C01F42FD52E3E
:1028B000CB0119A2223008F42AE08E010F5D1F4FD0
:1028C000822E912CA12CB12C6F2F7D2DA50194016E
:1028D0000E94221EF22FD32ECA01015011096A3024
:1028E00014F4E0E301C0E7E3E60FD801EC93232BF7
:1028F000242B252B49F7B801C7010E941514A19676
:102900000FB6F894DEBF0FBECDBFDF91CF911F9100
:102910000F91FF90EF90DF90BF90AF909F908F90BE
:102920000895CF92DF92EF92FF920F931F93CF9370
:10293000DF93EC016A017B012115310579F4E8810F
:10294000F9810190F081E02D642FDF91CF911F91EB
:102950000F91FF90EF90DF90CF9009942A303105CE
:10296000E9F477FF1AC06DE20E943B148C01442702
:102970005527BA014C195D096E097F092AE0CE017D
:102980000E944214800F911FDF91CF911F910F91F0
:10299000FF90EF90DF90CF9008952AE0B701A60155
:1029A000CE01DF91CF911F910F91FF90EF90DF90BB
:1029B000CF900C9442142115310541F4DC01ED91C6
:1029C000FC910190F081E02D642F09940C94421445
:1029D0009A01462F50E060E070E00C94DB144F92B7
:1029E0005F926F927F928F929F92AF92BF92CF929F
:1029F000DF92EF92FF920F931F93CF93DF93EC013F
:102A00006A017B01B22E9A01AB01C701B6010E9497
:102A10001E1E882319F06DEC72E027C026013701D5
:102A2000E89477F82FEF3FEF4FE75FE7C301B2017C
:102A30000E941E1E81110DC02FEF3FEF4FE75FE791
:102A4000C301B2010E94681C18161CF461ED72E00B
:102A50000CC02FEF3FEF4FE75FE4C701B6010E94C4
:102A6000B71D1816ACF465ED72E0CE01DF91CF9181
:102A70001F910F91FF90EF90DF90CF90BF90AF909C
:102A80009F908F907F906F905F904F900C94151453
:102A90002FEF3FEF4FE75FECC701B6010E94681CC4
:102AA00087FDE1CF20E030E0A901C701B6010E9417
:102AB000681C87FF0AC06DE2CE010E943B148C01A6
:102AC000F7FAF094F7F8F09402C000E010E0A12CBF
:102AD00060E070E080E09FE3AB1441F020E030E084
:102AE00040E251E40E946C1CA394F6CF9B01AC0120
:102AF000C701B6010E94041C6B017C010E94D91C15
:102B00002B013C010E94051D9B01AC01C701B601D0
:102B10000E94031C6B017C012AE0B301A201CE01DB
:102B20000E944214080F191FBB2039F069ED72E0B2
:102B3000CE010E941514080F191F7B2C772041F13C
:102B400020E030E040E251E4C701B6010E94BB1D25
:102B50006B017C010E94D41C4B01AA2497FCA09419
:102B6000BA2C2AE030E0B501A401CE010E949114F4
:102B7000080F191FC501B4010E94071D9B01AC017C
:102B8000C701B6010E94031C6B017C017A94D6CF69
:102B9000C801DF91CF911F910F91FF90EF90DF90CF
:102BA000CF90BF90AF909F908F907F906F905F90ED
:102BB0004F9008950C94EF144091BB045091BC04C5
:102BC0002091B9043091BA0442175307B4F490919C
:102BD000E8009570E1F39091E80092FD19C08093B0
:102BE000F1008091BB049091BC0401968F739927EA
:102BF000892B19F48EEF8093E8008091BB049091AB
:102C0000BC0401969093BC048093BB0481E00895BA
:102C100080E00895CF92DF92EF92FF920F931F937F
:102C2000CF93DF931F92CDB7DEB7082F162FF42E68
:102C3000862F880F8E5F99830E94DC1583E00E94A7
:102C4000DC15E02EC02E9981D92E8C2D8E1981177E
:102C500098F4F601F7FE02C0849101C080810E94C1
:102C6000DC15082F80E00E94DC158023FFEFCF1ACF
:102C7000DF0A8111EACF01C081E00F90DF91CF918F
:102C80001F910F91FF90EF90DF90CF90089580916A
:102C9000D70081608093D70080EA8093D80089B5FF
:102CA0008F7E89BD89B5826089BD09B400FEFDCFE4
:102CB00061E070E080E090E00E9417118091D80000
:102CC0008F7C80618093D8008091E000807F80932A
:102CD000E0000895CF93DF931F92CDB7DEB719823E
:102CE000CE0101960E9413130E94EF1BBE016F5F7D
:102CF0007F4F0E94681B89810F90DF91CF910895CB
:102D00002FB7FC012083F89467706093E900089561
:102D1000CF93DF931F92CDB7DEB7682FCE01019618
:102D20000E9480168091F20099819FBF0F90DF91E1
:102D3000CF910895FF920F931F93CF93DF9300D00D
:102D4000CDB7DEB7F62E8A019091BF04992311F01A
:102D500057FF03C08FEF9FEF2AC0682FCE01019667
:102D60007A830E9480168091F20090E0A8017A8117
:102D7000801791070CF4AC01EF2DF72FF40E84E6C9
:102D8000FE1631F08093C0049091F1009193F8CF3A
:102D90004115510521F08091F200882321F08981AD
:102DA0008FBFCA0104C08BE68093E800F8CF0F9074
:102DB0000F90DF91CF911F910F91FF900895CF93C6
:102DC000DF931F92CDB7DEB741E050E0BE016F5FE9
:102DD0007F4F0E949A16019719F4898190E002C0F2
:102DE0008FEF9FEF0F90DF91CF910895CF93DF93F7
:102DF0001F92CDB7DEB7682FCE0101960E948016D4
:102E00009091E800892F807295FF04C09091F200A4
:102E100080E4891B99819FBF0F90DF91CF91089526
:102E20006F927F928F929F92AF92BF92CF92DF92DA
:102E3000EF92FF920F931F93CF93DF931F92CDB723
:102E4000DEB7782E7B01C42EB52E8091BF04882377
:102E500069F0042F152F8AEFD82E872D8072982EB7
:102E60009AE3A92E872D8074882E11C08FEF9FEFD3
:102E700056C0872D0E94F616682E81110CC0DA9478
:102E8000A9F361E070E080E090E00E941711011565
:102E9000110579F73BC0282F30E0021713070CF417
:102EA000602E672DCE0101960E9480168091E80069
:102EB00085FF29C0262D30E0021B130B992039F025
:102EC0006A948FEF6816B1F01092F100F9CFF70114
:102ED000862D77FE07C0815058F094919093F100B1
:102EE0003196F9CF815020F091919093F100FACF73
:102EF000E20EF31E8091E80085FF0EC0011511055A
:102F000011F4811009C089818FBFC1CF84E68093FD
:102F1000C1048C2D9B2D03C0A092E800F4CF0F902C
:102F2000DF91CF911F910F91FF90EF90DF90CF90A5
:102F3000BF90AF909F908F907F906F900895109268
:102F4000E9001092BC041092BB049093BA048093E1
:102F5000B9040895CF92DF92FF920F931F93CF93FE
:102F6000DF9300D0CDB7DEB7F82E8A016B010115D3
:102F70001105B1F0F601F7FE02C0849101C0808115
:102F800049835A830E94DC1501501109FFEFCF1AC3
:102F9000DF0A49815A818111EACF8FEF9FEF01C08B
:102FA000CA010F900F90DF91CF911F910F91FF9069
:102FB000DF90CF900895CF93DF939B01A4E6BBEF02
:102FC00021153105F9F0A9012134310514F040E44F
:102FD00050E0E091E800E2FFFCCFFB01E21BF30BC5
:102FE000E80FF91FCE2FC40FCE1729F0D091F100B2
:102FF000D0833196F9CFA093C004B093E800241B8E
:10300000350BDECFCB01DF91CF9108951F920F9248
:103010000FB60F921124DF92EF92FF920F931F933E
:103020002F933F934F935F936F937F938F939F93D0
:10303000AF93BF93EF93FF93CF93DF93CDB7DEB7FB
:103040006C97DEBFCDBF1092E9008091E80083FF4E
:103050002EC1FE0175968F01AE01435E5F4F9F0149
:103060002F5F3F4F8091F10080832417350711F0C7
:10307000F901F5CF84E68093C00482EF8093E800E5
:103080005D8957FF05C08091E80080FFFCCF03C039
:103090008EEF8093E800852F807609F0EFC04E898F
:1030A0008F89D88C41110CC0503829F48091BE040E
:1030B0008093F10002C01092F1001092F100F0C074
:1030C000282F30E03D29413051F45111E9C0213021
:1030D000310509F0E5C08091BE048D7F0BC04330FF
:1030E00061F45111DDC02130310509F0D9C0809162
:1030F000BE0482608093BE04D3C0453041F49091F9
:10310000E80090FFFCCF80688093E300C9C04630A0
:1031100009F08BC0EB8CFC8C22E0D2122CC080E03A
:1031200090E00E949F170E946A1699E08E010F5F3F
:103130001F4FF801292F11922A95E9F79983DA8216
:1031400091E09E8390EA98879AEF99872091BB043B
:103150003091BC04275F3F4F3C832B838D83C70195
:103160000E949F1749E050E0B80180E00E94AA1732
:103170000E946A1695C0C7010E949F170E94EF1B0C
:10318000B8010E94911B009719F00CF089C08CC007
:1031900081E0D8120EC08B8D9C8D089719F481E0C8
:1031A0008093B8048091B80481112FC061EB71E065
:1031B00031C0E3E0DE1278C08F89882349F1823084
:1031C00029F440E86CE08CEC91E01CC0813029F4DB
:1031D00040E868E083EC91E015C0833009F064C0FA
:1031E0000E94EF1B8E010F5F1F4FB8010E94B01BA2
:1031F000F80101900020E9F73197E01BF10B40E066
:103200006E2FC8010E940A1649C06FE971E002C022
:1032100069ED71E06115710509F446C0FB01449147
:1032200050E080E80E94AA173BC04730E9F14830DF
:1032300021F481E08093F10033C0493089F5537067
:1032400099F5E0E5F1E081E021E036E39081992312
:1032500061F08093E9002093EB0091919093EC0052
:103260003093ED008F5F873089F78EE78093EA0017
:103270001092EA008F898093BF0412C08B8D9C8DC1
:103280000E949F17898D811104C0C8010E941E13DE
:1032900005C00E94EF1BB8010E94CF1B882321F0BC
:1032A0008EEF8093E80003C081E28093EB006C9680
:1032B0000FB6F894DEBF0FBECDBFDF91CF91FF9167
:1032C000EF91BF91AF919F918F917F916F915F919E
:1032D0004F913F912F911F910F91FF90EF90DF90B1
:1032E0000F900FBE0F901F9018958093E90080916A
:1032F000F200882319F08AE38093E80008951F9272
:103300000F920FB60F9211242F933F934F935F9319
:103310006F937F938F939F93AF93BF93CF93EF93CD
:10332000FF93C091E1008091E100837F8093E100F1
:103330008093E100C3FF0FC01092E90081E0809309
:10334000EB001092EC0082E38093ED001092BF043A
:1033500088E08093F000C2FF15C083E00E947519D9
:103360008091C104882329F08091C1048150809309
:10337000C1048091C004882329F08091C004815049
:103380008093C004C4FF10C08091E2008E7E8160F3
:103390008093E2008091E1008F7E8093E100809134
:1033A000BD048E7E806111C0C0FF11C08091E2001B
:1033B0008E7E80618093E2008091E1008E7E80931A
:1033C000E1008091BD048E7E81608093BD04FF91F9
:1033D000EF91CF91BF91AF919F918F917F916F911D
:1033E0005F914F913F912F910F900FBE0F901F90C3
:1033F00018951092BF041092BE041092BD040E9452
:1034000047168091E1008E7E8093E1008DE08093ED
:10341000E200EEEFFFE7859194918B3F9C4D19F40C
:1034200081E08093B6040895FC01808191810C9421
:10343000031FCF93DF93EC0188819981009711F0EE
:103440000E94031F198218821D821C821B821A820D
:10345000DF91CF9108950F931F93CF93DF93EC01EA
:103460008B016F5F7F4F888199810E94921F009727
:1034700031F0998388831B830A8381E001C080E057
:10348000DF91CF911F910F910895CF93DF93EC01BE
:1034900088819981892B29F08A819B8186179707DA
:1034A00060F4CE010E942B1A882341F08C819D810B
:1034B000892B19F4E881F981108281E0DF91CF91A5
:1034C0000895EF92FF920F931F93CF93DF93EC0138
:1034D0007B018A01BA010E94451A811104C0CE0104
:1034E0000E94191A07C01D830C83B7018881998136
:1034F0000E946520CE01DF91CF911F910F91FF9027
:10350000EF900895FC0111821082138212821582BD
:1035100014826115710559F0FB0101900020E9F753
:10352000AF0141505109461B570B0C94611A089585
:103530000F931F93CF93DF938C01EB01FC018081EC
:103540009181009799F0428153812C813D814217EE
:10355000530750F0688179810E9465208C819D819C
:10356000F8019583848313C00E94031F8881998189
:10357000F801918380838A819B81938382838C81EC
:103580009D8195838483198218821B821A821D82F1
:103590001C82DF91CF911F910F910895CF93DF93FC
:1035A000EC018617970711F00E94981ACE01DF915F
:1035B000CF910895CF93DF93EC016115710561F010
:1035C000FB0101900020E9F7AF0141505109461B72
:1035D000570B0E94611A02C00E94191ACE01DF9196
:1035E000CF910895EF92FF920F931F93CF93DF93A4
:1035F000CDB7DEB7A1970FB6F894DEBF0FBECDBF33
:103600007C01CB01BA01F701118210821382128270
:103610001582148242E0420F8E010F5F1F4F0E94FD
:103620004A1EBC01C7010E94DA1AA1960FB6F8948F
:10363000DEBF0FBECDBFDF91CF911F910F91FF90E5
:10364000EF900895BF92CF92DF92EF92FF920F9387
:103650001F93CF93DF936C017B01EA01890124174B
:10366000350720F48D2FE901042F182F64E672E04E
:10367000C6010E94821AD70114968D919C911597CC
:10368000C817D907C8F48017910708F48C01D7012F
:10369000ED91FC911197E00FF11FB08010826D91B8
:1036A0007C916C0F7D1FC6010E94DA1AD701ED9143
:1036B000FC91E00FF11FB082C601DF91CF911F9105
:1036C0000F91FF90EF90DF90CF90BF9008950895F5
:1036D000EF92FF920F931F93CF93DF937B01FC0137
:1036E000C281D38100E010E0209781F0E881F98168
:1036F0000280F381E02DB701CE01099597FD08C046
:10370000080F191F0884D985C02DEECFC80102C04B
:103710008FEF9FEFDF91CF911F910F91FF90EF906F
:1037200008950F931F93CF93DF938B01FC01C28108
:10373000D381209771F0E881F9810480F581E02D33
:10374000B801CE010995009731F40884D985C02DC0
:10375000F0CF80E090E0DF91CF911F910F9108951D
:103760000F931F93CF93DF938B01FC01C281D38111
:10377000209771F0E881F9810680F781E02DB8018A
:10378000CE010995080F111D0884D985C02DF0CFF1
:10379000F8011082DF91CF911F910F9108950F933F
:1037A0001F93CF93DF938B01FC01C281D3812097BC
:1037B00071F0E881F9810190F081E02DB801CE012E
:1037C0000995811106C00884D985C02DF0CF80E00D
:1037D00001C081E0DF91CF911F910F9108958091F9
:1037E000C60481110DC082E08093C20484E08093FE
:1037F000C3041092C5041092C40481E08093C604EF
:1038000082EC94E008955058BB27AA270ED075C1CA
:1038100066D130F06BD120F031F49F3F11F41EF4EB
:103820005BC10EF4E095E7FB51C1E92F77D180F33E
:10383000BA17620773078407950718F071F49EF5AD
:103840008FC10EF4E0950B2EBA2FA02D0B01B901FC
:1038500090010C01CA01A0011124FF27591B99F006
:10386000593F50F4503E68F11A16F040A22F232F12
:10387000342F4427585FF3CF469537952795A79562
:10388000F0405395C9F77EF41F16BA0B620B730B09
:10389000840BBAF09150A1F0FF0FBB1F661F771F7A
:1038A000881FC2F70EC0BA0F621F731F841F48F42F
:1038B000879577956795B795F7959E3F08F0B3CFB5
:1038C0009395880F08F09927EE0F9795879508959F
:1038D000D9D008F481E008950CD00FC107D140F091
:1038E000FED030F021F45F3F19F0F0C0511139C122
:1038F000F3C014D198F39923C9F35523B1F3951B61
:10390000550BBB27AA2762177307840738F09F5F00
:103910005F4F220F331F441FAA1FA9F333D00E2E6F
:103920003AF0E0E830D091505040E695001CCAF7DC
:1039300029D0FE2F27D0660F771F881FBB1F2617A1
:1039400037074807AB07B0E809F0BB0B802DBF0174
:10395000FF2793585F4F2AF09E3F510568F0B6C08D
:1039600000C15F3FECF3983EDCF386957795679551
:10397000B795F7959F5FC9F7880F911D9695879525
:1039800097F90895E1E0660F771F881FBB1F621744
:1039900073078407BA0720F0621B730B840BBA0B02
:1039A000EE1F88F7E095089504D06894B111D9C04E
:1039B0000895BCD088F09F5790F0B92F9927B75140
:1039C000A0F0D1F0660F771F881F991F1AF0BA95E3
:1039D000C9F712C0B13081F0C3D0B1E00895C0C0C2
:1039E000672F782F8827B85F39F0B93FCCF38695D9
:1039F00077956795B395D9F73EF490958095709536
:103A000061957F4F8F4F9F4F0895E89409C097FBB2
:103A10003EF490958095709561957F4F8F4F9F4FA5
:103A20009923A9F0F92F96E9BB279395F6958795E9
:103A300077956795B795F111F8CFFAF4BB0F11F4AC
:103A400060FF1BC06F5F7F4F8F4F9F4F16C0882353
:103A500011F096E911C0772321F09EE8872F762F89
:103A600005C0662371F096E8862F70E060E02AF0CA
:103A70009A95660F771F881FDAF7880F96958795B6
:103A800097F90895990F0008550FAA0BE0E8FEEF8B
:103A900016161706E807F907C0F012161306E40712
:103AA000F50798F0621B730B840B950B39F40A260B
:103AB00061F0232B242B252B21F408950A2609F4E9
:103AC000A140A6958FEF811D811D089597F99F67ED
:103AD00080E870E060E008959FEF80EC0895002496
:103AE0000A941616170618060906089500240A9463
:103AF00012161306140605060895092E0394000CE9
:103B000011F4882352F0BB0F40F4BF2B11F460FF77
:103B100004C06F5F7F4F8F4F9F4F089557FD9058A0
:103B2000440F551F59F05F3F71F04795880F97FB81
:103B3000991F61F09F3F79F087950895121613063B
:103B40001406551FF2CF4695F1DF08C0161617066A
:103B50001806991FF1CF869571056105089408959F
:103B6000E894BB2766277727CB0197F908958ADF6A
:103B700008F48FEF08950BD0C0CFB1DF28F0B6DF87
:103B800018F0952309F0A2CFA7CF1124EACFC6DF02
:103B9000A0F3959FD1F3950F50E0551F629FF00160
:103BA000729FBB27F00DB11D639FAA27F00DB11DB9
:103BB000AA1F649F6627B00DA11D661F829F222742
:103BC000B00DA11D621F739FB00DA11D621F839FC9
:103BD000A00D611D221F749F3327A00D611D231F9F
:103BE000849F600D211D822F762F6A2F11249F57ED
:103BF00050408AF0E1F088234AF0EE0FFF1FBB1F10
:103C0000661F771F881F91505040A9F79E3F5105AE
:103C100070F05CCFA6CF5F3FECF3983EDCF3869567
:103C200077956795B795F795E7959F5FC1F7FE2B59
:103C3000880F911D9695879597F9089523DF880B36
:103C4000990B0895A1E21A2EAA1BBB1BFD010DC002
:103C5000AA1FBB1FEE1FFF1FA217B307E407F5073C
:103C600020F0A21BB30BE40BF50B661F771F881F18
:103C7000991F1A9469F760957095809590959B01AE
:103C8000AC01BD01CF010895EE0FFF1F0590F49127
:103C9000E02D0994EF920F931F93CF93DF93E801E8
:103CA00047FF02C034E101C034E0E42FFF27E7FD05
:103CB000F095F7FF03C0F195E195F109E32E022F8E
:103CC0002E2FAE010E947420CE01DF91CF911F9163
:103CD0000F91EF900895CF93DF938230910510F408
:103CE00082E090E0E091D004F091D10420E030E057
:103CF000A0E0B0E0309739F1408151814817590771
:103D0000B8F04817590771F482819381109729F010
:103D100013969C938E9312972CC09093D10480930A
:103D2000D00427C02115310531F04217530718F090
:103D3000A901DB0101C0EF019A01BD01DF01028091
:103D4000F381E02DD7CF21153105F9F0281B390B70
:103D50002430310580F48A819B816115710521F041
:103D6000FB019383828304C09093D1048093D00499
:103D7000FE01329644C0FE01E20FF31F819391933E
:103D800022503109398328833AC02091CE043091E2
:103D9000CF04232B41F42091020130910301309391
:103DA000CF042093CE042091000130910101211510
:103DB000310541F42DB73EB7409104015091050102
:103DC000241B350BE091CE04F091CF04E217F307EA
:103DD000A0F42E1B3F0B2817390778F0AC014E5F7B
:103DE0005F4F2417350748F04E0F5F1F5093CF04E5
:103DF0004093CE048193919302C0E0E0F0E0CF01C4
:103E0000DF91CF910895CF93DF93009709F487C096
:103E1000FC01329713821282C091D004D091D10458
:103E2000209781F420813181280F391F8091CE04A1
:103E30009091CF048217930779F5F093CF04E09324
:103E4000CE046DC0DE0120E030E0AE17BF0750F4B5
:103E500012964D915C9113979D014115510509F101
:103E6000DA01F3CFB383A28340815181840F951F80
:103E70008A179B0771F48D919C911197840F951F60
:103E800002969183808312968D919C9113979383D0
:103E900082832115310529F4F093D104E093D004F5
:103EA0003EC0D9011396FC93EE9312974D915D910C
:103EB000A40FB51FEA17FB0779F480819181840F65
:103EC000951F0296D90111969C938E9382819381BE
:103ED00013969C938E931297E0E0F0E08A819B8189
:103EE000009719F0FE01EC01F9CFCE01029628816E
:103EF0003981820F931F2091CE043091CF0428176F
:103F0000390769F4309729F41092D1041092D00443
:103F100002C013821282D093CF04C093CE04DF91EB
:103F2000CF910895A0E0B0E0E8E9FFE10C94CE2243
:103F3000EC01CB01209719F40E946B1EB8C0FE0162
:103F4000E60FF71F9E0122503109E217F30708F42C
:103F5000ACC0D9010D911C91119706171707B8F045
:103F60000530110508F49FC0A801445051094617B7
:103F7000570708F498C002501109061B170B01934C
:103F800011936D937C93CF010E94031F8CC05B0142
:103F9000A01AB10A4E01800E911EA091D004B091DA
:103FA000D104612C712C60E070E0109709F449C0D5
:103FB000A815B905C9F5ED90FC901197670142E08D
:103FC000C40ED11CCA14DB0478F147018A189B087F
:103FD000640142E0C40ED11C1296BC901297139655
:103FE000AC91B5E0CB16D10440F0B282A3839182AC
:103FF0008082D9018D939C9309C00E5F1F4F0E0DD7
:104000001F1DF90111830083EB2DFA2F6115710536
:1040100031F0DB011396FC93EE93129744C0F093BA
:10402000D104E093D0043FC06D917C911197661646
:10403000770608F43B01BD0112960D90BC91A02DAE
:10404000B4CF6091CE047091CF0468157905E9F47E
:1040500068167906D0F44091000150910101411594
:10406000510541F44DB75EB76091040170910501AF
:10407000461B570BE417F507C0F4F093CF04E09309
:10408000CE04F901918380830EC00E946B1E7C01D7
:10409000009759F0A801BE010E945C20CE010E9449
:1040A000031FC70104C0CE0102C080E090E0CDB77D
:1040B000DEB7EEE00C94EA22FB01DC0102C00190C5
:1040C0000D9241505040D8F70895FB01DC0101905A
:1040D0000D920020E1F70895F999FECF92BD81BDC0
:1040E000F89A992780B508956F927F929F92AF9228
:1040F000BF92CF92DF92EF92FF920F931F93CF93D5
:10410000DF93CDB7DEB729970FB6F894DEBF0FBEA9
:10411000CDBF6A01B22E102F0C3320F4FF24F3948C
:10412000F00E02C04CE3F42E0F2D27E0AE014F5FDE
:104130005F4F0E94F2217981272F2970213031F0C1
:10414000E1FC06C0E0FC06C060E005C06DE203C013
:104150006BE201C060E2AE2DA07173FF36C0662332
:1041600011F084E001C083E08B1510F4B81A01C08F
:10417000B12CA1110BC0F6018B2D90E2882319F010
:1041800091938150FBCFCB0CD11CB12C662331F025
:10419000F601608396012F5F3F4F6901C6010396C8
:1041A000E2FE05C02EE4F601208331E404C02EE6D1
:1041B000F601208331E631832283FC012B2D30E28E
:1041C0002223F1F131932150FBCF72FF40C06623CF
:1041D00011F084E001C083E08B1510F4B81A01C01F
:1041E000B12CA1110BC0F6018B2D90E2882319F0A0
:1041F00091938150FBCFCB0CD11CB12C662331F0B5
:10420000F601608396012F5F3F4F6901C601039657
:10421000E2FE07C029E4F60120832EE4218326E490
:1042200006C029E6F60120832EE6218326E62283B6
:10423000FC012B2D30E2222319F031932150FBCFCA
:10424000FC01EB0DF11D10828EEF9FEFB7C0B1E0C6
:10425000611101C0B0E04B2F50E01816190624F48C
:104260009C012F5F3F4F02C021E030E0240F351F3B
:10427000112329F0412F50E04F5F5F4F02C040E013
:1042800050E0420F531F2B2D30E04217530714F418
:10429000B41A01C0B12C2E2D287159F4F6012B2D22
:1042A00030E2222319F031932150FBCFCB0CD11CEB
:1042B000B12CBB2331F0F601608396012F5F3F4F95
:1042C0006901A1110BC0F6012B2D30E3222319F057
:1042D00031932150FBCFCB0CD11CB12CF80E0A81AD
:1042E000372F3071A32E74FF03C0013309F4FA9401
:1042F0001F142CF42F2D293018F028E001C021E0E4
:10430000682F392F97FF02C060E030E0462F532F0F
:10431000612C712C3EE2932EBC01621B71099B0142
:10432000DC01A41BB50BE1E0F0E0EC0FFD1FAE0FCC
:10433000BF1FE12EF12CF194E194F1084F3FFFEF04
:104340005F0731F4F6019082B6016F5F7F4F6B011A
:10435000841795074CF02417350734F4BD01660D1A
:10436000771DFB01118101C010E341505109FFEF9E
:104370006F1A7F0AB6016F5F7F4F4E155F0524F0FD
:10438000F60110836B01DACF4817590739F4063369
:1043900020F4053319F4A11001C011E3F6011083D4
:1043A000FB018B2D90E2882319F091938150FBCF74
:1043B000FB01EB0DF11D108280E090E029960FB615
:1043C000F894DEBF0FBECDBFDF91CF911F910F914B
:1043D000FF90EF90DF90CF90BF90AF909F907F9035
:1043E0006F900895283008F027E03327DA01990FFD
:1043F000311D87FD916000966105710539F43260C9
:104400002E5F3D9330E32A95E1F708959F3F30F00A
:1044100080387105610509F03C5F3C5F3D93913048
:1044200008F08068911DDF93CF931F930F93FF9245
:10443000EF92192F987F9695E92F96959695E90F0B
:10444000FF27E95CFD4F99273327EE24FF24A701BE
:10445000E70105900894079428F4360FE71EF81E2C
:10446000491F511D660F771F881F991F0694A1F7DA
:104470000590079428F4E70EF81E491F561FC11D2A
:10448000770F881F991F661F0694A1F70590079460
:1044900028F4F80E491F561FC71FD11D880F991FFA
:1044A000661F771F0694A1F70590079420F4490F23
:1044B000561FC71FD81F990F661F771F881F0694A6
:1044C000A9F784911095177041F0D695C795579527
:1044D0004795F794E7941A95C1F7EDEDF1E06894EC
:1044E0001590159135916591959105907FE27395A1
:1044F000E118F10A430B560BC90BD009C0F7E10CC8
:10450000F11E431F561FC91FD01D7EF4703311F4D6
:104510008A95E6CFE894015030F0080F0AF400279E
:10452000021708F4202F2395022F7A3328F079E31D
:104530007D932A95E9F710C07D932A9589F6069414
:1045400097956795379517951794E118F10A430BDE
:10455000560BC90BD00998F023957E9173957A3349
:1045600008F070E37C932013B8F77E9170617D931F
:1045700030F0839571E37D9370E32A95E1F7112480
:10458000EF90FF900F911F91CF91DF91992787FDB9
:10459000909508952F923F924F925F926F927F92E3
:1045A0008F929F92AF92BF92CF92DF92EF92FF9243
:1045B0000F931F93CF93DF93CDB7DEB7CA1BDB0BEF
:1045C0000FB6F894DEBF0FBECDBF09942A88398894
:1045D00048885F846E847D848C849B84AA84B9849B
:1045E000C884DF80EE80FD800C811B81AA81B981A7
:1045F000CE0FD11D0FB6F894DEBF0FBECDBFED01BB
:064600000895F894FFCFBD
:104606000000D204800003011E1714141C000002CF
:10461600060E0602000000080C0E0C08000004003E
:104626000400040004000A040A040A040A00320012
:1046360000009001000001008A0F8A0F8A0F8A0F7E
:104646008A0F01FFFFFFFF00E100000000000000ED
:10465600C180810000002020202020202020200072
:10466600456E746572696E670043616C696272615A
:1046760074696F6E204D6F64650043616C69627288
:104686006174653F0048656C69756D00426F7468BA
:10469600202000564D4450565F317C315F564D44C4
:1046A60050560D0A005472696D697820416E616C2E
:1046B600797A6572007600762000302E3100506CD3
:1046C6006561736500526563616C696272617465E8
:1046D6000025004F7074696F6E73004D656E75002E
:1046E60043616C6962726174650045786974002083
:1046F6006D560043616C6962726174696F6E204623
:104706004F323A0025204F787967656E00436C6911
:10471600636B20746F00636F6E6669726D00426131
:10472600642043616C6962726174696F6E004461F2
:10473600746100536176656400300000000000215A
:1047460009ED13564D4450455F003A323A005F5624
:104756004D44504500564D4450435F005F564D440E
:1047660050430D0A004572726F723A2041747465A7
:104776006D707420746F207365742061207265619A
:10478600642D6F6E6C79207661726961626C65204A
:104796006F7220646174612074797065206E6F7425
:1047A60020737570706F727465640D0A00000000E6
:1047B60000660B390B0E0B160B290B380B0000008D
:1047C60000B612FD12E012F012CC12DD126E616E0E
:0C47D60000696E66006F7666002E000021
:1070000055C000006EC000006CC000006AC00000E7
:1070100068C0000066C0000064C0000062C00000DC
:1070200060C000005EC00000DAC400005AC000006A
:1070300058C0000056C0000054C0000052C00000FC
:1070400050C0000076C000004CC000004AC00000E4
:1070500048C0000046C0000044C0000042C000001C
:1070600040C000003EC000003CC000003AC000002C
:1070700038C0000036C0000034C0000032C000003C
:1070800030C000002EC000002CC000002AC000004C
:1070900028C0000026C0000024C0000022C000005C
:1070A00020C000001EC000001CC0000011241FBE34
:1070B000CFEFDAE0DEBFCDBF11E0A0E0B1E0EEEF50
:1070C000FEE702C005900D92AA3CB107D9F711E086
:1070D000AAECB1E001C01D92A03EB107E1F781D357
:1070E0000CC78ECFF89410926F001092810010920E
:1070F00085001092840081E085BF15BE47980C94EE
:10710000000008952091D4013091D5012F5F3F4FA9
:107110003093D5012093D401932F37FF03C08EEF16
:10712000831B982F990F921710F447980895479A48
:1071300008951F920F920FB60F9211242F938F93E1
:107140009F93EF93FF93109285001092840080919B
:10715000CA019091CB01009729F001979093CB0140
:107160008093CA018091CC019091CD01009729F0C4
:1071700001979093CD018093CC01E0E0F0E0859100
:1071800094918F5F9F4F49F08091CE019091CF01F4
:1071900001969093CF018093CE01FF91EF919F9143
:1071A0008F912F910F900FBE0F901F90189584E034
:1071B0008093E9000DC08091E8008B778093E80010
:1071C00003C08EB3882351F08091E80082FFF9CF8D
:1071D0008091E80085FFEFCF8091F1000895982F0E
:1071E00083E08093E9008091E80085FD0DC08091E7
:1071F000E8008E778093E80003C08EB3882361F0A7
:107200008091E80080FFF9CF9093F10084E690E050
:107210009093CB018093CA0108954F925F926F9231
:107220007F928F929F92AF92BF92CF92DF92EF9216
:10723000FF920F931F93CF93DF9384E08093E90035
:107240008091E80082FF56C284E690E09093CD01E1
:107250008093CC01ACDF182F853481F48CE195E26A
:107260009093CF018093CE0107B600FCFDCFF99932
:10727000FECF81E180935700E89503C0843519F46F
:1072800096DF8DE00DC28C34E1F38035D1F3843785
:1072900021F484E4A4DF80E003C2813611F489E59F
:1072A000FFC18134B1F483DF182F81DF90E0880FB4
:1072B000991FAA2797FDA095BA2F312F330F20E0F1
:1072C000442737FD4095542F822B932BA42BB52BAD
:1072D000B8C1803711F483E5E3C1833549F4C0E0D8
:1072E000D1E089917CDF21E0C730D207D1F7D9C145
:1072F000863521F481E373DF80E3D2C1833731F433
:1073000087E86DDF85E96BDF8EE1CAC18536B9F4A8
:10731000E0E0F0E093E085E090935700E89507B651
:1073200000FCFDCF80935700E89507B600FCFDCF29
:10733000E058FF4FA0E7E030FA0771F7A2CF82379D
:1073400039F4E1E0F0E089E0809357008491A8C12E
:10735000863439F4E0E0F0E089E0809357008491CE
:107360009FC18E3439F4E3E0F0E089E08093570068
:10737000849196C1813539F4E2E0F0E089E08093B0
:10738000570084918DC1823631F489E528DF80E091
:1073900026DF80E885C1823419F0873609F0E5C020
:1073A0001092CF011092CE0102DF082F00DFF82EDD
:1073B000FEDE682E8554823008F071C1902F80E087
:1073C000CF2DD0E0C82BD92B10926F00173609F0C3
:1073D0004BC081E180935700E895DD24CC24C39411
:1073E0003FC0E090D001F090D1010091D201109106
:1073F000D301B6E46B16D9F4ED2DF0E0EE29FF29A8
:10740000E4918E2FECDEDD2081F082E090E0A0E0C0
:10741000B0E0E80EF91E0A1F1B1FE092D001F092A7
:10742000D1010093D2011093D301DC2418C0D801FC
:10743000C701B695A7959795879549D5D0DE82E087
:1074400090E0A0E0B0E0E80EF91E0A1F1B1FE092DA
:10745000D001F092D1010093D2011093D301219772
:10746000209709F0BECF7DC08090D0019090D101CF
:10747000A090D201B090D30196E4691609F05DC0E6
:1074800083E0F40180935700E89507B600FCFDCF38
:1074900054C0F6E46F1661F5772031F1E090D00129
:1074A000F090D1010091D2011091D30180DED82E4D
:1074B000CC24852D90E08C299D29F7010C01409268
:1074C0005700E895112482E090E0A0E0B0E0E80EDB
:1074D000F91E0A1F1B1FE092D001F092D101009308
:1074E000D2011093D30102C062DE582E742423C04F
:1074F000E090D001F090D1010091D2011091D30120
:1075000016950795F794E79452DE682FC701E7D4E4
:107510008091D0019091D101A091D201B091D3017D
:107520000296A11DB11D8093D0019093D101A0932B
:10753000D201B093D301219704C055247724442469
:107540004394209709F0A5CF96E4691641F485E0AD
:10755000F40180935700E89507B600FCFDCF8DE05D
:107560003EDE82E080936F009CC0833471F4009112
:10757000D0011091D1011BDE90E021E0F8010C0157
:1075800020935700E89511247CCE833619F5E090BE
:10759000D001F090D1010091D2011091D30107DE0A
:1075A000F701E16090E021E00C0120935700E8959D
:1075B000112482E090E0A0E0B0E0E80EF91E0A1F7E
:1075C0001B1FE092D001F092D1010093D2011093E1
:1075D000D30157CE8D3661F4E091D001F091D10105
:1075E00085E080935700E89507B600FCFDCF49CEB3
:1075F000823551F4E091D001F091D10105911491BF
:10760000812FEDDD802F4CC0843421F5E090D00136
:10761000F090D1010091D2011091D30116950795F8
:10762000F794E794C4DD682FC70159D48091D00145
:107630009091D101A091D201B091D3010296A11DE8
:10764000B11D8093D0019093D101A093D201B0934A
:10765000D30117CE843609F5E090D001F090D10126
:107660000091D2011091D301D801C701B695A79519
:10767000979587952CD4B3DD82E090E0A0E0B0E050
:10768000E80EF91E0A1F1B1FE092D001F092D101F3
:107690000093D2011093D30104C08B3111F08FE31A
:1076A0009EDD83E08093E9009091E8008091E800FE
:1076B0008E778093E80095FF04C010C08EB38823B6
:1076C000C9F08091E80080FFF9CF8091E8008E77C3
:1076D0008093E80003C08EB3882361F08091E800B6
:1076E00080FFF9CF84E08093E9008091E8008B77F8
:1076F0008093E800DF91CF911F910F91FF90EF9061
:10770000DF90CF90BF90AF909F908F907F906F90C1
:107710005F904F9008959091D801892F8F77813293
:1077200049F58091D9018032A1F0813219F5913A61
:1077300009F58091E800877F8093E8008DE091E073
:1077400067E070E0FBD18091E8008B778093E800E0
:107750000895913279F48091E800877F8093E80062
:107760008DE091E067E070E04DD28091E8008E7787
:107770008093E800089582E061EC42E0A7D083E0C6
:1077800061E842E1A3D084E060E842E19FC084B7B1
:10779000877F84BF88E10FB6F894809360001092D1
:1077A00060000FBE20E880E090E00FB6F8942093D0
:1077B0006100809361000FBE81E085BF92E095BFBC
:1077C0003F9AE1E6F0E0208310824798109289000A
:1077D0008DE78093880090936F0083E08093810011
:1077E000E6C04091000850910108109201081092E3
:1077F000000824B714BE88E10FB6F89480936000A7
:10780000109260000FBEE0E0F0E0859194918F5FF0
:107810009F4F71F020FD0BC021FD0AC0283041F4BC
:107820008091090190910A014817590709F05ADC23
:10783000AEDF78941092CF011092CE010CC0EDDC37
:1078400034D38091CE019091CF018151974210F0B5
:107850001092140157DC80911401882381F78091E4
:10786000E00081608093E0003DDC80E090E00895DE
:10787000FA01923049F0933061F09130F9F485E1EA
:1078800091E022E130E01EC087E291E02EE330E09B
:1078900019C0882329F485E691E024E030E012C085
:1078A000813029F489E691E022E230E00BC0823099
:1078B00029F487E991E028E130E004C080E090E01D
:1078C00020E030E091838083C90108958093E9002E
:1078D0008091EB0081608093EB001092ED0060934B
:1078E000EC004093ED008091EE00881F8827881FF0
:1078F00008958091D80188238CF403C08EB3882327
:10790000B1F08091E80082FFF9CF8091E8008B7799
:107910008093E80008958EB3882349F08091E800B1
:1079200080FFF9CF8091E8008E778093E80008957A
:10793000EF92FF920F931F9345D04CD008ED10E0CB
:10794000F80180818F778083808180688083808147
:107950008F7D808319BC1EBA1092D60180EEE82E6E
:10796000F12CF70180818B7F8083F8018081816019
:10797000808380E060E042E0A9DFE1EEF0E080811A
:107980008E7F8083E2EEF0E0808181608083808161
:1079900088608083F70180818E7F8083F8018081F9
:1079A000806180831F910F91FF90EF900895E7ED24
:1079B000F0E08081816080838AE482BF81E08093EF
:1079C000D701B6CFE8EDF0E080818E7F8083109202
:1079D000E20008951092DA001092E10008951F92DB
:1079E0000F920FB60F9211242F933F934F935F93F3
:1079F0006F937F938F939F93AF93BF93EF93FF9377
:107A00008091DA0080FF1AC08091D80080FF16C0F4
:107A10008091DA008E7F8093DA008091D90080FF18
:107A20000AC019BC82E089BD09B400FEFDCF81E027
:107A30008EBB3AD203C019BC1EBA36D28091E10087
:107A400080FF17C08091E20080FF13C08091E200A8
:107A50008E7F8093E2008091E20080618093E2005B
:107A60008091D80080628093D80019BC85E08EBBDD
:107A70001BD28091E10084FF2BC08091E20084FF43
:107A800027C019BC82E089BD09B400FEFDCF8091FA
:107A9000D8008F7D8093D8008091E1008F7E809305
:107AA000E1008091E2008F7E8093E2008091E2000D
:107AB00081608093E2008091D601882331F4809127
:107AC000E30087FD02C081E001C084E08EBBECD101
:107AD0008091E10083FF21C08091E20083FF1DC0FF
:107AE0008091E100877F8093E10082E08EBB10925D
:107AF000D6018091E1008E7F8093E1008091E200C9
:107B00008E7F8093E2008091E20080618093E200AA
:107B100080E060E042E0DADEC7D1FF91EF91BF91F3
:107B2000AF919F918F917F916F915F914F913F9115
:107B30002F910F900FBE0F901F9018959C014091B0
:107B4000DE015091DF014617570718F4F90190E064
:107B500044C06115710511F0AB01F8CF8091E800C8
:107B60008E778093E80040E050E0F0CF8EB388231A
:107B700009F444C0853009F443C08091E80083FFD4
:107B800002C081E008958091E80082FD31C08091BB
:107B9000E80080FF22C08091F3009091F200782FDE
:107BA00060E0292F30E0262B372B07C0819180938E
:107BB000F100415050402F5F3F4F4115510519F0E2
:107BC0002830310598F390E02830310509F491E030
:107BD0008091E8008E778093E8004115510531F6D9
:107BE000992321F605C08EB3882341F0853041F0FA
:107BF0008091E80082FFF7CF80E0089582E0089549
:107C000083E008959C016115710529F48091E800D5
:107C10008B778093E800F90126C08EB3882391F119
:107C2000853091F18091E80083FF02C081E00895E2
:107C30008091E80082FFF1CF06C08091F10081932E
:107C40006150704059F02091F3008091F200322F82
:107C500020E090E0822B932B892B79F78091E8002C
:107C60008B778093E80061157105B9F605C08EB376
:107C7000882341F0853041F08091E80080FFF7CF04
:107C800080E0089582E0089583E008950F931F93A4
:107C9000DF93CF9300D0CDB7DEB7E8EDF1E0809170
:107CA000F100819381E0E03EF807C9F734DD80916F
:107CB000E80083FFE4C08091D8019091D90195300C
:107CC00009F46DC0963040F4913081F1913070F03C
:107CD000933009F0D4C02AC0983009F4A3C0993079
:107CE00009F4B2C0963009F0CAC07CC0803809F4EB
:107CF000C6C0823809F0C3C08091DC0187708093D0
:107D0000E9008091EB001092E9002091E800277FC4
:107D10002093E80090E025E0969587952A95E1F775
:107D200081708093F1001092F10087C0882319F0D0
:107D3000823009F0A4C08F71823009F0A0C0809118
:107D4000DA01882331F52091DC01277009F497C00E
:107D50002093E9008091EB0080FF1BC0933021F459
:107D60008091EB00806213C08091EB008061809372
:107D7000EB0081E090E002C0880F991F2A95E2F79E
:107D80008093EA001092EA008091EB008860809373
:107D9000EB001092E9008091E800877F51C08823B2
:107DA00009F06DC01091DA011F770FB7F894809138
:107DB000E800877F8093E8009CDD8091E80080FFE9
:107DC000FCCF8091E3008078812B8093E300806872
:107DD0008093E300112311F482E001C083E08EBBA5
:107DE0000FBF4DC08058823008F049C08091DA0141
:107DF0009091DB016091DC01AE014F5F5F4F38DD98
:107E0000BC01009709F43BC08091E800877F809314
:107E1000E80089819A8192DE8091E8008B778093D7
:107E2000E8002DC0803859F58091E800877F809365
:107E3000E8008091D6018093F1008091E8008E7770
:107E40008093E80056DD1BC08823C9F49091DA01C5
:107E50009230A8F48091E800877F8093E8009093A7
:107E6000D60147DD8091D601882331F48091E3006B
:107E700087FD02C081E001C084E08EBB7CDC809184
:107E8000E80083FF0AC08091EB0080628093EB00E2
:107E90008091E800877F8093E8000F900F90CF914A
:107EA000DF911F910F91089508951F938EB388233A
:107EB00061F01091E9001092E9008091E80083FFE1
:107EC00001C0E4DE17701093E9001F910895F9993D
:107ED000FECF92BD81BDF89A992780B50895262FCF
:107EE000F999FECF1FBA92BD81BD20BD0FB6F8949F
:0E7EF000FA9AF99A0FBE01960895F894FFCF02
:107EFE004341544552494E41007777000800000037
:107F0E00000000080112011001020000089A230C63
:107F1E000001000201000109023E00020100803250
:107F2E0009040000010202010005240010010424CE
:107F3E0002040524060001070582030800FF090458
:107F4E000100020A000000070504021000010705E7
:107F5E00830210000104030904220341006400613E
:107F6E00006600720075006900740020004600650E
:107F7E00006100740068006500720020003300325A
:107F8E0000750034000000180341006400610066B3
:107F9E00007200750069007400200049006E0064D4
:107FAE000075007300740072006900650073002094
:0A7FBE00004C004C004300000000DE
:040000030000700089
:00000001FF