:100000000C946F010C9446110C946D110C94941186
:100010000C94BB110C9497010C9497010C94E21171
:100020000C9497010C9497010C94B3190C943A1802
:100030000C9497010C9497010C9497010C949701E0
:100040000C9497010C9497010C9497010C949701D0
:100050000C9497010C9497010C9497010C9409123D
:100060000C9497010C9497010C9497010C949701B0
:100070000C9497010C9497010C9497010C949701A0
:100080000C9497010C9497010C9497010C94970190
:100090000C945F0D0C9497010C9497010C949701AC
:1000A0000C9497010C9497010C94970164136713B7
:1000B00056135A1360138813881388136B136F1326
:1000C000731379137D138813831307060504010046
:1000D000080A0B0C0D090000000200090F000003C4
:1000E0000401000C000000000000000000000000FF
:1000F0000000000000040802011040804010204071
:10010000804080080204018040201002011080100D
:1001100020404020040404040403040502020202F7
:100120000403020202020606060606060404020290
:10013000020404000000002300260029002C002FE8
:100140000000000000250028002B002E00310000D8
:10015000000000240027002A002D003000120100BA
:1001600002EF0201409A230C8000010102030112F8
:10017000010002000000409A230C800001010203EC
:1001800001416461667275697400466561746865F1
:100190007220333275340004030904080B00020294
:1001A0000201000904000001020200000524001001
:1001B00001052401010104240206052406000107AB
:1001C00005810310004009040100020A0000000735
:1001D0000502024000000705830240000000407A4B
:1001E00010F35A00A0724E18090010A5D4E80000C0
:1001F000E87648170000E40B54020000CA9A3B005E
:100200000000E1F505000080969800000040420FD4
:10021000000000A08601000000102700000000E898
:1002200003000000006400000000000A000000005D
:10023000000100000000002C76D888DC674F0823FE
:10024000DFC1DFAE59E1B1B796E5E3E453C63AE664
:1002500051997696E8E6C28426EB898C9B62ED4044
:100260007C6FFCEFBC9C9F40F2BAA56FA5F4900593
:100270005A2AF75C936B6CF9676DC11BFCE0E40DC7
:1002800047FEF520E6B500D0ED902E0300943577BB
:10029000050080841E080000204E0A000000C80CE3
:1002A000333333330F986E12831141EF8D2114894C
:1002B0003BE65516CFFEE6DB18D1844B381BF77CA6
:1002C0001D901DA4BBE424203284725E228100C9EB
:1002D000F124ECA1E53D2700BF037D0C8D1C11240A
:1002E0001FBECFEFDAE0DEBFCDBF12E0A0E0B1E08D
:1002F000E6EAF8E402C005900D92A43CB107D9F7F4
:1003000024E0A4ECB2E001C01D92A237B207E1F7ED
:1003100012E0CEEDD2E004C02297FE010E94881FB9
:10032000C83DD107C9F70E9422140C9451240C94A3
:10033000000080E00E94F81321E0892B09F420E0FE
:100340002093130381E00E94F81321E0892B09F424
:1003500020E02093120380911103882321F08091E3
:100360001003811109C080911103811112C0809185
:100370001003811163C00DC080911303811104C06B
:1003800080911203811150C080911303882319F1C9
:100390001DC080911103811105C080911003882335
:1003A00009F459C0809111038823A9F080911003AA
:1003B000811111C080911303882321F080911203D1
:1003C00081116EC080911303811105C080911203C9
:1003D000882309F46FC080910C0390910D0304975A
:1003E00034F080910E0390910F0301960CC0809120
:1003F0000C0390910D038D3F9F4F6CF480910E0381
:1004000090910F03019790930F0380930E03109226
:100410000D0310920C0380911303809311038091BC
:10042000120380931003089580910C0390910D03A3
:10043000019690930D0380930C03A6CF8091130334
:10044000811104C0809112038823B1F080911303BD
:10045000882309F20CC080911303882321F0809136
:100460001203882399F0809113038111B4CF8091F6
:10047000120381111FC0AFCF80910C0390910D0327
:10048000019690930D0380930C03E0CF80910C03B1
:1004900090910D03019690930D0380930C03E3CF8D
:1004A00080910C0390910D03019690930D0380931E
:1004B0000C0388CF80910C0390910D0301979093CA
:1004C0000D0380930C0387CF80E00E94F81321E096
:1004D000892B09F420E02093130381E00E94F81394
:1004E00021E0892B09F420E020931203809111036D
:1004F000882321F080911003811109C0809111039C
:10050000811112C080911003811163C00DC08091D0
:100510001303811104C080911203811150C0809196
:100520001303882319F11DC080911103811105C0A7
:1005300080911003882309F459C080911103882306
:10054000A9F080911003811111C0809113038823B9
:1005500021F08091120381116EC0809113038111EB
:1005600005C080911203882309F46FC080910C03A9
:1005700090910D03049734F080910E0390910F0336
:1005800001960CC080910C0390910D038D3F9F4FFD
:100590006CF480910E0390910F03019790930F03D9
:1005A00080930E0310920D0310920C03809113039D
:1005B000809311038091120380931003089580911A
:1005C0000C0390910D03019690930D0380930C03FF
:1005D000A6CF80911303811104C080911203882358
:1005E000B1F080911303882309F20CC080911303AA
:1005F000882321F080911203882399F080911303BE
:100600008111B4CF8091120381111FC0AFCF8091AF
:100610000C0390910D03019690930D0380930C03AE
:10062000E0CF80910C0390910D03019690930D0300
:1006300080930C03E3CF80910C0390910D030196FE
:1006400090930D0380930C0388CF80910C039091BD
:100650000D03019790930D0380930C0387CF0F93A5
:100660001F930E94F81390932403809323032091F7
:1006700036013091370182179307A1F0892B91F44D
:100680000E94531260931703709318038093190309
:1006900090931A0380912303909124039093370140
:1006A000809336010E945312009117031091180392
:1006B0002091190330911A03601B710B820B930B6D
:1006C00000912E0110912F012091300130913101C4
:1006D000061717072807390758F4809123039091CC
:1006E000240320913601309137018217930711F4CA
:1006F00080E00FC090933701809336010E9453121F
:1007000060931703709318038093190390931A034F
:1007100081E01F910F9108958BE10E941B13BC0192
:10072000882777FD8095982F0E94491E9B01AC0178
:100730000E94461D23E333E343E550E40E94FD1E7F
:1007400020E030E040E85AE30E94FD1E089540E0BA
:1007500067E085E293E00E94E70966E571E085E2E3
:1007600093E00E94811441E067E085E293E00E94FB
:10077000E70966E571E085E293E00C948114CF927D
:10078000EF920F9385E0C82E96E0E92E0AE02BE069
:100790004CE06DE085E293E00E949F0A0E945312B4
:1007A00060931F037093200380932103909322038F
:1007B0000E94531260931B0370931C0380931D03CC
:1007C00090931E0340E050E060E070E088EE92E01D
:1007D0000E94F00E41E050E061E070E084EC92E0B5
:1007E0000F91EF90CF900C94F00EFF920F931F9308
:1007F000CF93DF93CDB7DEB72C970FB6F894DEBF5B
:100800000FBECDBFF42E122F21E0AB01BC01CE01F3
:1008100007960E94261B402F612F85E293E00E94DD
:10082000E709FF2029F062E085E293E00E94F90ADF
:100830008B859C850597B0F023E030E040E050E0E8
:10084000BE01695F7F4FCE0101960E94561BBE011B
:100850006F5F7F4FCE0107960E94021BCE0101966B
:100860000E94481A8B859C85049731F06EE571E0F3
:1008700085E293E00E948114BE01695F7F4F85E2AB
:1008800093E00E947314FF2061F065E0610F402F38
:1008900085E293E00E94E70963E085E293E00E942D
:1008A000F90ACE0107960E94481A2C960FB6F894C2
:1008B000DEBF0FBECDBFDF91CF911F910F91FF9093
:1008C00008950F931F930E94531200911F031091DC
:1008D00020032091210330912203601B710B820BB6
:1008E000930B00913201109133012091340130912A
:1008F0003501061717072807390708F045C088EEA5
:1009000092E00E94261000E010E020E030E040E09D
:100910000E94F50360E671E085E293E00E94811495
:1009200084EC92E00E94261001E010E020E030E02C
:1009300040E00E94F50360E671E085E293E00E94EA
:10094000811440E066E085E293E00E94E70960E000
:1009500085E293E00E94F90A41E066E085E293E0D7
:100960000E94E70960E085E293E00E94F90A0E9494
:10097000531260931F03709320038093210390937D
:10098000220381E0809314031F910F9108950F9328
:100990001F9380911403882309F45BC08091150391
:1009A00090911603892B09F052C088EE92E00E94C4
:1009B000141040E067E0811107C085E293E00E94D7
:1009C000E70966E571E016C085E293E00E94E70959
:1009D00062E085E293E00E94F90A88EE92E00E94CC
:1009E000CE0F00E010E028E030E040E00E94F50388
:1009F00062E671E085E293E00E94811484EC92E06B
:100A00000E94141041E067E0811107C085E293E085
:100A10000E94E70966E571E016C085E293E00E9456
:100A2000E70962E085E293E00E94F90A84EC92E033
:100A30000E94CE0F01E010E028E030E040E00E948C
:100A4000F50362E671E085E293E00E948114109262
:100A500014031F910F910895CF92DF92EF92FF92AE
:100A60000F931F93CF93DF9385E293E00E94E009F9
:100A700066E671E085E293E00E94811468EE73E01F
:100A800080E090E00E94821285E293E00E94E009FB
:100A900066E771E085E293E00E94811481ED90E0C9
:100AA00090930F0380930E03C8EED3E085E190E0AE
:100AB0000E942F03811136C080910E0390910F0385
:100AC000893E93402CF0D0930F03C0930E030AC0CD
:100AD00080910E0390910F0397FF04C010920F03B3
:100AE00010920E0360910E0370910F03882777FD1B
:100AF0008095982F0E94491E20E030E040E251E4AA
:100B00000E94AE1D6B017C0101E010E020E030E0AE
:100B100041E00E94F50367E871E085E293E00E94FE
:100B20008114C4CF85E293E00E94E00940E067E0D1
:100B300085E293E00E94E70960E085E293E00E948D
:100B4000F90A60E971E085E293E00E94811441E0D6
:100B500067E085E293E00E94E70960E085E293E0C8
:100B60000E94F90A69E971E085E293E00E9481142C
:100B700088EE92E00E94CE0F20E030E0A9010E94B2
:100B8000AA1D18166CF040E060E085E293E00E9438
:100B9000E7096BE571E085E293E00E9481140BC0E8
:100BA00088EE92E00E94CE0F00E010E020E030E0FE
:100BB00040E00E94F50363E671E085E293E00E9465
:100BC000811485E190E00E942F03882389F288EE4A
:100BD00092E00E940410882309F450C020E030E025
:100BE00048EC52E4C701B6010E94AE1D6B017C01C6
:100BF000AB01BC0188EE92E00E94C5108823F1F1A0
:100C000088EE92E00E94CE0FA70196010E94AE1DD1
:100C1000AB01BC0188EE92E00E94651085E293E092
:100C20000E94E0096AE671E085E293E00E94811487
:100C300041E060E085E293E00E94E70961EA71E04B
:100C400085E293E00E9481146CED75E080E090E015
:100C50000E94821285E293E00E94E00984EC92E017
:100C60000E949E0F811129C0DF91CF911F910F919A
:100C7000FF90EF90DF90CF900C94660685E293E0B2
:100C80000E94E00967EA71E085E293E00E94811426
:100C900041E060E085E293E00E94E70967EB71E0E4
:100CA00085E293E00E94811468EB7BE080E090E0B5
:100CB0000E9482120E942C05B1CFDF91CF911F912B
:100CC0000F91FF90EF90DF90CF900895CF92DF9239
:100CD000EF92FF920F931F9385E293E00E94E00949
:100CE0006CEB71E085E293E00E94811468EE73E0A2
:100CF00080E090E00E94821285E293E00E94E00989
:100D00006CEC71E085E293E00E94811441E060E0C8
:100D100085E293E00E94E70967ED71E085E293E0E8
:100D20000E94811484EC92E00E94CE0F00E010E05B
:100D30002AE030E040E00E94F50363E671E085E2DE
:100D400093E00E94811485E190E00E942F038823A4
:100D500049F384EC92E00E94CE0F6B017C0185E2A6
:100D600093E00E94E00968EE71E085E293E00E9462
:100D7000811441E060E085E293E00E94E70967EDBD
:100D800071E085E293E00E94811484EC92E00E947D
:100D9000CE0F00E010E02AE030E040E00E94F503D2
:100DA00063E671E085E293E00E94811485E190E0C2
:100DB0000E942F03882349F344EA50E76DE77FE35D
:100DC00084EC92E00E94C510882389F084EC92E0C4
:100DD0000E94CE0FA70196010E94451DAB01BC01E8
:100DE0009701860184EC92E00E948A101EC085E281
:100DF00093E00E94E00967EA71E085E293E00E94D7
:100E0000811441E060E085E293E00E94E70967EB2E
:100E100071E085E293E00E94811468EB7BE080E062
:100E200090E00E9482120E94660685E293E00E9492
:100E3000E0096AE671E085E293E00E94811441E0F6
:100E400060E085E293E00E94E70961EA71E085E2F3
:100E500093E00E9481146CED75E080E090E00E94C8
:100E6000821285E293E00E94E00984EC92E00E9405
:100E70009E0F811108C01F910F91FF90EF90DF909E
:100E8000CF900C942C051F910F91FF90EF90DF9065
:100E9000CF900895CF93DF9385E293E00E94E0091D
:100EA00040E064E085E293E00E94E70962EF71E0D0
:100EB00085E293E00E94811441E060E085E293E0E6
:100EC0000E94E7096BEF71E085E293E00E948114D4
:100ED00066ED76E080E090E00E94821285E293E089
:100EE0000E94E00985E10E94F813892BD9F36AEF8B
:100EF00070E080E090E00E9482126CE072E085E297
:100F000093E00E948114C2E0D0E085E190E00E946D
:100F10002F03811139C080910E0390910F03039725
:100F20002CF010920F0310920E030AC080910E0352
:100F300090910F0397FF04C0D0930F03C0930E034B
:100F400041E060E085E293E00E94E70962E085E22B
:100F500093E00E94F90A80910E0390910F03813073
:100F6000910541F08230910541F0892B71F667E1DE
:100F700072E005C065E272E002C063E372E085E200
:100F800093E00E948114C1CF80910E0390910F03D2
:100F90008130910559F08230910531F0892B51F45F
:100FA000DF91CF910C942C050E942C05DF91CF91FD
:100FB0000C946606DF91CF91089562E085E10E946E
:100FC000891362E080E00E94891362E081E00E9460
:100FD000891341E050E069E971E082E00E94F61077
:100FE00041E050E064E672E083E00E94F61020E009
:100FF00042E060E185E293E00E94010A46E251E0AE
:1010000060E085E293E00E94BF0A4EE151E061E0BA
:1010100085E293E00E94BF0A46E151E062E085E28A
:1010200093E00E94BF0A4EE051E063E085E293E066
:101030000E94BF0A46E051E064E085E293E00E942E
:10104000BF0A40E060E085E293E00E94E70961E4C6
:1010500072E085E293E00E94811441E060E085E265
:1010600093E00E94E7090E948C03AB01BC0122E0DF
:1010700030E085E293E00E940E1661E572E085E2C1
:1010800093E00E94811441E06BE085E293E00E94CE
:10109000E70963E572E085E293E00E94811466E56A
:1010A00072E085E293E00E94811460ED77E080E0D9
:1010B00090E00E94821285E293E00E94E00985E1BF
:1010C0000E94F813892B61F188EE92E00E949E0F36
:1010D000882351F084EC92E00E949E0F882321F037
:1010E00085E293E00C94E00985E293E00E94E00938
:1010F0006AE572E085E293E00E94811441E060E0DD
:1011000085E293E00E94E70961E672E085E293E000
:101110000E94811460ED77E080E090E00E948212EE
:101120000E944A07DDCF0F931F93CF93DF930E9456
:10113000531260931B0370931C0380931D039093C1
:101140001E0310920F0310920E03C0910E03D09154
:101150000F030E94A70340E068E085E293E00E944D
:10116000E7096DE672E085E293E00E94811441E0B8
:101170006AE085E293E00E94E70965E772E085E2B4
:1011800093E00E9481140E94531200911B0310915E
:101190001C0320911D0330911E03601B710B820BF9
:1011A000930B683E73408105910538F480910E03DE
:1011B00090910F03892B09F45FC00E94A70310923E
:1011C0000F0310920E030E94610480910E03909110
:1011D0000F03029734F480910E0390910F0397FF51
:1011E00004C010920F0310920E0380910E03909191
:1011F0000F038C179D0731F00E94A703C0910E03C7
:10120000D0910F0380910E0390910F03009719F076
:101210000197C9F0D8CF40E067E085E293E00E94F3
:10122000E7096AE772E085E293E00E94811485E1B4
:1012300090E00E942F03882331F2DF91CF911F911C
:101240000F910C944A0740E067E085E293E00E942A
:10125000E70964E872E085E293E00E94811485E189
:1012600090E00E942F03882309F4ADCFDF91CF9146
:101270001F910F910C94A7030E94610484CF0E94D8
:1012800061040E94C70485E190E00E942F03811150
:101290000C9493080895CF93DF93EC0160E08E8166
:1012A0000E94C21381E090E00E94BC1261E08E8136
:1012B0000E94C21381E090E00E94BC1260E08E8127
:1012C0000E94C21384E690E0DF91CF910C94BC128F
:1012D000EF92FF920F931F93CF93DF938C01C0E0A7
:1012E000D0E0E62EF12CB7010C2E02C07595679563
:1012F0000A94E2F76170F801EC0FFD1F87810E94EC
:10130000C2132196C430D10571F7C801DF91CF9186
:101310001F910F91FF90EF900C944B09EF92FF9269
:101320000F931F93CF93DF938C01C0E0D0E0E62EA4
:10133000F12CB7010C2E02C0759567950A94E2F75F
:101340006170F801EC0FFD1F87810E94C213219686
:10135000C830D10571F7C801DF91CF911F910F916E
:10136000FF90EF900C944B091F93CF93DF93EC0108
:10137000162F642F8C810E94C2138D818F3F19F02C
:1013800060E00E94C2138F85612F84FF06C0CE01EA
:10139000DF91CF911F910C948E0970E084E07595D8
:1013A00067958A95E1F7CE010E946809612FCE0109
:1013B000DF91CF911F910C94680940E00C94B4091F
:1013C00061E00E94DD0980ED97E00C94BC1244308E
:1013D00008F043E0FC012389421710F04FEF420F61
:1013E000FC01E40FF11D2489260F2068622F0C9464
:1013F000DD09FC016089262F2460208B6C600C9431
:10140000DD090F931F93CF93DF93EC01423018F067
:101410008F8588608F874B8B1C8A80E48D8B6E8BC9
:1014200070E0605C7F4F6F8B222329F0413019F40C
:101430008F8584608F8761E08C810E9489138D8104
:101440008F3F19F061E00E94891361E08E810E9454
:10145000891300E010E08F8584FF03C088E090E0EE
:1014600002C084E090E00817190754F4FE01E00F71
:10147000F11F61E087810E9489130F5F1F4FEBCF3F
:1014800080E593EC0E94BC1260E08C810E94C21344
:1014900060E08E810E94C2138D818F3F19F060E061
:1014A0000E94C2136F8564FD1DC063E0CE010E94DF
:1014B000680984E991E10E94BC1263E0CE010E94B8
:1014C000680984E991E10E94BC1263E0CE010E94A8
:1014D000680986E990E00E94BC1262E0CE010E9499
:1014E000680916C06062CE010E94DD0984E991E1BD
:1014F0000E94BC126F856062CE010E94DD0986E900
:1015000090E00E94BC126F856062CE010E94DD09EE
:101510006F856062CE010E94DD0984E0888BCE0178
:101520000E94F909CE010E94E00982E0898B66E001
:10153000CE01DF91CF911F910F910C94DD09CF92D5
:10154000EF920F93FC01138212828FE892E0918355
:10155000808364838FEF8583468327830087E186BA
:10156000C2861386148615861686178620E041E00B
:1015700060E1CF010F91EF90CF900C94010ACF92D0
:10158000DF92EF92FF920F931F93CF93DF9300D0E0
:10159000CDB7DEB78C01677088E0689FB001112479
:1015A0006064C80149835A830E94DD094981C42EC1
:1015B0005A81D52EE12CF12CD6016D916D01D80107
:1015C000ED91FC910190F081E02DC8010995BFEFEC
:1015D000EB1AFB0AE8E0EE16F10471F70F900F909A
:1015E000DF91CF911F910F91FF90EF90DF90CF90FF
:1015F000089541E00E94B40981E090E00895FC0163
:1016000014821382608388E08183128208958DE3BF
:1016100093E00C94430CFC017483638308951F933F
:10162000CF93DF9300D0CDB7DEB7162F682F8DE3B1
:1016300093E04A8359830E945D0C612F8DE393E010
:101640000E94040C5981652F8DE393E00E94040CE5
:101650004A81642F8DE393E00E94040C8DE393E0B4
:101660000F900F90DF91CF911F910C947A0C1F93E4
:10167000CF93DF93182F682F8DE393E00E945D0CCA
:1016800060E08DE393E00E94040C8DE393E00E9400
:101690007A0C42E0612F8DE393E00E945A0C8DE3B7
:1016A00093E00E94B40B182F8DE393E00E94B40BDB
:1016B000D12F20E0C22F9E01282BC901DF91CF91AD
:1016C0001F910895CF93DF93EC014B815C814368B8
:1016D000516861E088810E940F0B698170E080E0B1
:1016E00090E00E94821288810E94370B2A81022E8C
:1016F00002C0969587950A94E2F7222329F0811576
:1017000028E0920708F0906FDF91CF910895CF9372
:10171000DF93EC014B815C814368516B61E0888110
:101720000E940F0B698170E080E090E00E948212BD
:1017300088810E94370B2A81022E02C096958795D8
:101740000A94E2F7222329F0811528E0920708F095
:10175000906FDF91CF91089580916D0390E020917B
:101760006E03821B9109089520916E0380916D0391
:10177000281750F4E22FF0E0E159FC4F808190E00F
:101780002F5F20936E0308958FEF9FEF0895E091F0
:101790006E0380916D03E81730F4F0E0E159FC4FDF
:1017A000808190E008958FEF9FEF08950895CF9284
:1017B000DF92EF92FF920F931F93CF93DF937C0101
:1017C000CB018A0120914903222389F0EB016B01AF
:1017D000C40ED51ECC15DD0569F06991D701ED91D8
:1017E000FC910190F081E02DC7010995F3CF642FA2
:1017F0000E94360DC801DF91CF911F910F91FF908C
:10180000EF90DF90CF900895CF93DF931F92CDB7E5
:10181000DEB76983209149032223D1F020914A0346
:10182000203240F021E030E0FC013383228380E06D
:1018300090E015C080914B03E82FF0E0E45BFC4F93
:10184000998190838F5F80934B0380934A0305C0F7
:1018500061E0CE0101960E94360D81E090E00F908C
:10186000DF91CF910895FC011382128248EE53E07C
:1018700060E070E0448355836683778387E992E074
:1018800091838083089510926E0310926D031092DD
:101890004B0310924A030C94810C862F413208F0BE
:1018A00040E26FE673E00E949F0C10926E038093FB
:1018B0006D03089521E00C944D0C81E08093490361
:1018C00060936C0310924B0310924A0308950F9398
:1018D000062F21E040914A036CE473E080916C0391
:1018E0000E94E30C10924B0310924A03109249039A
:1018F0000F91089561E00C94670C8DE393E00C94D4
:10190000330C1092FC0381E08093FA031092F903E8
:1019100061E082E00E94C21361E083E00E94C21392
:10192000E9EBF0E080818E7F808380818D7F8083F2
:1019300080E28093B80085E48093BC000895413232
:1019400008F03FC09091FC039111FCCF91E090937F
:10195000FC032093FA032FEF20938F031092D403FC
:10196000240F2093D3039093FB039091FB03880FE4
:10197000892B8093FB038091F903813041F410920D
:10198000F9038091FB038093BB0085EC01C085EED9
:101990008093BC008091FC038130E1F38091D403FB
:1019A000841710F44091D40325ED33E0FB01D901F5
:1019B0008A2F821B841718F48D918193F9CF842F7D
:1019C000089580E008950F93413208F046C0909149
:1019D000FC039111FCCF92E09093FC030093FA0377
:1019E0009FEF90938F031092D4034093D303FB0196
:1019F00065ED73E0DB019A2F961B941718F4919113
:101A00009D93F9CF1092FB039091FB03880F892BD4
:101A10008093FB038091F903813041F41092F90324
:101A20008091FB038093BB0085EC01C085EE809321
:101A3000BC00222321F08091FC038230E1F38091ED
:101A40008F038F3F61F080918F03803251F080913E
:101A50008F03803341F483E007C081E005C080E05C
:101A600003C082E001C084E00F910895613298F4D0
:101A70002091FC03243089F46093B103FC0183EBD3
:101A800093E0DC012A2F281B261718F421912D93AF
:101A9000F9CF80E0089581E0089582E0089585ED12
:101AA0008093BC008091BC0084FDFCCF1092FC03AD
:101AB000089585EC8093BC001092FC0308951F925A
:101AC0000F920FB60F9211242F933F934F935F9372
:101AD0006F937F938F939F93AF93BF93EF93FF93F6
:101AE0008091B900887F803609F49CC068F58832FF
:101AF00009F45BC090F4803109F454C038F48823B1
:101B000009F4F5C0883009F44DC0F5C0883109F4F6
:101B10004CC0803209F45DC0EEC0803409F468C066
:101B200048F4803309F455C0883309F0E4C0809349
:101B30008F03A8C0803509F44FC0883509F45DC013
:101B4000883409F0D8C0D5C0883909F4C6C0A8F4D3
:101B5000883709F467C038F4883609F463C08037E1
:101B600009F460C0C8C0883809F4B7C0803909F4E6
:101B70005FC0803809F0BFC05BC0803B09F485C0FE
:101B800038F4803A09F466C0883A09F47EC0B3C0DC
:101B9000803C09F4A6C0883C09F4A3C0883B09F442
:101BA00089C0A9C08091FB0310C09091D40380919B
:101BB000D303981770F5E091D40381E08E0F8093E2
:101BC000D403F0E0EB52FC4F80818093BB0085ECA6
:101BD00085C080938F038DC0E091D40381E08E0F88
:101BE0008093D4038091BB00F0E0EB52FC4F8083E4
:101BF0009091D4038091D3036DC0E091D40381E030
:101C00008E0F8093D4038091BB00F0E0EB52FC4F29
:101C100080838091FA0381116CC081E08093F90385
:101C200084EA60C083E08093FC0310929003CFCFDE
:101C300080919003803208F050C0E091900381E0E1
:101C40008E0F809390038091BB00F0E0EF56FC4F25
:101C50008083BDCF80919003803230F4E091900377
:101C6000F0E0EF56FC4F10820E944F0D6091900300
:101C700070E0E091F503F091F60381E993E00995B6
:101C8000109290030E94590D36C084E08093FC03AB
:101C90001092B2031092B103E091F703F091F803B0
:101CA00009958091B103811105C081E08093B10352
:101CB0001092B303E091B20381E08E0F8093B203E0
:101CC000F0E0ED54FC4F80818093BB009091B20313
:101CD0008091B103981708F47ACF85E88093BC000F
:101CE0000AC085EC8093BC001092FC0304C01092E3
:101CF0008F030E944F0DFF91EF91BF91AF919F9184
:101D00008F917F916F915F914F913F912F910F90A4
:101D10000FBE0F901F901895AF92BF92CF92DF9297
:101D2000EF92FF920F931F93CF93DF931F92CDB744
:101D3000DEB75C01D62EC72E062F172F7C0184E05C
:101D4000E80EF11CF80161918F01C50169830E94C1
:101D5000AE216981681719F0C5010E94B621FFEF15
:101D6000AF1ABF0AAE14BF0469F78D2D9C2D0F90DA
:101D7000DF91CF911F910F91FF90EF90DF90CF9067
:101D8000BF90AF900895CF92DF92EF92FF920F93A2
:101D90001F93CF93DF9300D0CDB7DEB76C018B01DB
:101DA0007C0184E0E80EF11CC60169837A830E94FD
:101DB000AE21F80181938F01FFEFCF1ADF0A69810D
:101DC0007A81CE14DF0481F7CB010F900F90DF9161
:101DD000CF911F910F91FF90EF90DF90CF900895DA
:101DE000CF92DF92EF92FF920F931F93CF93DF93E7
:101DF000EC016B018A0181ED90E09F878E878FE077
:101E000090E0998B888B1A8A1B8A1C8A1D8A1E8AED
:101E10001F8A188E198E1A8E7E018FE1E80EF11C32
:101E200068E4C7010E94FF0AD982C8821D830C831F
:101E3000C7010E94070B01151105E1F001301105E2
:101E4000A9F54DEC5CEC6CEC7DE34E835F83688719
:101E5000798740E050E06FE274E44A875B876C87E3
:101E60007D8780E096E09B838A8340E050E060E8D5
:101E700074E418C049E25CE568E172E44E835F8374
:101E8000688779874AE959E967E772E44A875B8797
:101E90006C877D8780E09AE09B838A8340E050E0F6
:101EA00060E873E44B8F5C8F6D8F7E8FDF91CF91F5
:101EB0001F910F91FF90EF90DF90CF900895CF92F8
:101EC000DF92EF92FF92CF93DF93EC0188819981AB
:101ED0002A89211128C0BE016D5E7F4F23E0880F43
:101EE000991F2A95E1F70E94C30E81E08A8BCB8867
:101EF000DC88ED88FE882E813F8148855985C701A1
:101F0000B6010E94AA1D87FD0AC02A853B854C8523
:101F10005D85C701B6010E94F91E181624F41B8ABC
:101F20001C8A1D8A1E8A6B897C898D899E89DF9116
:101F3000CF91FF90EF90DF90CF900895CF930E94C4
:101F40005F0FC1E020E030E0A9010E94F91E1816E1
:101F50000CF0C0E08C2FCF910895CF93DF93EC016C
:101F6000888199812C813D812130310561F433E0F4
:101F7000880F991F3A95E1F7BE01695E7F4F04967D
:101F80000E94C30E04C01F8A188E198E1A8E6F8984
:101F9000788D898D9A8DDF91CF9108950F931F933E
:101FA000CF93DF93EC018C01015E1F4F6A817B812F
:101FB000C8010E940B0B88819981009721F4C80108
:101FC0000E94620B05C00197B9F4C8010E94870BFB
:101FD000BC01882777FD8095982F0E94491E2B8D84
:101FE0003C8D4D8D5E8D0E94FD1E20E03EEF4FEF3B
:101FF00056E40E94AE1D03C060E070E0CB01DF91AB
:10200000CF911F910F910895CF930E94CE0FC1E001
:102010002AE037ED43E25CE30E94F91E18160CF04B
:10202000C0E08C2FCF910895CF93DF93EC010E94F5
:102030009E0F882339F0CE010E940410882311F0EE
:1020400081E001C080E0DF91CF910895CF92DF92CF
:10205000EF92FF92CF93DF93EC010E94141088233C
:1020600051F0CE010E94CE0F20E030E0A9010E9485
:10207000F91E181624F060E070E0CB011FC0CE01FD
:102080000E94CE0F6B017C01CE010E94AD0F9B011F
:10209000AC01C701B6010E94451D6B017C01CE0158
:1020A0000E945F0F9B01AC01C701B6010E94AE1DEB
:1020B00020E030E048EC52E40E94FD1EDF91CF9119
:1020C000FF90EF90DF90CF9008950F931F93CF93E1
:1020D000DF9300D000D0CDB7DEB78C0149835A839F
:1020E0006B837C83FC0180819181BE016F5F7F4F98
:1020F00043E0880F991F4A95E1F70E948C0EF80182
:10210000128A0F900F900F900F90DF91CF911F9137
:102110000F910895EF92FF920F931F93CF93DF9348
:10212000CDB7DEB728970FB6F894DEBF0FBECDBF90
:102130007C0149835A836B837C830D831E832F83A9
:102140003887FC010081118153E0000F111F5A955F
:10215000E1F7BE016F5F7F4FC8010E948C0EBE0188
:102160006B5F7F4FC80104960E948C0EF701128AA4
:1021700028960FB6F894DEBF0FBECDBFDF91CF918A
:102180001F910F91FF90EF900895CF92DF92EF9201
:10219000FF92CF93DF93EC016A017B010E94CE0F87
:1021A000A70196010E94AE1D2E813F814885598569
:1021B0000E94F91E18168CF4CE010E94CE0FA701C2
:1021C00096010E94AE1D2A853B854C855D850E9447
:1021D000AA1D87FF02C081E001C080E0DF91CF919E
:1021E000FF90EF90DF90CF9008950895853008F02C
:1021F0004CC0E82FF0E0EE0FFF1FE85CFE4F71834C
:1022000060838230E1F018F4813069F004C08330DB
:1022100019F1843071F1809169008C7F842B809357
:102220006900E89A089580916900440F551F440F92
:10223000551F837F842B80936900E99A08958091CC
:10224000690034E0440F551F3A95E1F78F7C842BE9
:1022500080936900EA9A08958091690026E0440F0E
:10226000551F2A95E1F78F73842B80936900EB9AB1
:10227000089580916A0094E0440F551F9A95E1F704
:102280008F7C842B80936A00EE9A08951F920F92A0
:102290000FB60F9211242F933F934F935F936F9339
:1022A0007F938F939F93AF93BF93EF93FF93E091AF
:1022B0003801F09139010995FF91EF91BF91AF91EC
:1022C0009F918F917F916F915F914F913F912F914E
:1022D0000F900FBE0F901F9018951F920F920FB680
:1022E0000F9211242F933F934F935F936F937F939C
:1022F0008F939F93AF93BF93EF93FF93E0913A0136
:10230000F0913B010995FF91EF91BF91AF919F91A2
:102310008F917F916F915F914F913F912F910F908E
:102320000FBE0F901F9018951F920F920FB60F922D
:1023300011242F933F934F935F936F937F938F93CA
:102340009F93AF93BF93EF93FF93E0913C01F09184
:102350003D010995FF91EF91BF91AF919F918F91B1
:102360007F916F915F914F913F912F910F900FBE91
:102370000F901F9018951F920F920FB60F92112475
:102380002F933F934F935F936F937F938F939F937D
:10239000AF93BF93EF93FF93E0913E01F0913F0124
:1023A0000995FF91EF91BF91AF919F918F917F918F
:1023B0006F915F914F913F912F910F900FBE0F90B2
:1023C0001F9018951F920F920FB60F9211242F9302
:1023D0003F934F935F936F937F938F939F93AF93AD
:1023E000BF93EF93FF93E0914001F0914101099574
:1023F000FF91EF91BF91AF919F918F917F916F91DD
:102400005F914F913F912F910F900FBE0F901F90B2
:1024100018951F920F920FB60F9211242F933F938E
:102420008F939F93AF93BF938091FE039091FF038F
:10243000A0910004B09101043091FD0326E0230F28
:102440002D3720F40296A11DB11D05C029E8230FE8
:102450000396A11DB11D2093FD038093FE0390936D
:10246000FF03A0930004B0930104809102049091B3
:102470000304A0910404B09105040196A11DB11DAF
:102480008093020490930304A0930404B093050482
:10249000BF91AF919F918F913F912F910F900FBE60
:1024A0000F901F9018952FB7F8946091FE037091CC
:1024B000FF0380910004909101042FBF08953FB75E
:1024C000F8948091020490910304A0910404B091C7
:1024D000050426B5A89B05C02F3F19F00196A11D44
:1024E000B11D3FBF6627782F892F9A2F620F711D6C
:1024F000811D911D43E0660F771F881F991F4A9524
:10250000D1F708958F929F92AF92BF92CF92DF92B0
:10251000EF92FF926B017C010E945F124B015C0104
:10252000C114D104E104F104F1F00E949B1B0E944C
:102530005F12681979098A099B09683E7340810511
:10254000910570F321E0C21AD108E108F10888EE84
:10255000880E83E0981EA11CB11CC114D104E104B3
:10256000F10429F7DDCFFF90EF90DF90CF90BF907F
:10257000AF909F908F9008958330910528F0880F39
:10258000991F04970197F1F70895789484B58260B4
:1025900084BD84B5816084BD85B5826085BD85B507
:1025A000816085BDEEE6F0E0808181608083E1E8B6
:1025B000F0E01082808182608083808181608083EE
:1025C000E0E8F0E0808181608083E1E9F0E08081F3
:1025D00082608083808181608083E0E9F0E0808197
:1025E00081608083E1ECF0E0808184608083808181
:1025F00082608083808181608083E3ECF0E0808171
:1026000081608083E0ECF0E0808182608083E2EC96
:10261000F0E0808181608083EAE7F0E0808184607F
:10262000808380818260808380818E7F80838081AF
:10263000806880830895823108F08251E82FF0E0AD
:10264000E653FF4FE49180917B00E3FB222720F9C2
:1026500030E095E0220F331F9A95E1F78F7D822BB2
:1026600080937B00E7708091420120E4829FC0014B
:102670001124E82BE0937C0080917A0080648093A1
:102680007A0080917A0086FDFCCF809178002091BD
:10269000790090E0922B089590E0FC013197EF30A3
:1026A000F105B0F5EA5AFF4F0C94861F8091800027
:1026B0008F7703C0809180008F7D80938000089584
:1026C00080918000877FF9CF84B58F7702C084B571
:1026D0008F7D84BD0895809190008F7707C0809191
:1026E00090008F7D03C080919000877F8093900041
:1026F00008958091C0008F7703C08091C0008F7DC6
:102700008093C00008958091C200877F8093C200AB
:102710000895CF93DF9390E0FC01EB50FF4F24919D
:10272000FC01EC5EFE4F8491882349F190E0880F14
:10273000991FFC01E15BFE4FA591B4918F5B9E4F09
:10274000FC01C591D4919FB7611108C0F8948C9198
:10275000209582238C93888182230AC0623051F4B1
:10276000F8948C91322F309583238C938881822B1F
:10277000888304C0F8948C91822B8C939FBFDF9147
:10278000CF9108950F931F93CF93DF931F92CDB7EF
:10279000DEB7282F30E0F901EA52FF4F8491F901AA
:1027A000EB50FF4F1491F901EC5EFE4F04910023B2
:1027B000C9F0882321F069830E944C136981E02FBE
:1027C000F0E0EE0FFF1FEF5BFE4FA591B4919FB7B6
:1027D000F8948C91611103C01095812301C0812B65
:1027E0008C939FBF0F90DF91CF911F910F91089510
:1027F000CF93DF93282F30E0F901EA52FF4F849105
:10280000F901EB50FF4FD491F901EC5EFE4FC491FA
:10281000CC2391F081110E944C13EC2FF0E0EE0FCD
:10282000FF1FED5CFE4FA591B4912C912D2381E00B
:1028300090E021F480E002C080E090E0DF91CF9151
:10284000089508950E94C5120E94211486E094E024
:102850000E942D1A0E94DD07C0E0D0E00E943F09CF
:102860002097E1F30E940000F9CFCF92DF92EF9220
:10287000FF920F931F93CF93DF937C016A01EB01CB
:1028800000E010E00C151D0571F06991D701ED9184
:10289000FC910190F081E02DC7010995892B19F079
:1028A0000F5F1F4FEFCFC801DF91CF911F910F91A5
:1028B000FF90EF90DF90CF9008956115710581F042
:1028C000DB010D900020E9F7AD0141505109461B95
:1028D000570BDC01ED91FC910280F381E02D09940E
:1028E00080E090E00895DC01ED91FC91DB0114960D
:1028F0004D915C9115976D917C910280F381E02D53
:1029000009940C945D14DC01ED91FC910190F0812F
:10291000E02D09948F929F92AF92BF92DF92EF9237
:10292000FF920F931F93CF93DF93CDB7DEB7A1979D
:102930000FB6F894DEBF0FBECDBF7C01F42FD52EAD
:10294000CB0119A2223008F42AE08E010F5D1F4F3F
:10295000822E912CA12CB12C6F2F7D2DA5019401DD
:102960000E94641FF22FD32ECA01015011096A3050
:1029700014F4E0E301C0E7E3E60FD801EC93232B66
:10298000242B252B49F7B801C7010E945D14A1969D
:102990000FB6F894DEBF0FBECDBFDF91CF911F9170
:1029A0000F91FF90EF90DF90BF90AF909F908F902E
:1029B0000895CF92DF92EF92FF920F931F93CF93E0
:1029C000DF93EC016A017B012115310579F4E8817F
:1029D000F9810190F081E02D642FDF91CF911F915B
:1029E0000F91FF90EF90DF90CF9009942A3031053E
:1029F000E9F477FF1AC06DE20E9483148C0144272A
:102A00005527BA014C195D096E097F092AE0CE01EC
:102A10000E948A14800F911FDF91CF911F910F9117
:102A2000FF90EF90DF90CF9008952AE0B701A601C4
:102A3000CE01DF91CF911F910F91FF90EF90DF902A
:102A4000CF900C948A144F925F926F927F928F92E4
:102A50009F92AF92BF92CF92DF92EF92FF920F932D
:102A60001F93CF93DF93EC016A017B01B22E9A0191
:102A7000AB01C701B6010E94601F882319F066EA06
:102A800072E027C026013701E89477F82FEF3FEF77
:102A90004FE75FE7C301B2010E94601F81110DC0C3
:102AA0002FEF3FEF4FE75FE7C301B2010E94AA1D7E
:102AB00018161CF46AEA72E00CC02FEF3FEF4FE7E4
:102AC0005FE4C701B6010E94F91E1816ACF46EEA65
:102AD00072E0CE01DF91CF911F910F91FF90EF90A7
:102AE000DF90CF90BF90AF909F908F907F906F902E
:102AF0005F904F900C945D142FEF3FEF4FE75FEC2A
:102B0000C701B6010E94AA1D87FDE1CF20E030E099
:102B1000A901C701B6010E94AA1D87FF0AC06DE284
:102B2000CE010E9483148C01F7FAF094F7F8F09428
:102B300002C000E010E0A12C60E070E080E09FE3C4
:102B4000AB1441F020E030E040E251E40E94AE1DC1
:102B5000A394F6CF9B01AC01C701B6010E94461DAC
:102B60006B017C010E941B1E2B013C010E94471E31
:102B70009B01AC01C701B6010E94451D6B017C01A0
:102B80002AE0B301A201CE010E948A14080F191F86
:102B9000BB2039F062EB72E0CE010E945D14080F99
:102BA000191F7B2C772041F120E030E040E251E416
:102BB000C701B6010E94FD1E6B017C010E94161E1A
:102BC0004B01AA2497FCA094BA2C2AE030E0B5016E
:102BD000A401CE010E94D914080F191FC501B40128
:102BE0000E94491E9B01AC01C701B6010E94451D10
:102BF0006B017C017A94D6CFC801DF91CF911F91F0
:102C00000F91FF90EF90DF90CF90BF90AF909F908B
:102C10008F907F906F905F904F9008950C94231544
:102C200040910A0450910B0420910804309109044A
:102C300042175307B4F49091E8009570E1F3909136
:102C4000E80092FD19C08093F10080910A049091F0
:102C50000B0401968F739927892B19F48EEF8093BB
:102C6000E80080910A0490910B04019690930B0464
:102C700080930A0481E0089580E00895CF92DF9266
:102C8000EF92FF920F931F93CF93DF931F92CDB7D5
:102C9000DEB7082F162FF42E862F880F8E5F9983AC
:102CA0000E94101683E00E941016E02EC02E99811B
:102CB000D92E8C2D8E19811798F4F601F7FE02C0DB
:102CC000849101C080810E941016082F80E00E942C
:102CD00010168023FFEFCF1ADF0A8111EACF01C05F
:102CE00081E00F90DF91CF911F910F91FF90EF90B6
:102CF000DF90CF9008958091D70081608093D700B6
:102D000080EA8093D80089B58F7E89BD89B58260BD
:102D100089BD09B400FEFDCF61E070E080E090E085
:102D20000E9482128091D8008F7C80618093D800AD
:102D30008091E000807F8093E0000895CF93DF933F
:102D40001F92CDB7DEB71982CE0101960E94F91B02
:102D50000E94311DBE016F5F7F4F0E94AA1C8981B6
:102D60000F90DF91CF9108952FB7FC012083F89445
:102D700067706093E9000895CF93DF931F92CDB7FA
:102D8000DEB7682FCE0101960E94B4168091F20042
:102D900099819FBF0F90DF91CF910895FF920F937C
:102DA0001F93CF93DF9300D0CDB7DEB7F62E8A0105
:102DB00090910E04992311F057FF03C08FEF9FEFFE
:102DC0002AC0682FCE0101967A830E94B4168091A2
:102DD000F20090E0A8017A81801791070CF4AC0111
:102DE000EF2DF72FF40E84E6FE1631F080930F04DA
:102DF0009091F1009193F8CF4115510521F0809108
:102E0000F200882321F089818FBFCA0104C08BE6BC
:102E10008093E800F8CF0F900F90DF91CF911F9132
:102E20000F91FF900895CF93DF931F92CDB7DEB738
:102E300041E050E0BE016F5F7F4F0E94CE160197C8
:102E400019F4898190E002C08FEF9FEF0F90DF911E
:102E5000CF910895CF93DF931F92CDB7DEB7682F40
:102E6000CE0101960E94B4169091E800892F8072DD
:102E700095FF04C09091F20080E4891B99819FBF67
:102E80000F90DF91CF9108956F927F928F929F92D2
:102E9000AF92BF92CF92DF92EF92FF920F931F9368
:102EA000CF93DF931F92CDB7DEB7782E7B01C42E70
:102EB000B52E80910E04882369F0042F152F8AEF18
:102EC000D82E872D8072982E9AE3A92E872D807494
:102ED000882E11C08FEF9FEF56C0872D0E942A17B2
:102EE000682E81110CC0DA94A9F361E070E080E0F3
:102EF00090E00E9482120115110579F73BC0282F3E
:102F000030E0021713070CF4602E672DCE010196F6
:102F10000E94B4168091E80085FF29C0262D30E07C
:102F2000021B130B992039F06A948FEF6816B1F0E9
:102F30001092F100F9CFF701862D77FE07C081507E
:102F400058F094919093F1003196F9CF815020F090
:102F500091919093F100FACFE20EF31E8091E80078
:102F600085FF0EC00115110511F4811009C089817A
:102F70008FBFC1CF84E6809310048C2D9B2D03C09E
:102F8000A092E800F4CF0F90DF91CF911F910F91A5
:102F9000FF90EF90DF90CF90BF90AF909F908F9079
:102FA0007F906F9008951092E90010920B04109298
:102FB0000A0490930904809308040895CF92DF9245
:102FC000FF920F931F93CF93DF9300D0CDB7DEB75F
:102FD000F82E8A016B0101151105B1F0F601F7FE1B
:102FE00002C0849101C0808149835A830E941016D7
:102FF00001501109FFEFCF1ADF0A49815A8181116F
:10300000EACF8FEF9FEF01C0CA010F900F90DF91C1
:10301000CF911F910F91FF90DF90CF900895CF93A4
:10302000DF939B01A4E6BBEF21153105F9F0A9015F
:103030002134310514F040E450E0E091E800E2FF73
:10304000FCCFFB01E21BF30BE80FF91FCE2FC40FDF
:10305000CE1729F0D091F100D0833196F9CFA0930B
:103060000F04B093E800241B350BDECFCB01DF91BA
:10307000CF9108951F920F920FB60F921124DF92F5
:10308000EF92FF920F931F932F933F934F935F9372
:103090006F937F938F939F93AF93BF93EF93FF9320
:1030A000CF93DF93CDB7DEB76C97DEBFCDBF109265
:1030B000E9008091E80083FF2EC1FE0175968F0123
:1030C000AE01435E5F4F9F012F5F3F4F8091F10044
:1030D00080832417350711F0F901F5CF84E680933A
:1030E0000F0482EF8093E8005D8957FF05C080914F
:1030F000E80080FFFCCF03C08EEF8093E800852FAF
:10310000807609F0EFC04E898F89D88C41110CC0B0
:10311000503829F480910D048093F10002C0109280
:10312000F1001092F100F0C0282F30E03D2941302D
:1031300051F45111E9C02130310509F0E5C0809109
:103140000D048D7F0BC0433061F45111DDC021307F
:10315000310509F0D9C080910D04826080930D047F
:10316000D3C0453041F49091E80090FFFCCF8068D7
:103170008093E300C9C0463009F08BC0EB8CFC8C17
:1031800022E0D2122CC080E090E00E94D3170E946F
:103190009E1699E08E010F5F1F4FF801292F1192A3
:1031A0002A95E9F79983DA8291E09E8390EA9887DD
:1031B0009AEF998720910A0430910B04275F3F4FC3
:1031C0003C832B838D83C7010E94D31749E050E0D5
:1031D000B80180E00E94DE170E949E1695C0C701CC
:1031E0000E94D3170E94311DB8010E94D31C009782
:1031F00019F00CF089C08CC081E0D8120EC08B8D04
:103200009C8D089719F481E080930704809107044E
:1032100081112FC06FE671E031C0E3E0DE1278C0AB
:103220008F89882349F1823029F440E86CE08AE8EC
:1032300091E01CC0813029F440E868E081E891E029
:1032400015C0833009F064C00E94311D8E010F5FEC
:103250001F4FB8010E94F21CF80101900020E9F70D
:103260003197E01BF10B40E06E2FC8010E943E1623
:1032700049C06DE571E002C067E971E06115710553
:1032800009F446C0FB01449150E080E80E94DE173B
:103290003BC04730E9F1483021F481E08093F100F0
:1032A00033C0493089F5537099F5E4E4F1E081E0E9
:1032B00021E036E39081992361F08093E900209327
:1032C000EB0091919093EC003093ED008F5F87308D
:1032D00089F78EE78093EA001092EA008F89809345
:1032E0000E0412C08B8D9C8D0E94D317898D811185
:1032F00004C0C8010E94041C05C00E94311DB80111
:103300000E94111D882321F08EEF8093E80003C0F6
:1033100081E28093EB006C960FB6F894DEBF0FBE8F
:10332000CDBFDF91CF91FF91EF91BF91AF919F9171
:103330008F917F916F915F914F913F912F911F914D
:103340000F91FF90EF90DF900F900FBE0F901F90A6
:1033500018958093E9008091F200882319F08AE3A0
:103360008093E80008951F920F920FB60F921124D8
:103370002F933F934F935F936F937F938F939F937D
:10338000AF93BF93CF93EF93FF93C091E1008091F0
:10339000E100837F8093E1008093E100C3FF0FC0D1
:1033A0001092E90081E08093EB001092EC0082E340
:1033B0008093ED0010920E0488E08093F000C2FF2D
:1033C00015C083E00E94A91980911004882329F078
:1033D0008091100481508093100480910F04882301
:1033E00029F080910F04815080930F04C4FF10C016
:1033F0008091E2008E7E81608093E2008091E10006
:103400008F7E8093E10080910C048E7E806111C0DC
:10341000C0FF11C08091E2008E7E80618093E20047
:103420008091E1008E7E8093E10080910C048E7E7D
:10343000816080930C04FF91EF91CF91BF91AF9188
:103440009F918F917F916F915F914F913F912F91BC
:103450000F900FBE0F901F90189510920E041092AF
:103460000D0410920C040E947B168091E1008E7E68
:103470008093E1008DE08093E200EEEFFFE785911D
:1034800094918B3F9C4D19F481E0809361040895E1
:10349000FC01808191810C944520CF93DF93EC0156
:1034A00088819981009711F00E9445201982188225
:1034B0001D821C821B821A82DF91CF9108950F9387
:1034C0001F93CF93DF93EC018B016F5F7F4F888158
:1034D00099810E94D420009731F0998388831B83BF
:1034E0000A8381E001C080E0DF91CF911F910F91AD
:1034F0000895CF93DF93EC0188819981892B29F07E
:103500008A819B818617970760F4CE010E945F1A1B
:10351000882341F08C819D81892B19F4E881F98100
:10352000108281E0DF91CF910895EF92FF920F9387
:103530001F93CF93DF93EC017B018A01BA010E94B4
:10354000791A811104C0CE010E944D1A07C01D8353
:103550000C83B701888199810E94A721CE01DF9158
:10356000CF911F910F91FF90EF900895FC01118270
:10357000108213821282158214826115710559F02E
:10358000FB0101900020E9F7AF0141505109461BB2
:10359000570B0C94951A08950F931F93CF93DF93B5
:1035A0008C01EB01FC0180819181009799F04281AF
:1035B00053812C813D814217530750F068817981F6
:1035C0000E94A7218C819D81F8019583848313C07B
:1035D0000E94452088819981F801918380838A81A6
:1035E0009B81938382838C819D81958384831982BF
:1035F00018821B821A821D821C82DF91CF911F913B
:103600000F910895CF93DF93EC018617970711F080
:103610000E94CC1ACE01DF91CF910895CF93DF9312
:10362000EC016115710561F0FB0101900020E9F7E3
:10363000AF0141505109461B570B0E94951A02C019
:103640000E944D1ACE01DF91CF910895EF92FF9223
:103650000F931F93CF93DF93CDB7DEB7A1970FB62C
:10366000F894DEBF0FBECDBF7C01CB01BA01F701DC
:1036700011821082138212821582148242E0420F5C
:103680008E010F5F1F4F0E948C1FBC01C7010E945B
:103690000E1BA1960FB6F894DEBF0FBECDBFDF9113
:1036A000CF911F910F91FF90EF900895BF92CF920D
:1036B000DF92EF92FF920F931F93CF93DF936C01F2
:1036C0007B01EA0189012417350720F48D2FE901D8
:1036D000042F182F65EA72E0C6010E94B61AD701BE
:1036E00014968D919C911597C817D907C8F4801727
:1036F000910708F48C01D701ED91FC911197E00F2F
:10370000F11FB08010826D917C916C0F7D1FC601FE
:103710000E940E1BD701ED91FC91E00FF11FB082CA
:10372000C601DF91CF911F910F91FF90EF90DF9035
:10373000CF90BF9008950895CF93DF931F92CDB798
:10374000DEB76983DC01ED91FC910280F381E02D0D
:1037500041E050E0BE016F5F7F4F09950F90DF9110
:10376000CF910895CF93DF93EC018C859D8597FFD2
:1037700005C082E00E9413179D878C878C859D85EC
:10378000DF91CF91089583E00C94A919FC01848501
:10379000958597FD06C082E00E94BC1690E00196D8
:1037A000089582E00E94BC1690E00895FC01848593
:1037B000958597FD05C02FEF3FEF35872487089546
:1037C00082E00C941317CF93DF93EC0180915501A5
:1037D000882331F083E00E9444171816190634F04C
:1037E00081E090E09B838A8380E090E0DF91CF913D
:1037F0000895FC0120812E5F208342E450E06BE9B4
:1038000071E080E80C94DE17FC0121818081813A0F
:1038100059F4213209F04BC047E050E06EE471E00A
:1038200080E00E94DE175EC0813209F040C0233282
:1038300089F4838190E0982F88273281832BA0E040
:10384000B0E080934A0190934B01A0934C01B09358
:103850004D010FC0203239F467E070E08EE491E052
:103860000E940F1809C0223221F4828180935501F1
:1038700003C02D7F2032B1F580916104811103C016
:10388000E0E0F8E002C0EEEFFAE080914E019091A6
:103890004F01A0915001B0915101803B9440A1058E
:1038A000B10511F58091550180FF03C01DC080E076
:1038B0000895EE3F2AE0F20731F0808191819093E4
:1038C000FF0A8093FE0A87E797E7918380832BE0C6
:1038D00088E190E00FB6F894A895809360000FBE41
:1038E0002093600081E0089588E10FB6F8948093FA
:1038F0006000109260000FBEA895EE3F8AE0F807C6
:1039000039F08091FE0A9091FF0A91838083EACF7B
:103910001092FF0A1092FE0AE5CF10921404109242
:10392000130488EE93E0A0E0B0E080931504909338
:103930001604A0931704B093180488EB92E09093B8
:103940001204809311048FEF9FEF90931E048093D5
:103950001D040895EF92FF920F931F93CF93DF936F
:103960007B01FC01C281D38100E010E0209781F04F
:10397000E881F9810280F381E02DB701CE0109953C
:1039800097FD08C0080F191F0884D985C02DEECFF8
:10399000C80102C08FEF9FEFDF91CF911F910F9170
:1039A000FF90EF9008950F931F93CF93DF938B01B8
:1039B000FC01C281D381209771F0E881F9810480F4
:1039C000F581E02DB801CE010995009731F4088406
:1039D000D985C02DF0CF80E090E0DF91CF911F918D
:1039E0000F9108950F931F93CF93DF938B01FC01E9
:1039F000C281D381209771F0E881F9810680F78137
:103A0000E02DB801CE010995080F111D0884D98554
:103A1000C02DF0CFF8011082DF91CF911F910F914F
:103A200008950F931F93CF93DF938B01FC01C28105
:103A3000D381209771F0E881F9810190F081E02D28
:103A4000B801CE010995811106C00884D985C02D21
:103A5000F0CF80E001C081E0DF91CF911F910F9105
:103A600008958091660481110DC082E08093620404
:103A700084E080936304109265041092640481E0F2
:103A80008093660482E694E008955058BB27AA27E5
:103A90000ED075C166D130F06BD120F031F49F3F6C
:103AA00011F41EF45BC10EF4E095E7FB51C1E92F60
:103AB00077D180F3BA17620773078407950718F068
:103AC00071F49EF58FC10EF4E0950B2EBA2FA02D48
:103AD0000B01B90190010C01CA01A0011124FF27BB
:103AE000591B99F0593F50F4503E68F11A16F040B6
:103AF000A22F232F342F4427585FF3CF46953795B5
:103B00002795A795F0405395C9F77EF41F16BA0B79
:103B1000620B730B840BBAF09150A1F0FF0FBB1F27
:103B2000661F771F881FC2F70EC0BA0F621F731F70
:103B3000841F48F4879577956795B795F7959E3FCD
:103B400008F0B3CF9395880F08F09927EE0F97955B
:103B500087950895D9D008F481E008950CD00FC15D
:103B600007D140F0FED030F021F45F3F19F0F0C0F3
:103B7000511139C1F3C014D198F39923C9F35523D6
:103B8000B1F3951B550BBB27AA2762177307840750
:103B900038F09F5F5F4F220F331F441FAA1FA9F306
:103BA00033D00E2E3AF0E0E830D091505040E695F8
:103BB000001CCAF729D0FE2F27D0660F771F881F59
:103BC000BB1F261737074807AB07B0E809F0BB0B48
:103BD000802DBF01FF2793585F4F2AF09E3F51056C
:103BE00068F0B6C000C15F3FECF3983EDCF3869509
:103BF00077956795B795F7959F5FC9F7880F911DE2
:103C00009695879597F90895E1E0660F771F881FCD
:103C1000BB1F621773078407BA0720F0621B730B80
:103C2000840BBA0BEE1F88F7E095089504D06894D2
:103C3000B111D9C00895BCD088F09F5790F0B92F2A
:103C40009927B751A0F0D1F0660F771F881F991FF1
:103C50001AF0BA95C9F712C0B13081F0C3D0B1E003
:103C60000895C0C0672F782F8827B85F39F0B93F13
:103C7000CCF3869577956795B395D9F73EF49095F3
:103C80008095709561957F4F8F4F9F4F0895E89471
:103C900009C097FB3EF490958095709561957F4F94
:103CA0008F4F9F4F9923A9F0F92F96E9BB27939542
:103CB000F695879577956795B795F111F8CFFAF452
:103CC000BB0F11F460FF1BC06F5F7F4F8F4F9F4F83
:103CD00016C0882311F096E911C0772321F09EE8E1
:103CE000872F762F05C0662371F096E8862F70E047
:103CF00060E02AF09A95660F771F881FDAF7880F21
:103D00009695879597F90895990F0008550FAA0B76
:103D1000E0E8FEEF16161706E807F907C0F01216DE
:103D20001306E407F50798F0621B730B840B950BE1
:103D300039F40A2661F0232B242B252B21F4089536
:103D40000A2609F4A140A6958FEF811D811D0895D3
:103D500097F99F6780E870E060E008959FEF80EC3E
:103D6000089500240A9416161706180609060895E1
:103D700000240A9412161306140605060895092E47
:103D80000394000C11F4882352F0BB0F40F4BF2BB6
:103D900011F460FF04C06F5F7F4F8F4F9F4F0895F6
:103DA00057FD9058440F551F59F05F3F71F04795EC
:103DB000880F97FB991F61F09F3F79F087950895D1
:103DC000121613061406551FF2CF4695F1DF08C0F0
:103DD000161617061806991FF1CF8695710561050D
:103DE00008940895E894BB2766277727CB0197F9B5
:103DF00008958ADF08F48FEF08950BD0C0CFB1DFAC
:103E000028F0B6DF18F0952309F0A2CFA7CF112430
:103E1000EACFC6DFA0F3959FD1F3950F50E0551F71
:103E2000629FF001729FBB27F00DB11D639FAA270F
:103E3000F00DB11DAA1F649F6627B00DA11D661F5E
:103E4000829F2227B00DA11D621F739FB00DA11D7F
:103E5000621F839FA00D611D221F749F3327A00D39
:103E6000611D231F849F600D211D822F762F6A2FD5
:103E700011249F5750408AF0E1F088234AF0EE0F5A
:103E8000FF1FBB1F661F771F881F91505040A9F767
:103E90009E3F510570F05CCFA6CF5F3FECF3983E9C
:103EA000DCF3869577956795B795F795E7959F5FCE
:103EB000C1F7FE2B880F911D9695879597F9089568
:103EC00023DF880B990B0895A1E21A2EAA1BBB1BB6
:103ED000FD010DC0AA1FBB1FEE1FFF1FA217B307D6
:103EE000E407F50720F0A21BB30BE40BF50B661FEC
:103EF000771F881F991F1A9469F7609570958095B0
:103F000090959B01AC01BD01CF010895EE0FFF1FFD
:103F10000590F491E02D0994EF920F931F93CF93A6
:103F2000DF93E80147FF02C034E101C034E0E42F31
:103F3000FF27E7FDF095F7FF03C0F195E195F10943
:103F4000E32E022F2E2FAE010E94C421CE01DF915D
:103F5000CF911F910F91EF900895CF93DF9382300F
:103F6000910510F482E090E0E0917004F09171040A
:103F700020E030E0A0E0B0E0309739F1408151819D
:103F800048175907B8F04817590771F4828193818F
:103F9000109729F013969C938E9312972CC09093B0
:103FA00071048093700427C02115310531F0421748
:103FB000530718F0A901DB0101C0EF019A01BD010F
:103FC000DF010280F381E02DD7CF21153105F9F013
:103FD000281B390B2430310580F48A819B816115BF
:103FE000710521F0FB019383828304C090937104D7
:103FF00080937004FE01329644C0FE01E20FF31F6D
:104000008193919322503109398328833AC02091BA
:104010006E0430916F04232B41F420910201309102
:10402000030130936F0420936E04209100013091BE
:1040300001012115310541F42DB73EB7409104012E
:1040400050910501241B350BE0916E04F0916F0433
:10405000E217F307A0F42E1B3F0B2817390778F05F
:10406000AC014E5F5F4F2417350748F04E0F5F1FBE
:1040700050936F0440936E048193919302C0E0E0EB
:10408000F0E0CF01DF91CF910895CF93DF930097B8
:1040900009F487C0FC01329713821282C091700428
:1040A000D0917104209781F420813181280F391F2C
:1040B00080916E0490916F048217930779F5F093C5
:1040C0006F04E0936E046DC0DE0120E030E0AE17B7
:1040D000BF0750F412964D915C9113979D014115C5
:1040E000510509F1DA01F3CFB383A28340815181F5
:1040F000840F951F8A179B0771F48D919C911197DE
:10410000840F951F02969183808312968D919C91C6
:104110001397938382832115310529F4F093710459
:10412000E09370043EC0D9011396FC93EE9312976E
:104130004D915D91A40FB51FEA17FB0779F48081BB
:104140009181840F951F0296D90111969C938E93AD
:104150008281938113969C938E931297E0E0F0E016
:104160008A819B81009719F0FE01EC01F9CFCE0105
:10417000029628813981820F931F20916E0430911D
:104180006F042817390769F4309729F410927104E5
:104190001092700402C013821282D0936F04C093F5
:1041A0006E04DF91CF910895A0E0B0E0EAEDF0E277
:1041B0000C941E24EC01CB01209719F40E94AD1F32
:1041C000B8C0FE01E60FF71F9E0122503109E21729
:1041D000F30708F4ACC0D9010D911C911197061793
:1041E0001707B8F00530110508F49FC0A801445026
:1041F00051094617570708F498C002501109061BC9
:10420000170B019311936D937C93CF010E9445206E
:104210008CC05B01A01AB10A4E01800E911EA091C4
:104220007004B0917104612C712C60E070E0109703
:1042300009F449C0A815B905C9F5ED90FC9011978E
:10424000670142E0C40ED11CCA14DB0478F14701B7
:104250008A189B08640142E0C40ED11C1296BC90DF
:1042600012971396AC91B5E0CB16D10440F0B28210
:10427000A38391828082D9018D939C9309C00E5FA4
:104280001F4F0E0D1F1DF90111830083EB2DFA2F17
:104290006115710531F0DB011396FC93EE931297D3
:1042A00044C0F0937104E09370043FC06D917C9121
:1042B00011976616770608F43B01BD0112960D9022
:1042C000BC91A02DB4CF60916E0470916F046815FD
:1042D0007905E9F468167906D0F44091000150910F
:1042E00001014115510541F44DB75EB760910401DC
:1042F00070910501461B570BE417F507C0F4F093C6
:104300006F04E0936E04F901918380830EC00E94D4
:10431000AD1F7C01009759F0A801BE010E949E21AB
:10432000CE010E944520C70104C0CE0102C080E03A
:1043300090E0CDB7DEB7EEE00C943A24FB01DC014F
:1043400002C001900D9241505040D8F70895FB01F2
:10435000DC0101900D920020E1F70895F999FECF5C
:1043600092BD81BDF89A992780B50895262FF999B5
:10437000FECF1FBA92BD81BD20BD0FB6F894FA9A48
:10438000F99A0FBE019608956F927F929F92AF9215
:10439000BF92CF92DF92EF92FF920F931F93CF9332
:1043A000DF93CDB7DEB729970FB6F894DEBF0FBE07
:1043B000CDBF6A01B22E102F0C3320F4FF24F394EA
:1043C000F00E02C04CE3F42E0F2D27E0AE014F5F3C
:1043D0005F4F0E9442237981272F2970213031F0CD
:1043E000E1FC06C0E0FC06C060E005C06DE203C071
:1043F0006BE201C060E2AE2DA07173FF36C0662390
:1044000011F084E001C083E08B1510F4B81A01C0EC
:10441000B12CA1110BC0F6018B2D90E2882319F06D
:1044200091938150FBCFCB0CD11CB12C662331F082
:10443000F601608396012F5F3F4F6901C601039625
:10444000E2FE05C02EE4F601208331E404C02EE62E
:10445000F601208331E631832283FC012B2D30E2EB
:104460002223F1F131932150FBCF72FF40C066232C
:1044700011F084E001C083E08B1510F4B81A01C07C
:10448000B12CA1110BC0F6018B2D90E2882319F0FD
:1044900091938150FBCFCB0CD11CB12C662331F012
:1044A000F601608396012F5F3F4F6901C6010396B5
:1044B000E2FE07C029E4F60120832EE4218326E4EE
:1044C00006C029E6F60120832EE6218326E6228314
:1044D000FC012B2D30E2222319F031932150FBCF28
:1044E000FC01EB0DF11D10828EEF9FEFB7C0B1E024
:1044F000611101C0B0E04B2F50E01816190624F4EA
:104500009C012F5F3F4F02C021E030E0240F351F98
:10451000112329F0412F50E04F5F5F4F02C040E070
:1045200050E0420F531F2B2D30E04217530714F475
:10453000B41A01C0B12C2E2D287159F4F6012B2D7F
:1045400030E2222319F031932150FBCFCB0CD11C48
:10455000B12CBB2331F0F601608396012F5F3F4FF2
:104560006901A1110BC0F6012B2D30E3222319F0B4
:1045700031932150FBCFCB0CD11CB12CF80E0A810A
:10458000372F3071A32E74FF03C0013309F4FA945E
:104590001F142CF42F2D293018F028E001C021E041
:1045A000682F392F97FF02C060E030E0462F532F6D
:1045B000612C712C3EE2932EBC01621B71099B01A0
:1045C000DC01A41BB50BE1E0F0E0EC0FFD1FAE0F2A
:1045D000BF1FE12EF12CF194E194F1084F3FFFEF62
:1045E0005F0731F4F6019082B6016F5F7F4F6B0178
:1045F000841795074CF02417350734F4BD01660D78
:10460000771DFB01118101C010E341505109FFEFFB
:104610006F1A7F0AB6016F5F7F4F4E155F0524F05A
:10462000F60110836B01DACF4817590739F40633C6
:1046300020F4053319F4A11001C011E3F601108331
:10464000FB018B2D90E2882319F091938150FBCFD1
:10465000FB01EB0DF11D108280E090E029960FB672
:10466000F894DEBF0FBECDBFDF91CF911F910F91A8
:10467000FF90EF90DF90CF90BF90AF909F907F9092
:104680006F900895283008F027E03327DA01990F5A
:10469000311D87FD916000966105710539F4326026
:1046A0002E5F3D9330E32A95E1F708959F3F30F068
:1046B00080387105610509F03C5F3C5F3D939130A6
:1046C00008F08068911DDF93CF931F930F93FF92A3
:1046D000EF92192F987F9695E92F96959695E90F69
:1046E000FF27E95CFD4F99273327EE24FF24A7011C
:1046F000E70105900894079428F4360FE71EF81E8A
:10470000491F511D660F771F881F991F0694A1F737
:104710000590079428F4E70EF81E491F561FC11D87
:10472000770F881F991F661F0694A1F705900794BD
:1047300028F4F80E491F561FC71FD11D880F991F57
:10474000661F771F0694A1F70590079420F4490F80
:10475000561FC71FD81F990F661F771F881F069403
:10476000A9F784911095177041F0D695C795579584
:104770004795F794E7941A95C1F7EDEDF1E0689449
:104780001590159135916591959105907FE27395FE
:10479000E118F10A430B560BC90BD009C0F7E10C25
:1047A000F11E431F561FC91FD01D7EF4703311F434
:1047B0008A95E6CFE894015030F0080F0AF40027FC
:1047C000021708F4202F2395022F7A3328F079E37B
:1047D0007D932A95E9F710C07D932A9589F6069472
:1047E00097956795379517951794E118F10A430B3C
:1047F000560BC90BD00998F023957E9173957A33A7
:1048000008F070E37C932013B8F77E9170617D937C
:1048100030F0839571E37D9370E32A95E1F71124DD
:10482000EF90FF900F911F91CF91DF91992787FD16
:10483000909508952F923F924F925F926F927F9240
:104840008F929F92AF92BF92CF92DF92EF92FF92A0
:104850000F931F93CF93DF93CDB7DEB7CA1BDB0B4C
:104860000FB6F894DEBF0FBECDBF09942A883988F1
:1048700048885F846E847D848C849B84AA84B984F8
:10488000C884DF80EE80FD800C811B81AA81B98104
:10489000CE0FD11D0FB6F894DEBF0FBECDBFED0118
:0648A0000895F894FFCF1B
:1048A60000007204800003011E1714141C0000028D
:1048B600060E0602000000080C0E0C08000004009C
:1048C6000400040004000A040A040A040A00320070
:1048D6000000900100000100F510F510F510F5102C
:1048E600F5100100C18081000000FFFFFFFF00E11D
:1048F6000000000000002020202020202020200092
:104906002500206D5600204F322043616C6962728B
:104916006174696F6E0043616C6962726174696F7C
:104926006E20464F323A0025204F787967656E0033
:10493600436C69636B20746F00636F6E6669726D9A
:10494600005361766564004261642043616C69626C
:10495600726174696F6E004461746100204845207D
:1049660043616C6962726174696F6E006D5620698D
:104976006E204169723A00436C69636B20746F2044
:10498600436F6E6669726D006D7620696E204845CC
:104996003A00456E746572696E670043616C6962C0
:1049A600726174696F6E204D6F64650043616C6956
:1049B60062726174653F004F787967656E20536552
:1049C6006E736F720048656C69756D2053656E7302
:1049D6006F7200426F74682053656E736F72732036
:1049E600005472696D697820416E616C797A6572DE
:1049F600007600762000302E3100506C65617365BC
:104A060000526563616C696272617465004F70740F
:104A1600696F6E73004D656E750043616C696272F5
:104A2600617465004578697400300000000000F983
:104A36000A351400000000040CD70BAC0BB40BC7EE
:104A46000BD60B0D0A006E616E00696E66006F76FE
:104A560066002E00000000009C1BE31BC61BD61B35
:044A6600B21BC31BA1
:1070000055C000006EC000006CC000006AC00000E7
:1070100068C0000066C0000064C0000062C00000DC
:1070200060C000005EC00000DAC400005AC000006A
:1070300058C0000056C0000054C0000052C00000FC
:1070400050C0000076C000004CC000004AC00000E4
:1070500048C0000046C0000044C0000042C000001C
:1070600040C000003EC000003CC000003AC000002C
:1070700038C0000036C0000034C0000032C000003C
:1070800030C000002EC000002CC000002AC000004C
:1070900028C0000026C0000024C0000022C000005C
:1070A00020C000001EC000001CC0000011241FBE34
:1070B000CFEFDAE0DEBFCDBF11E0A0E0B1E0EEEF50
:1070C000FEE702C005900D92AA3CB107D9F711E086
:1070D000AAECB1E001C01D92A03EB107E1F781D357
:1070E0000CC78ECFF89410926F001092810010920E
:1070F00085001092840081E085BF15BE47980C94EE
:10710000000008952091D4013091D5012F5F3F4FA9
:107110003093D5012093D401932F37FF03C08EEF16
:10712000831B982F990F921710F447980895479A48
:1071300008951F920F920FB60F9211242F938F93E1
:107140009F93EF93FF93109285001092840080919B
:10715000CA019091CB01009729F001979093CB0140
:107160008093CA018091CC019091CD01009729F0C4
:1071700001979093CD018093CC01E0E0F0E0859100
:1071800094918F5F9F4F49F08091CE019091CF01F4
:1071900001969093CF018093CE01FF91EF919F9143
:1071A0008F912F910F900FBE0F901F90189584E034
:1071B0008093E9000DC08091E8008B778093E80010
:1071C00003C08EB3882351F08091E80082FFF9CF8D
:1071D0008091E80085FFEFCF8091F1000895982F0E
:1071E00083E08093E9008091E80085FD0DC08091E7
:1071F000E8008E778093E80003C08EB3882361F0A7
:107200008091E80080FFF9CF9093F10084E690E050
:107210009093CB018093CA0108954F925F926F9231
:107220007F928F929F92AF92BF92CF92DF92EF9216
:10723000FF920F931F93CF93DF9384E08093E90035
:107240008091E80082FF56C284E690E09093CD01E1
:107250008093CC01ACDF182F853481F48CE195E26A
:107260009093CF018093CE0107B600FCFDCFF99932
:10727000FECF81E180935700E89503C0843519F46F
:1072800096DF8DE00DC28C34E1F38035D1F3843785
:1072900021F484E4A4DF80E003C2813611F489E59F
:1072A000FFC18134B1F483DF182F81DF90E0880FB4
:1072B000991FAA2797FDA095BA2F312F330F20E0F1
:1072C000442737FD4095542F822B932BA42BB52BAD
:1072D000B8C1803711F483E5E3C1833549F4C0E0D8
:1072E000D1E089917CDF21E0C730D207D1F7D9C145
:1072F000863521F481E373DF80E3D2C1833731F433
:1073000087E86DDF85E96BDF8EE1CAC18536B9F4A8
:10731000E0E0F0E093E085E090935700E89507B651
:1073200000FCFDCF80935700E89507B600FCFDCF29
:10733000E058FF4FA0E7E030FA0771F7A2CF82379D
:1073400039F4E1E0F0E089E0809357008491A8C12E
:10735000863439F4E0E0F0E089E0809357008491CE
:107360009FC18E3439F4E3E0F0E089E08093570068
:10737000849196C1813539F4E2E0F0E089E08093B0
:10738000570084918DC1823631F489E528DF80E091
:1073900026DF80E885C1823419F0873609F0E5C020
:1073A0001092CF011092CE0102DF082F00DFF82EDD
:1073B000FEDE682E8554823008F071C1902F80E087
:1073C000CF2DD0E0C82BD92B10926F00173609F0C3
:1073D0004BC081E180935700E895DD24CC24C39411
:1073E0003FC0E090D001F090D1010091D201109106
:1073F000D301B6E46B16D9F4ED2DF0E0EE29FF29A8
:10740000E4918E2FECDEDD2081F082E090E0A0E0C0
:10741000B0E0E80EF91E0A1F1B1FE092D001F092A7
:10742000D1010093D2011093D301DC2418C0D801FC
:10743000C701B695A7959795879549D5D0DE82E087
:1074400090E0A0E0B0E0E80EF91E0A1F1B1FE092DA
:10745000D001F092D1010093D2011093D301219772
:10746000209709F0BECF7DC08090D0019090D101CF
:10747000A090D201B090D30196E4691609F05DC0E6
:1074800083E0F40180935700E89507B600FCFDCF38
:1074900054C0F6E46F1661F5772031F1E090D00129
:1074A000F090D1010091D2011091D30180DED82E4D
:1074B000CC24852D90E08C299D29F7010C01409268
:1074C0005700E895112482E090E0A0E0B0E0E80EDB
:1074D000F91E0A1F1B1FE092D001F092D101009308
:1074E000D2011093D30102C062DE582E742423C04F
:1074F000E090D001F090D1010091D2011091D30120
:1075000016950795F794E79452DE682FC701E7D4E4
:107510008091D0019091D101A091D201B091D3017D
:107520000296A11DB11D8093D0019093D101A0932B
:10753000D201B093D301219704C055247724442469
:107540004394209709F0A5CF96E4691641F485E0AD
:10755000F40180935700E89507B600FCFDCF8DE05D
:107560003EDE82E080936F009CC0833471F4009112
:10757000D0011091D1011BDE90E021E0F8010C0157
:1075800020935700E89511247CCE833619F5E090BE
:10759000D001F090D1010091D2011091D30107DE0A
:1075A000F701E16090E021E00C0120935700E8959D
:1075B000112482E090E0A0E0B0E0E80EF91E0A1F7E
:1075C0001B1FE092D001F092D1010093D2011093E1
:1075D000D30157CE8D3661F4E091D001F091D10105
:1075E00085E080935700E89507B600FCFDCF49CEB3
:1075F000823551F4E091D001F091D10105911491BF
:10760000812FEDDD802F4CC0843421F5E090D00136
:10761000F090D1010091D2011091D30116950795F8
:10762000F794E794C4DD682FC70159D48091D00145
:107630009091D101A091D201B091D3010296A11DE8
:10764000B11D8093D0019093D101A093D201B0934A
:10765000D30117CE843609F5E090D001F090D10126
:107660000091D2011091D301D801C701B695A79519
:10767000979587952CD4B3DD82E090E0A0E0B0E050
:10768000E80EF91E0A1F1B1FE092D001F092D101F3
:107690000093D2011093D30104C08B3111F08FE31A
:1076A0009EDD83E08093E9009091E8008091E800FE
:1076B0008E778093E80095FF04C010C08EB38823B6
:1076C000C9F08091E80080FFF9CF8091E8008E77C3
:1076D0008093E80003C08EB3882361F08091E800B6
:1076E00080FFF9CF84E08093E9008091E8008B77F8
:1076F0008093E800DF91CF911F910F91FF90EF9061
:10770000DF90CF90BF90AF909F908F907F906F90C1
:107710005F904F9008959091D801892F8F77813293
:1077200049F58091D9018032A1F0813219F5913A61
:1077300009F58091E800877F8093E8008DE091E073
:1077400067E070E0FBD18091E8008B778093E800E0
:107750000895913279F48091E800877F8093E80062
:107760008DE091E067E070E04DD28091E8008E7787
:107770008093E800089582E061EC42E0A7D083E0C6
:1077800061E842E1A3D084E060E842E19FC084B7B1
:10779000877F84BF88E10FB6F894809360001092D1
:1077A00060000FBE20E880E090E00FB6F8942093D0
:1077B0006100809361000FBE81E085BF92E095BFBC
:1077C0003F9AE1E6F0E0208310824798109289000A
:1077D0008DE78093880090936F0083E08093810011
:1077E000E6C04091000850910108109201081092E3
:1077F000000824B714BE88E10FB6F89480936000A7
:10780000109260000FBEE0E0F0E0859194918F5FF0
:107810009F4F71F020FD0BC021FD0AC0283041F4BC
:107820008091090190910A014817590709F05ADC23
:10783000AEDF78941092CF011092CE010CC0EDDC37
:1078400034D38091CE019091CF018151974210F0B5
:107850001092140157DC80911401882381F78091E4
:10786000E00081608093E0003DDC80E090E00895DE
:10787000FA01923049F0933061F09130F9F485E1EA
:1078800091E022E130E01EC087E291E02EE330E09B
:1078900019C0882329F485E691E024E030E012C085
:1078A000813029F489E691E022E230E00BC0823099
:1078B00029F487E991E028E130E004C080E090E01D
:1078C00020E030E091838083C90108958093E9002E
:1078D0008091EB0081608093EB001092ED0060934B
:1078E000EC004093ED008091EE00881F8827881FF0
:1078F00008958091D80188238CF403C08EB3882327
:10790000B1F08091E80082FFF9CF8091E8008B7799
:107910008093E80008958EB3882349F08091E800B1
:1079200080FFF9CF8091E8008E778093E80008957A
:10793000EF92FF920F931F9345D04CD008ED10E0CB
:10794000F80180818F778083808180688083808147
:107950008F7D808319BC1EBA1092D60180EEE82E6E
:10796000F12CF70180818B7F8083F8018081816019
:10797000808380E060E042E0A9DFE1EEF0E080811A
:107980008E7F8083E2EEF0E0808181608083808161
:1079900088608083F70180818E7F8083F8018081F9
:1079A000806180831F910F91FF90EF900895E7ED24
:1079B000F0E08081816080838AE482BF81E08093EF
:1079C000D701B6CFE8EDF0E080818E7F8083109202
:1079D000E20008951092DA001092E10008951F92DB
:1079E0000F920FB60F9211242F933F934F935F93F3
:1079F0006F937F938F939F93AF93BF93EF93FF9377
:107A00008091DA0080FF1AC08091D80080FF16C0F4
:107A10008091DA008E7F8093DA008091D90080FF18
:107A20000AC019BC82E089BD09B400FEFDCF81E027
:107A30008EBB3AD203C019BC1EBA36D28091E10087
:107A400080FF17C08091E20080FF13C08091E200A8
:107A50008E7F8093E2008091E20080618093E2005B
:107A60008091D80080628093D80019BC85E08EBBDD
:107A70001BD28091E10084FF2BC08091E20084FF43
:107A800027C019BC82E089BD09B400FEFDCF8091FA
:107A9000D8008F7D8093D8008091E1008F7E809305
:107AA000E1008091E2008F7E8093E2008091E2000D
:107AB00081608093E2008091D601882331F4809127
:107AC000E30087FD02C081E001C084E08EBBECD101
:107AD0008091E10083FF21C08091E20083FF1DC0FF
:107AE0008091E100877F8093E10082E08EBB10925D
:107AF000D6018091E1008E7F8093E1008091E200C9
:107B00008E7F8093E2008091E20080618093E200AA
:107B100080E060E042E0DADEC7D1FF91EF91BF91F3
:107B2000AF919F918F917F916F915F914F913F9115
:107B30002F910F900FBE0F901F9018959C014091B0
:107B4000DE015091DF014617570718F4F90190E064
:107B500044C06115710511F0AB01F8CF8091E800C8
:107B60008E778093E80040E050E0F0CF8EB388231A
:107B700009F444C0853009F443C08091E80083FFD4
:107B800002C081E008958091E80082FD31C08091BB
:107B9000E80080FF22C08091F3009091F200782FDE
:107BA00060E0292F30E0262B372B07C0819180938E
:107BB000F100415050402F5F3F4F4115510519F0E2
:107BC0002830310598F390E02830310509F491E030
:107BD0008091E8008E778093E8004115510531F6D9
:107BE000992321F605C08EB3882341F0853041F0FA
:107BF0008091E80082FFF7CF80E0089582E0089549
:107C000083E008959C016115710529F48091E800D5
:107C10008B778093E800F90126C08EB3882391F119
:107C2000853091F18091E80083FF02C081E00895E2
:107C30008091E80082FFF1CF06C08091F10081932E
:107C40006150704059F02091F3008091F200322F82
:107C500020E090E0822B932B892B79F78091E8002C
:107C60008B778093E80061157105B9F605C08EB376
:107C7000882341F0853041F08091E80080FFF7CF04
:107C800080E0089582E0089583E008950F931F93A4
:107C9000DF93CF9300D0CDB7DEB7E8EDF1E0809170
:107CA000F100819381E0E03EF807C9F734DD80916F
:107CB000E80083FFE4C08091D8019091D90195300C
:107CC00009F46DC0963040F4913081F1913070F03C
:107CD000933009F0D4C02AC0983009F4A3C0993079
:107CE00009F4B2C0963009F0CAC07CC0803809F4EB
:107CF000C6C0823809F0C3C08091DC0187708093D0
:107D0000E9008091EB001092E9002091E800277FC4
:107D10002093E80090E025E0969587952A95E1F775
:107D200081708093F1001092F10087C0882319F0D0
:107D3000823009F0A4C08F71823009F0A0C0809118
:107D4000DA01882331F52091DC01277009F497C00E
:107D50002093E9008091EB0080FF1BC0933021F459
:107D60008091EB00806213C08091EB008061809372
:107D7000EB0081E090E002C0880F991F2A95E2F79E
:107D80008093EA001092EA008091EB008860809373
:107D9000EB001092E9008091E800877F51C08823B2
:107DA00009F06DC01091DA011F770FB7F894809138
:107DB000E800877F8093E8009CDD8091E80080FFE9
:107DC000FCCF8091E3008078812B8093E300806872
:107DD0008093E300112311F482E001C083E08EBBA5
:107DE0000FBF4DC08058823008F049C08091DA0141
:107DF0009091DB016091DC01AE014F5F5F4F38DD98
:107E0000BC01009709F43BC08091E800877F809314
:107E1000E80089819A8192DE8091E8008B778093D7
:107E2000E8002DC0803859F58091E800877F809365
:107E3000E8008091D6018093F1008091E8008E7770
:107E40008093E80056DD1BC08823C9F49091DA01C5
:107E50009230A8F48091E800877F8093E8009093A7
:107E6000D60147DD8091D601882331F48091E3006B
:107E700087FD02C081E001C084E08EBB7CDC809184
:107E8000E80083FF0AC08091EB0080628093EB00E2
:107E90008091E800877F8093E8000F900F90CF914A
:107EA000DF911F910F91089508951F938EB388233A
:107EB00061F01091E9001092E9008091E80083FFE1
:107EC00001C0E4DE17701093E9001F910895F9993D
:107ED000FECF92BD81BDF89A992780B50895262FCF
:107EE000F999FECF1FBA92BD81BD20BD0FB6F8949F
:0E7EF000FA9AF99A0FBE01960895F894FFCF02
:107EFE004341544552494E41007777000800000037
:107F0E00000000080112011001020000089A230C63
:107F1E000001000201000109023E00020100803250
:107F2E0009040000010202010005240010010424CE
:107F3E0002040524060001070582030800FF090458
:107F4E000100020A000000070504021000010705E7
:107F5E00830210000104030904220341006400613E
:107F6E00006600720075006900740020004600650E
:107F7E00006100740068006500720020003300325A
:107F8E0000750034000000180341006400610066B3
:107F9E00007200750069007400200049006E0064D4
:107FAE000075007300740072006900650073002094
:0A7FBE00004C004C004300000000DE
:040000030000700089
:00000001FF