:100000000C946F010C941C100C9443100C946A1007
:100010000C9491100C9497010C9497010C94B810C7
:100020000C9497010C9497010C9489180C94101758
:100030000C9497010C9497010C9497010C949701E0
:100040000C9497010C9497010C9497010C949701D0
:100050000C9497010C9497010C9497010C94DF1069
:100060000C9497010C9497010C9497010C949701B0
:100070000C9497010C9497010C9497010C949701A0
:100080000C9497010C9497010C9497010C94970190
:100090000C94720C0C9497010C9497010C9497019A
:1000A0000C9497010C9497010C9497013A123D120D
:1000B0002C12301236125E125E125E12411245127E
:1000C00049124F1253125E1259120706050401001D
:1000D000080A0B0C0D090000000200090F000003C4
:1000E0000401000C000000000000000000000000FF
:1000F0000000000000040802011040804010204071
:10010000804080080204018040201002011080100D
:1001100020404020040404040403040502020202F7
:100120000403020202020606060606060404020290
:10013000020404000000002300260029002C002FE8
:100140000000000000250028002B002E00310000D8
:10015000000000240027002A002D003000120100BA
:1001600002EF0201409A230C8000010102030112F8
:10017000010002000000409A230C800001010203EC
:1001800001416461667275697400466561746865F1
:100190007220333275340004030904080B00020294
:1001A0000201000904000001020200000524001001
:1001B00001052401010104240206052406000107AB
:1001C00005810310004009040100020A0000000735
:1001D0000502024000000705830240000000407A4B
:1001E00010F35A00A0724E18090010A5D4E80000C0
:1001F000E87648170000E40B54020000CA9A3B005E
:100200000000E1F505000080969800000040420FD4
:10021000000000A08601000000102700000000E898
:1002200003000000006400000000000A000000005D
:10023000000100000000002C76D888DC674F0823FE
:10024000DFC1DFAE59E1B1B796E5E3E453C63AE664
:1002500051997696E8E6C28426EB898C9B62ED4044
:100260007C6FFCEFBC9C9F40F2BAA56FA5F4900593
:100270005A2AF75C936B6CF9676DC11BFCE0E40DC7
:1002800047FEF520E6B500D0ED902E0300943577BB
:10029000050080841E080000204E0A000000C80CE3
:1002A000333333330F986E12831141EF8D2114894C
:1002B0003BE65516CFFEE6DB18D1844B381BF77CA6
:1002C0001D901DA4BBE424203284725E228100C9EB
:1002D000F124ECA1E53D2700BF03900B631B112423
:1002E0001FBECFEFDAE0DEBFCDBF12E0A0E0B1E08D
:1002F000E2E5F6E402C005900D92AE37B107D9F7FA
:1003000024E0AEE7B2E001C01D92AC32B207E1F7E3
:1003100012E0CEEDD2E004C02297FE010E945E1EE4
:10032000C83DD107C9F70E94F8120C9427230C94FA
:10033000000080E00E94CE1221E0892B09F420E029
:100340002093CD0281E00E94CE1221E0892B09F496
:1003500020E02093CC028091CB02882321F0809171
:10036000CA02811109C08091CB02811112C0809113
:10037000CA02811163C00DC08091CD02811104C0F9
:100380008091CC02811150C08091CD02882319F157
:100390001DC08091CB02811105C08091CA028823C3
:1003A00009F459C08091CB028823A9F08091CA0238
:1003B000811111C08091CD02882321F08091CC025F
:1003C00081116EC08091CD02811105C08091CC0257
:1003D000882309F46FC08091C6029091C7020497E8
:1003E00034F08091C8029091C90201960CC08091AE
:1003F000C6029091C7028D3F9F4F6CF48091C80256
:100400009091C90201979093C9028093C8021092FB
:10041000C7021092C6028091CD028093CB028091D8
:10042000CC028093CA0208958091C6029091C702BF
:1004300001969093C7028093C602A6CF8091CD0209
:10044000811104C08091CC028823B1F08091CD024B
:10045000882309F20CC08091CD02882321F080917D
:10046000CC02882399F08091CD028111B4CF809184
:10047000CC0281111FC0AFCF8091C6029091C702FC
:1004800001969093C7028093C602E0CF8091C60286
:100490009091C70201969093C7028093C602E3CF62
:1004A0008091C6029091C70201969093C7028093F3
:1004B000C60288CF8091C6029091C702019790939F
:1004C000C7028093C60287CF80E00E94CE1221E04F
:1004D000892B09F420E02093CD0281E00E94CE1206
:1004E00021E0892B09F420E02093CC028091CB02FB
:1004F000882321F08091CA02811109C08091CB022A
:10050000811112C08091CA02811163C00DC0809117
:10051000CD02811104C08091CC02811150C0809124
:10052000CD02882319F11DC08091CB02811105C035
:100530008091CA02882309F459C08091CB02882394
:10054000A9F08091CA02811111C08091CD02882347
:1005500021F08091CC0281116EC08091CD02811179
:1005600005C08091CC02882309F46FC08091C60237
:100570009091C702049734F08091C8029091C9020B
:1005800001960CC08091C6029091C7028D3F9F4F8B
:100590006CF48091C8029091C90201979093C902AE
:1005A0008093C8021092C7021092C6028091CD02B9
:1005B0008093CB028091CC028093CA0208958091EF
:1005C000C6029091C70201969093C7028093C6021B
:1005D000A6CF8091CD02811104C08091CC028823E6
:1005E000B1F08091CD02882309F20CC08091CD0238
:1005F000882321F08091CC02882399F08091CD024C
:100600008111B4CF8091CC0281111FC0AFCF8091F6
:10061000C6029091C70201969093C7028093C602CA
:10062000E0CF8091C6029091C70201969093C702D5
:100630008093C602E3CF8091C6029091C7020196D3
:100640009093C7028093C60288CF8091C602909192
:10065000C70201979093C7028093C60287CF0F937A
:100660001F930E94CE129093DE028093DD022091B0
:1006700036013091370182179307A1F0892B91F44D
:100680000E9429116093D1027093D2028093D30209
:100690009093D4028091DD029091DE029093370115
:1006A000809336010E9429110091D1021091D2024B
:1006B0002091D3023091D402601B710B820B930BFB
:1006C00000912E0110912F012091300130913101C4
:1006D000061717072807390758F48091DD02909113
:1006E000DE0220913601309137018217930711F411
:1006F00080E00FC090933701809336010E9429114A
:100700006093D1027093D2028093D3029093D4026B
:1007100081E01F910F9108958BE10E94F111BC01BE
:10072000882777FD8095982F0E941F1D9B01AC01A3
:100730000E941C1C23E333E343E550E40E94D31DD5
:1007400020E030E040E85AE30E94D31D089540E0E5
:1007500067E08FED92E00E94FA0866E571E08FEDA8
:1007600092E00E94571341E067E08FED92E00E9413
:10077000FA0866E571E08FED92E00C945713CF9282
:10078000EF920F9385E0C82E96E0E92E0AE02BE069
:100790004CE06DE08FED92E00E94B2090E942911B9
:1007A0006093D9027093DA028093DB029093DC02AB
:1007B0000E9429116093D5027093D6028093D702CC
:1007C0009093D80240E050E060E070E082EA92E06E
:1007D0000E94030E41E050E061E070E08EE792E09D
:1007E0000F91EF90CF900C94030EFF920F931F93F5
:1007F000CF93DF93CDB7DEB72C970FB6F894DEBF5B
:100800000FBECDBFF42E122F21E0AB01BC01CE01F3
:1008100007960E94FC19402F612F8FED92E00E94F5
:10082000FA08FF2029F062E08FED92E00E940C0AA6
:100830008B859C850597B0F023E030E040E050E0E8
:10084000BE01695F7F4FCE0101960E942C1ABE0146
:100850006F5F7F4FCE0107960E94D819CE01019697
:100860000E941E198B859C85049731F06EE571E01E
:100870008FED92E00E945713BE01695F7F4F8FEDAD
:1008800092E00E944913FF2061F065E0610F402F64
:100890008FED92E00E94FA0863E08FED92E00E94F3
:1008A0000C0ACE0107960E941E192C960FB6F894DA
:1008B000DEBF0FBECDBFDF91CF911F910F91FF9093
:1008C00008950F931F930E9429110091D90210914E
:1008D000DA022091DB023091DC02601B710B820B8B
:1008E000930B00913201109133012091340130912A
:1008F0003501061717072807390708F06FC082EA85
:1009000092E00E94390F2DEC3CEC4CEC5DE30E9430
:10091000CF1D181674F482EA92E00E94390F00E0AD
:1009200010E020E030E040E00E94F50360E671E076
:1009300008C040E060E08FED92E00E94FA086AE5AE
:1009400071E08FED92E00E9457138EE792E00E94D3
:10095000390F2DEC3CEC4CEC5DE30E94CF1D1816DA
:1009600074F48EE792E00E94390F01E010E020E07D
:1009700030E040E00E94F50360E671E008C041E02D
:1009800060E08FED92E00E94FA086AE571E08FED79
:1009900092E00E94571340E066E08FED92E00E94E3
:1009A000FA0860E08FED92E00E940C0A41E066E0F8
:1009B0008FED92E00E94FA0860E08FED92E00E94D5
:1009C0000C0A0E9429116093D9027093DA02809375
:1009D000DB029093DC0281E08093CE021F910F91A5
:1009E00008950F931F938091CE02882309F45BC072
:1009F0008091CF029091D002892B09F052C082EAF7
:100A000092E00E94270F40E067E0811107C08FED60
:100A100092E00E94FA0866E571E016C08FED92E060
:100A20000E94FA0862E08FED92E00E940C0A82EACE
:100A300092E00E94E10E00E010E028E030E040E0AB
:100A40000E94F50362E671E08FED92E00E94571379
:100A50008EE792E00E94270F41E067E0811107C016
:100A60008FED92E00E94FA0866E571E016C08FED06
:100A700092E00E94FA0862E08FED92E00E940C0A78
:100A80008EE792E00E94E10E01E010E028E030E005
:100A900040E00E94F50362E671E08FED92E00E9473
:100AA00057131092CE021F910F910895CF93DF93A9
:100AB0008FED92E00E94F30840E064E08FED92E059
:100AC0000E94FA0866E671E08FED92E00E945713EB
:100AD00041E060E08FED92E00E94FA086FE671E07D
:100AE0008FED92E00E94571366ED76E080E090E093
:100AF0000E9458118FED92E00E94F30885E10E9458
:100B0000CE12892BD9F36AEF70E080E090E00E946A
:100B1000581160E871E08FED92E00E945713C2E037
:100B2000D0E085E190E00E942F03811139C08091CF
:100B3000C8029091C90203972CF01092C90210923A
:100B4000C8020AC08091C8029091C90297FF04C0F0
:100B5000D093C902C093C80241E060E08FED92E0FB
:100B60000E94FA0862E08FED92E00E940C0A8091E8
:100B7000C8029091C9028130910541F082309105FF
:100B800041F0892B71F66BE871E005C069E971E00D
:100B900002C067EA71E08FED92E00E945713C1CF67
:100BA0008091C8029091C902009711F0029721F438
:100BB000DF91CF910C94DF05DF91CF910895CF9213
:100BC000DF92EF92FF920F931F93CF93DF938FEDFE
:100BD00092E00E94F30865EB71E08FED92E00E94D5
:100BE000571381ED90E09093C9028093C802C8EE3C
:100BF000D3E085E190E00E942F03811136C08091FF
:100C0000C8029091C902893E93402CF0D093C9024A
:100C1000C093C8020AC08091C8029091C90297FF90
:100C200004C01092C9021092C8026091C80270916B
:100C3000C902882777FD8095982F0E941F1D20E00C
:100C400030E040E251E40E94841C6B017C0101E031
:100C500010E020E030E041E00E94F50366EC71E036
:100C60008FED92E00E945713C4CF8FED92E00E9467
:100C7000F30840E067E08FED92E00E94FA0860E040
:100C80008FED92E00E940C0A6FEC71E08FED92E024
:100C90000E94571341E067E08FED92E00E94FA084E
:100CA00060E08FED92E00E940C0A68ED71E08FED3C
:100CB00092E00E94571382EA92E00E94E10E20E047
:100CC00030E0A9010E94801C18166CF040E060E042
:100CD0008FED92E00E94FA086BE571E08FED92E0F3
:100CE0000E9457130BC082EA92E00E94E10E00E0DE
:100CF00010E020E030E040E00E94F50363E671E0A0
:100D00008FED92E00E94571385E190E00E942F033F
:100D1000882389F282EA92E00E94170F882309F45F
:100D200040C0B701A60182EA92E00E94970F882393
:100D3000C1F182EA92E00E94E10E9B01AC01C70181
:100D4000B6010E94841CAB01BC0182EA92E00E94C1
:100D5000720F8FED92E00E94F3086AEE71E08FED62
:100D600092E00E94571341E060E08FED92E00E9414
:100D7000FA0860EE71E08FED92E00E9457136CED7F
:100D800075E080E090E00E9458118FED92E0DF91D5
:100D9000CF911F910F91FF90EF90DF90CF900C9427
:100DA000F3088FED92E00E94F30866EE71E08FED9C
:100DB00092E00E94571341E060E08FED92E00E94C4
:100DC000FA0866EF71E08FED92E00E94571368EB2E
:100DD0007BE080E090E00E9458110E945605B9CF58
:100DE00062E085E10E945F1262E080E00E945F1293
:100DF00062E081E00E945F1241E050E069E971E049
:100E000082E00E94CC0F41E050E064E672E083E0B3
:100E10000E94CC0F20E042E060E18FED92E00E9462
:100E2000140946E251E060E08FED92E00E94D209A1
:100E30004EE151E061E08FED92E00E94D20946E17F
:100E400051E062E08FED92E00E94D2094EE051E065
:100E500063E08FED92E00E94D20946E051E064E049
:100E60008FED92E00E94D20940E060E08FED92E0C9
:100E70000E94FA086BEF71E08FED92E00E94571329
:100E800041E060E08FED92E00E94FA080E948C033E
:100E9000AB01BC0122E030E08FED92E00E94E4144F
:100EA0006BE072E08FED92E00E94571341E06BE03F
:100EB0008FED92E00E94FA086DE072E08FED92E013
:100EC0000E94571360E172E08FED92E00E94571389
:100ED00060ED77E080E090E00E9458118FED92E0A5
:100EE0000E94F30885E10E94CE12892B61F182EA0B
:100EF00092E00E94B10E882351F08EE792E00E94AA
:100F0000B10E882321F08FED92E00C94F3088FED61
:100F100092E00E94F30864E172E08FED92E00E949B
:100F2000571341E060E08FED92E00E94FA086BE118
:100F300072E08FED92E00E94571360ED77E080E061
:100F400090E00E9458110E945605DDCF0F931F9329
:100F5000CF93DF930E9429116093D5027093D6023C
:100F60008093D7029093D8021092C9021092C802BF
:100F7000C091C802D091C9020E94A70340E068E076
:100F80008FED92E00E94FA0867E272E08FED92E046
:100F90000E94571341E06AE08FED92E00E94FA0848
:100FA0006FE272E08FED92E00E9457130E942911C8
:100FB0000091D5021091D6022091D7023091D8022B
:100FC000601B710B820B930B683E7340810591058A
:100FD00038F48091C8029091C902892B09F45FC04E
:100FE0000E94A7031092C9021092C8020E946104D5
:100FF0008091C8029091C902029734F48091C8028E
:101000009091C90297FF04C01092C9021092C802C1
:101010008091C8029091C9028C179D0731F00E94FF
:10102000A703C091C802D091C9028091C8029091D3
:10103000C902009719F00197C9F0D8CF40E067E0E6
:101040008FED92E00E94FA0864E372E08FED92E087
:101050000E94571385E190E00E942F03882331F20C
:10106000DF91CF911F910F910C94560540E067E0FE
:101070008FED92E00E94FA086EE372E08FED92E04D
:101080000E94571385E190E00E942F03882309F402
:10109000ADCFDF91CF911F910F910C94A7030E94C8
:1010A000610484CF0E9461040E94F10485E190E014
:1010B0000E942F0381110C94A6070895CF93DF930C
:1010C000EC0160E08E810E94981281E090E00E9425
:1010D000921161E08E810E94981281E090E00E945E
:1010E000921160E08E810E94981284E690E0DF9178
:1010F000CF910C949211EF92FF920F931F93CF9385
:10110000DF938C01C0E0D0E0E62EF12CB7010C2E6D
:1011100002C0759567950A94E2F76170F801EC0FCB
:10112000FD1F87810E9498122196C430D10571F766
:10113000C801DF91CF911F910F91FF90EF900C9418
:101140005E08EF92FF920F931F93CF93DF938C0172
:10115000C0E0D0E0E62EF12CB7010C2E02C0759550
:1011600067950A94E2F76170F801EC0FFD1F878123
:101170000E9498122196C830D10571F7C801DF91FD
:10118000CF911F910F91FF90EF900C945E081F93E9
:10119000CF93DF93EC01162F642F8C810E9498125D
:1011A0008D818F3F19F060E00E9498128F85612F2A
:1011B00084FF06C0CE01DF91CF911F910C94A1084E
:1011C00070E084E0759567958A95E1F7CE010E94FD
:1011D0007B08612FCE01DF91CF911F910C947B088A
:1011E00040E00C94C70861E00E94F00880ED97E0B1
:1011F0000C949211443008F043E0FC01238942171B
:1012000010F04FEF420FFC01E40FF11D2489260F6F
:101210002068622F0C94F008FC016089262F24605E
:10122000208B6C600C94F0080F931F93CF93DF9387
:10123000EC01423018F08F8588608F874B8B1C8AB9
:1012400080E48D8B6E8B70E0605C7F4F6F8B222310
:1012500029F0413019F48F8584608F8761E08C819B
:101260000E945F128D818F3F19F061E00E945F1232
:1012700061E08E810E945F1200E010E08F8584FFA4
:1012800003C088E090E002C084E090E008171907EE
:1012900054F4FE01E00FF11F61E087810E945F12AC
:1012A0000F5F1F4FEBCF80E593EC0E94921160E03F
:1012B0008C810E94981260E08E810E9498128D812C
:1012C0008F3F19F060E00E9498126F8564FD1DC089
:1012D00063E0CE010E947B0884E991E10E949211B3
:1012E00063E0CE010E947B0884E991E10E949211A3
:1012F00063E0CE010E947B0886E990E00E94921193
:1013000062E0CE010E947B0816C06062CE010E949E
:10131000F00884E991E10E9492116F856062CE012C
:101320000E94F00886E990E00E9492116F85606249
:10133000CE010E94F0086F856062CE010E94F00825
:1013400084E0888BCE010E940C09CE010E94F30834
:1013500082E0898B66E0CE01DF91CF911F910F91E2
:101360000C94F008CF92EF920F93FC01138212823B
:1013700089E492E09183808364838FEF8583468341
:1013800027830087E186C286138614861586168613
:10139000178620E041E060E1CF010F91EF90CF9000
:1013A0000C941409CF92DF92EF92FF920F931F9348
:1013B000CF93DF9300D0CDB7DEB78C01677088E0A4
:1013C000689FB00111246064C80149835A830E9458
:1013D000F0084981C42E5A81D52EE12CF12CD6017A
:1013E0006D916D01D801ED91FC910190F081E02D9E
:1013F000C8010995BFEFEB1AFB0AE8E0EE16F1040D
:1014000071F70F900F90DF91CF911F910F91FF9087
:10141000EF90DF90CF90089541E00E94C70881E0EF
:1014200090E00895FC0114821382608388E0818338
:101430001282089587EF92E00C94560BFC0174839E
:10144000638308951F93CF93DF9300D0CDB7DEB7AA
:10145000162F682F87EF92E04A8359830E94700B02
:10146000612F87EF92E00E94170B5981652F87EF5C
:1014700092E00E94170B4A81642F87EF92E00E944E
:10148000170B87EF92E00F900F90DF91CF911F9194
:101490000C948D0B1F93CF93DF93182F682F87EF3A
:1014A00092E00E94700B60E087EF92E00E94170BC1
:1014B00087EF92E00E948D0B42E0612F87EF92E070
:1014C0000E946D0B87EF92E00E94C70A182F87EFEA
:1014D00092E00E94C70AD12F20E0C22F9E01282B44
:1014E000C901DF91CF911F910895CF93DF93EC0154
:1014F0004B815C814368516861E088810E94220AC7
:10150000698170E080E090E00E94581188810E941B
:101510004A0A2A81022E02C0969587950A94E2F71C
:10152000222329F0811528E0920708F0906FDF91BF
:10153000CF910895CF93DF93EC014B815C81436899
:10154000516B61E088810E94220A698170E080E02D
:1015500090E00E94581188810E944A0A2A81022E36
:1015600002C0969587950A94E2F7222329F0811507
:1015700028E0920708F0906FDF91CF910895809155
:10158000270390E020912803821B91090895209160
:10159000280380912703281750F4E22FF0E0E75D3D
:1015A000FC4F808190E02F5F2093280308958FEFF8
:1015B0009FEF0895E091280380912703E81730F406
:1015C000F0E0E75DFC4F808190E008958FEF9FEFA2
:1015D00008950895CF92DF92EF92FF920F931F9399
:1015E000CF93DF937C01CB018A0120910303222357
:1015F00089F0EB016B01C40ED51ECC15DD0569F039
:101600006991D701ED91FC910190F081E02DC70126
:101610000995F3CF642F0E94490CC801DF91CF9147
:101620001F910F91FF90EF90DF90CF900895CF938F
:10163000DF931F92CDB7DEB7698320910303222386
:10164000D1F020910403203240F021E030E0FC0191
:101650003383228380E090E015C080910503E82F5A
:10166000F0E0EA5FFC4F998190838F5F80930503E0
:101670008093040305C061E0CE0101960E94490CED
:1016800081E090E00F90DF91CF910895FC011382EB
:10169000128248EE53E060E070E044835583668335
:1016A000778381E592E091838083089510922803E7
:1016B0001092270310920503109204030C94940BCC
:1016C000862F413208F040E269E273E00E94B20BDB
:1016D0001092280380932703089521E00C94600B57
:1016E00081E0809303036093260310920503109218
:1016F000040308950F93062F21E04091040366E050
:1017000073E0809126030E94F60B1092050310925D
:101710000403109203030F91089561E00C947A0B77
:1017200087EF92E00C94460B1092B60381E0809311
:10173000B4031092B30361E082E00E94981261E06A
:1017400083E00E949812E9EBF0E080818E7F808335
:1017500080818D7F808380E28093B80085E48093D0
:10176000BC000895413208F03FC09091B60391113A
:10177000FCCF91E09093B6032093B4032FEF209316
:10178000490310928E03240F20938D039093B50389
:101790009091B503880F892B8093B5038091B30393
:1017A000813041F41092B3038091B5038093BB0064
:1017B00085EC01C085EE8093BC008091B60381303A
:1017C000E1F380918E03841710F440918E032FE88B
:1017D00033E0FB01D9018A2F821B841718F48D9105
:1017E0008193F9CF842F089580E008950F934132BB
:1017F00008F046C09091B6039111FCCF92E090930F
:10180000B6030093B4039FEF9093490310928E03A5
:1018100040938D03FB016FE873E0DB019A2F961B69
:10182000941718F491919D93F9CF1092B50390916C
:10183000B503880F892B8093B5038091B303813062
:1018400041F41092B3038091B5038093BB0085EC03
:1018500001C085EE8093BC00222321F08091B60365
:101860008230E1F3809149038F3F61F08091490319
:10187000803251F080914903803341F483E007C006
:1018800081E005C080E003C082E001C084E00F91E8
:101890000895613298F42091B603243089F460935E
:1018A0006B03FC018DE693E0DC012A2F281B261731
:1018B00018F421912D93F9CF80E0089581E00895E7
:1018C00082E0089585ED8093BC008091BC0084FD8A
:1018D000FCCF1092B603089585EC8093BC00109263
:1018E000B60308951F920F920FB60F9211242F93F3
:1018F0003F934F935F936F937F938F939F93AF9398
:10190000BF93EF93FF938091B900887F803609F4ED
:101910009CC068F5883209F45BC090F4803109F40A
:1019200054C038F4882309F4F5C0883009F44DC058
:10193000F5C0883109F44CC0803209F45DC0EEC0B6
:10194000803409F468C048F4803309F455C0883302
:1019500009F0E4C080934903A8C0803509F44FC062
:10196000883509F45DC0883409F0D8C0D5C08839FD
:1019700009F4C6C0A8F4883709F467C038F488367B
:1019800009F463C0803709F460C0C8C0883809F41E
:10199000B7C0803909F45FC0803809F0BFC05BC0B0
:1019A000803B09F485C038F4803A09F466C0883A6F
:1019B00009F47EC0B3C0803C09F4A6C0883C09F499
:1019C000A3C0883B09F489C0A9C08091B50310C0A9
:1019D00090918E0380918D03981770F5E0918E039E
:1019E00081E08E0F80938E03F0E0E157FC4F808101
:1019F0008093BB0085EC85C0809349038DC0E09146
:101A00008E0381E08E0F80938E038091BB00F0E007
:101A1000E157FC4F808390918E0380918D036DC0C0
:101A2000E0918E0381E08E0F80938E038091BB0046
:101A3000F0E0E157FC4F80838091B40381116CC0CA
:101A400081E08093B30384EA60C083E08093B603AF
:101A500010924A03CFCF80914A03803208F050C0E1
:101A6000E0914A0381E08E0F80934A038091BB008E
:101A7000F0E0E55BFC4F8083BDCF80914A0380326C
:101A800030F4E0914A03F0E0E55BFC4F10820E94E5
:101A9000620C60914A0370E0E091AF03F091B003F3
:101AA0008BE493E0099510924A030E946C0C36C0B7
:101AB00084E08093B60310926C0310926B03E09164
:101AC000B103F091B203099580916B03811105C0B8
:101AD00081E080936B0310926D03E0916C0381E0D1
:101AE0008E0F80936C03F0E0E359FC4F808180936C
:101AF000BB0090916C0380916B03981708F47ACF28
:101B000085E88093BC000AC085EC8093BC001092ED
:101B1000B60304C0109249030E94620CFF91EF913A
:101B2000BF91AF919F918F917F916F915F914F91F5
:101B30003F912F910F900FBE0F901F901895AF926D
:101B4000BF92CF92DF92EF92FF920F931F93CF93AA
:101B5000DF931F92CDB7DEB75C01D62EC72E062FBE
:101B6000172F7C0184E0E80EF11CF80161918F01D0
:101B7000C50169830E9484206981681719F0C50135
:101B80000E948C20FFEFAF1ABF0AAE14BF0469F7A2
:101B90008D2D9C2D0F90DF91CF911F910F91FF9074
:101BA000EF90DF90CF90BF90AF900895CF92DF92EB
:101BB000EF92FF920F931F93CF93DF9300D0CDB797
:101BC000DEB76C018B017C0184E0E80EF11CC601DC
:101BD00069837A830E948420F80181938F01FFEF4B
:101BE000CF1ADF0A69817A81CE14DF0481F7CB0135
:101BF0000F900F90DF91CF911F910F91FF90EF9079
:101C0000DF90CF900895CF92DF92EF92FF920F93E3
:101C10001F93CF93DF93EC016B018A0181ED90E07C
:101C20009F878E878FE090E0998B888B1A8A1B8A1A
:101C30001C8A1D8A1E8A1F8A188E198E1A8E7E0192
:101C40008FE1E80EF11C68E4C7010E94120AD982F4
:101C5000C8821D830C83C7010E941A0A0115110551
:101C6000E1F001301105A9F54AE057ED63E27CE3AC
:101C70004E835F836887798740E050E060E87FE3C8
:101C80004A875B876C877D8780E096E09B838A83A9
:101C900040E050E060E874E418C042E558EB6EECB8
:101CA0007FE34E835F836887798740E050E068E296
:101CB00070E44A875B876C877D8780E09AE09B832E
:101CC0008A8340E050E060E873E44B8F5C8F6D8F57
:101CD0007E8FDF91CF911F910F91FF90EF90DF905A
:101CE000CF900895CF92DF92EF92FF92CF93DF9340
:101CF000EC01888199812A89211128C0BE016D5E7D
:101D00007F4F23E0880F991F2A95E1F70E94D60D97
:101D100081E08A8BCB88DC88ED88FE882E813F812C
:101D200048855985C701B6010E94801C87FD0AC0FD
:101D30002A853B854C855D85C701B6010E94CF1D74
:101D4000181624F41B8A1C8A1D8A1E8A6B897C89BA
:101D50008D899E89DF91CF91FF90EF90DF90CF909A
:101D60000895CF930E94720EC1E020E030E0A901F7
:101D70000E94CF1D18160CF0C0E08C2FCF91089553
:101D8000CF93DF93EC01888199812C813D812130B3
:101D9000310561F433E0880F991F3A95E1F7BE01F0
:101DA000695E7F4F04960E94D60D04C01F8A188E6C
:101DB000198E1A8E6F89788D898D9A8DDF91CF91CA
:101DC00008950F931F93CF93DF93EC018C01015E75
:101DD0001F4F6A817B81C8010E941E0A88819981F8
:101DE000009721F4C8010E94750A05C00197B9F453
:101DF000C8010E949A0ABC01882777FD8095982F18
:101E00000E941F1D2B8D3C8D4D8D5E8D0E94D31D1C
:101E100020E03EEF4FEF56E40E94841C03C060E0D8
:101E200070E0CB01DF91CF911F910F910895CF9377
:101E30000E94E10EC1E02AE037ED43E25CE30E943C
:101E4000CF1D18160CF0C0E08C2FCF910895CF93C2
:101E5000DF93EC010E94B10E882339F0CE010E947D
:101E6000170F882311F081E001C080E0DF91CF914E
:101E70000895CF92DF92EF92FF92CF93DF93EC0120
:101E80000E94270F882351F0CE010E94E10E20E02E
:101E900030E0A9010E94CF1D181624F060E070E028
:101EA000CB0119C0CE010E94E10E6B017C01CE0175
:101EB0000E94C00E9B01AC01C701B6010E941B1C11
:101EC0006B017C01CE010E94720E9B01AC01C70127
:101ED000B6010E94D31DDF91CF91FF90EF90DF906C
:101EE000CF9008950F931F93CF93DF9300D000D02E
:101EF000CDB7DEB78C0149835A836B837C83FC01A9
:101F000080819181BE016F5F7F4F43E0880F991FF1
:101F10004A95E1F70E949F0DF801128A0F900F90E9
:101F20000F900F90DF91CF911F910F910895CF9255
:101F3000DF92EF92FF92CF93DF93EC016A017B0176
:101F40000E94E10E9B01AC01C701B6010E94841CF6
:101F50002E813F81488559850E94CF1D18169CF41B
:101F6000CE010E94E10E9B01AC01C701B6010E94A7
:101F7000841C2A853B854C855D850E94801C87FFDB
:101F800002C081E001C080E0DF91CF91FF90EF902F
:101F9000DF90CF9008950895853008F04CC0E82F69
:101FA000F0E0EE0FFF1FE85CFE4F7183608382302C
:101FB000E1F018F4813069F004C0833019F1843005
:101FC00071F1809169008C7F842B80936900E89A7D
:101FD000089580916900440F551F440F551F837F5A
:101FE000842B80936900E99A08958091690034E018
:101FF000440F551F3A95E1F78F7C842B809369003D
:10200000EA9A08958091690026E0440F551F2A95A9
:10201000E1F78F73842B80936900EB9A0895809188
:102020006A0094E0440F551F9A95E1F78F7C842B4A
:1020300080936A00EE9A08951F920F920FB60F9246
:1020400011242F933F934F935F936F937F938F93BD
:102050009F93AF93BF93EF93FF93E0913801F0917B
:1020600039010995FF91EF91BF91AF919F918F91A8
:102070007F916F915F914F913F912F910F900FBE84
:102080000F901F9018951F920F920FB60F92112468
:102090002F933F934F935F936F937F938F939F9370
:1020A000AF93BF93EF93FF93E0913A01F0913B011F
:1020B0000995FF91EF91BF91AF919F918F917F9182
:1020C0006F915F914F913F912F910F900FBE0F90A5
:1020D0001F9018951F920F920FB60F9211242F93F5
:1020E0003F934F935F936F937F938F939F93AF93A0
:1020F000BF93EF93FF93E0913C01F0913D0109956F
:10210000FF91EF91BF91AF919F918F917F916F91CF
:102110005F914F913F912F910F900FBE0F901F90A5
:1021200018951F920F920FB60F9211242F933F9381
:102130004F935F936F937F938F939F93AF93BF93CF
:10214000EF93FF93E0913E01F0913F010995FF91DC
:10215000EF91BF91AF919F918F917F916F915F911F
:102160004F913F912F910F900FBE0F901F90189598
:102170001F920F920FB60F9211242F933F934F93FC
:102180005F936F937F938F939F93AF93BF93EF93DF
:10219000FF93E0914001F09141010995FF91EF918A
:1021A000BF91AF919F918F917F916F915F914F916F
:1021B0003F912F910F900FBE0F901F9018951F9277
:1021C0000F920FB60F9211242F933F938F939F93EB
:1021D000AF93BF938091B8039091B903A091BA03D4
:1021E000B091BB033091B70326E0230F2D3720F4C5
:1021F0000296A11DB11D05C029E8230F0396A11D5C
:10220000B11D2093B7038093B8039093B903A093B3
:10221000BA03B093BB038091BC039091BD03A0911E
:10222000BE03B091BF030196A11DB11D8093BC03F5
:102230009093BD03A093BE03B093BF03BF91AF9132
:102240009F918F913F912F910F900FBE0F901F90F4
:1022500018952FB7F8946091B8037091B9038091E5
:10226000BA039091BB032FBF08953FB7F8948091B4
:10227000BC039091BD03A091BE03B091BF0326B5EE
:10228000A89B05C02F3F19F00196A11DB11D3FBFAE
:102290006627782F892F9A2F620F711D811D911D3E
:1022A00043E0660F771F881F991F4A95D1F708955D
:1022B0008F929F92AF92BF92CF92DF92EF92FF9256
:1022C0006B017C010E9435114B015C01C114D104EA
:1022D000E104F104F1F00E94711A0E9435116819AD
:1022E00079098A099B09683E73408105910570F35D
:1022F00021E0C21AD108E108F10888EE880E83E0D7
:10230000981EA11CB11CC114D104E104F10429F7E9
:10231000DDCFFF90EF90DF90CF90BF90AF909F9078
:102320008F9008958330910528F0880F991F0497A6
:102330000197F1F70895789484B5826084BD84B5DF
:10234000816084BD85B5826085BD85B5816085BDB0
:10235000EEE6F0E0808181608083E1E8F0E01082C9
:10236000808182608083808181608083E0E8F0E00A
:10237000808181608083E1E9F0E0808182608083F8
:10238000808181608083E0E9F0E0808181608083EA
:10239000E1ECF0E0808184608083808182608083D2
:1023A000808181608083E3ECF0E0808181608083C4
:1023B000E0ECF0E0808182608083E2ECF0E08081FC
:1023C00081608083EAE7F0E080818460808380819F
:1023D0008260808380818E7F80838081806880831B
:1023E0000895823108F08251E82FF0E0E653FF4F64
:1023F000E49180917B00E3FB222720F930E095E017
:10240000220F331F9A95E1F78F7D822B80937B00FB
:10241000E7708091420120E4829FC0011124E82BE3
:10242000E0937C0080917A00806480937A008091B0
:102430007A0086FDFCCF809178002091790090E0B1
:10244000922B089590E0FC013197EF30F105B0F543
:10245000EA5AFF4F0C945C1E809180008F7703C076
:10246000809180008F7D809380000895809180000E
:10247000877FF9CF84B58F7702C084B58F7D84BD07
:102480000895809190008F7707C0809190008F7D94
:1024900003C080919000877F809390000895809181
:1024A000C0008F7703C08091C0008F7D8093C000F3
:1024B00008958091C200877F8093C2000895CF93D2
:1024C000DF9390E0FC01EB50FF4F2491FC01EC5EA8
:1024D000FE4F8491882349F190E0880F991FFC01F9
:1024E000E15BFE4FA591B4918F5B9E4FFC01C591BE
:1024F000D4919FB7611108C0F8948C9120958223E4
:102500008C93888182230AC0623051F4F8948C91B4
:10251000322F309583238C938881822B888304C04B
:10252000F8948C91822B8C939FBFDF91CF9108956B
:102530000F931F93CF93DF931F92CDB7DEB7282F52
:1025400030E0F901EA52FF4F8491F901EB50FF4F5F
:102550001491F901EC5EFE4F04910023C9F0882329
:1025600021F069830E9422126981E02FF0E0EE0FD2
:10257000FF1FEF5BFE4FA591B4919FB7F8948C912C
:10258000611103C01095812301C0812B8C939FBFE3
:102590000F90DF91CF911F910F910895CF93DF930B
:1025A000282F30E0F901EA52FF4F8491F901EB50F6
:1025B000FF4FD491F901EC5EFE4FC491CC2391F012
:1025C00081110E942212EC2FF0E0EE0FFF1FED5C54
:1025D000FE4FA591B4912C912D2381E090E021F440
:1025E00080E002C080E090E0DF91CF9108950895EF
:1025F0000E949B110E94F71280EC93E00E94031945
:102600000E94F006C0E0D0E00E9452082097E1F35B
:102610000E940000F9CFCF92DF92EF92FF920F93CA
:102620001F93CF93DF937C016A01EB0100E010E080
:102630000C151D0571F06991D701ED91FC91019088
:10264000F081E02DC7010995892B19F00F5F1F4F0D
:10265000EFCFC801DF91CF911F910F91FF90EF90C5
:10266000DF90CF9008956115710581F0DB010D9029
:102670000020E9F7AD0141505109461B570BDC0121
:10268000ED91FC910280F381E02D099480E090E0CF
:102690000895DC01ED91FC91DB0114964D915C9164
:1026A00015976D917C910280F381E02D09940C9433
:1026B0003313DC01ED91FC910190F081E02D099440
:1026C0008F929F92AF92BF92DF92EF92FF920F9301
:1026D0001F93CF93DF93CDB7DEB7A1970FB6F894D2
:1026E000DEBF0FBECDBF7C01F42FD52ECB0119A2CA
:1026F000223008F42AE08E010F5D1F4F822E912CAC
:10270000A12CB12C6F2F7D2DA50194010E943A1EA2
:10271000F22FD32ECA01015011096A3014F4E0E3FC
:1027200001C0E7E3E60FD801EC93232B242B252BE4
:1027300049F7B801C7010E943313A1960FB6F89468
:10274000DEBF0FBECDBFDF91CF911F910F91FF90E4
:10275000EF90DF90BF90AF909F908F900895CF92B1
:10276000DF92EF92FF920F931F93CF93DF93EC01D1
:102770006A017B012115310579F4E881F981019025
:10278000F081E02D642FDF91CF911F910F91FF9089
:10279000EF90DF90CF9009942A303105E9F477FF6C
:1027A0001AC06DE20E9459138C0144275527BA01C3
:1027B0004C195D096E097F092AE0CE010E94601361
:1027C000800F911FDF91CF911F910F91FF90EF909C
:1027D000DF90CF9008952AE0B701A601CE01DF91E6
:1027E000CF911F910F91FF90EF90DF90CF900C94BD
:1027F00060134F925F926F927F928F929F92AF92EF
:10280000BF92CF92DF92EF92FF920F931F93CF93DD
:10281000DF93EC016A017B01B22E9A01AB01C70183
:10282000B6010E94361E882319F060E672E027C0C8
:1028300026013701E89477F82FEF3FEF4FE75FE786
:10284000C301B2010E94361E81110DC02FEF3FEF70
:102850004FE75FE7C301B2010E94801C18161CF409
:1028600064E672E00CC02FEF3FEF4FE75FE4C70173
:10287000B6010E94CF1D1816ACF468E672E0CE01D6
:10288000DF91CF911F910F91FF90EF90DF90CF904C
:10289000BF90AF909F908F907F906F905F904F9080
:1028A0000C9433132FEF3FEF4FE75FECC701B601F6
:1028B0000E94801C87FDE1CF20E030E0A901C70124
:1028C000B6010E94801C87FF0AC06DE2CE010E9403
:1028D00059138C01F7FAF094F7F8F09402C000E075
:1028E00010E0A12C60E070E080E09FE3AB1441F0C9
:1028F00020E030E040E251E40E94841CA394F6CF33
:102900009B01AC01C701B6010E941C1C6B017C013C
:102910000E94F11C2B013C010E941D1D9B01AC017A
:10292000C701B6010E941B1C6B017C012AE0B301A8
:10293000A201CE010E946013080F191FBB2039F0BD
:102940006CE672E0CE010E943313080F191F7B2C36
:10295000772041F120E030E040E251E4C701B601C8
:102960000E94D31D6B017C010E94EC1C4B01AA2428
:1029700097FCA094BA2C2AE030E0B501A401CE0166
:102980000E94AF13080F191FC501B4010E941F1D3B
:102990009B01AC01C701B6010E941B1C6B017C01AD
:1029A0007A94D6CFC801DF91CF911F910F91FF90FC
:1029B000EF90DF90CF90BF90AF909F908F907F90DF
:1029C0006F905F904F9008950C94F9134091C40359
:1029D0005091C5032091C2033091C303421753079E
:1029E000B4F49091E8009570E1F39091E80092FDC5
:1029F00019C08093F1008091C4039091C5030196A2
:102A00008F739927892B19F48EEF8093E8008091BA
:102A1000C4039091C50301969093C5038093C403AA
:102A200081E0089580E00895CF92DF92EF92FF92C7
:102A30000F931F93CF93DF931F92CDB7DEB7082F6D
:102A4000162FF42E862F880F8E5F99830E94E6142E
:102A500083E00E94E614E02EC02E9981D92E8C2DA1
:102A60008E19811798F4F601F7FE02C0849101C017
:102A700080810E94E614082F80E00E94E6148023E3
:102A8000FFEFCF1ADF0A8111EACF01C081E00F907A
:102A9000DF91CF911F910F91FF90EF90DF90CF903A
:102AA00008958091D70081608093D70080EA809359
:102AB000D80089B58F7E89BD89B5826089BD09B48A
:102AC00000FEFDCF61E070E080E090E00E945811D0
:102AD0008091D8008F7C80618093D8008091E00045
:102AE000807F8093E0000895CF93DF931F92CDB74E
:102AF000DEB71982CE0101960E94CF1A0E94071CF0
:102B0000BE016F5F7F4F0E94801B89810F90DF9114
:102B1000CF9108952FB7FC012083F89467706093DC
:102B2000E9000895CF93DF931F92CDB7DEB7682FEA
:102B3000CE0101960E948A158091F20099819FBF73
:102B40000F90DF91CF910895FF920F931F93CF9332
:102B5000DF9300D0CDB7DEB7F62E8A019091C8037F
:102B6000992311F057FF03C08FEF9FEF2AC0682F02
:102B7000CE0101967A830E948A158091F20090E03E
:102B8000A8017A81801791070CF4AC01EF2DF72F83
:102B9000F40E84E6FE1631F08093C9039091F100A3
:102BA0009193F8CF4115510521F08091F2008823CF
:102BB00021F089818FBFCA0104C08BE68093E800B1
:102BC000F8CF0F900F90DF91CF911F910F91FF9051
:102BD0000895CF93DF931F92CDB7DEB741E050E069
:102BE000BE016F5F7F4F0E94A415019719F4898180
:102BF00090E002C08FEF9FEF0F90DF91CF9108958B
:102C0000CF93DF931F92CDB7DEB7682FCE01019629
:102C10000E948A159091E800892F807295FF04C068
:102C20009091F20080E4891B99819FBF0F90DF9102
:102C3000CF9108956F927F928F929F92AF92BF92A1
:102C4000CF92DF92EF92FF920F931F93CF93DF9378
:102C50001F92CDB7DEB7782E7B01C42EB52E8091A2
:102C6000C803882369F0042F152F8AEFD82E872DEB
:102C70008072982E9AE3A92E872D8074882E11C019
:102C80008FEF9FEF56C0872D0E940016682E81118E
:102C90000CC0DA94A9F361E070E080E090E00E945B
:102CA00058110115110579F73BC0282F30E00217A4
:102CB00013070CF4602E672DCE0101960E948A1531
:102CC0008091E80085FF29C0262D30E0021B130B00
:102CD000992039F06A948FEF6816B1F01092F100E4
:102CE000F9CFF701862D77FE07C0815058F09491F7
:102CF0009093F1003196F9CF815020F0919190930B
:102D0000F100FACFE20EF31E8091E80085FF0EC0BD
:102D10000115110511F4811009C089818FBFC1CF40
:102D200084E68093CA038C2D9B2D03C0A092E800FB
:102D3000F4CF0F90DF91CF911F910F91FF90EF9003
:102D4000DF90CF90BF90AF909F908F907F906F90CB
:102D500008951092E9001092C5031092C403909355
:102D6000C3038093C2030895CF92DF92FF920F9323
:102D70001F93CF93DF9300D0CDB7DEB7F82E8A0133
:102D80006B0101151105B1F0F601F7FE02C0849147
:102D900001C0808149835A830E94E61401501109C1
:102DA000FFEFCF1ADF0A49815A818111EACF8FEFF5
:102DB0009FEF01C0CA010F900F90DF91CF911F913B
:102DC0000F91FF90DF90CF900895CF93DF939B01F9
:102DD000A4E6BBEF21153105F9F0A9012134310535
:102DE00014F040E450E0E091E800E2FFFCCFFB018A
:102DF000E21BF30BE80FF91FCE2FC40FCE1729F0FB
:102E0000D091F100D0833196F9CFA093C903B0934C
:102E1000E800241B350BDECFCB01DF91CF91089565
:102E20001F920F920FB60F921124DF92EF92FF9232
:102E30000F931F932F933F934F935F936F937F93C2
:102E40008F939F93AF93BF93EF93FF93CF93DF93B2
:102E5000CDB7DEB76C97DEBFCDBF1092E900809191
:102E6000E80083FF2EC1FE0175968F01AE01435E1F
:102E70005F4F9F012F5F3F4F8091F10080832417A8
:102E8000350711F0F901F5CF84E68093C90382EF8D
:102E90008093E8005D8957FF05C08091E80080FFBE
:102EA000FCCF03C08EEF8093E800852F807609F079
:102EB000EFC04E898F89D88C41110CC0503829F44D
:102EC0008091C7038093F10002C01092F10010922C
:102ED000F100F0C0282F30E03D29413051F451116C
:102EE000E9C02130310509F0E5C08091C7038D7F2D
:102EF0000BC0433061F45111DDC02130310509F0C0
:102F0000D9C08091C70382608093C703D3C0453086
:102F100041F49091E80090FFFCCF80688093E3003B
:102F2000C9C0463009F08BC0EB8CFC8C22E0D21279
:102F30002CC080E090E00E94A9160E94741599E0D0
:102F40008E010F5F1F4FF801292F11922A95E9F783
:102F50009983DA8291E09E8390EA98879AEF998725
:102F60002091C4033091C503275F3F4F3C832B83DF
:102F70008D83C7010E94A91649E050E0B80180E0A6
:102F80000E94B4160E94741595C0C7010E94A9162C
:102F90000E94071CB8010E94A91B009719F00CF0B1
:102FA00089C08CC081E0D8120EC08B8D9C8D089793
:102FB00019F481E08093C1038091C10381112FC076
:102FC0006FE671E031C0E3E0DE1278C08F898823BC
:102FD00049F1823029F440E86CE08AE891E01CC0B5
:102FE000813029F440E868E081E891E015C0833041
:102FF00009F064C00E94071C8E010F5F1F4FB801CB
:103000000E94C81BF80101900020E9F73197E01BEE
:10301000F10B40E06E2FC8010E94141549C06DE508
:1030200071E002C067E971E06115710509F446C0FD
:10303000FB01449150E080E80E94B4163BC0473049
:10304000E9F1483021F481E08093F10033C0493048
:1030500089F5537099F5E4E4F1E081E021E036E38D
:103060009081992361F08093E9002093EB00919186
:103070009093EC003093ED008F5F873089F78EE7F7
:103080008093EA001092EA008F898093C80312C0EF
:103090008B8D9C8D0E94A916898D811104C0C80159
:1030A0000E94DA1A05C00E94071CB8010E94E71BA3
:1030B000882321F08EEF8093E80003C081E28093A3
:1030C000EB006C960FB6F894DEBF0FBECDBFDF915C
:1030D000CF91FF91EF91BF91AF919F918F917F9190
:1030E0006F915F914F913F912F911F910F91FF90A1
:1030F000EF90DF900F900FBE0F901F901895809368
:10310000E9008091F200882319F08AE38093E800B7
:1031100008951F920F920FB60F9211242F933F9391
:103120004F935F936F937F938F939F93AF93BF93CF
:10313000CF93EF93FF93C091E1008091E100837FF3
:103140008093E1008093E100C3FF0FC01092E9007B
:1031500081E08093EB001092EC0082E38093ED001D
:103160001092C80388E08093F000C2FF15C083E08E
:103170000E947F188091CA03882329F08091CA0396
:1031800081508093CA038091C903882329F08091DC
:10319000C90381508093C903C4FF10C08091E2002D
:1031A0008E7E81608093E2008091E1008F7E80932B
:1031B000E1008091C6038E7E806111C0C0FF11C006
:1031C0008091E2008E7E80618093E2008091E10038
:1031D0008E7E8093E1008091C6038E7E8160809315
:1031E000C603FF91EF91CF91BF91AF919F918F91C6
:1031F0007F916F915F914F913F912F910F900FBEF3
:103200000F901F9018951092C8031092C703109248
:10321000C6030E9451158091E1008E7E8093E100EB
:103220008DE08093E200EEEFFFE7859194918B3F74
:103230009C4D19F481E080931B040895FC0180816A
:1032400091810C941B1FCF93DF93EC0188819981AE
:10325000009711F00E941B1F198218821D821C8288
:103260001B821A82DF91CF9108950F931F93CF9302
:10327000DF93EC018B016F5F7F4F888199810E9402
:10328000AA1F009731F0998388831B830A8381E00A
:1032900001C080E0DF91CF911F910F910895CF93EE
:1032A000DF93EC0188819981892B29F08A819B81A8
:1032B0008617970760F4CE010E943519882341F0E4
:1032C0008C819D81892B19F4E881F981108281E03C
:1032D000DF91CF910895EF92FF920F931F93CF93B9
:1032E000DF93EC017B018A01BA010E944F19811121
:1032F00004C0CE010E94231907C01D830C83B701AF
:10330000888199810E947D20CE01DF91CF911F910C
:103310000F91FF90EF900895FC01118210821382AB
:103320001282158214826115710559F0FB0101901A
:103330000020E9F7AF0141505109461B570B0C948F
:103340006B1908950F931F93CF93DF938C01EB01BB
:10335000FC0180819181009799F0428153812C81F9
:103360003D814217530750F0688179810E947D208A
:103370008C819D81F8019583848313C00E941B1F5B
:1033800088819981F801918380838A819B819383CD
:1033900082838C819D8195838483198218821B820C
:1033A0001A821D821C82DF91CF911F910F91089587
:1033B000CF93DF93EC018617970711F00E94A219B3
:1033C000CE01DF91CF910895CF93DF93EC0161158A
:1033D000710561F0FB0101900020E9F7AF01415058
:1033E0005109461B570B0E946B1902C00E942319FA
:1033F000CE01DF91CF910895EF92FF920F931F932B
:10340000CF93DF93CDB7DEB7A1970FB6F894DEBFA9
:103410000FBECDBF7C01CB01BA01F7011182108232
:10342000138212821582148242E0420F8E010F5FD6
:103430001F4F0E94621EBC01C7010E94E419A196A1
:103440000FB6F894DEBF0FBECDBFDF91CF911F91B5
:103450000F91FF90EF900895BF92CF92DF92EF927D
:10346000FF920F931F93CF93DF936C017B01EA01CF
:1034700089012417350720F48D2FE901042F182F17
:103480006FE572E0C6010E948C19D70114968D91E8
:103490009C911597C817D907C8F48017910708F4AD
:1034A0008C01D701ED91FC911197E00FF11FB080D5
:1034B00010826D917C916C0F7D1FC6010E94E419F2
:1034C000D701ED91FC91E00FF11FB082C601DF91B1
:1034D000CF911F910F91FF90EF90DF90CF90BF9011
:1034E00008950895CF93DF931F92CDB7DEB7698318
:1034F000DC01ED91FC910280F381E02D41E050E090
:10350000BE016F5F7F4F09950F90DF91CF910895B6
:10351000CF93DF93EC018C859D8597FF05C082E0FA
:103520000E94E9159D878C878C859D85DF91CF91C1
:10353000089583E00C947F18FC018485958597FDA0
:1035400006C082E00E94921590E00196089582E004
:103550000E94921590E00895FC018485958597FD61
:1035600005C02FEF3FEF35872487089582E00C9444
:10357000E915CF93DF93EC0180915501882331F059
:1035800083E00E941A161816190634F081E090E0C4
:103590009B838A8380E090E0DF91CF910895FC01C6
:1035A00020812E5F208342E450E06BE971E080E8E7
:1035B0000C94B416FC0121818081813A59F42132A6
:1035C00009F04BC047E050E06EE471E080E00E94FB
:1035D000B4165EC0813209F040C0233289F4838181
:1035E00090E0982F88273281832BA0E0B0E0809371
:1035F0004A0190934B01A0934C01B0934D010FC031
:10360000203239F467E070E08EE491E00E94E51624
:1036100009C0223221F482818093550103C02D7F9D
:103620002032B1F580911B04811103C0E0E0F8E085
:1036300002C0EEEFFAE080914E0190914F01A0910F
:103640005001B0915101803B9440A105B10511F5A5
:103650008091550180FF03C01DC080E00895EE3FBA
:103660002AE0F20731F0808191819093FF0A8093E4
:10367000FE0A87E797E7918380832BE088E190E05B
:103680000FB6F894A895809360000FBE2093600059
:1036900081E0089588E10FB6F8948093600010925D
:1036A00060000FBEA895EE3F8AE0F80739F08091E0
:1036B000FE0A9091FF0A91838083EACF1092FF0A5D
:1036C0001092FE0AE5CF1092CE031092CD0388EE41
:1036D00093E0A0E0B0E08093CF039093D003A09359
:1036E000D103B093D20382E792E09093CC0380930E
:1036F000CB038FEF9FEF9093D8038093D703089568
:10370000EF92FF920F931F93CF93DF937B01FC0106
:10371000C281D38100E010E0209781F0E881F98137
:103720000280F381E02DB701CE01099597FD08C015
:10373000080F191F0884D985C02DEECFC80102C01B
:103740008FEF9FEFDF91CF911F910F91FF90EF903F
:1037500008950F931F93CF93DF938B01FC01C281D8
:10376000D381209771F0E881F9810480F581E02D03
:10377000B801CE010995009731F40884D985C02D90
:10378000F0CF80E090E0DF91CF911F910F910895ED
:103790000F931F93CF93DF938B01FC01C281D381E1
:1037A000209771F0E881F9810680F781E02DB8015A
:1037B000CE010995080F111D0884D985C02DF0CFC1
:1037C000F8011082DF91CF911F910F9108950F930F
:1037D0001F93CF93DF938B01FC01C281D38120978C
:1037E00071F0E881F9810190F081E02DB801CE01FE
:1037F0000995811106C00884D985C02DF0CF80E0DD
:1038000001C081E0DF91CF911F910F9108958091C8
:10381000200481110DC082E080931C0484E0809319
:103820001D0410921F0410921E0481E08093200456
:103830008CE194E008955058BB27AA270ED075C19B
:1038400066D130F06BD120F031F49F3F11F41EF4BB
:103850005BC10EF4E095E7FB51C1E92F77D180F30E
:10386000BA17620773078407950718F071F49EF57D
:103870008FC10EF4E0950B2EBA2FA02D0B01B901CC
:1038800090010C01CA01A0011124FF27591B99F0D6
:10389000593F50F4503E68F11A16F040A22F232FE2
:1038A000342F4427585FF3CF469537952795A79532
:1038B000F0405395C9F77EF41F16BA0B620B730BD9
:1038C000840BBAF09150A1F0FF0FBB1F661F771F4A
:1038D000881FC2F70EC0BA0F621F731F841F48F4FF
:1038E000879577956795B795F7959E3F08F0B3CF85
:1038F0009395880F08F09927EE0F9795879508956F
:10390000D9D008F481E008950CD00FC107D140F060
:10391000FED030F021F45F3F19F0F0C0511139C1F1
:10392000F3C014D198F39923C9F35523B1F3951B30
:10393000550BBB27AA2762177307840738F09F5FD0
:103940005F4F220F331F441FAA1FA9F333D00E2E3F
:103950003AF0E0E830D091505040E695001CCAF7AC
:1039600029D0FE2F27D0660F771F881FBB1F261771
:1039700037074807AB07B0E809F0BB0B802DBF0144
:10398000FF2793585F4F2AF09E3F510568F0B6C05D
:1039900000C15F3FECF3983EDCF386957795679521
:1039A000B795F7959F5FC9F7880F911D96958795F5
:1039B00097F90895E1E0660F771F881FBB1F621714
:1039C00073078407BA0720F0621B730B840BBA0BD2
:1039D000EE1F88F7E095089504D06894B111D9C01E
:1039E0000895BCD088F09F5790F0B92F9927B75110
:1039F000A0F0D1F0660F771F881F991F1AF0BA95B3
:103A0000C9F712C0B13081F0C3D0B1E00895C0C091
:103A1000672F782F8827B85F39F0B93FCCF38695A8
:103A200077956795B395D9F73EF490958095709505
:103A300061957F4F8F4F9F4F0895E89409C097FB82
:103A40003EF490958095709561957F4F8F4F9F4F75
:103A50009923A9F0F92F96E9BB279395F6958795B9
:103A600077956795B795F111F8CFFAF4BB0F11F47C
:103A700060FF1BC06F5F7F4F8F4F9F4F16C0882323
:103A800011F096E911C0772321F09EE8872F762F59
:103A900005C0662371F096E8862F70E060E02AF09A
:103AA0009A95660F771F881FDAF7880F9695879586
:103AB00097F90895990F0008550FAA0BE0E8FEEF5B
:103AC00016161706E807F907C0F012161306E407E2
:103AD000F50798F0621B730B840B950B39F40A26DB
:103AE00061F0232B242B252B21F408950A2609F4B9
:103AF000A140A6958FEF811D811D089597F99F67BD
:103B000080E870E060E008959FEF80EC0895002465
:103B10000A941616170618060906089500240A9432
:103B200012161306140605060895092E0394000CB8
:103B300011F4882352F0BB0F40F4BF2B11F460FF47
:103B400004C06F5F7F4F8F4F9F4F089557FD905870
:103B5000440F551F59F05F3F71F04795880F97FB51
:103B6000991F61F09F3F79F087950895121613060B
:103B70001406551FF2CF4695F1DF08C0161617063A
:103B80001806991FF1CF869571056105089408956F
:103B9000E894BB2766277727CB0197F908958ADF3A
:103BA00008F48FEF08950BD0C0CFB1DF28F0B6DF57
:103BB00018F0952309F0A2CFA7CF1124EACFC6DFD2
:103BC000A0F3959FD1F3950F50E0551F629FF00130
:103BD000729FBB27F00DB11D639FAA27F00DB11D89
:103BE000AA1F649F6627B00DA11D661F829F222712
:103BF000B00DA11D621F739FB00DA11D621F839F99
:103C0000A00D611D221F749F3327A00D611D231F6E
:103C1000849F600D211D822F762F6A2F11249F57BC
:103C200050408AF0E1F088234AF0EE0FFF1FBB1FDF
:103C3000661F771F881F91505040A9F79E3F51057E
:103C400070F05CCFA6CF5F3FECF3983EDCF3869537
:103C500077956795B795F795E7959F5FC1F7FE2B29
:103C6000880F911D9695879597F9089523DF880B06
:103C7000990B0895A1E21A2EAA1BBB1BFD010DC0D2
:103C8000AA1FBB1FEE1FFF1FA217B307E407F5070C
:103C900020F0A21BB30BE40BF50B661F771F881FE8
:103CA000991F1A9469F760957095809590959B017E
:103CB000AC01BD01CF010895EE0FFF1F0590F491F7
:103CC000E02D0994EF920F931F93CF93DF93E801B8
:103CD00047FF02C034E101C034E0E42FFF27E7FDD5
:103CE000F095F7FF03C0F195E195F109E32E022F5E
:103CF0002E2FAE010E949A20CE01DF91CF911F910D
:103D00000F91EF900895CF93DF938230910510F4D7
:103D100082E090E0E0912A04F0912B0420E030E072
:103D2000A0E0B0E0309739F1408151814817590740
:103D3000B8F04817590771F482819381109729F0E0
:103D400013969C938E9312972CC090932B04809380
:103D50002A0427C02115310531F04217530718F006
:103D6000A901DB0101C0EF019A01BD01DF01028061
:103D7000F381E02DD7CF21153105F9F0281B390B40
:103D80002430310580F48A819B816115710521F011
:103D9000FB019383828304C090932B0480932A04B5
:103DA000FE01329644C0FE01E20FF31F819391930E
:103DB00022503109398328833AC020912804309158
:103DC0002904232B41F42091020130910301309307
:103DD000290420932804209100013091010121152C
:103DE000310541F42DB73EB74091040150910501D2
:103DF000241B350BE0912804F0912904E217F30706
:103E0000A0F42E1B3F0B2817390778F0AC014E5F4A
:103E10005F4F2417350748F04E0F5F1F509329045A
:103E2000409328048193919302C0E0E0F0E0CF0139
:103E3000DF91CF910895CF93DF93009709F487C066
:103E4000FC01329713821282C0912A04D0912B0474
:103E5000209781F420813181280F391F8091280417
:103E6000909129048217930779F5F0932904E09340
:103E700028046DC0DE0120E030E0AE17BF0750F42B
:103E800012964D915C9113979D014115510509F1D1
:103E9000DA01F3CFB383A28340815181840F951F50
:103EA0008A179B0771F48D919C911197840F951F30
:103EB00002969183808312968D919C9113979383A0
:103EC00082832115310529F4F0932B04E0932A0411
:103ED0003EC0D9011396FC93EE9312974D915D91DC
:103EE000A40FB51FEA17FB0779F480819181840F35
:103EF000951F0296D90111969C938E93828193818E
:103F000013969C938E931297E0E0F0E08A819B8158
:103F1000009719F0FE01EC01F9CFCE01029628813D
:103F20003981820F931F209128043091290428178A
:103F3000390769F4309729F410922B0410922A045F
:103F400002C013821282D0932904C0932804DF9107
:103F5000CF910895A0E0B0E0E0EBFFE10C94F422F3
:103F6000EC01CB01209719F40E94831EB8C0FE011A
:103F7000E60FF71F9E0122503109E217F30708F4FC
:103F8000ACC0D9010D911C91119706171707B8F015
:103F90000530110508F49FC0A80144505109461787
:103FA000570708F498C002501109061B170B01931C
:103FB00011936D937C93CF010E941B1F8CC05B01FA
:103FC000A01AB10A4E01800E911EA0912A04B09150
:103FD0002B04612C712C60E070E0109709F449C04B
:103FE000A815B905C9F5ED90FC901197670142E05D
:103FF000C40ED11CCA14DB0478F147018A189B084F
:10400000640142E0C40ED11C1296BC901297139624
:10401000AC91B5E0CB16D10440F0B282A38391827B
:104020008082D9018D939C9309C00E5F1F4F0E0DA6
:104030001F1DF90111830083EB2DFA2F6115710506
:1040400031F0DB011396FC93EE93129744C0F0938A
:104050002B04E0932A043FC06D917C911197661662
:10406000770608F43B01BD0112960D90BC91A02D7E
:10407000B4CF609128047091290468157905E9F49A
:1040800068167906D0F44091000150910101411564
:10409000510541F44DB75EB760910401709105017F
:1040A000461B570BE417F507C0F4F0932904E0937F
:1040B0002804F901918380830EC00E94831E7C0135
:1040C000009759F0A801BE010E947420CE010E9401
:1040D0001B1FC70104C0CE0102C080E090E0CDB735
:1040E000DEB7EEE00C941023FB01DC0102C001906E
:1040F0000D9241505040D8F70895FB01DC0101902A
:104100000D920020E1F70895F999FECF92BD81BD8F
:10411000F89A992780B50895262FF999FECF1FBAEE
:1041200092BD81BD20BD0FB6F894FA9AF99A0FBEE0
:10413000019608956F927F929F92AF92BF92CF9215
:10414000DF92EF92FF920F931F93CF93DF93CDB740
:10415000DEB729970FB6F894DEBF0FBECDBF6A0158
:10416000B22E102F0C3320F4FF24F394F00E02C073
:104170004CE3F42E0F2D27E0AE014F5F5F4F0E94FE
:1041800018227981272F2970213031F0E1FC06C0F7
:10419000E0FC06C060E005C06DE203C06BE201C058
:1041A00060E2AE2DA07173FF36C0662311F084E08B
:1041B00001C083E08B1510F4B81A01C0B12CA11115
:1041C0000BC0F6018B2D90E2882319F0919381505A
:1041D000FBCFCB0CD11CB12C662331F0F6016083F0
:1041E00096012F5F3F4F6901C6010396E2FE05C0AD
:1041F0002EE4F601208331E404C02EE6F60120838C
:1042000031E631832283FC012B2D30E22223F1F1B0
:1042100031932150FBCF72FF40C0662311F084E040
:1042200001C083E08B1510F4B81A01C0B12CA111A4
:104230000BC0F6018B2D90E2882319F091938150E9
:10424000FBCFCB0CD11CB12C662331F0F60160837F
:1042500096012F5F3F4F6901C6010396E2FE07C03A
:1042600029E4F60120832EE4218326E406C029E612
:10427000F60120832EE6218326E62283FC012B2DE6
:1042800030E2222319F031932150FBCFFC01EB0DDA
:10429000F11D10828EEF9FEFB7C0B1E0611101C038
:1042A000B0E04B2F50E01816190624F49C012F5F44
:1042B0003F4F02C021E030E0240F351F112329F0C9
:1042C000412F50E04F5F5F4F02C040E050E0420F8F
:1042D000531F2B2D30E04217530714F4B41A01C0BA
:1042E000B12C2E2D287159F4F6012B2D30E222230A
:1042F00019F031932150FBCFCB0CD11CB12CBB2337
:1043000031F0F601608396012F5F3F4F6901A111E3
:104310000BC0F6012B2D30E3222319F031932150ED
:10432000FBCFCB0CD11CB12CF80E0A81372F30718A
:10433000A32E74FF03C0013309F4FA941F142CF464
:104340002F2D293018F028E001C021E0682F392FE7
:1043500097FF02C060E030E0462F532F612C712C94
:104360003EE2932EBC01621B71099B01DC01A41B80
:10437000B50BE1E0F0E0EC0FFD1FAE0FBF1FE12E2B
:10438000F12CF194E194F1084F3FFFEF5F0731F416
:10439000F6019082B6016F5F7F4F6B01841795071E
:1043A0004CF02417350734F4BD01660D771DFB0171
:1043B000118101C010E341505109FFEF6F1A7F0ACC
:1043C000B6016F5F7F4F4E155F0524F0F601108335
:1043D0006B01DACF4817590739F4063320F4053357
:1043E00019F4A11001C011E3F6011083FB018B2D1C
:1043F00090E2882319F091938150FBCFFB01EB0DE4
:10440000F11D108280E090E029960FB6F894DEBF8F
:104410000FBECDBFDF91CF911F910F91FF90EF9015
:10442000DF90CF90BF90AF909F907F906F90089556
:10443000283008F027E03327DA01990F311D87FD76
:10444000916000966105710539F432602E5F3D93ED
:1044500030E32A95E1F708959F3F30F080387105E9
:10446000610509F03C5F3C5F3D93913008F0806846
:10447000911DDF93CF931F930F93FF92EF92192F0C
:10448000987F9695E92F96959695E90FFF27E95C19
:10449000FD4F99273327EE24FF24A701E70105905C
:1044A0000894079428F4360FE71EF81E491F511D83
:1044B000660F771F881F991F0694A1F70590079430
:1044C00028F4E70EF81E491F561FC11D770F881FDD
:1044D000991F661F0694A1F70590079428F4F80E1B
:1044E000491F561FC71FD11D880F991F661F771FB1
:1044F0000694A1F70590079420F4490F561FC71F93
:10450000D81F990F661F771F881F0694A9F78491FB
:104510001095177041F0D695C79557954795F79424
:10452000E7941A95C1F7EDEDF1E0689415901591B7
:1045300035916591959105907FE27395E118F10AA7
:10454000430B560BC90BD009C0F7E10CF11E431FFA
:10455000561FC91FD01D7EF4703311F48A95E6CF23
:10456000E894015030F0080F0AF40027021708F40D
:10457000202F2395022F7A3328F079E37D932A9513
:10458000E9F710C07D932A9589F60694979567956B
:10459000379517951794E118F10A430B560BC90B81
:1045A000D00998F023957E9173957A3308F070E3E3
:1045B0007C932013B8F77E9170617D9330F08395E2
:1045C00071E37D9370E32A95E1F71124EF90FF905A
:1045D0000F911F91CF91DF91992787FD90950895B5
:1045E0002F923F924F925F926F927F928F929F9203
:1045F000AF92BF92CF92DF92EF92FF920F931F93F1
:10460000CF93DF93CDB7DEB7CA1BDB0B0FB6F894A1
:10461000DEBF0FBECDBF09942A88398848885F84E1
:104620006E847D848C849B84AA84B984C884DF8052
:10463000EE80FD800C811B81AA81B981CE0FD11D36
:104640000FB6F894DEBF0FBECDBFED010895F8940C
:02465000FFCF9A
:1046520000002C04800003011E1714141C00000229
:10466200060E0602000000080C0E0C0800000400F2
:104672000400040004000A040A040A040A003200C6
:104682000000900100000100CB0FCB0FCB0FCB0F2E
:10469200CB0F0100C18081000000FFFFFFFF00E19E
:1046A20000000000000020202020202020202000E8
:1046B2002500206D5600456E746572696E67004371
:1046C200616C6962726174696F6E204D6F6465001E
:1046D20043616C6962726174653F004F7879676506
:1046E2006E2053656E736F720048656C69756D203C
:1046F20053656E736F7200426F74682053656E73F8
:104702006F7273200043616C6962726174696F6ECB
:1047120020464F323A0025204F787967656E004374
:104722006C69636B20746F00636F6E6669726D00F3
:104732005361766564004261642043616C69627210
:104742006174696F6E0044617461005472696D69CD
:104752007820416E616C797A65720076007620006D
:10476200302E3100506C6561736500526563616C77
:10477200696272617465004F7074696F6E73004D87
:10478200656E750043616C6962726174650045789B
:104792006974003000000000000C0A0B13000000D6
:1047A20000170BEA0ABF0AC70ADA0AE90A0D0A0069
:1047B2006E616E00696E66006F7666002E00000004
:0E47C2000000721AB91A9C1AAC1A881A991AB9
:1070000055C000006EC000006CC000006AC00000E7
:1070100068C0000066C0000064C0000062C00000DC
:1070200060C000005EC00000DAC400005AC000006A
:1070300058C0000056C0000054C0000052C00000FC
:1070400050C0000076C000004CC000004AC00000E4
:1070500048C0000046C0000044C0000042C000001C
:1070600040C000003EC000003CC000003AC000002C
:1070700038C0000036C0000034C0000032C000003C
:1070800030C000002EC000002CC000002AC000004C
:1070900028C0000026C0000024C0000022C000005C
:1070A00020C000001EC000001CC0000011241FBE34
:1070B000CFEFDAE0DEBFCDBF11E0A0E0B1E0EEEF50
:1070C000FEE702C005900D92AA3CB107D9F711E086
:1070D000AAECB1E001C01D92A03EB107E1F781D357
:1070E0000CC78ECFF89410926F001092810010920E
:1070F00085001092840081E085BF15BE47980C94EE
:10710000000008952091D4013091D5012F5F3F4FA9
:107110003093D5012093D401932F37FF03C08EEF16
:10712000831B982F990F921710F447980895479A48
:1071300008951F920F920FB60F9211242F938F93E1
:107140009F93EF93FF93109285001092840080919B
:10715000CA019091CB01009729F001979093CB0140
:107160008093CA018091CC019091CD01009729F0C4
:1071700001979093CD018093CC01E0E0F0E0859100
:1071800094918F5F9F4F49F08091CE019091CF01F4
:1071900001969093CF018093CE01FF91EF919F9143
:1071A0008F912F910F900FBE0F901F90189584E034
:1071B0008093E9000DC08091E8008B778093E80010
:1071C00003C08EB3882351F08091E80082FFF9CF8D
:1071D0008091E80085FFEFCF8091F1000895982F0E
:1071E00083E08093E9008091E80085FD0DC08091E7
:1071F000E8008E778093E80003C08EB3882361F0A7
:107200008091E80080FFF9CF9093F10084E690E050
:107210009093CB018093CA0108954F925F926F9231
:107220007F928F929F92AF92BF92CF92DF92EF9216
:10723000FF920F931F93CF93DF9384E08093E90035
:107240008091E80082FF56C284E690E09093CD01E1
:107250008093CC01ACDF182F853481F48CE195E26A
:107260009093CF018093CE0107B600FCFDCFF99932
:10727000FECF81E180935700E89503C0843519F46F
:1072800096DF8DE00DC28C34E1F38035D1F3843785
:1072900021F484E4A4DF80E003C2813611F489E59F
:1072A000FFC18134B1F483DF182F81DF90E0880FB4
:1072B000991FAA2797FDA095BA2F312F330F20E0F1
:1072C000442737FD4095542F822B932BA42BB52BAD
:1072D000B8C1803711F483E5E3C1833549F4C0E0D8
:1072E000D1E089917CDF21E0C730D207D1F7D9C145
:1072F000863521F481E373DF80E3D2C1833731F433
:1073000087E86DDF85E96BDF8EE1CAC18536B9F4A8
:10731000E0E0F0E093E085E090935700E89507B651
:1073200000FCFDCF80935700E89507B600FCFDCF29
:10733000E058FF4FA0E7E030FA0771F7A2CF82379D
:1073400039F4E1E0F0E089E0809357008491A8C12E
:10735000863439F4E0E0F0E089E0809357008491CE
:107360009FC18E3439F4E3E0F0E089E08093570068
:10737000849196C1813539F4E2E0F0E089E08093B0
:10738000570084918DC1823631F489E528DF80E091
:1073900026DF80E885C1823419F0873609F0E5C020
:1073A0001092CF011092CE0102DF082F00DFF82EDD
:1073B000FEDE682E8554823008F071C1902F80E087
:1073C000CF2DD0E0C82BD92B10926F00173609F0C3
:1073D0004BC081E180935700E895DD24CC24C39411
:1073E0003FC0E090D001F090D1010091D201109106
:1073F000D301B6E46B16D9F4ED2DF0E0EE29FF29A8
:10740000E4918E2FECDEDD2081F082E090E0A0E0C0
:10741000B0E0E80EF91E0A1F1B1FE092D001F092A7
:10742000D1010093D2011093D301DC2418C0D801FC
:10743000C701B695A7959795879549D5D0DE82E087
:1074400090E0A0E0B0E0E80EF91E0A1F1B1FE092DA
:10745000D001F092D1010093D2011093D301219772
:10746000209709F0BECF7DC08090D0019090D101CF
:10747000A090D201B090D30196E4691609F05DC0E6
:1074800083E0F40180935700E89507B600FCFDCF38
:1074900054C0F6E46F1661F5772031F1E090D00129
:1074A000F090D1010091D2011091D30180DED82E4D
:1074B000CC24852D90E08C299D29F7010C01409268
:1074C0005700E895112482E090E0A0E0B0E0E80EDB
:1074D000F91E0A1F1B1FE092D001F092D101009308
:1074E000D2011093D30102C062DE582E742423C04F
:1074F000E090D001F090D1010091D2011091D30120
:1075000016950795F794E79452DE682FC701E7D4E4
:107510008091D0019091D101A091D201B091D3017D
:107520000296A11DB11D8093D0019093D101A0932B
:10753000D201B093D301219704C055247724442469
:107540004394209709F0A5CF96E4691641F485E0AD
:10755000F40180935700E89507B600FCFDCF8DE05D
:107560003EDE82E080936F009CC0833471F4009112
:10757000D0011091D1011BDE90E021E0F8010C0157
:1075800020935700E89511247CCE833619F5E090BE
:10759000D001F090D1010091D2011091D30107DE0A
:1075A000F701E16090E021E00C0120935700E8959D
:1075B000112482E090E0A0E0B0E0E80EF91E0A1F7E
:1075C0001B1FE092D001F092D1010093D2011093E1
:1075D000D30157CE8D3661F4E091D001F091D10105
:1075E00085E080935700E89507B600FCFDCF49CEB3
:1075F000823551F4E091D001F091D10105911491BF
:10760000812FEDDD802F4CC0843421F5E090D00136
:10761000F090D1010091D2011091D30116950795F8
:10762000F794E794C4DD682FC70159D48091D00145
:107630009091D101A091D201B091D3010296A11DE8
:10764000B11D8093D0019093D101A093D201B0934A
:10765000D30117CE843609F5E090D001F090D10126
:107660000091D2011091D301D801C701B695A79519
:10767000979587952CD4B3DD82E090E0A0E0B0E050
:10768000E80EF91E0A1F1B1FE092D001F092D101F3
:107690000093D2011093D30104C08B3111F08FE31A
:1076A0009EDD83E08093E9009091E8008091E800FE
:1076B0008E778093E80095FF04C010C08EB38823B6
:1076C000C9F08091E80080FFF9CF8091E8008E77C3
:1076D0008093E80003C08EB3882361F08091E800B6
:1076E00080FFF9CF84E08093E9008091E8008B77F8
:1076F0008093E800DF91CF911F910F91FF90EF9061
:10770000DF90CF90BF90AF909F908F907F906F90C1
:107710005F904F9008959091D801892F8F77813293
:1077200049F58091D9018032A1F0813219F5913A61
:1077300009F58091E800877F8093E8008DE091E073
:1077400067E070E0FBD18091E8008B778093E800E0
:107750000895913279F48091E800877F8093E80062
:107760008DE091E067E070E04DD28091E8008E7787
:107770008093E800089582E061EC42E0A7D083E0C6
:1077800061E842E1A3D084E060E842E19FC084B7B1
:10779000877F84BF88E10FB6F894809360001092D1
:1077A00060000FBE20E880E090E00FB6F8942093D0
:1077B0006100809361000FBE81E085BF92E095BFBC
:1077C0003F9AE1E6F0E0208310824798109289000A
:1077D0008DE78093880090936F0083E08093810011
:1077E000E6C04091000850910108109201081092E3
:1077F000000824B714BE88E10FB6F89480936000A7
:10780000109260000FBEE0E0F0E0859194918F5FF0
:107810009F4F71F020FD0BC021FD0AC0283041F4BC
:107820008091090190910A014817590709F05ADC23
:10783000AEDF78941092CF011092CE010CC0EDDC37
:1078400034D38091CE019091CF018151974210F0B5
:107850001092140157DC80911401882381F78091E4
:10786000E00081608093E0003DDC80E090E00895DE
:10787000FA01923049F0933061F09130F9F485E1EA
:1078800091E022E130E01EC087E291E02EE330E09B
:1078900019C0882329F485E691E024E030E012C085
:1078A000813029F489E691E022E230E00BC0823099
:1078B00029F487E991E028E130E004C080E090E01D
:1078C00020E030E091838083C90108958093E9002E
:1078D0008091EB0081608093EB001092ED0060934B
:1078E000EC004093ED008091EE00881F8827881FF0
:1078F00008958091D80188238CF403C08EB3882327
:10790000B1F08091E80082FFF9CF8091E8008B7799
:107910008093E80008958EB3882349F08091E800B1
:1079200080FFF9CF8091E8008E778093E80008957A
:10793000EF92FF920F931F9345D04CD008ED10E0CB
:10794000F80180818F778083808180688083808147
:107950008F7D808319BC1EBA1092D60180EEE82E6E
:10796000F12CF70180818B7F8083F8018081816019
:10797000808380E060E042E0A9DFE1EEF0E080811A
:107980008E7F8083E2EEF0E0808181608083808161
:1079900088608083F70180818E7F8083F8018081F9
:1079A000806180831F910F91FF90EF900895E7ED24
:1079B000F0E08081816080838AE482BF81E08093EF
:1079C000D701B6CFE8EDF0E080818E7F8083109202
:1079D000E20008951092DA001092E10008951F92DB
:1079E0000F920FB60F9211242F933F934F935F93F3
:1079F0006F937F938F939F93AF93BF93EF93FF9377
:107A00008091DA0080FF1AC08091D80080FF16C0F4
:107A10008091DA008E7F8093DA008091D90080FF18
:107A20000AC019BC82E089BD09B400FEFDCF81E027
:107A30008EBB3AD203C019BC1EBA36D28091E10087
:107A400080FF17C08091E20080FF13C08091E200A8
:107A50008E7F8093E2008091E20080618093E2005B
:107A60008091D80080628093D80019BC85E08EBBDD
:107A70001BD28091E10084FF2BC08091E20084FF43
:107A800027C019BC82E089BD09B400FEFDCF8091FA
:107A9000D8008F7D8093D8008091E1008F7E809305
:107AA000E1008091E2008F7E8093E2008091E2000D
:107AB00081608093E2008091D601882331F4809127
:107AC000E30087FD02C081E001C084E08EBBECD101
:107AD0008091E10083FF21C08091E20083FF1DC0FF
:107AE0008091E100877F8093E10082E08EBB10925D
:107AF000D6018091E1008E7F8093E1008091E200C9
:107B00008E7F8093E2008091E20080618093E200AA
:107B100080E060E042E0DADEC7D1FF91EF91BF91F3
:107B2000AF919F918F917F916F915F914F913F9115
:107B30002F910F900FBE0F901F9018959C014091B0
:107B4000DE015091DF014617570718F4F90190E064
:107B500044C06115710511F0AB01F8CF8091E800C8
:107B60008E778093E80040E050E0F0CF8EB388231A
:107B700009F444C0853009F443C08091E80083FFD4
:107B800002C081E008958091E80082FD31C08091BB
:107B9000E80080FF22C08091F3009091F200782FDE
:107BA00060E0292F30E0262B372B07C0819180938E
:107BB000F100415050402F5F3F4F4115510519F0E2
:107BC0002830310598F390E02830310509F491E030
:107BD0008091E8008E778093E8004115510531F6D9
:107BE000992321F605C08EB3882341F0853041F0FA
:107BF0008091E80082FFF7CF80E0089582E0089549
:107C000083E008959C016115710529F48091E800D5
:107C10008B778093E800F90126C08EB3882391F119
:107C2000853091F18091E80083FF02C081E00895E2
:107C30008091E80082FFF1CF06C08091F10081932E
:107C40006150704059F02091F3008091F200322F82
:107C500020E090E0822B932B892B79F78091E8002C
:107C60008B778093E80061157105B9F605C08EB376
:107C7000882341F0853041F08091E80080FFF7CF04
:107C800080E0089582E0089583E008950F931F93A4
:107C9000DF93CF9300D0CDB7DEB7E8EDF1E0809170
:107CA000F100819381E0E03EF807C9F734DD80916F
:107CB000E80083FFE4C08091D8019091D90195300C
:107CC00009F46DC0963040F4913081F1913070F03C
:107CD000933009F0D4C02AC0983009F4A3C0993079
:107CE00009F4B2C0963009F0CAC07CC0803809F4EB
:107CF000C6C0823809F0C3C08091DC0187708093D0
:107D0000E9008091EB001092E9002091E800277FC4
:107D10002093E80090E025E0969587952A95E1F775
:107D200081708093F1001092F10087C0882319F0D0
:107D3000823009F0A4C08F71823009F0A0C0809118
:107D4000DA01882331F52091DC01277009F497C00E
:107D50002093E9008091EB0080FF1BC0933021F459
:107D60008091EB00806213C08091EB008061809372
:107D7000EB0081E090E002C0880F991F2A95E2F79E
:107D80008093EA001092EA008091EB008860809373
:107D9000EB001092E9008091E800877F51C08823B2
:107DA00009F06DC01091DA011F770FB7F894809138
:107DB000E800877F8093E8009CDD8091E80080FFE9
:107DC000FCCF8091E3008078812B8093E300806872
:107DD0008093E300112311F482E001C083E08EBBA5
:107DE0000FBF4DC08058823008F049C08091DA0141
:107DF0009091DB016091DC01AE014F5F5F4F38DD98
:107E0000BC01009709F43BC08091E800877F809314
:107E1000E80089819A8192DE8091E8008B778093D7
:107E2000E8002DC0803859F58091E800877F809365
:107E3000E8008091D6018093F1008091E8008E7770
:107E40008093E80056DD1BC08823C9F49091DA01C5
:107E50009230A8F48091E800877F8093E8009093A7
:107E6000D60147DD8091D601882331F48091E3006B
:107E700087FD02C081E001C084E08EBB7CDC809184
:107E8000E80083FF0AC08091EB0080628093EB00E2
:107E90008091E800877F8093E8000F900F90CF914A
:107EA000DF911F910F91089508951F938EB388233A
:107EB00061F01091E9001092E9008091E80083FFE1
:107EC00001C0E4DE17701093E9001F910895F9993D
:107ED000FECF92BD81BDF89A992780B50895262FCF
:107EE000F999FECF1FBA92BD81BD20BD0FB6F8949F
:0E7EF000FA9AF99A0FBE01960895F894FFCF02
:107EFE004341544552494E41007777000800000037
:107F0E00000000080112011001020000089A230C63
:107F1E000001000201000109023E00020100803250
:107F2E0009040000010202010005240010010424CE
:107F3E0002040524060001070582030800FF090458
:107F4E000100020A000000070504021000010705E7
:107F5E00830210000104030904220341006400613E
:107F6E00006600720075006900740020004600650E
:107F7E00006100740068006500720020003300325A
:107F8E0000750034000000180341006400610066B3
:107F9E00007200750069007400200049006E0064D4
:107FAE000075007300740072006900650073002094
:0A7FBE00004C004C004300000000DE
:040000030000700089
:00000001FF