:100000000C946F010C940F100C9436100C945D102E
:100010000C9484100C9497010C9497010C94AB10E1
:100020000C9497010C9497010C947C180C94031772
:100030000C9497010C9497010C9497010C949701E0
:100040000C9497010C9497010C9497010C949701D0
:100050000C9497010C9497010C9497010C94D21076
:100060000C9497010C9497010C9497010C949701B0
:100070000C9497010C9497010C9497010C949701A0
:100080000C9497010C9497010C9497010C94970190
:100090000C94050C0C9497010C9497010C94970107
:1000A0000C9497010C9497010C9497012D12301227
:1000B0001F122312291251125112511234123812E6
:1000C0003C124212461251124C120706050401005E
:1000D000080A0B0C0D090000000200090F000003C4
:1000E0000401000C000000000000000000000000FF
:1000F0000000000000040802011040804010204071
:10010000804080080204018040201002011080100D
:1001100020404020040404040403040502020202F7
:100120000403020202020606060606060404020290
:10013000020404000000002300260029002C002FE8
:100140000000000000250028002B002E00310000D8
:10015000000000240027002A002D003000120100BA
:1001600002EF0201409A230C8000010102030112F8
:10017000010002000000409A230C800001010203EC
:1001800001416461667275697400466561746865F1
:100190007220333275340004030904080B00020294
:1001A0000201000904000001020200000524001001
:1001B00001052401010104240206052406000107AB
:1001C00005810310004009040100020A0000000735
:1001D0000502024000000705830240000000407A4B
:1001E00010F35A00A0724E18090010A5D4E80000C0
:1001F000E87648170000E40B54020000CA9A3B005E
:100200000000E1F505000080969800000040420FD4
:10021000000000A08601000000102700000000E898
:1002200003000000006400000000000A000000005D
:10023000000100000000002C76D888DC674F0823FE
:10024000DFC1DFAE59E1B1B796E5E3E453C63AE664
:1002500051997696E8E6C28426EB898C9B62ED4044
:100260007C6FFCEFBC9C9F40F2BAA56FA5F4900593
:100270005A2AF75C936B6CF9676DC11BFCE0E40DC7
:1002800047FEF520E6B500D0ED902E0300943577BB
:10029000050080841E080000204E0A000000C80CE3
:1002A000333333330F986E12831141EF8D2114894C
:1002B0003BE65516CFFEE6DB18D1844B381BF77CA6
:1002C0001D901DA4BBE424203284725E228100C9EB
:1002D000F124ECA1E53D2700BF03230B561B11249D
:1002E0001FBECFEFDAE0DEBFCDBF12E0A0E0B1E08D
:1002F000E8E3F6E402C005900D92AA35B107D9F7FC
:1003000024E0AAE5B2E001C01D92A830B207E1F7EF
:1003100012E0CEEDD2E004C02297FE010E94511EF1
:10032000C83DD107C9F70E94EB120C941A230C9414
:10033000000080E00E94C11221E0892B09F420E036
:100340002093A90281E00E94C11221E0892B09F4C7
:1003500020E02093A8028091A702882321F08091B9
:10036000A602811109C08091A702811112C080915B
:10037000A602811163C00DC08091A902811104C041
:100380008091A802811150C08091A902882319F19F
:100390001DC08091A702811105C08091A60288230B
:1003A00009F459C08091A7028823A9F08091A60280
:1003B000811111C08091A902882321F08091A802A7
:1003C00081116EC08091A902811105C08091A8029F
:1003D000882309F46FC08091A2029091A302049730
:1003E00034F08091A4029091A50201960CC08091F6
:1003F000A2029091A3028D3F9F4F6CF48091A402C2
:100400009091A50201979093A5028093A402109267
:10041000A3021092A2028091A9028093A702809168
:10042000A8028093A60208958091A2029091A3024F
:1004300001969093A3028093A202A6CF8091A90275
:10044000811104C08091A8028823B1F08091A90293
:10045000882309F20CC08091A902882321F08091A1
:10046000A802882399F08091A9028111B4CF8091CC
:10047000A80281111FC0AFCF8091A2029091A30268
:1004800001969093A3028093A202E0CF8091A202F2
:100490009091A30201969093A3028093A202E3CFCE
:1004A0008091A2029091A30201969093A30280935F
:1004B000A20288CF8091A2029091A302019790930B
:1004C000A3028093A20287CF80E00E94C11221E0A4
:1004D000892B09F420E02093A90281E00E94C11237
:1004E00021E0892B09F420E02093A8028091A70243
:1004F000882321F08091A602811109C08091A70272
:10050000811112C08091A602811163C00DC080913B
:10051000A902811104C08091A802811150C080916C
:10052000A902882319F11DC08091A702811105C07D
:100530008091A602882309F459C08091A7028823DC
:10054000A9F08091A602811111C08091A90288238F
:1005500021F08091A80281116EC08091A9028111C1
:1005600005C08091A802882309F46FC08091A2027F
:100570009091A302049734F08091A4029091A50277
:1005800001960CC08091A2029091A3028D3F9F4FD3
:100590006CF48091A4029091A50201979093A5021A
:1005A0008093A4021092A3021092A2028091A90249
:1005B0008093A7028091A8028093A602089580915B
:1005C000A2029091A30201969093A3028093A202AB
:1005D000A6CF8091A902811104C08091A80288232E
:1005E000B1F08091A902882309F20CC08091A90280
:1005F000882321F08091A802882399F08091A90294
:100600008111B4CF8091A80281111FC0AFCF80911A
:10061000A2029091A30201969093A3028093A2025A
:10062000E0CF8091A2029091A30201969093A30241
:100630008093A202E3CF8091A2029091A30201963F
:100640009093A3028093A20288CF8091A2029091FE
:10065000A30201979093A3028093A20287CF0F93E6
:100660001F930E94C1129093BA028093B902209105
:1006700036013091370182179307A1F0892B91F44D
:100680000E941C116093AD027093AE028093AF0282
:100690009093B0028091B9029091BA029093370181
:1006A000809336010E941C110091AD021091AE02A0
:1006B0002091AF023091B002601B710B820B930B43
:1006C00000912E0110912F012091300130913101C4
:1006D000061717072807390758F48091B902909137
:1006E000BA0220913601309137018217930711F435
:1006F00080E00FC090933701809336010E941C1157
:100700006093AD027093AE028093AF029093B002FB
:1007100081E01F910F9108958BE10E94E411BC01CB
:10072000882777FD8095982F0E94121D9B01AC01B0
:100730000E940F1C23E333E343E550E40E94C61DEF
:1007400020E030E040E85AE30E94C61D089540E0F2
:1007500067E08BEB92E00E948D0866E571E08BEB21
:1007600092E00E944A1341E067E08BEB92E00E9426
:100770008D0866E571E08BEB92E00C944A13CF9202
:10078000EF920F9385E0C82E96E0E92E0AE02BE069
:100790004CE06DE08BEB92E00E9445090E941C1139
:1007A0006093B5027093B6028093B7029093B8023B
:1007B0000E941C116093B1027093B2028093B30245
:1007C0009093B40240E050E060E070E08EE792E089
:1007D0000E945F0D41E050E061E070E08AE592E048
:1007E0000F91EF90CF900C945F0DFF920F931F939A
:1007F000CF93DF93CDB7DEB72C970FB6F894DEBF5B
:100800000FBECDBFF42E122F21E0AB01BC01CE01F3
:1008100007960E94EF19402F612F8BEB92E00E9408
:100820008D08FF2029F062E08BEB92E00E949F0987
:100830008B859C850597B0F023E030E040E050E0E8
:10084000BE01695F7F4FCE0101960E941F1ABE0153
:100850006F5F7F4FCE0107960E94CB19CE010196A4
:100860000E9411198B859C85049731F06EE571E02B
:100870008BEB92E00E944A13BE01695F7F4F8BEBC6
:1008800092E00E943C13FF2061F065E0610F402F71
:100890008BEB92E00E948D0863E08BEB92E00E946C
:1008A0009F09CE0107960E9411192C960FB6F89455
:1008B000DEBF0FBECDBFDF91CF911F910F91FF9093
:1008C00008950F931F930E941C110091B50210917F
:1008D000B6022091B7023091B802601B710B820BF7
:1008E000930B00913201109133012091340130912A
:1008F0003501061717072807390708F04BC08EE7A0
:1009000092E00E948C0E00E010E020E030E040E039
:100910000E94F50360E671E08BEB92E00E944A13BF
:100920008EE792E00E948C0EAB01BC018AE592E05A
:100930000E94EB0E01E010E020E030E040E00E9479
:10094000F50360E671E08BEB92E00E944A1340E011
:1009500066E08BEB92E00E948D0860E08BEB92E00A
:100960000E949F0941E066E08BEB92E00E948D08B7
:1009700060E08BEB92E00E949F090E941C11609343
:10098000B5027093B6028093B7029093B80281E0EB
:100990008093AA021F910F9108950F931F93809146
:1009A000AA02882309F45BC08091AB029091AC024B
:1009B000892B09F052C08EE792E00E947A0E40E047
:1009C00067E0811107C08BEB92E00E948D0866E51D
:1009D00071E016C08BEB92E00E948D0862E08BEB19
:1009E00092E00E949F098EE792E00E942B0E00E0A9
:1009F00010E028E030E040E00E94F50362E671E09C
:100A00008BEB92E00E944A138AE592E00E947A0EF4
:100A100041E067E0811107C08BEB92E00E948D08F6
:100A200066E571E016C08BEB92E00E948D0862E0F3
:100A30008BEB92E00E949F098AE592E00E942B0EC8
:100A400001E010E028E030E040E00E94F50362E6BB
:100A500071E08BEB92E00E944A131092AA021F9160
:100A60000F910895CF92DF92EF92FF920F931F9311
:100A7000CF93DF938BEB92E00E94860866E671E0ED
:100A80008BEB92E00E944A1368EE73E080E090E006
:100A90000E944B118BEB92E00E94860866E771E0A2
:100AA0008BEB92E00E944A1381ED90E09093A502B7
:100AB0008093A402C8EED3E085E190E00E942F036A
:100AC000811136C08091A4029091A502893E934085
:100AD0002CF0D093A502C093A4020AC08091A40276
:100AE0009091A50297FF04C01092A5021092A40253
:100AF0006091A4027091A502882777FD8095982FB8
:100B00000E94121D20E030E040E251E40E94771C78
:100B10006B017C0101E010E020E030E041E00E9448
:100B2000F50367E871E08BEB92E00E944A13C4CFB3
:100B30008BEB92E00E94860840E067E08BEB92E04E
:100B40000E948D0860E08BEB92E00E949F0960E9B3
:100B500071E08BEB92E00E944A1341E067E08BEB7F
:100B600092E00E948D0860E08BEB92E00E949F096A
:100B700069E971E08BEB92E00E944A138EE792E004
:100B80000E942B0E20E030E0A9010E94731C181671
:100B90006CF040E060E08BEB92E00E948D086BE52A
:100BA00071E08BEB92E00E944A130BC08EE792E05B
:100BB0000E942B0E00E010E020E030E040E00E94B8
:100BC000F50363E671E08BEB92E00E944A1385E146
:100BD00090E00E942F03882389F28EE792E00E9422
:100BE000610E882309F448C020E030E048EC52E46C
:100BF000C701B6010E94771C6B017C01AB01BC01EF
:100C00008EE792E00E94890F8823B1F18EE792E08F
:100C10000E942B0EA70196010E94771CAB01BC011C
:100C20008EE792E00E94420F8BEB92E00E948608D2
:100C30006AE671E08BEB92E00E944A1341E060E0CB
:100C40008BEB92E00E948D0861EA71E08BEB92E001
:100C50000E944A136CED75E080E090E00E944B1119
:100C60008BEB92E0DF91CF911F910F91FF90EF906E
:100C7000DF90CF900C9486088BEB92E00E94860860
:100C800067EA71E08BEB92E00E944A1341E060E07A
:100C90008BEB92E00E948D0867EB71E08BEB92E0AA
:100CA0000E944A1368EB7BE080E090E00E944B11C9
:100CB0000E943205B9CF8BEB92E00E94860840E09B
:100CC00064E08BEB92E00E948D086CEB71E08BEBA3
:100CD00092E00E944A1341E060E08BEB92E00E94B8
:100CE0008D0865EC71E08BEB92E00E944A1366ED93
:100CF00076E080E090E00E944B118BEB92E00E9446
:100D000086080C94320562E085E10E94521262E08E
:100D100080E00E94521262E081E00E94521241E0A3
:100D200050E069E971E082E00E94BF0F41E050E0CD
:100D300064E672E083E00E94BF0F20E042E060E1E1
:100D40008BEB92E00E94A70846E251E060E08BEB5B
:100D500092E00E9465094EE151E061E08BEB92E088
:100D60000E94650946E151E062E08BEB92E00E944F
:100D700065094EE051E063E08BEB92E00E9465096B
:100D800046E051E064E08BEB92E00E94650940E0B0
:100D900060E08BEB92E00E948D0866ED71E08BEBDA
:100DA00092E00E944A1341E060E08BEB92E00E94E7
:100DB0008D080E948C03AB01BC0122E030E08BEB7C
:100DC00092E00E94D71466EE71E08BEB92E00E94F5
:100DD0004A1341E06BE08BEB92E00E948D0868EED5
:100DE00071E08BEB92E00E944A136BEE71E08BEBAB
:100DF00092E00E944A1360ED77E080E090E00E946C
:100E00004B118BEB92E00E94860885E10E94C11293
:100E1000892B61F18EE792E00E94130E882351F036
:100E20008AE592E00E94130E882321F08BEB92E07A
:100E30000C9486088BEB92E00E9486086FEE71E0BE
:100E40008BEB92E00E944A1341E060E08BEB92E072
:100E50000E948D0866EF71E08BEB92E00E944A13CE
:100E600060ED77E080E090E00E944B110E945B060D
:100E7000DDCF0F931F93CF93DF930E941C116093DC
:100E8000B1027093B2028093B3029093B4021092B5
:100E9000A5021092A402C091A402D091A5020E94C2
:100EA000A70340E068E08BEB92E00E948D0862E0CF
:100EB00072E08BEB92E00E944A1341E06AE08BEB18
:100EC00092E00E948D086AE072E08BEB92E00E9453
:100ED0004A130E941C110091B1021091B20220919C
:100EE000B3023091B402601B710B820B930B683E0E
:100EF00073408105910538F48091A4029091A50278
:100F0000892B09F45FC00E94A7031092A5021092DA
:100F1000A4020E9461048091A4029091A50202970C
:100F200034F48091A4029091A50297FF04C010921E
:100F3000A5021092A4028091A4029091A5028C17A0
:100F40009D0731F00E94A703C091A402D091A50291
:100F50008091A4029091A502009719F00197C9F021
:100F6000D8CF40E067E08BEB92E00E948D086FE005
:100F700072E08BEB92E00E944A1385E190E00E94C0
:100F80002F03882331F2DF91CF911F910F910C94A1
:100F90005B0640E067E08BEB92E00E948D0869E120
:100FA00072E08BEB92E00E944A1385E190E00E9490
:100FB0002F03882309F4ADCFDF91CF911F910F91BB
:100FC0000C94A7030E94610484CF0E9461040E94D4
:100FD000CD0485E190E00E942F0381110C94390724
:100FE0000895CF93DF93EC0160E08E810E948B1215
:100FF00081E090E00E94851161E08E810E948B1259
:1010000081E090E00E94851160E08E810E948B1249
:1010100084E690E0DF91CF910C948511EF92FF92DE
:101020000F931F93CF93DF938C01C0E0D0E0E62EA7
:10103000F12CB7010C2E02C0759567950A94E2F762
:101040006170F801EC0FFD1F87810E948B122196C1
:10105000C430D10571F7C801DF91CF911F910F9175
:10106000FF90EF900C94F107EF92FF920F931F9374
:10107000CF93DF938C01C0E0D0E0E62EF12CB701D6
:101080000C2E02C0759567950A94E2F76170F8011D
:10109000EC0FFD1F87810E948B122196C830D1056D
:1010A00071F7C801DF91CF911F910F91FF90EF90E1
:1010B0000C94F1071F93CF93DF93EC01162F642F4D
:1010C0008C810E948B128D818F3F19F060E00E940D
:1010D0008B128F85612F84FF06C0CE01DF91CF91E7
:1010E0001F910C94340870E084E0759567958A959B
:1010F000E1F7CE010E940E08612FCE01DF91CF9162
:101100001F910C940E0840E00C945A0861E00E9474
:10111000830880ED97E00C948511443008F043E09B
:10112000FC012389421710F04FEF420FFC01E40F3E
:10113000F11D2489260F2068622F0C948308FC017E
:101140006089262F2460208B6C600C9483080F9399
:101150001F93CF93DF93EC01423018F08F858860A6
:101160008F874B8B1C8A80E48D8B6E8B70E0605C6C
:101170007F4F6F8B222329F0413019F48F858460D3
:101180008F8761E08C810E9452128D818F3F19F010
:1011900061E00E94521261E08E810E94521200E0D2
:1011A00010E08F8584FF03C088E090E002C084E0F7
:1011B00090E00817190754F4FE01E00FF11F61E0F9
:1011C00087810E9452120F5F1F4FEBCF80E593EC97
:1011D0000E94851160E08C810E948B1260E08E81FC
:1011E0000E948B128D818F3F19F060E00E948B125C
:1011F0006F8564FD1DC063E0CE010E940E0884E986
:1012000091E10E94851163E0CE010E940E0884E9FD
:1012100091E10E94851163E0CE010E940E0886E9EB
:1012200090E00E94851162E0CE010E940E0816C077
:101230006062CE010E94830884E991E10E948511D9
:101240006F856062CE010E94830886E990E00E946B
:1012500085116F856062CE010E9483086F85606290
:10126000CE010E94830884E0888BCE010E949F08F3
:10127000CE010E94860882E0898B66E0CE01DF9174
:10128000CF911F910F910C948308CF92EF920F93FF
:10129000FC011382128284E292E091838083648352
:1012A0008FEF8583468327830087E186C286138676
:1012B000148615861686178620E041E060E1CF018E
:1012C0000F91EF90CF900C94A708CF92DF92EF92FE
:1012D000FF920F931F93CF93DF9300D0CDB7DEB76C
:1012E0008C01677088E0689FB00111246064C801B8
:1012F00049835A830E9483084981C42E5A81D52E7E
:10130000E12CF12CD6016D916D01D801ED91FC918C
:101310000190F081E02DC8010995BFEFEB1AFB0A9F
:10132000E8E0EE16F10471F70F900F90DF91CF9186
:101330001F910F91FF90EF90DF90CF90089541E0C3
:101340000E945A0881E090E00895FC011482138203
:10135000608388E081831282089583ED92E00C948B
:10136000E90AFC017483638308951F93CF93DF938D
:1013700000D0CDB7DEB7162F682F83ED92E04A83F9
:1013800059830E94030B612F83ED92E00E94AA0A09
:101390005981652F83ED92E00E94AA0A4A81642F49
:1013A00083ED92E00E94AA0A83ED92E00F900F90E5
:1013B000DF91CF911F910C94200B1F93CF93DF935C
:1013C000182F682F83ED92E00E94030B60E083EDFD
:1013D00092E00E94AA0A83ED92E00E94200B42E074
:1013E000612F83ED92E00E94000B83ED92E00E945A
:1013F0005A0A182F83ED92E00E945A0AD12F20E05A
:10140000C22F9E01282BC901DF91CF911F91089512
:10141000CF93DF93EC014B815C814368516861E0BD
:1014200088810E94B509698170E080E090E00E94A7
:101430004B1188810E94DD092A81022E02C09695F7
:1014400087950A94E2F7222329F0811528E0920774
:1014500008F0906FDF91CF910895CF93DF93EC0167
:101460004B815C814368516B61E088810E94B509C2
:10147000698170E080E090E00E944B1188810E94B9
:10148000DD092A81022E02C0969587950A94E2F71B
:10149000222329F0811528E0920708F0906FDF9150
:1014A000CF9108958091030390E020910403821B63
:1014B000910908952091040380910303281750F4A3
:1014C000E22FF0E0EB5FFC4F808190E02F5F2093F4
:1014D000040308958FEF9FEF0895E0910403809136
:1014E0000303E81730F4F0E0EB5FFC4F808190E0FD
:1014F00008958FEF9FEF08950895CF92DF92EF92B6
:10150000FF920F931F93CF93DF937C01CB018A014E
:101510002091DF02222389F0EB016B01C40ED51E5E
:10152000CC15DD0569F06991D701ED91FC91019031
:10153000F081E02DC7010995F3CF642F0E94DC0BE9
:10154000C801DF91CF911F910F91FF90EF90DF9035
:10155000CF900895CF93DF931F92CDB7DEB7698305
:101560002091DF022223D1F02091E002203240F0CE
:1015700021E030E0FC013383228380E090E015C05D
:101580008091E102E82FF0E0EE51FD4F99819083C8
:101590008F5F8093E1028093E00205C061E0CE019D
:1015A00001960E94DC0B81E090E00F90DF91CF91DB
:1015B0000895FC011382128248EE53E060E070E06F
:1015C00044835583668377838CE292E091838083A2
:1015D000089510920403109203031092E1021092F6
:1015E000E0020C94270B862F413208F040E265E0C0
:1015F00073E00E94450B1092040380930303089547
:1016000021E00C94F30A81E08093DF0260930203EF
:101610001092E1021092E00208950F93062F21E04C
:101620004091E00262EE72E0809102030E94890B19
:101630001092E1021092E0021092DF020F910895E1
:1016400061E00C940D0B83ED92E00C94D90A10929A
:10165000920381E08093900310928F0361E082E017
:101660000E948B1261E083E00E948B12E9EBF0E0B4
:1016700080818E7F808380818D7F808380E28093D4
:10168000B80085E48093BC000895413208F03FC063
:10169000909192039111FCCF91E09093920320934B
:1016A00090032FEF2093250310926A03240F2093B9
:1016B00069039093910390919103880F892B8093F4
:1016C000910380918F03813041F410928F038091B8
:1016D00091038093BB0085EC01C085EE8093BC0034
:1016E000809192038130E1F380916A03841710F4B2
:1016F00040916A032BE633E0FB01D9018A2F821B5C
:10170000841718F48D918193F9CF842F089580E088
:1017100008950F93413208F046C0909192039111C1
:10172000FCCF92E090939203009390039FEF9093ED
:10173000250310926A0340936903FB016BE673E093
:10174000DB019A2F961B941718F491919D93F9CF72
:101750001092910390919103880F892B80939103AC
:1017600080918F03813041F410928F038091910317
:101770008093BB0085EC01C085EE8093BC002223E2
:1017800021F0809192038230E1F3809125038F3F15
:1017900061F080912503803251F0809125038033E0
:1017A00041F483E007C081E005C080E003C082E02F
:1017B00001C084E00F910895613298F42091920362
:1017C000243089F460934703FC0189E493E0DC0151
:1017D0002A2F281B261718F421912D93F9CF80E08A
:1017E000089581E0089582E0089585ED8093BC001E
:1017F0008091BC0084FDFCCF10929203089585EC8B
:101800008093BC001092920308951F920F920FB61E
:101810000F9211242F933F934F935F936F937F9376
:101820008F939F93AF93BF93EF93FF938091B900F2
:10183000887F803609F49CC068F5883209F45BC063
:1018400090F4803109F454C038F4882309F4F5C0C9
:10185000883009F44DC0F5C0883109F44CC080329D
:1018600009F45DC0EEC0803409F468C048F48033E8
:1018700009F455C0883309F0E4C080932503A8C05B
:10188000803509F44FC0883509F45DC0883409F00B
:10189000D8C0D5C0883909F4C6C0A8F4883709F47F
:1018A00067C038F4883609F463C0803709F460C033
:1018B000C8C0883809F4B7C0803909F45FC08038DF
:1018C00009F0BFC05BC0803B09F485C038F4803AA2
:1018D00009F466C0883A09F47EC0B3C0803C09F4BC
:1018E000A6C0883C09F4A3C0883B09F489C0A9C0FC
:1018F0008091910310C090916A03809169039817B9
:1019000070F5E0916A0381E08E0F80936A03F0E046
:10191000E559FC4F80818093BB0085EC85C08093A6
:1019200025038DC0E0916A0381E08E0F80936A03E6
:101930008091BB00F0E0E559FC4F808390916A03F1
:10194000809169036DC0E0916A0381E08E0F8093FE
:101950006A038091BB00F0E0E559FC4F80838091E1
:10196000900381116CC081E080938F0384EA60C092
:1019700083E08093920310922603CFCF80912603B9
:10198000803208F050C0E091260381E08E0F8093F2
:1019900026038091BB00F0E0E95DFC4F8083BDCF62
:1019A00080912603803230F4E0912603F0E0E95D77
:1019B000FC4F10820E94F50B6091260370E0E091CD
:1019C0008B03F0918C0387E293E009951092260334
:1019D0000E94FF0B36C084E080939203109248036C
:1019E00010924703E0918D03F0918E030995809149
:1019F0004703811105C081E080934703109249039A
:101A0000E091480381E08E0F80934803F0E0E75BAC
:101A1000FC4F80818093BB009091480380914703E5
:101A2000981708F47ACF85E88093BC000AC085EC4B
:101A30008093BC001092920304C0109225030E9470
:101A4000F50BFF91EF91BF91AF919F918F917F9196
:101A50006F915F914F913F912F910F900FBE0F901B
:101A60001F901895CF92DF92EF92FF920F931F93E2
:101A7000CF93DF9300D0CDB7DEB76C018B017C0133
:101A800084E0E80EF11CC60169837A830E94772006
:101A9000F80181938F01FFEFCF1ADF0A69817A8104
:101AA000CE14DF0481F7CB010F900F90DF91CF911F
:101AB0001F910F91FF90EF90DF90CF900895CF92FC
:101AC000DF92EF92FF920F931F93CF93DF93EC017E
:101AD0006B018A0181ED90E09F878E878FE090E017
:101AE000998B888B1A8A1B8A1C8A1D8A1E8A1F8AD8
:101AF000188E198E1A8E7E018FE1E80EF11C68E4B3
:101B0000C7010E94A509D982C8821D830C83C70121
:101B10000E94AD090115110511F101301105D9F52A
:101B20004DEC5CEC6CEC7DE34E835F8368877987DA
:101B300040E050E06FE274E44A875B876C877D8702
:101B400080E096E09B838A8340E050E060E874E4A4
:101B50004B8F5C8F6D8F7E8F81E08A8B1CC049E23A
:101B60005CE568E172E44E835F83688779874AE9C0
:101B700059E967E772E44A875B876C877D8780E075
:101B80009AE09B838A8340E050E060E873E44B8FE7
:101B90005C8F6D8F7E8FDF91CF911F910F91FF90A2
:101BA000EF90DF90CF900895CF92DF92EF92FF9267
:101BB000CF93DF93EC01888199812A89211128C074
:101BC000BE016D5E7F4F23E0880F991F2A95E1F7D4
:101BD0000E94320D81E08A8BCB88DC88ED88FE88FC
:101BE0002E813F8148855985C701B6010E94731C2B
:101BF00087FD0AC02A853B854C855D85C701B601F6
:101C00000E94C21D181624F41B8A1C8A1D8A1E8A73
:101C10006B897C898D899E89DF91CF91FF90EF90B0
:101C2000DF90CF900895CF93DF93EC010E94D40D05
:101C300020E030E0A9010E94C21D181644F081E0A6
:101C40002C813D812130310519F080E001C081E017
:101C5000DF91CF9108950F931F93CF93DF93EC0102
:101C60008C01015E1F4F6A817B81C8010E94B1090E
:101C700088819981009721F4C8010E94080A05C053
:101C80000197B9F4C8010E942D0ABC01882777FD8D
:101C90008095982F0E94121D2B8D3C8D4D8D5E8D51
:101CA0000E94C61D20E03EEF4FEF56E40E94771CD5
:101CB00003C060E070E0CB01DF91CF911F910F91E5
:101CC0000895CF93DF93EC010E942B0E2AE037EDAD
:101CD00043E25CE30E94C21D181644F081E02C81AF
:101CE0003D812130310519F080E001C081E0DF91B4
:101CF000CF910895CF93DF93EC010E94130E8823B8
:101D000039F0CE010E94610E882311F081E001C0FC
:101D100080E0DF91CF9108958F929F92AF92BF9212
:101D2000CF92DF92EF92FF92CF93DF93EC018C8101
:101D30009D81009749F4CE010E947A0E81112CC03A
:101D400060E070E0CB013CC00197D1F7CE010E946A
:101D50002B0E6B017C012BE032E842EF5DE30E9429
:101D6000C61D2FE233E84EE75EE30E940F1C4B01D5
:101D70005C01A7019601C701B6010E94C61D22E4BD
:101D800032E248E458E30E94C61D9B01AC01C50144
:101D9000B4010E940F1C14C0CE010E942B0E6B01D7
:101DA0007C01CE010E94D40D9B01AC01C701B6019C
:101DB0000E94771C20E030E048EC52E40E94C61DEF
:101DC000DF91CF91FF90EF90DF90CF90BF90AF90D9
:101DD0009F908F9008958F929F92AF92BF92CF92D3
:101DE000DF92EF92FF924A015B01FC012481358171
:101DF00021303105D9F50E942B0E6B017C0120E0CA
:101E000030E048EA51E4C501B4010E940E1C21E50E
:101E100039EE48EC5EE30E94C61D9B01AC01C70190
:101E2000B6010E940E1C6B017C0121EE31E94DEEE2
:101E30005DE30E94C61D2AEB3EE14CE25DE30E9499
:101E40000F1C4B015C01A7019601C701B6010E945E
:101E5000C61D21ED3DEA47E658E30E94C61D9B01E1
:101E6000AC01C501B4010E940F1C03C060E070E02A
:101E7000CB01FF90EF90DF90CF90BF90AF909F90FD
:101E80008F900895AF92BF92CF92DF92EF92FF9220
:101E90000F931F93CF93DF9300D000D01F92CDB745
:101EA000DEB76C0149835A836B837C83FC0100811C
:101EB000118143E0000F111F4A95E1F7CE01019611
:101EC0007C015E0195E0A90EB11CF70161917F01D3
:101ED000C8016D830E9477206D81681719F0C801D1
:101EE0000E947F200F5F1F4FEA14FB0471F7F60179
:101EF000128A0F900F900F900F900F90DF91CF915B
:101F00001F910F91FF90EF90DF90CF90BF90AF9017
:101F10000895CF92DF92EF92FF92CF93DF93EC017F
:101F20006A017B018C819D81019711F481E01FC0C2
:101F3000CE010E942B0EA70196010E94771C2E81D4
:101F40003F81488559850E94C21D18167CF4CE0138
:101F50000E942B0EA70196010E94771C2A853B85C3
:101F60004C855D850E94731C87FDE0CF80E0DF918A
:101F7000CF91FF90EF90DF90CF9008950895853036
:101F800008F04CC0E82FF0E0EE0FFF1FE85CFE4FBA
:101F9000718360838230E1F018F4813069F004C00D
:101FA000833019F1843071F1809169008C7F842B2A
:101FB00080936900E89A089580916900440F551F45
:101FC000440F551F837F842B80936900E99A0895FD
:101FD0008091690034E0440F551F3A95E1F78F7CFA
:101FE000842B80936900EA9A08958091690026E025
:101FF000440F551F2A95E1F78F73842B8093690056
:10200000EB9A089580916A0094E0440F551F9A95C9
:10201000E1F78F7C842B80936A00EE9A08951F92DB
:102020000F920FB60F9211242F933F934F935F930C
:102030006F937F938F939F93AF93BF93EF93FF9390
:10204000E0913801F09139010995FF91EF91BF912D
:10205000AF919F918F917F916F915F914F913F9140
:102060002F910F900FBE0F901F9018951F920F92F7
:102070000FB60F9211242F933F934F935F936F935B
:102080007F938F939F93AF93BF93EF93FF93E091D1
:102090003A01F0913B010995FF91EF91BF91AF910A
:1020A0009F918F917F916F915F914F913F912F9170
:1020B0000F900FBE0F901F9018951F920F920FB6A2
:1020C0000F9211242F933F934F935F936F937F93BE
:1020D0008F939F93AF93BF93EF93FF93E0913C0156
:1020E000F0913D010995FF91EF91BF91AF919F91C3
:1020F0008F917F916F915F914F913F912F910F90B1
:102100000FBE0F901F9018951F920F920FB60F924F
:1021100011242F933F934F935F936F937F938F93EC
:102120009F93AF93BF93EF93FF93E0913E01F091A4
:102130003F010995FF91EF91BF91AF919F918F91D1
:102140007F916F915F914F913F912F910F900FBEB3
:102150000F901F9018951F920F920FB60F92112497
:102160002F933F934F935F936F937F938F939F939F
:10217000AF93BF93EF93FF93E0914001F091410142
:102180000995FF91EF91BF91AF919F918F917F91B1
:102190006F915F914F913F912F910F900FBE0F90D4
:1021A0001F9018951F920F920FB60F9211242F9324
:1021B0003F938F939F93AF93BF938091940390919C
:1021C0009503A0919603B09197033091930326E075
:1021D000230F2D3720F40296A11DB11D05C029E85B
:1021E000230F0396A11DB11D2093930380939403A5
:1021F00090939503A0939603B093970380919803CF
:1022000090919903A0919A03B0919B030196A11D0F
:10221000B11D8093980390939903A0939A03B09370
:102220009B03BF91AF919F918F913F912F910F9001
:102230000FBE0F901F9018952FB7F89460919403DC
:102240007091950380919603909197032FBF089505
:102250003FB7F8948091980390919903A0919A03C5
:10226000B0919B0326B5A89B05C02F3F19F001969E
:10227000A11DB11D3FBF6627782F892F9A2F620FAE
:10228000711D811D911D43E0660F771F881F991FE7
:102290004A95D1F708958F929F92AF92BF92CF92B5
:1022A000DF92EF92FF926B017C010E9428114B019B
:1022B0005C01C114D104E104F104F1F00E94641A3C
:1022C0000E942811681979098A099B09683E7340A0
:1022D0008105910570F321E0C21AD108E108F108E7
:1022E00088EE880E83E0981EA11CB11CC114D10495
:1022F000E104F10429F7DDCFFF90EF90DF90CF905C
:10230000BF90AF909F908F9008958330910528F0F3
:10231000880F991F04970197F1F70895789484B571
:10232000826084BD84B5816084BD85B5826085BDD1
:1023300085B5816085BDEEE6F0E0808181608083B7
:10234000E1E8F0E01082808182608083808181609A
:102350008083E0E8F0E0808181608083E1E9F0E063
:10236000808182608083808181608083E0E9F0E009
:10237000808181608083E1ECF0E0808184608083F3
:10238000808182608083808181608083E3ECF0E0E3
:10239000808181608083E0ECF0E0808182608083D6
:1023A000E2ECF0E0808181608083EAE7F0E0808108
:1023B0008460808380818260808380818E7F80833F
:1023C0008081806880830895823108F08251E82FEF
:1023D000F0E0E653FF4FE49180917B00E3FB22277E
:1023E00020F930E095E0220F331F9A95E1F78F7DB9
:1023F000822B80937B00E7708091420120E4829FD2
:10240000C0011124E82BE0937C0080917A00806465
:1024100080937A0080917A0086FDFCCF80917800CD
:102420002091790090E0922B089590E0FC01319783
:10243000EF30F105B0F5EA5AFF4F0C944F1E809132
:1024400080008F7703C0809180008F7D8093800013
:10245000089580918000877FF9CF84B58F7702C07F
:1024600084B58F7D84BD0895809190008F7707C0DB
:10247000809190008F7D03C080919000877F809332
:10248000900008958091C0008F7703C08091C000B4
:102490008F7D8093C00008958091C200877F8093D4
:1024A000C2000895CF93DF9390E0FC01EB50FF4F03
:1024B0002491FC01EC5EFE4F8491882349F190E069
:1024C000880F991FFC01E15BFE4FA591B4918F5BD2
:1024D0009E4FFC01C591D4919FB7611108C0F8943B
:1024E0008C91209582238C93888182230AC062304C
:1024F00051F4F8948C91322F309583238C938881FA
:10250000822B888304C0F8948C91822B8C939FBF7C
:10251000DF91CF9108950F931F93CF93DF931F9275
:10252000CDB7DEB7282F30E0F901EA52FF4F849192
:10253000F901EB50FF4F1491F901EC5EFE4F04914D
:102540000023C9F0882321F069830E941512698154
:10255000E02FF0E0EE0FFF1FEF5BFE4FA591B4916F
:102560009FB7F8948C91611103C01095812301C02D
:10257000812B8C939FBF0F90DF91CF911F910F9173
:102580000895CF93DF93282F30E0F901EA52FF4FEF
:102590008491F901EB50FF4FD491F901EC5EFE4FAD
:1025A000C491CC2391F081110E941512EC2FF0E020
:1025B000EE0FFF1FED5CFE4FA591B4912C912D23E2
:1025C00081E090E021F480E002C080E090E0DF91C3
:1025D000CF91089508950E948E110E94EA128CE90D
:1025E00093E00E94F6180E948306C0E0D0E00E94AB
:1025F000E5072097E1F30E940000F9CFCF92DF9228
:10260000EF92FF920F931F93CF93DF937C016A01A8
:10261000EB0100E010E00C151D0571F06991D70188
:10262000ED91FC910190F081E02DC7010995892B76
:1026300019F00F5F1F4FEFCFC801DF91CF911F91AE
:102640000F91FF90EF90DF90CF9008956115710585
:1026500081F0DB010D900020E9F7AD0141505109F7
:10266000461B570BDC01ED91FC910280F381E02DBC
:10267000099480E090E00895DC01ED91FC91DB018C
:1026800014964D915C9115976D917C910280F38128
:10269000E02D09940C942613DC01ED91FC9101903E
:1026A000F081E02D09948F929F92AF92BF92DF92BA
:1026B000EF92FF920F931F93CF93DF93CDB7DEB7C7
:1026C000A1970FB6F894DEBF0FBECDBF7C01F42FEB
:1026D000D52ECB0119A2223008F42AE08E010F5D1D
:1026E0001F4F822E912CA12CB12C6F2F7D2DA50177
:1026F00094010E942D1EF22FD32ECA010150110900
:102700006A3014F4E0E301C0E7E3E60FD801EC938C
:10271000232B242B252B49F7B801C7010E94261330
:10272000A1960FB6F894DEBF0FBECDBFDF91CF915B
:102730001F910F91FF90EF90DF90BF90AF909F900F
:102740008F900895CF92DF92EF92FF920F931F9395
:10275000CF93DF93EC016A017B012115310579F4F8
:10276000E881F9810190F081E02D642FDF91CF9114
:102770001F910F91FF90EF90DF90CF9009942A3036
:102780003105E9F477FF1AC06DE20E944C138C0109
:1027900044275527BA014C195D096E097F092AE0C3
:1027A000CE010E945313800F911FDF91CF911F9193
:1027B0000F91FF90EF90DF90CF9008952AE0B7013E
:1027C000A601CE01DF91CF911F910F91FF90EF9065
:1027D000DF90CF900C9453134F925F926F927F9241
:1027E0008F929F92AF92BF92CF92DF92EF92FF9221
:1027F0000F931F93CF93DF93EC016A017B01B22EFD
:102800009A01AB01C701B6010E94291E882319F065
:102810006BE372E027C026013701E89477F82FEFC9
:102820003FEF4FE75FE7C301B2010E94291E81110C
:102830000DC02FEF3FEF4FE75FE7C301B2010E94EA
:10284000731C18161CF46FE372E00CC02FEF3FEFFF
:102850004FE75FE4C701B6010E94C21D1816ACF431
:1028600063E472E0CE01DF91CF911F910F91FF9051
:10287000EF90DF90CF90BF90AF909F908F907F9020
:102880006F905F904F900C9426132FEF3FEF4FE720
:102890005FECC701B6010E94731C87FDE1CF20E009
:1028A00030E0A901C701B6010E94731C87FF0AC06E
:1028B0006DE2CE010E944C138C01F7FAF094F7F808
:1028C000F09402C000E010E0A12C60E070E080E035
:1028D0009FE3AB1441F020E030E040E251E40E947D
:1028E000771CA394F6CF9B01AC01C701B6010E94EF
:1028F0000F1C6B017C010E94E41C2B013C010E9417
:10290000101D9B01AC01C701B6010E940E1C6B019A
:102910007C012AE0B301A201CE010E945313080FEB
:10292000191FBB2039F067E472E0CE010E94261324
:10293000080F191F7B2C772041F120E030E040E2A6
:1029400051E4C701B6010E94C61D6B017C010E94C3
:10295000DF1C4B01AA2497FCA094BA2C2AE030E09B
:10296000B501A401CE010E94A213080F191FC501D1
:10297000B4010E94121D9B01AC01C701B6010E9467
:102980000E1C6B017C017A94D6CFC801DF91CF91E8
:102990001F910F91FF90EF90DF90CF90BF90AF907D
:1029A0009F908F907F906F905F904F9008950C94C0
:1029B000EC134091A0035091A10320919E0330910C
:1029C0009F0342175307B4F49091E8009570E1F328
:1029D0009091E80092FD19C08093F1008091A003CE
:1029E0009091A10301968F739927892B19F48EEF8B
:1029F0008093E8008091A0039091A10301969093A9
:102A0000A1038093A00381E0089580E00895CF9210
:102A1000DF92EF92FF920F931F93CF93DF931F925A
:102A2000CDB7DEB7082F162FF42E862F880F8E5FB6
:102A300099830E94D91483E00E94D914E02EC02EFD
:102A40009981D92E8C2D8E19811798F4F601F7FEF5
:102A500002C0849101C080810E94D914082F80E0B7
:102A60000E94D9148023FFEFCF1ADF0A8111EACF29
:102A700001C081E00F90DF91CF911F910F91FF90E6
:102A8000EF90DF90CF9008958091D7008160809380
:102A9000D70080EA8093D80089B58F7E89BD89B53B
:102AA000826089BD09B400FEFDCF61E070E080E086
:102AB00090E00E944B118091D8008F7C80618093C0
:102AC000D8008091E000807F8093E0000895CF934C
:102AD000DF931F92CDB7DEB71982CE0101960E9417
:102AE000C21A0E94FA1BBE016F5F7F4F0E94731BC8
:102AF00089810F90DF91CF9108952FB7FC0120833A
:102B0000F89467706093E9000895CF93DF931F9264
:102B1000CDB7DEB7682FCE0101960E947D1580915A
:102B2000F20099819FBF0F90DF91CF910895FF929E
:102B30000F931F93CF93DF9300D0CDB7DEB7F62E60
:102B40008A019091A403992311F057FF03C08FEFDE
:102B50009FEF2AC0682FCE0101967A830E947D15CF
:102B60008091F20090E0A8017A81801791070CF41F
:102B7000AC01EF2DF72FF40E84E6FE1631F08093B2
:102B8000A5039091F1009193F8CF4115510521F0E3
:102B90008091F200882321F089818FBFCA0104C08F
:102BA0008BE68093E800F8CF0F900F90DF91CF91E4
:102BB0001F910F91FF900895CF93DF931F92CDB790
:102BC000DEB741E050E0BE016F5F7F4F0E94971576
:102BD000019719F4898190E002C08FEF9FEF0F9069
:102BE000DF91CF910895CF93DF931F92CDB7DEB7DA
:102BF000682FCE0101960E947D159091E800892FE3
:102C0000807295FF04C09091F20080E4891B998145
:102C10009FBF0F90DF91CF9108956F927F928F9217
:102C20009F92AF92BF92CF92DF92EF92FF920F935B
:102C30001F93CF93DF931F92CDB7DEB7782E7B0122
:102C4000C42EB52E8091A403882369F0042F152F7C
:102C50008AEFD82E872D8072982E9AE3A92E872D81
:102C60008074882E11C08FEF9FEF56C0872D0E9471
:102C7000F315682E81110CC0DA94A9F361E070E0BD
:102C800080E090E00E944B110115110579F73BC0DF
:102C9000282F30E0021713070CF4602E672DCE01A9
:102CA00001960E947D158091E80085FF29C0262DA0
:102CB00030E0021B130B992039F06A948FEF6816ED
:102CC000B1F01092F100F9CFF701862D77FE07C021
:102CD000815058F094919093F1003196F9CF815042
:102CE00020F091919093F100FACFE20EF31E8091C3
:102CF000E80085FF0EC00115110511F4811009C00F
:102D000089818FBFC1CF84E68093A6038C2D9B2D34
:102D100003C0A092E800F4CF0F90DF91CF911F91F4
:102D20000F91FF90EF90DF90CF90BF90AF909F906A
:102D30008F907F906F9008951092E9001092A103F8
:102D40001092A00390939F0380939E030895CF92C7
:102D5000DF92FF920F931F93CF93DF9300D0CDB7F5
:102D6000DEB7F82E8A016B0101151105B1F0F601ED
:102D7000F7FE02C0849101C0808149835A830E947A
:102D8000D91401501109FFEFCF1ADF0A49815A8186
:102D90008111EACF8FEF9FEF01C0CA010F900F9012
:102DA000DF91CF911F910F91FF90DF90CF90089509
:102DB000CF93DF939B01A4E6BBEF21153105F9F01A
:102DC000A9012134310514F040E450E0E091E8001D
:102DD000E2FFFCCFFB01E21BF30BE80FF91FCE2F44
:102DE000C40FCE1729F0D091F100D0833196F9CFDE
:102DF000A093A503B093E800241B350BDECFCB01D5
:102E0000DF91CF9108951F920F920FB60F92112468
:102E1000DF92EF92FF920F931F932F933F934F9365
:102E20005F936F937F938F939F93AF93BF93EF9332
:102E3000FF93CF93DF93CDB7DEB76C97DEBFCDBFE7
:102E40001092E9008091E80083FF2EC1FE01759683
:102E50008F01AE01435E5F4F9F012F5F3F4F809117
:102E6000F10080832417350711F0F901F5CF84E6CE
:102E70008093A50382EF8093E8005D8957FF05C02A
:102E80008091E80080FFFCCF03C08EEF8093E800C4
:102E9000852F807609F0EFC04E898F89D88C41113B
:102EA0000CC0503829F48091A3038093F10002C034
:102EB0001092F1001092F100F0C0282F30E03D296F
:102EC000413051F45111E9C02130310509F0E5C01C
:102ED0008091A3038D7F0BC0433061F45111DDC09D
:102EE0002130310509F0D9C08091A303826080931D
:102EF000A303D3C0453041F49091E80090FFFCCF8C
:102F000080688093E300C9C0463009F08BC0EB8C29
:102F1000FC8C22E0D2122CC080E090E00E949C1633
:102F20000E94671599E08E010F5F1F4FF801292F4E
:102F300011922A95E9F79983DA8291E09E8390EACB
:102F400098879AEF99872091A0033091A103275F7A
:102F50003F4F3C832B838D83C7010E949C1649E021
:102F600050E0B80180E00E94A7160E94671595C046
:102F7000C7010E949C160E94FA1BB8010E949C1B6C
:102F8000009719F00CF089C08CC081E0D8120EC0F7
:102F90008B8D9C8D089719F481E080939D0380911F
:102FA0009D0381112FC06FE671E031C0E3E0DE12B6
:102FB00078C08F89882349F1823029F440E86CE099
:102FC0008AE891E01CC0813029F440E868E081E89B
:102FD00091E015C0833009F064C00E94FA1B8E0195
:102FE0000F5F1F4FB8010E94BB1BF801019000202A
:102FF000E9F73197E01BF10B40E06E2FC8010E940A
:10300000071549C06DE571E002C067E971E061151F
:10301000710509F446C0FB01449150E080E80E942C
:10302000A7163BC04730E9F1483021F481E0809396
:10303000F10033C0493089F5537099F5E4E4F1E0CB
:1030400081E021E036E39081992361F08093E900EB
:103050002093EB0091919093EC003093ED008F5F03
:10306000873089F78EE78093EA001092EA008F8913
:103070008093A40312C08B8D9C8D0E949C16898D19
:10308000811104C0C8010E94CD1A05C00E94FA1B1C
:10309000B8010E94DA1B882321F08EEF8093E800AC
:1030A00003C081E28093EB006C960FB6F894DEBF0C
:1030B0000FBECDBFDF91CF91FF91EF91BF91AF9147
:1030C0009F918F917F916F915F914F913F912F9140
:1030D0001F910F91FF90EF90DF900F900FBE0F9018
:1030E0001F9018958093E9008091F200882319F0D1
:1030F0008AE38093E80008951F920F920FB60F9213
:1031000011242F933F934F935F936F937F938F93EC
:103110009F93AF93BF93CF93EF93FF93C091E10041
:103120008091E100837F8093E1008093E100C3FF01
:103130000FC01092E90081E08093EB001092EC0048
:1031400082E38093ED001092A40388E08093F00066
:10315000C2FF15C083E00E9472188091A6038823E5
:1031600029F08091A60381508093A6038091A50346
:10317000882329F08091A50381508093A503C4FF83
:1031800010C08091E2008E7E81608093E200809189
:10319000E1008F7E8093E1008091A2038E7E8061AA
:1031A00011C0C0FF11C08091E2008E7E80618093CB
:1031B000E2008091E1008E7E8093E1008091A20385
:1031C0008E7E81608093A203FF91EF91CF91BF919A
:1031D000AF919F918F917F916F915F914F913F91AF
:1031E0002F910F900FBE0F901F9018951092A4036F
:1031F0001092A3031092A2030E9444158091E10053
:103200008E7E8093E1008DE08093E200EEEFFFE799
:10321000859194918B3F9C4D19F481E08093F70345
:103220000895FC01808191810C940E1FCF93DF9350
:10323000EC0188819981009711F00E940E1F19827C
:1032400018821D821C821B821A82DF91CF91089501
:103250000F931F93CF93DF93EC018B016F5F7F4F31
:10326000888199810E949D1F009731F099838883FE
:103270001B830A8381E001C080E0DF91CF911F9121
:103280000F910895CF93DF93EC0188819981892B69
:1032900029F08A819B818617970760F4CE010E94EE
:1032A0002819882341F08C819D81892B19F4E881AC
:1032B000F981108281E0DF91CF910895EF92FF9222
:1032C0000F931F93CF93DF93EC017B018A01BA0127
:1032D0000E944219811104C0CE010E94161907C034
:1032E0001D830C83B701888199810E947020CE01D3
:1032F000DF91CF911F910F91FF90EF900895FC0106
:103300001182108213821282158214826115710556
:1033100059F0FB0101900020E9F7AF01415051093C
:10332000461B570B0C945E1908950F931F93CF9370
:10333000DF938C01EB01FC0180819181009799F072
:10334000428153812C813D814217530750F068819F
:1033500079810E9470208C819D81F80195838483FE
:1033600013C00E940E1F88819981F8019183808388
:103370008A819B81938382838C819D8195838483C1
:10338000198218821B821A821D821C82DF91CF91C2
:103390001F910F910895CF93DF93EC018617970744
:1033A00011F00E949519CE01DF91CF910895CF932E
:1033B000DF93EC016115710561F0FB0101900020C4
:1033C000E9F7AF0141505109461B570B0E945E19A6
:1033D00002C00E941619CE01DF91CF910895EF929D
:1033E000FF920F931F93CF93DF93CDB7DEB7A197D3
:1033F0000FB6F894DEBF0FBECDBF7C01CB01BA0182
:10340000F70111821082138212821582148242E027
:10341000420F8E010F5F1F4F0E94551EBC01C70156
:103420000E94D719A1960FB6F894DEBF0FBECDBF8C
:10343000DF91CF911F910F91FF90EF900895BF9270
:10344000CF92DF92EF92FF920F931F93CF93DF9370
:103450006C017B01EA0189012417350720F48D2FC7
:10346000E901042F182F6AE372E0C6010E947F1958
:10347000D70114968D919C911597C817D907C8F458
:103480008017910708F48C01D701ED91FC911197F9
:10349000E00FF11FB08010826D917C916C0F7D1F49
:1034A000C6010E94D719D701ED91FC91E00FF11FE1
:1034B000B082C601DF91CF911F910F91FF90EF90E5
:1034C000DF90CF90BF9008950895CF93DF931F9220
:1034D000CDB7DEB76983DC01ED91FC910280F38109
:1034E000E02D41E050E0BE016F5F7F4F09950F90E6
:1034F000DF91CF910895CF93DF93EC018C859D856B
:1035000097FF05C082E00E94DC159D878C878C8523
:103510009D85DF91CF91089583E00C947218FC0192
:103520008485958597FD06C082E00E94851590E010
:103530000196089582E00E94851590E00895FC01AF
:103540008485958597FD05C02FEF3FEF358724874C
:10355000089582E00C94DC15CF93DF93EC01809109
:103560005501882331F083E00E940D1618161906C4
:1035700034F081E090E09B838A8380E090E0DF91EB
:10358000CF910895FC0120812E5F208342E450E01A
:103590006BE971E080E80C94A716FC012181808121
:1035A000813A59F4213209F04BC047E050E06EE413
:1035B00071E080E00E94A7165EC0813209F040C031
:1035C000233289F4838190E0982F88273281832BDE
:1035D000A0E0B0E080934A0190934B01A0934C018E
:1035E000B0934D010FC0203239F467E070E08EE4F3
:1035F00091E00E94D81609C0223221F48281809382
:10360000550103C02D7F2032B1F58091F703811160
:1036100003C0E0E0F8E002C0EEEFFAE080914E0176
:1036200090914F01A0915001B0915101803B944085
:10363000A105B10511F58091550180FF03C01DC0A2
:1036400080E00895EE3F2AE0F20731F08081918119
:103650009093FF0A8093FE0A87E797E79183808320
:103660002BE088E190E00FB6F894A8958093600075
:103670000FBE2093600081E0089588E10FB6F894B2
:1036800080936000109260000FBEA895EE3F8AE024
:10369000F80739F08091FE0A9091FF0A91838083A8
:1036A000EACF1092FF0A1092FE0AE5CF1092AA0309
:1036B0001092A90388EE93E0A0E0B0E08093AB0302
:1036C0009093AC03A093AD03B093AE038DE492E06E
:1036D0009093A8038093A7038FEF9FEF9093B40379
:1036E0008093B3030895EF92FF920F931F93CF93AC
:1036F000DF937B01FC01C281D38100E010E02097C1
:1037000081F0E881F9810280F381E02DB701CE01DB
:10371000099597FD08C0080F191F0884D985C02D89
:10372000EECFC80102C08FEF9FEFDF91CF911F91C5
:103730000F91FF90EF9008950F931F93CF93DF9316
:103740008B01FC01C281D381209771F0E881F9815E
:103750000480F581E02DB801CE010995009731F480
:103760000884D985C02DF0CF80E090E0DF91CF9123
:103770001F910F9108950F931F93CF93DF938B01A8
:10378000FC01C281D381209771F0E881F981068024
:10379000F781E02DB801CE010995080F111D0884AD
:1037A000D985C02DF0CFF8011082DF91CF911F9104
:1037B0000F9108950F931F93CF93DF938B01FC011B
:1037C000C281D381209771F0E881F9810190F08165
:1037D000E02DB801CE010995811106C00884D98574
:1037E000C02DF0CF80E001C081E0DF91CF911F912B
:1037F0000F9108958091FC0381110DC082E08093A8
:10380000F80384E08093F9031092FB031092FA030B
:1038100081E08093FC0388EF93E008955058BB2724
:10382000AA270ED075C166D130F06BD120F031F4EB
:103830009F3F11F41EF45BC10EF4E095E7FB51C10C
:10384000E92F77D180F3BA176207730784079507CA
:1038500018F071F49EF58FC10EF4E0950B2EBA2F7F
:10386000A02D0B01B90190010C01CA01A001112486
:10387000FF27591B99F0593F50F4503E68F11A1632
:10388000F040A22F232F342F4427585FF3CF4695C3
:1038900037952795A795F0405395C9F77EF41F16E5
:1038A000BA0B620B730B840BBAF09150A1F0FF0FAF
:1038B000BB1F661F771F881FC2F70EC0BA0F621F9B
:1038C000731F841F48F4879577956795B795F7958B
:1038D0009E3F08F0B3CF9395880F08F09927EE0F1D
:1038E000979587950895D9D008F481E008950CD074
:1038F0000FC107D140F0FED030F021F45F3F19F046
:10390000F0C0511139C1F3C014D198F39923C9F310
:103910005523B1F3951B550BBB27AA2762177307D5
:10392000840738F09F5F5F4F220F331F441FAA1F89
:10393000A9F333D00E2E3AF0E0E830D09150504049
:10394000E695001CCAF729D0FE2F27D0660F771FF7
:10395000881FBB1F261737074807AB07B0E809F0D9
:10396000BB0B802DBF01FF2793585F4F2AF09E3F6E
:10397000510568F0B6C000C15F3FECF3983EDCF340
:10398000869577956795B795F7959F5FC9F7880FE7
:10399000911D9695879597F90895E1E0660F771F39
:1039A000881FBB1F621773078407BA0720F0621BCA
:1039B000730B840BBA0BEE1F88F7E095089504D0C3
:1039C0006894B111D9C00895BCD088F09F5790F089
:1039D000B92F9927B751A0F0D1F0660F771F881F34
:1039E000991F1AF0BA95C9F712C0B13081F0C3D04F
:1039F000B1E00895C0C0672F782F8827B85F39F0ED
:103A0000B93FCCF3869577956795B395D9F73EF492
:103A100090958095709561957F4F8F4F9F4F08953A
:103A2000E89409C097FB3EF4909580957095619558
:103A30007F4F8F4F9F4F9923A9F0F92F96E9BB270E
:103A40009395F695879577956795B795F111F8CF8A
:103A5000FAF4BB0F11F460FF1BC06F5F7F4F8F4FF5
:103A60009F4F16C0882311F096E911C0772321F0EB
:103A70009EE8872F762F05C0662371F096E8862F83
:103A800070E060E02AF09A95660F771F881FDAF7DA
:103A9000880F9695879597F90895990F0008550F07
:103AA000AA0BE0E8FEEF16161706E807F907C0F0C4
:103AB00012161306E407F50798F0621B730B840BCC
:103AC000950B39F40A2661F0232B242B252B21F4A6
:103AD00008950A2609F4A140A6958FEF811D811D46
:103AE000089597F99F6780E870E060E008959FEF80
:103AF00080EC089500240A94161617061806090685
:103B0000089500240A941216130614060506089553
:103B1000092E0394000C11F4882352F0BB0F40F4DB
:103B2000BF2B11F460FF04C06F5F7F4F8F4F9F4F1B
:103B3000089557FD9058440F551F59F05F3F71F09D
:103B40004795880F97FB991F61F09F3F79F0879504
:103B50000895121613061406551FF2CF4695F1DF8D
:103B600008C0161617061806991FF1CF869571051D
:103B7000610508940895E894BB2766277727CB0151
:103B800097F908958ADF08F48FEF08950BD0C0CF1E
:103B9000B1DF28F0B6DF18F0952309F0A2CFA7CF48
:103BA0001124EACFC6DFA0F3959FD1F3950F50E023
:103BB000551F629FF001729FBB27F00DB11D639FDF
:103BC000AA27F00DB11DAA1F649F6627B00DA11D85
:103BD000661F829F2227B00DA11D621F739FB00D2B
:103BE000A11D621F839FA00D611D221F749F33279B
:103BF000A00D611D231F849F600D211D822F762F34
:103C00006A2F11249F5750408AF0E1F088234AF030
:103C1000EE0FFF1FBB1F661F771F881F915050407C
:103C2000A9F79E3F510570F05CCFA6CF5F3FECF344
:103C3000983EDCF3869577956795B795F795E79568
:103C40009F5FC1F7FE2B880F911D9695879597F979
:103C5000089523DF880B990B0895A1E21A2EAA1B61
:103C6000BB1BFD010DC0AA1FBB1FEE1FFF1FA2172C
:103C7000B307E407F50720F0A21BB30BE40BF50B29
:103C8000661F771F881F991F1A9469F760957095B2
:103C9000809590959B01AC01BD01CF010895EE0F79
:103CA000FF1F0590F491E02D0994EF920F931F935D
:103CB000CF93DF93E80147FF02C034E101C034E055
:103CC000E42FFF27E7FDF095F7FF03C0F195E1959D
:103CD000F109E32E022F2E2FAE010E948D20CE017E
:103CE000DF91CF911F910F91EF900895CF93DF93C4
:103CF0008230910510F482E090E0E0910604F091AA
:103D0000070420E030E0A0E0B0E0309739F14081D6
:103D1000518148175907B8F04817590771F4828143
:103D20009381109729F013969C938E9312972CC031
:103D3000909307048093060427C02115310531F0C4
:103D40004217530718F0A901DB0101C0EF019A01E6
:103D5000BD01DF010280F381E02DD7CF21153105B0
:103D6000F9F0281B390B2430310580F48A819B81BE
:103D70006115710521F0FB019383828304C0909348
:103D8000070480930604FE01329644C0FE01E20F50
:103D9000F31F8193919322503109398328833AC0CC
:103DA0002091040430910504232B41F42091020159
:103DB0003091030130930504209304042091000105
:103DC000309101012115310541F42DB73EB74091E5
:103DD000040150910501241B350BE0910404F0917E
:103DE0000504E217F307A0F42E1B3F0B2817390731
:103DF00078F0AC014E5F5F4F2417350748F04E0F47
:103E00005F1F50930504409304048193919302C073
:103E1000E0E0F0E0CF01DF91CF910895CF93DF9301
:103E2000009709F487C0FC01329713821282C09177
:103E30000604D0910704209781F420813181280F56
:103E4000391F80910404909105048217930779F536
:103E5000F0930504E09304046DC0DE0120E030E03F
:103E6000AE17BF0750F412964D915C9113979D01C8
:103E70004115510509F1DA01F3CFB383A2834081E3
:103E80005181840F951F8A179B0771F48D919C9126
:103E90001197840F951F02969183808312968D91BE
:103EA0009C911397938382832115310529F4F09314
:103EB0000704E09306043EC0D9011396FC93EE93E9
:103EC00012974D915D91A40FB51FEA17FB0779F486
:103ED00080819181840F951F0296D90111969C9340
:103EE0008E938281938113969C938E931297E0E038
:103EF000F0E08A819B81009719F0FE01EC01F9CF77
:103F0000CE01029628813981820F931F20910404EB
:103F1000309105042817390769F4309729F4109275
:103F200007041092060402C013821282D093050483
:103F3000C0930404DF91CF910895A0E0B0E0E3EADC
:103F4000FFE10C94E722EC01CB01209719F40E94C9
:103F5000761EB8C0FE01E60FF71F9E012250310900
:103F6000E217F30708F4ACC0D9010D911C91119729
:103F700006171707B8F00530110508F49FC0A8010F
:103F8000445051094617570708F498C002501109C8
:103F9000061B170B019311936D937C93CF010E9425
:103FA0000E1F8CC05B01A01AB10A4E01800E911E3B
:103FB000A0910604B0910704612C712C60E070E0C0
:103FC000109709F449C0A815B905C9F5ED90FC9002
:103FD0001197670142E0C40ED11CCA14DB0478F1CA
:103FE00047018A189B08640142E0C40ED11C129656
:103FF000BC9012971396AC91B5E0CB16D10440F06B
:10400000B282A38391828082D9018D939C9309C04F
:104010000E5F1F4F0E0D1F1DF90111830083EB2D45
:10402000FA2F6115710531F0DB011396FC93EE93C5
:10403000129744C0F0930704E09306043FC06D91CB
:104040007C9111976616770608F43B01BD01129624
:104050000D90BC91A02DB4CF609104047091050423
:1040600068157905E9F468167906D0F440910001E5
:10407000509101014115510541F44DB75EB7609172
:10408000040170910501461B570BE417F507C0F4B6
:10409000F0930504E0930404F901918380830EC03A
:1040A0000E94761E7C01009759F0A801BE010E9473
:1040B0006720CE010E940E1FC70104C0CE0102C0BE
:1040C00080E090E0CDB7DEB7EEE00C940323FB0177
:1040D000DC0102C001900D9241505040D8F7089584
:1040E000FB01DC0101900D920020E1F70895F999A0
:1040F000FECF92BD81BDF89A992780B50895262FED
:10410000F999FECF1FBA92BD81BD20BD0FB6F894BC
:10411000FA9AF99A0FBE019608956F927F929F9234
:10412000AF92BF92CF92DF92EF92FF920F931F93C5
:10413000CF93DF93CDB7DEB729970FB6F894DEBFE4
:104140000FBECDBF6A01B22E102F0C3320F4FF2416
:10415000F394F00E02C04CE3F42E0F2D27E0AE01D5
:104160004F5F5F4F0E940B227981272F29702130EA
:1041700031F0E1FC06C0E0FC06C060E005C06DE285
:1041800003C06BE201C060E2AE2DA07173FF36C0C8
:10419000662311F084E001C083E08B1510F4B81A97
:1041A00001C0B12CA1110BC0F6018B2D90E2882328
:1041B00019F091938150FBCFCB0CD11CB12C66230D
:1041C00031F0F601608396012F5F3F4F6901C60110
:1041D0000396E2FE05C02EE4F601208331E404C01C
:1041E0002EE6F601208331E631832283FC012B2D5C
:1041F00030E22223F1F131932150FBCF72FF40C016
:10420000662311F084E001C083E08B1510F4B81A26
:1042100001C0B12CA1110BC0F6018B2D90E28823B7
:1042200019F091938150FBCFCB0CD11CB12C66239C
:1042300031F0F601608396012F5F3F4F6901C6019F
:104240000396E2FE07C029E4F60120832EE42183D1
:1042500026E406C029E6F60120832EE6218326E621
:104260002283FC012B2D30E2222319F031932150BF
:10427000FBCFFC01EB0DF11D10828EEF9FEFB7C05D
:10428000B1E0611101C0B0E04B2F50E018161906E3
:1042900024F49C012F5F3F4F02C021E030E0240F47
:1042A000351F112329F0412F50E04F5F5F4F02C0AF
:1042B00040E050E0420F531F2B2D30E042175307D0
:1042C00014F4B41A01C0B12C2E2D287159F4F60142
:1042D0002B2D30E2222319F031932150FBCFCB0C50
:1042E000D11CB12CBB2331F0F601608396012F5F06
:1042F0003F4F6901A1110BC0F6012B2D30E32223A2
:1043000019F031932150FBCFCB0CD11CB12CF80EFE
:104310000A81372F3071A32E74FF03C0013309F4D3
:10432000FA941F142CF42F2D293018F028E001C026
:1043300021E0682F392F97FF02C060E030E0462F60
:10434000532F612C712C3EE2932EBC01621B71092C
:104350009B01DC01A41BB50BE1E0F0E0EC0FFD1FBD
:10436000AE0FBF1FE12EF12CF194E194F1084F3F05
:10437000FFEF5F0731F4F6019082B6016F5F7F4F68
:104380006B01841795074CF02417350734F4BD01F1
:10439000660D771DFB01118101C010E341505109E9
:1043A000FFEF6F1A7F0AB6016F5F7F4F4E155F05F3
:1043B00024F0F60110836B01DACF4817590739F45E
:1043C000063320F4053319F4A11001C011E3F601FE
:1043D0001083FB018B2D90E2882319F0919381507B
:1043E000FBCFFB01EB0DF11D108280E090E02996E0
:1043F0000FB6F894DEBF0FBECDBFDF91CF911F91F6
:104400000F91FF90EF90DF90CF90BF90AF909F9073
:104410007F906F900895283008F027E03327DA0165
:10442000990F311D87FD916000966105710539F482
:1044300032602E5F3D9330E32A95E1F708959F3F68
:1044400030F080387105610509F03C5F3C5F3D93B9
:10445000913008F08068911DDF93CF931F930F93E5
:10446000FF92EF92192F987F9695E92F9695969542
:10447000E90FFF27E95CFD4F99273327EE24FF243E
:10448000A701E70105900894079428F4360FE71E6A
:10449000F81E491F511D660F771F881F991F06942C
:1044A000A1F70590079428F4E70EF81E491F561F40
:1044B000C11D770F881F991F661F0694A1F70590ED
:1044C000079428F4F80E491F561FC71FD11D880FE7
:1044D000991F661F771F0694A1F70590079420F493
:1044E000490F561FC71FD81F990F661F771F881FB8
:1044F0000694A9F784911095177041F0D695C79549
:1045000057954795F794E7941A95C1F7EDEDF1E0CB
:1045100068941590159135916591959105907FE27C
:104520007395E118F10A430B560BC90BD009C0F77C
:10453000E10CF11E431F561FC91FD01D7EF47033BE
:1045400011F48A95E6CFE894015030F0080F0AF490
:104550000027021708F4202F2395022F7A3328F022
:1045600079E37D932A95E9F710C07D932A9589F622
:10457000069497956795379517951794E118F10A62
:10458000430B560BC90BD00998F023957E91739578
:104590007A3308F070E37C932013B8F77E91706152
:1045A0007D9330F0839571E37D9370E32A95E1F775
:1045B0001124EF90FF900F911F91CF91DF919927D8
:1045C00087FD909508952F923F924F925F926F9240
:1045D0007F928F929F92AF92BF92CF92DF92EF9293
:1045E000FF920F931F93CF93DF93CDB7DEB7CA1B14
:1045F000DB0B0FB6F894DEBF0FBECDBF09942A883F
:10460000398848885F846E847D848C849B84AA84E6
:10461000B984C884DF80EE80FD800C811B81AA8173
:10462000B981CE0FD11D0FB6F894DEBF0FBECDBF3E
:08463000ED010895F894FFCF9D
:1046380000000804800003011E1714141C00000267
:10464800060E0602000000080C0E0C08000004000C
:104658000400040004000A040A040A040A003200E0
:104668000000900100000100BE0FBE0FBE0FBE0F7C
:10467800BE0F0100C18081000000FFFFFFFF00E1C5
:104688000000000000002020202020202020200002
:104698002500206D5600204F322043616C696272FC
:1046A8006174696F6E0043616C6962726174696FED
:1046B8006E20464F323A0025204F787967656E00A4
:1046C800436C69636B20746F00636F6E6669726D0B
:1046D800005361766564004261642043616C6962DD
:1046E800726174696F6E004461746100456E74652F
:1046F80072696E670043616C6962726174696F6E9A
:10470800204D6F6465005472696D697820416E614F
:104718006C797A6572007600762000302E31005070
:104728006C6561736500526563616C69627261747E
:1047380065004F7074696F6E73004D656E75004348
:10474800616C696272617465004578697400300053
:10475800000000009F09FE1200000000AA0A7D0A5E
:10476800520A5A0A6D0A7C0A0D0A006E616E0069C7
:104778006E66006F7666002E0000000000651AACB9
:0A4788001A8F1A9F1A7B1A8C1A0070
:00000001FF
